{
  "_format": "hh-sol-artifact-1",
  "contractName": "evento",
  "sourceName": "contracts/evento.sol",
  "abi": [
    {
      "inputs": [],
      "name": "ReentrancyGuardReentrantCall",
      "type": "error"
    },
    {
      "anonymous": false,
      "inputs": [
        {
          "indexed": false,
          "internalType": "address",
          "name": "apostador",
          "type": "address"
        },
        {
          "indexed": false,
          "internalType": "uint256",
          "name": "apostaIndex",
          "type": "uint256"
        },
        {
          "indexed": false,
          "internalType": "string",
          "name": "tipoResultado",
          "type": "string"
        },
        {
          "indexed": false,
          "internalType": "uint256",
          "name": "valorAposta",
          "type": "uint256"
        }
      ],
      "name": "ApostaRealizada",
      "type": "event"
    },
    {
      "anonymous": false,
      "inputs": [
        {
          "indexed": false,
          "internalType": "address",
          "name": "criador",
          "type": "address"
        },
        {
          "indexed": false,
          "internalType": "uint256",
          "name": "apostaIndex",
          "type": "uint256"
        },
        {
          "indexed": false,
          "internalType": "string",
          "name": "descricao",
          "type": "string"
        }
      ],
      "name": "NovaApostaCriada",
      "type": "event"
    },
    {
      "anonymous": false,
      "inputs": [
        {
          "indexed": false,
          "internalType": "uint256",
          "name": "apostaIndex",
          "type": "uint256"
        },
        {
          "indexed": false,
          "internalType": "string",
          "name": "resultado",
          "type": "string"
        },
        {
          "indexed": false,
          "internalType": "address[]",
          "name": "vencedores",
          "type": "address[]"
        },
        {
          "indexed": false,
          "internalType": "string",
          "name": "descricao",
          "type": "string"
        }
      ],
      "name": "Resultado",
      "type": "event"
    },
    {
      "inputs": [
        {
          "internalType": "uint256",
          "name": "apostaIndex",
          "type": "uint256"
        },
        {
          "internalType": "string",
          "name": "tipoResultado",
          "type": "string"
        },
        {
          "internalType": "uint256",
          "name": "valorAposta",
          "type": "uint256"
        }
      ],
      "name": "apostar",
      "outputs": [],
      "stateMutability": "nonpayable",
      "type": "function"
    },
    {
      "inputs": [
        {
          "internalType": "address",
          "name": "",
          "type": "address"
        },
        {
          "internalType": "uint256",
          "name": "",
          "type": "uint256"
        }
      ],
      "name": "bets",
      "outputs": [
        {
          "internalType": "uint256",
          "name": "",
          "type": "uint256"
        }
      ],
      "stateMutability": "view",
      "type": "function"
    },
    {
      "inputs": [
        {
          "internalType": "address",
          "name": "",
          "type": "address"
        }
      ],
      "name": "carteiras",
      "outputs": [
        {
          "internalType": "uint256",
          "name": "",
          "type": "uint256"
        }
      ],
      "stateMutability": "view",
      "type": "function"
    },
    {
      "inputs": [
        {
          "internalType": "string",
          "name": "descricao",
          "type": "string"
        },
        {
          "internalType": "uint256",
          "name": "unlockTime",
          "type": "uint256"
        }
      ],
      "name": "criarNovaAposta",
      "outputs": [],
      "stateMutability": "nonpayable",
      "type": "function"
    },
    {
      "inputs": [],
      "name": "depositar",
      "outputs": [],
      "stateMutability": "payable",
      "type": "function"
    },
    {
      "inputs": [],
      "name": "getApostasAbertas",
      "outputs": [
        {
          "components": [
            {
              "internalType": "uint256",
              "name": "id",
              "type": "uint256"
            },
            {
              "internalType": "string",
              "name": "descricao",
              "type": "string"
            },
            {
              "internalType": "address",
              "name": "dono",
              "type": "address"
            },
            {
              "internalType": "uint256",
              "name": "unlockTime",
              "type": "uint256"
            },
            {
              "internalType": "uint256",
              "name": "totalApostadoGeral",
              "type": "uint256"
            },
            {
              "internalType": "uint256",
              "name": "oddsCara",
              "type": "uint256"
            },
            {
              "internalType": "uint256",
              "name": "oddsCoroa",
              "type": "uint256"
            }
          ],
          "internalType": "struct evento.ApostaSimplificada[]",
          "name": "",
          "type": "tuple[]"
        }
      ],
      "stateMutability": "view",
      "type": "function"
    },
    {
      "inputs": [],
      "name": "getMinhasApostas",
      "outputs": [
        {
          "components": [
            {
              "internalType": "uint256",
              "name": "id",
              "type": "uint256"
            },
            {
              "internalType": "string",
              "name": "descricao",
              "type": "string"
            },
            {
              "internalType": "address",
              "name": "dono",
              "type": "address"
            },
            {
              "internalType": "uint256",
              "name": "unlockTime",
              "type": "uint256"
            },
            {
              "internalType": "uint256",
              "name": "totalApostadoGeral",
              "type": "uint256"
            },
            {
              "internalType": "uint256",
              "name": "oddsCara",
              "type": "uint256"
            },
            {
              "internalType": "uint256",
              "name": "oddsCoroa",
              "type": "uint256"
            }
          ],
          "internalType": "struct evento.ApostaSimplificada[]",
          "name": "",
          "type": "tuple[]"
        }
      ],
      "stateMutability": "view",
      "type": "function"
    },
    {
      "inputs": [
        {
          "internalType": "uint256",
          "name": "",
          "type": "uint256"
        }
      ],
      "name": "listaDeApostas",
      "outputs": [
        {
          "internalType": "string",
          "name": "descricao",
          "type": "string"
        },
        {
          "internalType": "address",
          "name": "dono",
          "type": "address"
        },
        {
          "internalType": "uint256",
          "name": "unlockTime",
          "type": "uint256"
        },
        {
          "internalType": "uint256",
          "name": "totalApostadoGeral",
          "type": "uint256"
        },
        {
          "internalType": "bool",
          "name": "apostaFechada",
          "type": "bool"
        },
        {
          "internalType": "uint256",
          "name": "id",
          "type": "uint256"
        }
      ],
      "stateMutability": "view",
      "type": "function"
    },
    {
      "inputs": [
        {
          "internalType": "uint256",
          "name": "apostaIndex",
          "type": "uint256"
        },
        {
          "internalType": "uint256",
          "name": "customTimestamp",
          "type": "uint256"
        }
      ],
      "name": "resultado",
      "outputs": [],
      "stateMutability": "nonpayable",
      "type": "function"
    },
    {
      "inputs": [
        {
          "internalType": "uint256",
          "name": "valor",
          "type": "uint256"
        }
      ],
      "name": "sacar",
      "outputs": [],
      "stateMutability": "nonpayable",
      "type": "function"
    }
  ],
  "bytecode": "0x6080604052348015600f57600080fd5b506001600081905550612ce4806100276000396000f3fe6080604052600436106100915760003560e01c8063c98c92c811610059578063c98c92c81461015a578063ce81103114610197578063e48d6cb7146101c0578063ec28f08e146101e9578063fd05dcab1461021457610091565b80633d922f90146100965780634a39ec90146100a05780637371b0d6146100dd57806386dbe60114610106578063a98898551461012f575b600080fd5b61009e610256565b005b3480156100ac57600080fd5b506100c760048036038101906100c2919061191b565b6102f1565b6040516100d4919061196a565b60405180910390f35b3480156100e957600080fd5b5061010460048036038101906100ff9190611985565b610322565b005b34801561011257600080fd5b5061012d600480360381019061012891906119b2565b610454565b005b34801561013b57600080fd5b50610144610595565b6040516101519190611bfe565b60405180910390f35b34801561016657600080fd5b50610181600480360381019061017c9190611c20565b6108eb565b60405161018e919061196a565b60405180910390f35b3480156101a357600080fd5b506101be60048036038101906101b99190611d82565b610903565b005b3480156101cc57600080fd5b506101e760048036038101906101e29190611dde565b610a02565b005b3480156101f557600080fd5b506101fe610edd565b60405161020b9190611bfe565b60405180910390f35b34801561022057600080fd5b5061023b60048036038101906102369190611985565b611276565b60405161024d96959493929190611ec1565b60405180910390f35b60003411610299576040517f08c379a000000000000000000000000000000000000000000000000000000000815260040161029090611f9b565b60405180910390fd5b34600260003373ffffffffffffffffffffffffffffffffffffffff1673ffffffffffffffffffffffffffffffffffffffff16815260200190815260200160002060008282546102e89190611fea565b92505081905550565b6004602052816000526040600020818154811061030d57600080fd5b90600052602060002001600091509150505481565b61032a611377565b80600260003373ffffffffffffffffffffffffffffffffffffffff1673ffffffffffffffffffffffffffffffffffffffff1681526020019081526020016000205410156103ac576040517f08c379a00000000000000000000000000000000000000000000000000000000081526004016103a39061206a565b60405180910390fd5b80600260003373ffffffffffffffffffffffffffffffffffffffff1673ffffffffffffffffffffffffffffffffffffffff16815260200190815260200160002060008282546103fb919061208a565b925050819055503373ffffffffffffffffffffffffffffffffffffffff166108fc829081150290604051600060405180830381858888f19350505050158015610448573d6000803e3d6000fd5b506104516113bd565b50565b600380549050821061049b576040517f08c379a00000000000000000000000000000000000000000000000000000000081526004016104929061210a565b60405180910390fd5b6000600383815481106104b1576104b061212a565b5b906000526020600020906009020190508060070160009054906101000a900460ff1615610513576040517f08c379a000000000000000000000000000000000000000000000000000000000815260040161050a906121a5565b60405180910390fd5b806002015442101561055a576040517f08c379a000000000000000000000000000000000000000000000000000000000815260040161055190612237565b60405180910390fd5b6000610565846113c7565b9050610572848383611507565b60018260070160006101000a81548160ff02191690831515021790555050505050565b60606000600460003373ffffffffffffffffffffffffffffffffffffffff1673ffffffffffffffffffffffffffffffffffffffff16815260200190815260200160002080548060200260200160405190810160405280929190818152602001828054801561062257602002820191906000526020600020905b81548152602001906001019080831161060e575b5050505050905060008151905060008167ffffffffffffffff81111561064b5761064a611c57565b5b60405190808252806020026020018201604052801561068457816020015b610671611820565b8152602001906001900390816106695790505b50905060005b828110156108e15760008482815181106106a7576106a661212a565b5b602002602001015190506000600382815481106106c7576106c661212a565b5b90600052602060002090600902019050600080826004016040516106ea906122ae565b90815260200160405180910390205411610705576000610740565b81600401604051610715906122ae565b9081526020016040518091039020546064836006015461073591906122c3565b61073f9190612334565b5b905060008083600401604051610755906123b1565b908152602001604051809103902054116107705760006107ab565b82600401604051610780906123b1565b908152602001604051809103902054606484600601546107a091906122c3565b6107aa9190612334565b5b90506040518060e00160405280846008015481526020018460000180546107d1906123f5565b80601f01602080910402602001604051908101604052809291908181526020018280546107fd906123f5565b801561084a5780601f1061081f5761010080835404028352916020019161084a565b820191906000526020600020905b81548152906001019060200180831161082d57829003601f168201915b505050505081526020018460010160009054906101000a900473ffffffffffffffffffffffffffffffffffffffff1673ffffffffffffffffffffffffffffffffffffffff1681526020018460020154815260200184600601548152602001838152602001828152508686815181106108c5576108c461212a565b5b602002602001018190525050505050808060010191505061068a565b5080935050505090565b60026020528060005260406000206000915090505481565b6000600360018160018154018082558091505003906000526020600020906009020190508281600001908161093891906125d2565b50338160010160006101000a81548173ffffffffffffffffffffffffffffffffffffffff021916908373ffffffffffffffffffffffffffffffffffffffff16021790555081816002018190555060008160070160006101000a81548160ff021916908315150217905550600060016003805490506109b6919061208a565b90508082600801819055507f721558d898b4db81678d021fc33e971d00c4cbcf012d91dd9c82706a7863774c3382866040516109f4939291906126a4565b60405180910390a150505050565b826001600082815260200190815260200160002060009054906101000a900460ff1615610a64576040517f08c379a0000000000000000000000000000000000000000000000000000000008152600401610a5b90612754565b60405180910390fd5b600180600083815260200190815260200160002060006101000a81548160ff0219169083151502179055506003805490508410610ad6576040517f08c379a0000000000000000000000000000000000000000000000000000000008152600401610acd9061210a565b60405180910390fd5b600060038581548110610aec57610aeb61212a565b5b906000526020600020906009020190508060070160009054906101000a900460ff1615610b4e576040517f08c379a0000000000000000000000000000000000000000000000000000000008152600401610b45906121a5565b60405180910390fd5b60008311610b91576040517f08c379a0000000000000000000000000000000000000000000000000000000008152600401610b88906127e6565b60405180910390fd5b60008160030160003373ffffffffffffffffffffffffffffffffffffffff1673ffffffffffffffffffffffffffffffffffffffff1681526020019081526020016000206000018054610be2906123f5565b905014610c24576040517f08c379a0000000000000000000000000000000000000000000000000000000008152600401610c1b90612852565b60405180910390fd5b82600260003373ffffffffffffffffffffffffffffffffffffffff1673ffffffffffffffffffffffffffffffffffffffff168152602001908152602001600020541015610ca6576040517f08c379a0000000000000000000000000000000000000000000000000000000008152600401610c9d906128be565b60405180910390fd5b82600260003373ffffffffffffffffffffffffffffffffffffffff1673ffffffffffffffffffffffffffffffffffffffff1681526020019081526020016000206000828254610cf5919061208a565b92505081905550600460003373ffffffffffffffffffffffffffffffffffffffff1673ffffffffffffffffffffffffffffffffffffffff16815260200190815260200160002085908060018154018082558091505060019003906000526020600020016000909190919091505560006040518060400160405280868152602001858152509050808260030160003373ffffffffffffffffffffffffffffffffffffffff1673ffffffffffffffffffffffffffffffffffffffff1681526020019081526020016000206000820151816000019081610dd291906125d2565b50602082015181600101559050508160050185604051610df2919061290f565b9081526020016040518091039020339080600181540180825580915050600190039060005260206000200160009091909190916101000a81548173ffffffffffffffffffffffffffffffffffffffff021916908373ffffffffffffffffffffffffffffffffffffffff160217905550610e6c8286866117c9565b7f951072d4e7517022566506a84e0a5231f06e86a099c6510ee1a1d5d34e71c46033878787604051610ea19493929190612926565b60405180910390a1505060006001600083815260200190815260200160002060006101000a81548160ff02191690831515021790555050505050565b6060600060038054905067ffffffffffffffff811115610f0057610eff611c57565b5b604051908082528060200260200182016040528015610f3957816020015b610f26611820565b815260200190600190039081610f1e5790505b5090506000805b6003805490508110156111c25760038181548110610f6157610f6061212a565b5b906000526020600020906009020160070160009054906101000a900460ff166111b557600060038281548110610f9a57610f9961212a565b5b9060005260206000209060090201905060008082600401604051610fbd906122ae565b90815260200160405180910390205411610fd8576000611013565b81600401604051610fe8906122ae565b9081526020016040518091039020546064836006015461100891906122c3565b6110129190612334565b5b905060008083600401604051611028906123b1565b9081526020016040518091039020541161104357600061107e565b82600401604051611053906123b1565b9081526020016040518091039020546064846006015461107391906122c3565b61107d9190612334565b5b90506040518060e00160405280846008015481526020018460000180546110a4906123f5565b80601f01602080910402602001604051908101604052809291908181526020018280546110d0906123f5565b801561111d5780601f106110f25761010080835404028352916020019161111d565b820191906000526020600020905b81548152906001019060200180831161110057829003601f168201915b505050505081526020018460010160009054906101000a900473ffffffffffffffffffffffffffffffffffffffff1673ffffffffffffffffffffffffffffffffffffffff1681526020018460020154815260200184600601548152602001838152602001828152508686815181106111985761119761212a565b5b602002602001018190525084806111ae90612972565b9550505050505b8080600101915050610f40565b5060008167ffffffffffffffff8111156111df576111de611c57565b5b60405190808252806020026020018201604052801561121857816020015b611205611820565b8152602001906001900390816111fd5790505b50905060005b8281101561126c578381815181106112395761123861212a565b5b60200260200101518282815181106112545761125361212a565b5b6020026020010181905250808060010191505061121e565b5080935050505090565b6003818154811061128657600080fd5b90600052602060002090600902016000915090508060000180546112a9906123f5565b80601f01602080910402602001604051908101604052809291908181526020018280546112d5906123f5565b80156113225780601f106112f757610100808354040283529160200191611322565b820191906000526020600020905b81548152906001019060200180831161130557829003601f168201915b5050505050908060010160009054906101000a900473ffffffffffffffffffffffffffffffffffffffff16908060020154908060060154908060070160009054906101000a900460ff16908060080154905086565b6002600054036113b3576040517f3ee5aeb500000000000000000000000000000000000000000000000000000000815260040160405180910390fd5b6002600081905550565b6001600081905550565b60606000600383815481106113df576113de61212a565b5b906000526020600020906009020190508060070160009054906101000a900460ff1615611441576040517f08c379a000000000000000000000000000000000000000000000000000000000815260040161143890612a06565b60405180910390fd5b6000600242448660405160200161145a93929190612a47565b6040516020818303038152906040528051906020012060001c61147d9190612a84565b905060008082146114c3576040518060400160405280600581526020017f636f726f610000000000000000000000000000000000000000000000000000008152506114fa565b6040518060400160405280600481526020017f63617261000000000000000000000000000000000000000000000000000000008152505b9050809350505050919050565b6000826005018260405161151b919061290f565b90815260200160405180910390208054806020026020016040519081016040528092919081815260200182805480156115a957602002820191906000526020600020905b8160009054906101000a900473ffffffffffffffffffffffffffffffffffffffff1673ffffffffffffffffffffffffffffffffffffffff168152602001906001019080831161155f575b505050505090506000805b8251811015611636578460030160008483815181106115d6576115d561212a565b5b602002602001015173ffffffffffffffffffffffffffffffffffffffff1673ffffffffffffffffffffffffffffffffffffffff16815260200190815260200160002060010154826116279190611fea565b915080806001019150506115b4565b506000811161167a576040517f08c379a000000000000000000000000000000000000000000000000000000000815260040161167190612b01565b60405180910390fd5b60005b82518110156117815760008286600601548760030160008786815181106116a7576116a661212a565b5b602002602001015173ffffffffffffffffffffffffffffffffffffffff1673ffffffffffffffffffffffffffffffffffffffff168152602001908152602001600020600101546116f791906122c3565b6117019190612334565b9050806002600086858151811061171b5761171a61212a565b5b602002602001015173ffffffffffffffffffffffffffffffffffffffff1673ffffffffffffffffffffffffffffffffffffffff168152602001908152602001600020600082825461176c9190611fea565b9250508190555050808060010191505061167d565b507fc0b7edc89a5e21c358803037a88cd4371e21b36a6d71e1712e2ebfe150caaae9858484876000016040516117ba9493929190612c54565b60405180910390a15050505050565b8083600401836040516117dc919061290f565b908152602001604051809103902060008282546117f99190611fea565b92505081905550808360060160008282546118149190611fea565b92505081905550505050565b6040518060e001604052806000815260200160608152602001600073ffffffffffffffffffffffffffffffffffffffff168152602001600081526020016000815260200160008152602001600081525090565b6000604051905090565b600080fd5b600080fd5b600073ffffffffffffffffffffffffffffffffffffffff82169050919050565b60006118b282611887565b9050919050565b6118c2816118a7565b81146118cd57600080fd5b50565b6000813590506118df816118b9565b92915050565b6000819050919050565b6118f8816118e5565b811461190357600080fd5b50565b600081359050611915816118ef565b92915050565b600080604083850312156119325761193161187d565b5b6000611940858286016118d0565b925050602061195185828601611906565b9150509250929050565b611964816118e5565b82525050565b600060208201905061197f600083018461195b565b92915050565b60006020828403121561199b5761199a61187d565b5b60006119a984828501611906565b91505092915050565b600080604083850312156119c9576119c861187d565b5b60006119d785828601611906565b92505060206119e885828601611906565b9150509250929050565b600081519050919050565b600082825260208201905092915050565b6000819050602082019050919050565b611a27816118e5565b82525050565b600081519050919050565b600082825260208201905092915050565b60005b83811015611a67578082015181840152602081019050611a4c565b60008484015250505050565b6000601f19601f8301169050919050565b6000611a8f82611a2d565b611a998185611a38565b9350611aa9818560208601611a49565b611ab281611a73565b840191505092915050565b611ac6816118a7565b82525050565b600060e083016000830151611ae46000860182611a1e565b5060208301518482036020860152611afc8282611a84565b9150506040830151611b116040860182611abd565b506060830151611b246060860182611a1e565b506080830151611b376080860182611a1e565b5060a0830151611b4a60a0860182611a1e565b5060c0830151611b5d60c0860182611a1e565b508091505092915050565b6000611b748383611acc565b905092915050565b6000602082019050919050565b6000611b94826119f2565b611b9e81856119fd565b935083602082028501611bb085611a0e565b8060005b85811015611bec5784840389528151611bcd8582611b68565b9450611bd883611b7c565b925060208a01995050600181019050611bb4565b50829750879550505050505092915050565b60006020820190508181036000830152611c188184611b89565b905092915050565b600060208284031215611c3657611c3561187d565b5b6000611c44848285016118d0565b91505092915050565b600080fd5b600080fd5b7f4e487b7100000000000000000000000000000000000000000000000000000000600052604160045260246000fd5b611c8f82611a73565b810181811067ffffffffffffffff82111715611cae57611cad611c57565b5b80604052505050565b6000611cc1611873565b9050611ccd8282611c86565b919050565b600067ffffffffffffffff821115611ced57611cec611c57565b5b611cf682611a73565b9050602081019050919050565b82818337600083830152505050565b6000611d25611d2084611cd2565b611cb7565b905082815260208101848484011115611d4157611d40611c52565b5b611d4c848285611d03565b509392505050565b600082601f830112611d6957611d68611c4d565b5b8135611d79848260208601611d12565b91505092915050565b60008060408385031215611d9957611d9861187d565b5b600083013567ffffffffffffffff811115611db757611db6611882565b5b611dc385828601611d54565b9250506020611dd485828601611906565b9150509250929050565b600080600060608486031215611df757611df661187d565b5b6000611e0586828701611906565b935050602084013567ffffffffffffffff811115611e2657611e25611882565b5b611e3286828701611d54565b9250506040611e4386828701611906565b9150509250925092565b600082825260208201905092915050565b6000611e6982611a2d565b611e738185611e4d565b9350611e83818560208601611a49565b611e8c81611a73565b840191505092915050565b611ea0816118a7565b82525050565b60008115159050919050565b611ebb81611ea6565b82525050565b600060c0820190508181036000830152611edb8189611e5e565b9050611eea6020830188611e97565b611ef7604083018761195b565b611f04606083018661195b565b611f116080830185611eb2565b611f1e60a083018461195b565b979650505050505050565b7f4f2076616c6f7220646f206465706f7369746f206465766520736572206d616960008201527f6f7220717565207a65726f000000000000000000000000000000000000000000602082015250565b6000611f85602b83611e4d565b9150611f9082611f29565b604082019050919050565b60006020820190508181036000830152611fb481611f78565b9050919050565b7f4e487b7100000000000000000000000000000000000000000000000000000000600052601160045260246000fd5b6000611ff5826118e5565b9150612000836118e5565b925082820190508082111561201857612017611fbb565b5b92915050565b7f53616c646f20696e737566696369656e74650000000000000000000000000000600082015250565b6000612054601283611e4d565b915061205f8261201e565b602082019050919050565b6000602082019050818103600083015261208381612047565b9050919050565b6000612095826118e5565b91506120a0836118e5565b92508282039050818111156120b8576120b7611fbb565b5b92915050565b7f41706f737461206e616f20656e636f6e74726164610000000000000000000000600082015250565b60006120f4601583611e4d565b91506120ff826120be565b602082019050919050565b60006020820190508181036000830152612123816120e7565b9050919050565b7f4e487b7100000000000000000000000000000000000000000000000000000000600052603260045260246000fd5b7f41706f737461206a612066656368616461000000000000000000000000000000600082015250565b600061218f601183611e4d565b915061219a82612159565b602082019050919050565b600060208201905081810360008301526121be81612182565b9050919050565b7f4576656e746f2061696e6461206e616f20706f64652073657220656e6365727260008201527f61646f0000000000000000000000000000000000000000000000000000000000602082015250565b6000612221602383611e4d565b915061222c826121c5565b604082019050919050565b6000602082019050818103600083015261225081612214565b9050919050565b600081905092915050565b7f6361726100000000000000000000000000000000000000000000000000000000600082015250565b6000612298600483612257565b91506122a382612262565b600482019050919050565b60006122b98261228b565b9150819050919050565b60006122ce826118e5565b91506122d9836118e5565b92508282026122e7816118e5565b915082820484148315176122fe576122fd611fbb565b5b5092915050565b7f4e487b7100000000000000000000000000000000000000000000000000000000600052601260045260246000fd5b600061233f826118e5565b915061234a836118e5565b92508261235a57612359612305565b5b828204905092915050565b7f636f726f61000000000000000000000000000000000000000000000000000000600082015250565b600061239b600583612257565b91506123a682612365565b600582019050919050565b60006123bc8261238e565b9150819050919050565b7f4e487b7100000000000000000000000000000000000000000000000000000000600052602260045260246000fd5b6000600282049050600182168061240d57607f821691505b6020821081036124205761241f6123c6565b5b50919050565b60008190508160005260206000209050919050565b60006020601f8301049050919050565b600082821b905092915050565b6000600883026124887fffffffffffffffffffffffffffffffffffffffffffffffffffffffffffffffff8261244b565b612492868361244b565b95508019841693508086168417925050509392505050565b6000819050919050565b60006124cf6124ca6124c5846118e5565b6124aa565b6118e5565b9050919050565b6000819050919050565b6124e9836124b4565b6124fd6124f5826124d6565b848454612458565b825550505050565b600090565b612512612505565b61251d8184846124e0565b505050565b5b818110156125415761253660008261250a565b600181019050612523565b5050565b601f8211156125865761255781612426565b6125608461243b565b8101602085101561256f578190505b61258361257b8561243b565b830182612522565b50505b505050565b600082821c905092915050565b60006125a96000198460080261258b565b1980831691505092915050565b60006125c28383612598565b9150826002028217905092915050565b6125db82611a2d565b67ffffffffffffffff8111156125f4576125f3611c57565b5b6125fe82546123f5565b612609828285612545565b600060209050601f83116001811461263c576000841561262a578287015190505b61263485826125b6565b86555061269c565b601f19841661264a86612426565b60005b828110156126725784890151825560018201915060208501945060208101905061264d565b8683101561268f578489015161268b601f891682612598565b8355505b6001600288020188555050505b505050505050565b60006060820190506126b96000830186611e97565b6126c6602083018561195b565b81810360408301526126d88184611e5e565b9050949350505050565b7f5265656e7472616e637920646574656374656420666f7220746869732065766560008201527f6e74000000000000000000000000000000000000000000000000000000000000602082015250565b600061273e602283611e4d565b9150612749826126e2565b604082019050919050565b6000602082019050818103600083015261276d81612731565b9050919050565b7f56616c6f722064612061706f737461206465766520736572206d61696f72207160008201527f7565207a65726f00000000000000000000000000000000000000000000000000602082015250565b60006127d0602783611e4d565b91506127db82612774565b604082019050919050565b600060208201905081810360008301526127ff816127c3565b9050919050565b7f4a61207265616c697a6f7520756d612061706f73746100000000000000000000600082015250565b600061283c601683611e4d565b915061284782612806565b602082019050919050565b6000602082019050818103600083015261286b8161282f565b9050919050565b7f53616c646f20696e737566696369656e7465206e612063617274656972610000600082015250565b60006128a8601e83611e4d565b91506128b382612872565b602082019050919050565b600060208201905081810360008301526128d78161289b565b9050919050565b60006128e982611a2d565b6128f38185612257565b9350612903818560208601611a49565b80840191505092915050565b600061291b82846128de565b915081905092915050565b600060808201905061293b6000830187611e97565b612948602083018661195b565b818103604083015261295a8185611e5e565b9050612969606083018461195b565b95945050505050565b600061297d826118e5565b91507fffffffffffffffffffffffffffffffffffffffffffffffffffffffffffffffff82036129af576129ae611fbb565b5b600182019050919050565b7f526573756c7461646f206a61207075626c696361646f00000000000000000000600082015250565b60006129f0601683611e4d565b91506129fb826129ba565b602082019050919050565b60006020820190508181036000830152612a1f816129e3565b9050919050565b6000819050919050565b612a41612a3c826118e5565b612a26565b82525050565b6000612a538286612a30565b602082019150612a638285612a30565b602082019150612a738284612a30565b602082019150819050949350505050565b6000612a8f826118e5565b9150612a9a836118e5565b925082612aaa57612aa9612305565b5b828206905092915050565b7f4e616f2068612076656e6365646f72657320636f6d2061706f73746173000000600082015250565b6000612aeb601d83611e4d565b9150612af682612ab5565b602082019050919050565b60006020820190508181036000830152612b1a81612ade565b9050919050565b600081519050919050565b600082825260208201905092915050565b6000819050602082019050919050565b6000612b598383611abd565b60208301905092915050565b6000602082019050919050565b6000612b7d82612b21565b612b878185612b2c565b9350612b9283612b3d565b8060005b83811015612bc3578151612baa8882612b4d565b9750612bb583612b65565b925050600181019050612b96565b5085935050505092915050565b60008154612bdd816123f5565b612be78186611e4d565b94506001821660008114612c025760018114612c1857612c4b565b60ff198316865281151560200286019350612c4b565b612c2185612426565b60005b83811015612c4357815481890152600182019150602081019050612c24565b808801955050505b50505092915050565b6000608082019050612c69600083018761195b565b8181036020830152612c7b8186611e5e565b90508181036040830152612c8f8185612b72565b90508181036060830152612ca38184612bd0565b90509594505050505056fea2646970667358221220232445428a96d752ee589de316943d205fd78ba03e05367827a8e279f0886c9b64736f6c634300081b0033",
  "linkReferences": {},
  "deployedLinkReferences": {}
}