{
  "_format": "hh-sol-artifact-1",
  "contractName": "evento",
  "sourceName": "contracts/evento.sol",
  "abi": [
    {
      "inputs": [],
      "stateMutability": "nonpayable",
      "type": "constructor"
    },
    {
      "inputs": [],
      "name": "ReentrancyGuardReentrantCall",
      "type": "error"
    },
    {
      "anonymous": false,
      "inputs": [
        {
          "indexed": false,
          "internalType": "address",
          "name": "apostador",
          "type": "address"
        },
        {
          "indexed": false,
          "internalType": "uint256",
          "name": "apostaIndex",
          "type": "uint256"
        },
        {
          "indexed": false,
          "internalType": "string",
          "name": "tipoResultado",
          "type": "string"
        },
        {
          "indexed": false,
          "internalType": "uint256",
          "name": "valorAposta",
          "type": "uint256"
        }
      ],
      "name": "ApostaRealizada",
      "type": "event"
    },
    {
      "anonymous": false,
      "inputs": [
        {
          "indexed": false,
          "internalType": "address",
          "name": "criador",
          "type": "address"
        },
        {
          "indexed": false,
          "internalType": "uint256",
          "name": "apostaIndex",
          "type": "uint256"
        },
        {
          "indexed": false,
          "internalType": "string",
          "name": "descricao",
          "type": "string"
        }
      ],
      "name": "NovaApostaCriada",
      "type": "event"
    },
    {
      "anonymous": false,
      "inputs": [
        {
          "indexed": false,
          "internalType": "uint256",
          "name": "apostaIndex",
          "type": "uint256"
        },
        {
          "indexed": false,
          "internalType": "string",
          "name": "resultado",
          "type": "string"
        },
        {
          "indexed": false,
          "internalType": "address[]",
          "name": "vencedores",
          "type": "address[]"
        },
        {
          "indexed": false,
          "internalType": "string",
          "name": "descricao",
          "type": "string"
        }
      ],
      "name": "Resultado",
      "type": "event"
    },
    {
      "inputs": [
        {
          "internalType": "uint256",
          "name": "apostaIndex",
          "type": "uint256"
        },
        {
          "internalType": "string",
          "name": "tipoResultado",
          "type": "string"
        },
        {
          "internalType": "uint256",
          "name": "valorAposta",
          "type": "uint256"
        }
      ],
      "name": "apostar",
      "outputs": [],
      "stateMutability": "nonpayable",
      "type": "function"
    },
    {
      "inputs": [
        {
          "internalType": "address",
          "name": "",
          "type": "address"
        },
        {
          "internalType": "uint256",
          "name": "",
          "type": "uint256"
        }
      ],
      "name": "bets",
      "outputs": [
        {
          "internalType": "uint256",
          "name": "",
          "type": "uint256"
        }
      ],
      "stateMutability": "view",
      "type": "function"
    },
    {
      "inputs": [
        {
          "internalType": "address",
          "name": "",
          "type": "address"
        }
      ],
      "name": "carteiras",
      "outputs": [
        {
          "internalType": "uint256",
          "name": "",
          "type": "uint256"
        }
      ],
      "stateMutability": "view",
      "type": "function"
    },
    {
      "inputs": [
        {
          "internalType": "string",
          "name": "descricao",
          "type": "string"
        },
        {
          "internalType": "uint256",
          "name": "unlockTime",
          "type": "uint256"
        }
      ],
      "name": "criarNovaAposta",
      "outputs": [],
      "stateMutability": "nonpayable",
      "type": "function"
    },
    {
      "inputs": [],
      "name": "depositar",
      "outputs": [],
      "stateMutability": "payable",
      "type": "function"
    },
    {
      "inputs": [],
      "name": "dono_contrato",
      "outputs": [
        {
          "internalType": "address",
          "name": "",
          "type": "address"
        }
      ],
      "stateMutability": "view",
      "type": "function"
    },
    {
      "inputs": [],
      "name": "getApostasAbertas",
      "outputs": [
        {
          "components": [
            {
              "internalType": "uint256",
              "name": "id",
              "type": "uint256"
            },
            {
              "internalType": "string",
              "name": "descricao",
              "type": "string"
            },
            {
              "internalType": "address",
              "name": "dono",
              "type": "address"
            },
            {
              "internalType": "uint256",
              "name": "unlockTime",
              "type": "uint256"
            },
            {
              "internalType": "uint256",
              "name": "totalApostadoGeral",
              "type": "uint256"
            },
            {
              "internalType": "uint256",
              "name": "oddsCara",
              "type": "uint256"
            },
            {
              "internalType": "uint256",
              "name": "oddsCoroa",
              "type": "uint256"
            }
          ],
          "internalType": "struct evento.ApostaSimplificada[]",
          "name": "",
          "type": "tuple[]"
        }
      ],
      "stateMutability": "view",
      "type": "function"
    },
    {
      "inputs": [],
      "name": "getMinhasApostas",
      "outputs": [
        {
          "components": [
            {
              "internalType": "uint256",
              "name": "id",
              "type": "uint256"
            },
            {
              "internalType": "string",
              "name": "descricao",
              "type": "string"
            },
            {
              "internalType": "address",
              "name": "dono",
              "type": "address"
            },
            {
              "internalType": "uint256",
              "name": "unlockTime",
              "type": "uint256"
            },
            {
              "internalType": "uint256",
              "name": "totalApostadoGeral",
              "type": "uint256"
            },
            {
              "internalType": "uint256",
              "name": "oddsCara",
              "type": "uint256"
            },
            {
              "internalType": "uint256",
              "name": "oddsCoroa",
              "type": "uint256"
            }
          ],
          "internalType": "struct evento.ApostaSimplificada[]",
          "name": "",
          "type": "tuple[]"
        }
      ],
      "stateMutability": "view",
      "type": "function"
    },
    {
      "inputs": [
        {
          "internalType": "uint256",
          "name": "",
          "type": "uint256"
        }
      ],
      "name": "listaDeApostas",
      "outputs": [
        {
          "internalType": "string",
          "name": "descricao",
          "type": "string"
        },
        {
          "internalType": "address",
          "name": "dono",
          "type": "address"
        },
        {
          "internalType": "uint256",
          "name": "unlockTime",
          "type": "uint256"
        },
        {
          "internalType": "uint256",
          "name": "totalApostadoGeral",
          "type": "uint256"
        },
        {
          "internalType": "bool",
          "name": "apostaFechada",
          "type": "bool"
        },
        {
          "internalType": "uint256",
          "name": "id",
          "type": "uint256"
        },
        {
          "internalType": "uint256",
          "name": "qntd_apostadores",
          "type": "uint256"
        }
      ],
      "stateMutability": "view",
      "type": "function"
    },
    {
      "inputs": [
        {
          "internalType": "uint256",
          "name": "apostaIndex",
          "type": "uint256"
        }
      ],
      "name": "resultado",
      "outputs": [],
      "stateMutability": "nonpayable",
      "type": "function"
    },
    {
      "inputs": [
        {
          "internalType": "uint256",
          "name": "valor",
          "type": "uint256"
        }
      ],
      "name": "sacar",
      "outputs": [],
      "stateMutability": "nonpayable",
      "type": "function"
    }
  ],
  "bytecode": "0x6080604052348015600f57600080fd5b50600160008190555033600460006101000a81548173ffffffffffffffffffffffffffffffffffffffff021916908373ffffffffffffffffffffffffffffffffffffffff160217905550613574806100686000396000f3fe60806040526004361061009c5760003560e01c8063c98c92c811610064578063c98c92c814610165578063ce811031146101a2578063e48d6cb7146101cb578063ec28f08e146101f4578063f60dac9c1461021f578063fd05dcab1461024a5761009c565b80633d922f90146100a15780634a39ec90146100ab5780637371b0d6146100e85780637f4c401914610111578063a98898551461013a575b600080fd5b6100a961028d565b005b3480156100b757600080fd5b506100d260048036038101906100cd91906120d2565b610328565b6040516100df9190612121565b60405180910390f35b3480156100f457600080fd5b5061010f600480360381019061010a919061213c565b610359565b005b34801561011d57600080fd5b506101386004803603810190610133919061213c565b61048b565b005b34801561014657600080fd5b5061014f610686565b60405161015c9190612375565b60405180910390f35b34801561017157600080fd5b5061018c60048036038101906101879190612397565b6109dc565b6040516101999190612121565b60405180910390f35b3480156101ae57600080fd5b506101c960048036038101906101c491906124f9565b6109f4565b005b3480156101d757600080fd5b506101f260048036038101906101ed9190612555565b610af3565b005b34801561020057600080fd5b50610209610fe8565b6040516102169190612375565b60405180910390f35b34801561022b57600080fd5b50610234611381565b60405161024191906125d3565b60405180910390f35b34801561025657600080fd5b50610271600480360381019061026c919061213c565b6113a7565b6040516102849796959493929190612653565b60405180910390f35b600034116102d0576040517f08c379a00000000000000000000000000000000000000000000000000000000081526004016102c79061273b565b60405180910390fd5b34600260003373ffffffffffffffffffffffffffffffffffffffff1673ffffffffffffffffffffffffffffffffffffffff168152602001908152602001600020600082825461031f919061278a565b92505081905550565b6005602052816000526040600020818154811061034457600080fd5b90600052602060002001600091509150505481565b6103616114ae565b80600260003373ffffffffffffffffffffffffffffffffffffffff1673ffffffffffffffffffffffffffffffffffffffff1681526020019081526020016000205410156103e3576040517f08c379a00000000000000000000000000000000000000000000000000000000081526004016103da9061280a565b60405180910390fd5b80600260003373ffffffffffffffffffffffffffffffffffffffff1673ffffffffffffffffffffffffffffffffffffffff1681526020019081526020016000206000828254610432919061282a565b925050819055503373ffffffffffffffffffffffffffffffffffffffff166108fc829081150290604051600060405180830381858888f1935050505015801561047f573d6000803e3d6000fd5b506104886114f4565b50565b60038054905081106104d2576040517f08c379a00000000000000000000000000000000000000000000000000000000081526004016104c9906128aa565b60405180910390fd5b6000600382815481106104e8576104e76128ca565b5b90600052602060002090600a020190508060070160009054906101000a900460ff161561054a576040517f08c379a000000000000000000000000000000000000000000000000000000000815260040161054190612945565b60405180910390fd5b600062015180826002015461055f919061278a565b9050600081421015806105c157508260010160009054906101000a900473ffffffffffffffffffffffffffffffffffffffff1673ffffffffffffffffffffffffffffffffffffffff163373ffffffffffffffffffffffffffffffffffffffff16145b905080610603576040517f08c379a00000000000000000000000000000000000000000000000000000000081526004016105fa906129d7565b60405180910390fd5b826002015442101561064a576040517f08c379a000000000000000000000000000000000000000000000000000000000815260040161064190612a69565b60405180910390fd5b6000610655856114fe565b905061066285858361163e565b60018460070160006101000a81548160ff0219169083151502179055505050505050565b60606000600560003373ffffffffffffffffffffffffffffffffffffffff1673ffffffffffffffffffffffffffffffffffffffff16815260200190815260200160002080548060200260200160405190810160405280929190818152602001828054801561071357602002820191906000526020600020905b8154815260200190600101908083116106ff575b5050505050905060008151905060008167ffffffffffffffff81111561073c5761073b6123ce565b5b60405190808252806020026020018201604052801561077557816020015b610762611fd7565b81526020019060019003908161075a5790505b50905060005b828110156109d2576000848281518110610798576107976128ca565b5b602002602001015190506000600382815481106107b8576107b76128ca565b5b90600052602060002090600a02019050600080826004016040516107db90612ae0565b908152602001604051809103902054116107f6576000610831565b8160040160405161080690612ae0565b908152602001604051809103902054606483600601546108269190612af5565b6108309190612b66565b5b90506000808360040160405161084690612be3565b9081526020016040518091039020541161086157600061089c565b8260040160405161087190612be3565b908152602001604051809103902054606484600601546108919190612af5565b61089b9190612b66565b5b90506040518060e00160405280846008015481526020018460000180546108c290612c27565b80601f01602080910402602001604051908101604052809291908181526020018280546108ee90612c27565b801561093b5780601f106109105761010080835404028352916020019161093b565b820191906000526020600020905b81548152906001019060200180831161091e57829003601f168201915b505050505081526020018460010160009054906101000a900473ffffffffffffffffffffffffffffffffffffffff1673ffffffffffffffffffffffffffffffffffffffff1681526020018460020154815260200184600601548152602001838152602001828152508686815181106109b6576109b56128ca565b5b602002602001018190525050505050808060010191505061077b565b5080935050505090565b60026020528060005260406000206000915090505481565b600060036001816001815401808255809150500390600052602060002090600a0201905082816000019081610a299190612e04565b50338160010160006101000a81548173ffffffffffffffffffffffffffffffffffffffff021916908373ffffffffffffffffffffffffffffffffffffffff16021790555081816002018190555060008160070160006101000a81548160ff02191690831515021790555060006001600380549050610aa7919061282a565b90508082600801819055507f721558d898b4db81678d021fc33e971d00c4cbcf012d91dd9c82706a7863774c338286604051610ae593929190612ed6565b60405180910390a150505050565b826001600082815260200190815260200160002060009054906101000a900460ff1615610b55576040517f08c379a0000000000000000000000000000000000000000000000000000000008152600401610b4c90612f86565b60405180910390fd5b600180600083815260200190815260200160002060006101000a81548160ff0219169083151502179055506003805490508410610bc7576040517f08c379a0000000000000000000000000000000000000000000000000000000008152600401610bbe906128aa565b60405180910390fd5b600060038581548110610bdd57610bdc6128ca565b5b90600052602060002090600a020190508060070160009054906101000a900460ff1615610c3f576040517f08c379a0000000000000000000000000000000000000000000000000000000008152600401610c3690612945565b60405180910390fd5b60008311610c82576040517f08c379a0000000000000000000000000000000000000000000000000000000008152600401610c7990613018565b60405180910390fd5b60008160030160003373ffffffffffffffffffffffffffffffffffffffff1673ffffffffffffffffffffffffffffffffffffffff1681526020019081526020016000206000018054610cd390612c27565b905014610d15576040517f08c379a0000000000000000000000000000000000000000000000000000000008152600401610d0c90613084565b60405180910390fd5b82600260003373ffffffffffffffffffffffffffffffffffffffff1673ffffffffffffffffffffffffffffffffffffffff168152602001908152602001600020541015610d97576040517f08c379a0000000000000000000000000000000000000000000000000000000008152600401610d8e906130f0565b60405180910390fd5b82600260003373ffffffffffffffffffffffffffffffffffffffff1673ffffffffffffffffffffffffffffffffffffffff1681526020019081526020016000206000828254610de6919061282a565b92505081905550600560003373ffffffffffffffffffffffffffffffffffffffff1673ffffffffffffffffffffffffffffffffffffffff16815260200190815260200160002085908060018154018082558091505060019003906000526020600020016000909190919091505560006040518060400160405280868152602001858152509050808260030160003373ffffffffffffffffffffffffffffffffffffffff1673ffffffffffffffffffffffffffffffffffffffff1681526020019081526020016000206000820151816000019081610ec39190612e04565b50602082015181600101559050508160050185604051610ee39190613141565b9081526020016040518091039020339080600181540180825580915050600190039060005260206000200160009091909190916101000a81548173ffffffffffffffffffffffffffffffffffffffff021916908373ffffffffffffffffffffffffffffffffffffffff160217905550816009016000815480929190610f6790613158565b9190505550610f77828686611f80565b7f951072d4e7517022566506a84e0a5231f06e86a099c6510ee1a1d5d34e71c46033878787604051610fac94939291906131a0565b60405180910390a1505060006001600083815260200190815260200160002060006101000a81548160ff02191690831515021790555050505050565b6060600060038054905067ffffffffffffffff81111561100b5761100a6123ce565b5b60405190808252806020026020018201604052801561104457816020015b611031611fd7565b8152602001906001900390816110295790505b5090506000805b6003805490508110156112cd576003818154811061106c5761106b6128ca565b5b90600052602060002090600a020160070160009054906101000a900460ff166112c0576000600382815481106110a5576110a46128ca565b5b90600052602060002090600a02019050600080826004016040516110c890612ae0565b908152602001604051809103902054116110e357600061111e565b816004016040516110f390612ae0565b908152602001604051809103902054606483600601546111139190612af5565b61111d9190612b66565b5b90506000808360040160405161113390612be3565b9081526020016040518091039020541161114e576000611189565b8260040160405161115e90612be3565b9081526020016040518091039020546064846006015461117e9190612af5565b6111889190612b66565b5b90506040518060e00160405280846008015481526020018460000180546111af90612c27565b80601f01602080910402602001604051908101604052809291908181526020018280546111db90612c27565b80156112285780601f106111fd57610100808354040283529160200191611228565b820191906000526020600020905b81548152906001019060200180831161120b57829003601f168201915b505050505081526020018460010160009054906101000a900473ffffffffffffffffffffffffffffffffffffffff1673ffffffffffffffffffffffffffffffffffffffff1681526020018460020154815260200184600601548152602001838152602001828152508686815181106112a3576112a26128ca565b5b602002602001018190525084806112b990613158565b9550505050505b808060010191505061104b565b5060008167ffffffffffffffff8111156112ea576112e96123ce565b5b60405190808252806020026020018201604052801561132357816020015b611310611fd7565b8152602001906001900390816113085790505b50905060005b8281101561137757838181518110611344576113436128ca565b5b602002602001015182828151811061135f5761135e6128ca565b5b60200260200101819052508080600101915050611329565b5080935050505090565b600460009054906101000a900473ffffffffffffffffffffffffffffffffffffffff1681565b600381815481106113b757600080fd5b90600052602060002090600a02016000915090508060000180546113da90612c27565b80601f016020809104026020016040519081016040528092919081815260200182805461140690612c27565b80156114535780601f1061142857610100808354040283529160200191611453565b820191906000526020600020905b81548152906001019060200180831161143657829003601f168201915b5050505050908060010160009054906101000a900473ffffffffffffffffffffffffffffffffffffffff16908060020154908060060154908060070160009054906101000a900460ff16908060080154908060090154905087565b6002600054036114ea576040517f3ee5aeb500000000000000000000000000000000000000000000000000000000815260040160405180910390fd5b6002600081905550565b6001600081905550565b6060600060038381548110611516576115156128ca565b5b90600052602060002090600a020190508060070160009054906101000a900460ff1615611578576040517f08c379a000000000000000000000000000000000000000000000000000000000815260040161156f90613238565b60405180910390fd5b6000600242448660405160200161159193929190613279565b6040516020818303038152906040528051906020012060001c6115b491906132b6565b905060008082146115fa576040518060400160405280600581526020017f636f726f61000000000000000000000000000000000000000000000000000000815250611631565b6040518060400160405280600481526020017f63617261000000000000000000000000000000000000000000000000000000008152505b9050809350505050919050565b600082600501826040516116529190613141565b90815260200160405180910390208054806020026020016040519081016040528092919081815260200182805480156116e057602002820191906000526020600020905b8160009054906101000a900473ffffffffffffffffffffffffffffffffffffffff1673ffffffffffffffffffffffffffffffffffffffff1681526020019060010190808311611696575b5050505050905060008084600601549050600081905060005b845181101561177b5786600301600086838151811061171b5761171a6128ca565b5b602002602001015173ffffffffffffffffffffffffffffffffffffffff1673ffffffffffffffffffffffffffffffffffffffff168152602001908152602001600020600101548461176c919061278a565b935080806001019150506116f9565b506000606460078461178d9190612af5565b6117979190612b66565b9050600460009054906101000a900473ffffffffffffffffffffffffffffffffffffffff1673ffffffffffffffffffffffffffffffffffffffff166108fc829081150290604051600060405180830381858888f19350505050158015611801573d6000803e3d6000fd5b50808361180e919061282a565b925060008411156119625760005b855181101561191c57600085858a60030160008a8681518110611842576118416128ca565b5b602002602001015173ffffffffffffffffffffffffffffffffffffffff1673ffffffffffffffffffffffffffffffffffffffff168152602001908152602001600020600101546118929190612af5565b61189c9190612b66565b905080600260008985815181106118b6576118b56128ca565b5b602002602001015173ffffffffffffffffffffffffffffffffffffffff1673ffffffffffffffffffffffffffffffffffffffff1681526020019081526020016000206000828254611907919061278a565b9250508190555050808060010191505061181c565b507fc0b7edc89a5e21c358803037a88cd4371e21b36a6d71e1712e2ebfe150caaae98887878a600001604051611955949392919061341a565b60405180910390a1611f76565b600060405160200161197390612ae0565b60405160208183030381529060405280519060200120905060008760405160200161199e9190613141565b604051602081830303815290604052805190602001209050808203611c9a576000896005016040516119cf90612be3565b9081526020016040518091039020805480602002602001604051908101604052809291908181526020018280548015611a5d57602002820191906000526020600020905b8160009054906101000a900473ffffffffffffffffffffffffffffffffffffffff1673ffffffffffffffffffffffffffffffffffffffff1681526020019060010190808311611a13575b505050505090506000806000835167ffffffffffffffff811115611a8457611a836123ce565b5b604051908082528060200260200182016040528015611ab25781602001602082028036833780820191505090505b50905060005b8451811015611b915760008e6003016000878481518110611adc57611adb6128ca565b5b602002602001015173ffffffffffffffffffffffffffffffffffffffff1673ffffffffffffffffffffffffffffffffffffffff16815260200190815260200160002060010154905089606482611b329190612af5565b611b3c9190612b66565b838381518110611b4f57611b4e6128ca565b5b602002602001018181525050828281518110611b6e57611b6d6128ca565b5b602002602001015185611b81919061278a565b9450508080600101915050611ab8565b5060005b8451811015611c525760006064838381518110611bb557611bb46128ca565b5b60200260200101518c611bc89190612af5565b611bd29190612b66565b90508060026000888581518110611bec57611beb6128ca565b5b602002602001015173ffffffffffffffffffffffffffffffffffffffff1673ffffffffffffffffffffffffffffffffffffffff1681526020019081526020016000206000828254611c3d919061278a565b92505081905550508080600101915050611b95565b507fc0b7edc89a5e21c358803037a88cd4371e21b36a6d71e1712e2ebfe150caaae98e858f600001604051611c89939291906134e6565b60405180910390a150505050611f73565b600089600501604051611cac90612ae0565b9081526020016040518091039020805480602002602001604051908101604052809291908181526020018280548015611d3a57602002820191906000526020600020905b8160009054906101000a900473ffffffffffffffffffffffffffffffffffffffff1673ffffffffffffffffffffffffffffffffffffffff1681526020019060010190808311611cf0575b505050505090506000806000835167ffffffffffffffff811115611d6157611d606123ce565b5b604051908082528060200260200182016040528015611d8f5781602001602082028036833780820191505090505b50905060005b8451811015611e6e5760008e6003016000878481518110611db957611db86128ca565b5b602002602001015173ffffffffffffffffffffffffffffffffffffffff1673ffffffffffffffffffffffffffffffffffffffff16815260200190815260200160002060010154905089606482611e0f9190612af5565b611e199190612b66565b838381518110611e2c57611e2b6128ca565b5b602002602001018181525050828281518110611e4b57611e4a6128ca565b5b602002602001015185611e5e919061278a565b9450508080600101915050611d95565b5060005b8451811015611f2f5760006064838381518110611e9257611e916128ca565b5b60200260200101518c611ea59190612af5565b611eaf9190612b66565b90508060026000888581518110611ec957611ec86128ca565b5b602002602001015173ffffffffffffffffffffffffffffffffffffffff1673ffffffffffffffffffffffffffffffffffffffff1681526020019081526020016000206000828254611f1a919061278a565b92505081905550508080600101915050611e72565b507fc0b7edc89a5e21c358803037a88cd4371e21b36a6d71e1712e2ebfe150caaae98e858f600001604051611f66939291906134e6565b60405180910390a1505050505b50505b5050505050505050565b808360040183604051611f939190613141565b90815260200160405180910390206000828254611fb0919061278a565b9250508190555080836006016000828254611fcb919061278a565b92505081905550505050565b6040518060e001604052806000815260200160608152602001600073ffffffffffffffffffffffffffffffffffffffff168152602001600081526020016000815260200160008152602001600081525090565b6000604051905090565b600080fd5b600080fd5b600073ffffffffffffffffffffffffffffffffffffffff82169050919050565b60006120698261203e565b9050919050565b6120798161205e565b811461208457600080fd5b50565b60008135905061209681612070565b92915050565b6000819050919050565b6120af8161209c565b81146120ba57600080fd5b50565b6000813590506120cc816120a6565b92915050565b600080604083850312156120e9576120e8612034565b5b60006120f785828601612087565b9250506020612108858286016120bd565b9150509250929050565b61211b8161209c565b82525050565b60006020820190506121366000830184612112565b92915050565b60006020828403121561215257612151612034565b5b6000612160848285016120bd565b91505092915050565b600081519050919050565b600082825260208201905092915050565b6000819050602082019050919050565b61219e8161209c565b82525050565b600081519050919050565b600082825260208201905092915050565b60005b838110156121de5780820151818401526020810190506121c3565b60008484015250505050565b6000601f19601f8301169050919050565b6000612206826121a4565b61221081856121af565b93506122208185602086016121c0565b612229816121ea565b840191505092915050565b61223d8161205e565b82525050565b600060e08301600083015161225b6000860182612195565b506020830151848203602086015261227382826121fb565b91505060408301516122886040860182612234565b50606083015161229b6060860182612195565b5060808301516122ae6080860182612195565b5060a08301516122c160a0860182612195565b5060c08301516122d460c0860182612195565b508091505092915050565b60006122eb8383612243565b905092915050565b6000602082019050919050565b600061230b82612169565b6123158185612174565b93508360208202850161232785612185565b8060005b85811015612363578484038952815161234485826122df565b945061234f836122f3565b925060208a0199505060018101905061232b565b50829750879550505050505092915050565b6000602082019050818103600083015261238f8184612300565b905092915050565b6000602082840312156123ad576123ac612034565b5b60006123bb84828501612087565b91505092915050565b600080fd5b600080fd5b7f4e487b7100000000000000000000000000000000000000000000000000000000600052604160045260246000fd5b612406826121ea565b810181811067ffffffffffffffff82111715612425576124246123ce565b5b80604052505050565b600061243861202a565b905061244482826123fd565b919050565b600067ffffffffffffffff821115612464576124636123ce565b5b61246d826121ea565b9050602081019050919050565b82818337600083830152505050565b600061249c61249784612449565b61242e565b9050828152602081018484840111156124b8576124b76123c9565b5b6124c384828561247a565b509392505050565b600082601f8301126124e0576124df6123c4565b5b81356124f0848260208601612489565b91505092915050565b600080604083850312156125105761250f612034565b5b600083013567ffffffffffffffff81111561252e5761252d612039565b5b61253a858286016124cb565b925050602061254b858286016120bd565b9150509250929050565b60008060006060848603121561256e5761256d612034565b5b600061257c868287016120bd565b935050602084013567ffffffffffffffff81111561259d5761259c612039565b5b6125a9868287016124cb565b92505060406125ba868287016120bd565b9150509250925092565b6125cd8161205e565b82525050565b60006020820190506125e860008301846125c4565b92915050565b600082825260208201905092915050565b600061260a826121a4565b61261481856125ee565b93506126248185602086016121c0565b61262d816121ea565b840191505092915050565b60008115159050919050565b61264d81612638565b82525050565b600060e082019050818103600083015261266d818a6125ff565b905061267c60208301896125c4565b6126896040830188612112565b6126966060830187612112565b6126a36080830186612644565b6126b060a0830185612112565b6126bd60c0830184612112565b98975050505050505050565b7f4f2076616c6f7220646f206465706f7369746f206465766520736572206d616960008201527f6f7220717565207a65726f000000000000000000000000000000000000000000602082015250565b6000612725602b836125ee565b9150612730826126c9565b604082019050919050565b6000602082019050818103600083015261275481612718565b9050919050565b7f4e487b7100000000000000000000000000000000000000000000000000000000600052601160045260246000fd5b60006127958261209c565b91506127a08361209c565b92508282019050808211156127b8576127b761275b565b5b92915050565b7f53616c646f20696e737566696369656e74650000000000000000000000000000600082015250565b60006127f46012836125ee565b91506127ff826127be565b602082019050919050565b60006020820190508181036000830152612823816127e7565b9050919050565b60006128358261209c565b91506128408361209c565b92508282039050818111156128585761285761275b565b5b92915050565b7f41706f737461206e616f20656e636f6e74726164610000000000000000000000600082015250565b60006128946015836125ee565b915061289f8261285e565b602082019050919050565b600060208201905081810360008301526128c381612887565b9050919050565b7f4e487b7100000000000000000000000000000000000000000000000000000000600052603260045260246000fd5b7f41706f737461206a612066656368616461000000000000000000000000000000600082015250565b600061292f6011836125ee565b915061293a826128f9565b602082019050919050565b6000602082019050818103600083015261295e81612922565b9050919050565b7f536f6d656e7465206f20646f6e6f206f75207175616c7175657220706573736f60008201527f612061706f7320312064696120706f646520656e636572726172000000000000602082015250565b60006129c1603a836125ee565b91506129cc82612965565b604082019050919050565b600060208201905081810360008301526129f0816129b4565b9050919050565b7f4576656e746f2061696e6461206e616f20706f64652073657220656e6365727260008201527f61646f0000000000000000000000000000000000000000000000000000000000602082015250565b6000612a536023836125ee565b9150612a5e826129f7565b604082019050919050565b60006020820190508181036000830152612a8281612a46565b9050919050565b600081905092915050565b7f6361726100000000000000000000000000000000000000000000000000000000600082015250565b6000612aca600483612a89565b9150612ad582612a94565b600482019050919050565b6000612aeb82612abd565b9150819050919050565b6000612b008261209c565b9150612b0b8361209c565b9250828202612b198161209c565b91508282048414831517612b3057612b2f61275b565b5b5092915050565b7f4e487b7100000000000000000000000000000000000000000000000000000000600052601260045260246000fd5b6000612b718261209c565b9150612b7c8361209c565b925082612b8c57612b8b612b37565b5b828204905092915050565b7f636f726f61000000000000000000000000000000000000000000000000000000600082015250565b6000612bcd600583612a89565b9150612bd882612b97565b600582019050919050565b6000612bee82612bc0565b9150819050919050565b7f4e487b7100000000000000000000000000000000000000000000000000000000600052602260045260246000fd5b60006002820490506001821680612c3f57607f821691505b602082108103612c5257612c51612bf8565b5b50919050565b60008190508160005260206000209050919050565b60006020601f8301049050919050565b600082821b905092915050565b600060088302612cba7fffffffffffffffffffffffffffffffffffffffffffffffffffffffffffffffff82612c7d565b612cc48683612c7d565b95508019841693508086168417925050509392505050565b6000819050919050565b6000612d01612cfc612cf78461209c565b612cdc565b61209c565b9050919050565b6000819050919050565b612d1b83612ce6565b612d2f612d2782612d08565b848454612c8a565b825550505050565b600090565b612d44612d37565b612d4f818484612d12565b505050565b5b81811015612d7357612d68600082612d3c565b600181019050612d55565b5050565b601f821115612db857612d8981612c58565b612d9284612c6d565b81016020851015612da1578190505b612db5612dad85612c6d565b830182612d54565b50505b505050565b600082821c905092915050565b6000612ddb60001984600802612dbd565b1980831691505092915050565b6000612df48383612dca565b9150826002028217905092915050565b612e0d826121a4565b67ffffffffffffffff811115612e2657612e256123ce565b5b612e308254612c27565b612e3b828285612d77565b600060209050601f831160018114612e6e5760008415612e5c578287015190505b612e668582612de8565b865550612ece565b601f198416612e7c86612c58565b60005b82811015612ea457848901518255600182019150602085019450602081019050612e7f565b86831015612ec15784890151612ebd601f891682612dca565b8355505b6001600288020188555050505b505050505050565b6000606082019050612eeb60008301866125c4565b612ef86020830185612112565b8181036040830152612f0a81846125ff565b9050949350505050565b7f5265656e7472616e637920646574656374656420666f7220746869732065766560008201527f6e74000000000000000000000000000000000000000000000000000000000000602082015250565b6000612f706022836125ee565b9150612f7b82612f14565b604082019050919050565b60006020820190508181036000830152612f9f81612f63565b9050919050565b7f56616c6f722064612061706f737461206465766520736572206d61696f72207160008201527f7565207a65726f00000000000000000000000000000000000000000000000000602082015250565b60006130026027836125ee565b915061300d82612fa6565b604082019050919050565b6000602082019050818103600083015261303181612ff5565b9050919050565b7f4a61207265616c697a6f7520756d612061706f73746100000000000000000000600082015250565b600061306e6016836125ee565b915061307982613038565b602082019050919050565b6000602082019050818103600083015261309d81613061565b9050919050565b7f53616c646f20696e737566696369656e7465206e612063617274656972610000600082015250565b60006130da601e836125ee565b91506130e5826130a4565b602082019050919050565b60006020820190508181036000830152613109816130cd565b9050919050565b600061311b826121a4565b6131258185612a89565b93506131358185602086016121c0565b80840191505092915050565b600061314d8284613110565b915081905092915050565b60006131638261209c565b91507fffffffffffffffffffffffffffffffffffffffffffffffffffffffffffffffff82036131955761319461275b565b5b600182019050919050565b60006080820190506131b560008301876125c4565b6131c26020830186612112565b81810360408301526131d481856125ff565b90506131e36060830184612112565b95945050505050565b7f526573756c7461646f206a61207075626c696361646f00000000000000000000600082015250565b60006132226016836125ee565b915061322d826131ec565b602082019050919050565b6000602082019050818103600083015261325181613215565b9050919050565b6000819050919050565b61327361326e8261209c565b613258565b82525050565b60006132858286613262565b6020820191506132958285613262565b6020820191506132a58284613262565b602082019150819050949350505050565b60006132c18261209c565b91506132cc8361209c565b9250826132dc576132db612b37565b5b828206905092915050565b600081519050919050565b600082825260208201905092915050565b6000819050602082019050919050565b600061331f8383612234565b60208301905092915050565b6000602082019050919050565b6000613343826132e7565b61334d81856132f2565b935061335883613303565b8060005b838110156133895781516133708882613313565b975061337b8361332b565b92505060018101905061335c565b5085935050505092915050565b600081546133a381612c27565b6133ad81866125ee565b945060018216600081146133c857600181146133de57613411565b60ff198316865281151560200286019350613411565b6133e785612c58565b60005b83811015613409578154818901526001820191506020810190506133ea565b808801955050505b50505092915050565b600060808201905061342f6000830187612112565b818103602083015261344181866125ff565b905081810360408301526134558185613338565b905081810360608301526134698184613396565b905095945050505050565b7f53656d2076656e6365646f7265732c206e61206c69737461207265656d626f6c60008201527f7361646f73000000000000000000000000000000000000000000000000000000602082015250565b60006134d06025836125ee565b91506134db82613474565b604082019050919050565b60006080820190506134fb6000830186612112565b818103602083015261350c816134c3565b905081810360408301526135208185613338565b905081810360608301526135348184613396565b905094935050505056fea2646970667358221220d605bf924bed8cff51a9d9c3f1d34e11594f9a63a62fa8c0ce275ba0395be3dc64736f6c634300081b0033",
  "linkReferences": {},
  "deployedLinkReferences": {}
}