{
  "_format": "hh-sol-artifact-1",
  "contractName": "evento",
  "sourceName": "contracts/evento.sol",
  "abi": [
    {
      "inputs": [],
      "stateMutability": "nonpayable",
      "type": "constructor"
    },
    {
      "inputs": [],
      "name": "ReentrancyGuardReentrantCall",
      "type": "error"
    },
    {
      "anonymous": false,
      "inputs": [
        {
          "indexed": false,
          "internalType": "address",
          "name": "apostador",
          "type": "address"
        },
        {
          "indexed": false,
          "internalType": "uint256",
          "name": "eventoIndex",
          "type": "uint256"
        },
        {
          "indexed": false,
          "internalType": "string",
          "name": "tipoResultado",
          "type": "string"
        },
        {
          "indexed": false,
          "internalType": "uint256",
          "name": "valorAposta",
          "type": "uint256"
        }
      ],
      "name": "ApostaRealizada",
      "type": "event"
    },
    {
      "anonymous": false,
      "inputs": [
        {
          "indexed": false,
          "internalType": "address",
          "name": "criador",
          "type": "address"
        },
        {
          "indexed": false,
          "internalType": "uint256",
          "name": "eventoIndex",
          "type": "uint256"
        },
        {
          "indexed": false,
          "internalType": "string",
          "name": "descricao",
          "type": "string"
        }
      ],
      "name": "NovoEventoCriado",
      "type": "event"
    },
    {
      "anonymous": false,
      "inputs": [
        {
          "indexed": false,
          "internalType": "uint256",
          "name": "eventoIndex",
          "type": "uint256"
        },
        {
          "indexed": false,
          "internalType": "string",
          "name": "resultado",
          "type": "string"
        },
        {
          "indexed": false,
          "internalType": "address[]",
          "name": "vencedores",
          "type": "address[]"
        },
        {
          "indexed": false,
          "internalType": "string",
          "name": "descricao",
          "type": "string"
        }
      ],
      "name": "Resultado",
      "type": "event"
    },
    {
      "inputs": [
        {
          "internalType": "uint256",
          "name": "eventoIndex",
          "type": "uint256"
        },
        {
          "internalType": "string",
          "name": "tipoResultado",
          "type": "string"
        },
        {
          "internalType": "uint256",
          "name": "valorAposta",
          "type": "uint256"
        }
      ],
      "name": "apostar",
      "outputs": [],
      "stateMutability": "nonpayable",
      "type": "function"
    },
    {
      "inputs": [
        {
          "internalType": "address",
          "name": "",
          "type": "address"
        },
        {
          "internalType": "uint256",
          "name": "",
          "type": "uint256"
        }
      ],
      "name": "bets",
      "outputs": [
        {
          "internalType": "uint256",
          "name": "",
          "type": "uint256"
        }
      ],
      "stateMutability": "view",
      "type": "function"
    },
    {
      "inputs": [
        {
          "internalType": "address",
          "name": "",
          "type": "address"
        }
      ],
      "name": "carteiras",
      "outputs": [
        {
          "internalType": "uint256",
          "name": "",
          "type": "uint256"
        }
      ],
      "stateMutability": "view",
      "type": "function"
    },
    {
      "inputs": [
        {
          "internalType": "string",
          "name": "descricao",
          "type": "string"
        },
        {
          "internalType": "uint256",
          "name": "unlockTime",
          "type": "uint256"
        }
      ],
      "name": "criarNovoEvento",
      "outputs": [],
      "stateMutability": "nonpayable",
      "type": "function"
    },
    {
      "inputs": [],
      "name": "depositar",
      "outputs": [],
      "stateMutability": "payable",
      "type": "function"
    },
    {
      "inputs": [],
      "name": "dono_contrato",
      "outputs": [
        {
          "internalType": "address",
          "name": "",
          "type": "address"
        }
      ],
      "stateMutability": "view",
      "type": "function"
    },
    {
      "inputs": [],
      "name": "getEventosAbertos",
      "outputs": [
        {
          "components": [
            {
              "internalType": "uint256",
              "name": "id",
              "type": "uint256"
            },
            {
              "internalType": "string",
              "name": "descricao",
              "type": "string"
            },
            {
              "internalType": "address",
              "name": "dono",
              "type": "address"
            },
            {
              "internalType": "uint256",
              "name": "unlockTime",
              "type": "uint256"
            },
            {
              "internalType": "uint256",
              "name": "totalApostadoGeral",
              "type": "uint256"
            },
            {
              "internalType": "uint256",
              "name": "oddsCara",
              "type": "uint256"
            },
            {
              "internalType": "uint256",
              "name": "oddsCoroa",
              "type": "uint256"
            }
          ],
          "internalType": "struct evento.EventoSimplificado[]",
          "name": "",
          "type": "tuple[]"
        }
      ],
      "stateMutability": "view",
      "type": "function"
    },
    {
      "inputs": [],
      "name": "getMinhasApostas",
      "outputs": [
        {
          "components": [
            {
              "internalType": "uint256",
              "name": "id",
              "type": "uint256"
            },
            {
              "internalType": "string",
              "name": "descricao",
              "type": "string"
            },
            {
              "internalType": "address",
              "name": "dono",
              "type": "address"
            },
            {
              "internalType": "uint256",
              "name": "unlockTime",
              "type": "uint256"
            },
            {
              "internalType": "uint256",
              "name": "valor_apostado",
              "type": "uint256"
            },
            {
              "internalType": "string",
              "name": "tipo",
              "type": "string"
            },
            {
              "internalType": "bool",
              "name": "status",
              "type": "bool"
            }
          ],
          "internalType": "struct evento.Eventoenvia[]",
          "name": "",
          "type": "tuple[]"
        }
      ],
      "stateMutability": "view",
      "type": "function"
    },
    {
      "inputs": [
        {
          "internalType": "uint256",
          "name": "",
          "type": "uint256"
        }
      ],
      "name": "listaDeEventos",
      "outputs": [
        {
          "internalType": "string",
          "name": "descricao",
          "type": "string"
        },
        {
          "internalType": "address",
          "name": "dono",
          "type": "address"
        },
        {
          "internalType": "uint256",
          "name": "unlockTime",
          "type": "uint256"
        },
        {
          "internalType": "uint256",
          "name": "totalApostadoGeral",
          "type": "uint256"
        },
        {
          "internalType": "bool",
          "name": "apostaFechada",
          "type": "bool"
        },
        {
          "internalType": "uint256",
          "name": "id",
          "type": "uint256"
        },
        {
          "internalType": "uint256",
          "name": "qntd_apostadores",
          "type": "uint256"
        }
      ],
      "stateMutability": "view",
      "type": "function"
    },
    {
      "inputs": [
        {
          "internalType": "uint256",
          "name": "eventoIndex",
          "type": "uint256"
        }
      ],
      "name": "resultado",
      "outputs": [],
      "stateMutability": "nonpayable",
      "type": "function"
    },
    {
      "inputs": [
        {
          "internalType": "uint256",
          "name": "valor",
          "type": "uint256"
        }
      ],
      "name": "sacar",
      "outputs": [],
      "stateMutability": "nonpayable",
      "type": "function"
    }
  ],
  "bytecode": "0x6080604052348015600f57600080fd5b50600160008190555033600460006101000a81548173ffffffffffffffffffffffffffffffffffffffff021916908373ffffffffffffffffffffffffffffffffffffffff16021790555061380c806100686000396000f3fe60806040526004361061009c5760003560e01c8063b4744a3311610064578063b4744a3314610165578063c0d46d7d1461018e578063c98c92c8146101b9578063e48d6cb7146101f6578063f175695d1461021f578063f60dac9c146102625761009c565b80633d922f90146100a15780634a39ec90146100ab5780637371b0d6146100e85780637f4c401914610111578063a98898551461013a575b600080fd5b6100a961028d565b005b3480156100b757600080fd5b506100d260048036038101906100cd9190612168565b610328565b6040516100df91906121b7565b60405180910390f35b3480156100f457600080fd5b5061010f600480360381019061010a91906121d2565b610359565b005b34801561011d57600080fd5b50610138600480360381019061013391906121d2565b61048b565b005b34801561014657600080fd5b5061014f610686565b60405161015c919061242d565b60405180910390f35b34801561017157600080fd5b5061018c60048036038101906101879190612584565b610a23565b005b34801561019a57600080fd5b506101a3610b22565b6040516101b0919061273e565b60405180910390f35b3480156101c557600080fd5b506101e060048036038101906101db9190612760565b610ebb565b6040516101ed91906121b7565b60405180910390f35b34801561020257600080fd5b5061021d6004803603810190610218919061278d565b610ed3565b005b34801561022b57600080fd5b50610246600480360381019061024191906121d2565b6113c8565b6040516102599796959493929190612864565b60405180910390f35b34801561026e57600080fd5b506102776114cf565b60405161028491906128da565b60405180910390f35b600034116102d0576040517f08c379a00000000000000000000000000000000000000000000000000000000081526004016102c790612967565b60405180910390fd5b34600260003373ffffffffffffffffffffffffffffffffffffffff1673ffffffffffffffffffffffffffffffffffffffff168152602001908152602001600020600082825461031f91906129b6565b92505081905550565b6005602052816000526040600020818154811061034457600080fd5b90600052602060002001600091509150505481565b6103616114f5565b80600260003373ffffffffffffffffffffffffffffffffffffffff1673ffffffffffffffffffffffffffffffffffffffff1681526020019081526020016000205410156103e3576040517f08c379a00000000000000000000000000000000000000000000000000000000081526004016103da90612a36565b60405180910390fd5b80600260003373ffffffffffffffffffffffffffffffffffffffff1673ffffffffffffffffffffffffffffffffffffffff16815260200190815260200160002060008282546104329190612a56565b925050819055503373ffffffffffffffffffffffffffffffffffffffff166108fc829081150290604051600060405180830381858888f1935050505015801561047f573d6000803e3d6000fd5b5061048861153b565b50565b60038054905081106104d2576040517f08c379a00000000000000000000000000000000000000000000000000000000081526004016104c990612ad6565b60405180910390fd5b6000600382815481106104e8576104e7612af6565b5b90600052602060002090600a020190508060070160009054906101000a900460ff161561054a576040517f08c379a000000000000000000000000000000000000000000000000000000000815260040161054190612b71565b60405180910390fd5b600062015180826002015461055f91906129b6565b9050600081421015806105c157508260010160009054906101000a900473ffffffffffffffffffffffffffffffffffffffff1673ffffffffffffffffffffffffffffffffffffffff163373ffffffffffffffffffffffffffffffffffffffff16145b905080610603576040517f08c379a00000000000000000000000000000000000000000000000000000000081526004016105fa90612c03565b60405180910390fd5b826002015442101561064a576040517f08c379a000000000000000000000000000000000000000000000000000000000815260040161064190612c95565b60405180910390fd5b600061065585611545565b9050610662858583611685565b60018460070160006101000a81548160ff0219169083151502179055505050505050565b60606000600560003373ffffffffffffffffffffffffffffffffffffffff1673ffffffffffffffffffffffffffffffffffffffff16815260200190815260200160002080548060200260200160405190810160405280929190818152602001828054801561071357602002820191906000526020600020905b8154815260200190600101908083116106ff575b5050505050905060008151905060008167ffffffffffffffff81111561073c5761073b612459565b5b60405190808252806020026020018201604052801561077557816020015b610762612018565b81526020019060019003908161075a5790505b50905060005b82811015610a1957600084828151811061079857610797612af6565b5b602002602001015190506000600382815481106107b8576107b7612af6565b5b90600052602060002090600a020190506040518060e00160405280826008015481526020018260000180546107ec90612ce4565b80601f016020809104026020016040519081016040528092919081815260200182805461081890612ce4565b80156108655780601f1061083a57610100808354040283529160200191610865565b820191906000526020600020905b81548152906001019060200180831161084857829003601f168201915b505050505081526020018260010160009054906101000a900473ffffffffffffffffffffffffffffffffffffffff1673ffffffffffffffffffffffffffffffffffffffff168152602001826002015481526020018260030160003373ffffffffffffffffffffffffffffffffffffffff1673ffffffffffffffffffffffffffffffffffffffff1681526020019081526020016000206001015481526020018260030160003373ffffffffffffffffffffffffffffffffffffffff1673ffffffffffffffffffffffffffffffffffffffff168152602001908152602001600020600001805461095290612ce4565b80601f016020809104026020016040519081016040528092919081815260200182805461097e90612ce4565b80156109cb5780601f106109a0576101008083540402835291602001916109cb565b820191906000526020600020905b8154815290600101906020018083116109ae57829003601f168201915b505050505081526020018260070160009054906101000a900460ff1615158152508484815181106109ff576109fe612af6565b5b60200260200101819052505050808060010191505061077b565b5080935050505090565b600060036001816001815401808255809150500390600052602060002090600a0201905082816000019081610a589190612ec1565b50338160010160006101000a81548173ffffffffffffffffffffffffffffffffffffffff021916908373ffffffffffffffffffffffffffffffffffffffff16021790555081816002018190555060008160070160006101000a81548160ff02191690831515021790555060006001600380549050610ad69190612a56565b90508082600801819055507f1320fea8b8ab78049baed7c3b718473bf107c756bc297738743f297b2c1944de338286604051610b1493929190612f93565b60405180910390a150505050565b6060600060038054905067ffffffffffffffff811115610b4557610b44612459565b5b604051908082528060200260200182016040528015610b7e57816020015b610b6b61206d565b815260200190600190039081610b635790505b5090506000805b600380549050811015610e075760038181548110610ba657610ba5612af6565b5b90600052602060002090600a020160070160009054906101000a900460ff16610dfa57600060038281548110610bdf57610bde612af6565b5b90600052602060002090600a0201905060008082600401604051610c0290613028565b90815260200160405180910390205411610c1d576000610c58565b81600401604051610c2d90613028565b90815260200160405180910390205460648360060154610c4d919061303d565b610c5791906130ae565b5b905060008083600401604051610c6d9061312b565b90815260200160405180910390205411610c88576000610cc3565b82600401604051610c989061312b565b90815260200160405180910390205460648460060154610cb8919061303d565b610cc291906130ae565b5b90506040518060e0016040528084600801548152602001846000018054610ce990612ce4565b80601f0160208091040260200160405190810160405280929190818152602001828054610d1590612ce4565b8015610d625780601f10610d3757610100808354040283529160200191610d62565b820191906000526020600020905b815481529060010190602001808311610d4557829003601f168201915b505050505081526020018460010160009054906101000a900473ffffffffffffffffffffffffffffffffffffffff1673ffffffffffffffffffffffffffffffffffffffff168152602001846002015481526020018460060154815260200183815260200182815250868681518110610ddd57610ddc612af6565b5b60200260200101819052508480610df390613140565b9550505050505b8080600101915050610b85565b5060008167ffffffffffffffff811115610e2457610e23612459565b5b604051908082528060200260200182016040528015610e5d57816020015b610e4a61206d565b815260200190600190039081610e425790505b50905060005b82811015610eb157838181518110610e7e57610e7d612af6565b5b6020026020010151828281518110610e9957610e98612af6565b5b60200260200101819052508080600101915050610e63565b5080935050505090565b60026020528060005260406000206000915090505481565b826001600082815260200190815260200160002060009054906101000a900460ff1615610f35576040517f08c379a0000000000000000000000000000000000000000000000000000000008152600401610f2c906131fa565b60405180910390fd5b600180600083815260200190815260200160002060006101000a81548160ff0219169083151502179055506003805490508410610fa7576040517f08c379a0000000000000000000000000000000000000000000000000000000008152600401610f9e90612ad6565b60405180910390fd5b600060038581548110610fbd57610fbc612af6565b5b90600052602060002090600a020190508060070160009054906101000a900460ff161561101f576040517f08c379a000000000000000000000000000000000000000000000000000000000815260040161101690613266565b60405180910390fd5b60008311611062576040517f08c379a0000000000000000000000000000000000000000000000000000000008152600401611059906132f8565b60405180910390fd5b60008160030160003373ffffffffffffffffffffffffffffffffffffffff1673ffffffffffffffffffffffffffffffffffffffff16815260200190815260200160002060000180546110b390612ce4565b9050146110f5576040517f08c379a00000000000000000000000000000000000000000000000000000000081526004016110ec90613364565b60405180910390fd5b82600260003373ffffffffffffffffffffffffffffffffffffffff1673ffffffffffffffffffffffffffffffffffffffff168152602001908152602001600020541015611177576040517f08c379a000000000000000000000000000000000000000000000000000000000815260040161116e906133d0565b60405180910390fd5b82600260003373ffffffffffffffffffffffffffffffffffffffff1673ffffffffffffffffffffffffffffffffffffffff16815260200190815260200160002060008282546111c69190612a56565b92505081905550600560003373ffffffffffffffffffffffffffffffffffffffff1673ffffffffffffffffffffffffffffffffffffffff16815260200190815260200160002085908060018154018082558091505060019003906000526020600020016000909190919091505560006040518060400160405280868152602001858152509050808260030160003373ffffffffffffffffffffffffffffffffffffffff1673ffffffffffffffffffffffffffffffffffffffff16815260200190815260200160002060008201518160000190816112a39190612ec1565b506020820151816001015590505081600501856040516112c39190613421565b9081526020016040518091039020339080600181540180825580915050600190039060005260206000200160009091909190916101000a81548173ffffffffffffffffffffffffffffffffffffffff021916908373ffffffffffffffffffffffffffffffffffffffff16021790555081600901600081548092919061134790613140565b9190505550611357828686611fc1565b7f951072d4e7517022566506a84e0a5231f06e86a099c6510ee1a1d5d34e71c4603387878760405161138c9493929190613438565b60405180910390a1505060006001600083815260200190815260200160002060006101000a81548160ff02191690831515021790555050505050565b600381815481106113d857600080fd5b90600052602060002090600a02016000915090508060000180546113fb90612ce4565b80601f016020809104026020016040519081016040528092919081815260200182805461142790612ce4565b80156114745780601f1061144957610100808354040283529160200191611474565b820191906000526020600020905b81548152906001019060200180831161145757829003601f168201915b5050505050908060010160009054906101000a900473ffffffffffffffffffffffffffffffffffffffff16908060020154908060060154908060070160009054906101000a900460ff16908060080154908060090154905087565b600460009054906101000a900473ffffffffffffffffffffffffffffffffffffffff1681565b600260005403611531576040517f3ee5aeb500000000000000000000000000000000000000000000000000000000815260040160405180910390fd5b6002600081905550565b6001600081905550565b606060006003838154811061155d5761155c612af6565b5b90600052602060002090600a020190508060070160009054906101000a900460ff16156115bf576040517f08c379a00000000000000000000000000000000000000000000000000000000081526004016115b6906134d0565b60405180910390fd5b600060024244866040516020016115d893929190613511565b6040516020818303038152906040528051906020012060001c6115fb919061354e565b90506000808214611641576040518060400160405280600581526020017f636f726f61000000000000000000000000000000000000000000000000000000815250611678565b6040518060400160405280600481526020017f63617261000000000000000000000000000000000000000000000000000000008152505b9050809350505050919050565b600082600501826040516116999190613421565b908152602001604051809103902080548060200260200160405190810160405280929190818152602001828054801561172757602002820191906000526020600020905b8160009054906101000a900473ffffffffffffffffffffffffffffffffffffffff1673ffffffffffffffffffffffffffffffffffffffff16815260200190600101908083116116dd575b5050505050905060008084600601549050600081905060005b84518110156117c25786600301600086838151811061176257611761612af6565b5b602002602001015173ffffffffffffffffffffffffffffffffffffffff1673ffffffffffffffffffffffffffffffffffffffff16815260200190815260200160002060010154846117b391906129b6565b93508080600101915050611740565b50600060646007846117d4919061303d565b6117de91906130ae565b9050600460009054906101000a900473ffffffffffffffffffffffffffffffffffffffff1673ffffffffffffffffffffffffffffffffffffffff166108fc829081150290604051600060405180830381858888f19350505050158015611848573d6000803e3d6000fd5b5080836118559190612a56565b925060008411156119a95760005b855181101561196357600085858a60030160008a868151811061188957611888612af6565b5b602002602001015173ffffffffffffffffffffffffffffffffffffffff1673ffffffffffffffffffffffffffffffffffffffff168152602001908152602001600020600101546118d9919061303d565b6118e391906130ae565b905080600260008985815181106118fd576118fc612af6565b5b602002602001015173ffffffffffffffffffffffffffffffffffffffff1673ffffffffffffffffffffffffffffffffffffffff168152602001908152602001600020600082825461194e91906129b6565b92505081905550508080600101915050611863565b507fc0b7edc89a5e21c358803037a88cd4371e21b36a6d71e1712e2ebfe150caaae98887878a60000160405161199c94939291906136b2565b60405180910390a1611fb7565b60006040516020016119ba90613028565b6040516020818303038152906040528051906020012090506000876040516020016119e59190613421565b604051602081830303815290604052805190602001209050808203611cde57600089600501604051611a169061312b565b9081526020016040518091039020805480602002602001604051908101604052809291908181526020018280548015611aa457602002820191906000526020600020905b8160009054906101000a900473ffffffffffffffffffffffffffffffffffffffff1673ffffffffffffffffffffffffffffffffffffffff1681526020019060010190808311611a5a575b50505050509050600080825167ffffffffffffffff811115611ac957611ac8612459565b5b604051908082528060200260200182016040528015611af75781602001602082028036833780820191505090505b50905060005b8351811015611bd65760008d6003016000868481518110611b2157611b20612af6565b5b602002602001015173ffffffffffffffffffffffffffffffffffffffff1673ffffffffffffffffffffffffffffffffffffffff16815260200190815260200160002060010154905088606482611b77919061303d565b611b8191906130ae565b838381518110611b9457611b93612af6565b5b602002602001018181525050828281518110611bb357611bb2612af6565b5b602002602001015184611bc691906129b6565b9350508080600101915050611afd565b5060005b8351811015611c975760006064838381518110611bfa57611bf9612af6565b5b60200260200101518b611c0d919061303d565b611c1791906130ae565b90508060026000878581518110611c3157611c30612af6565b5b602002602001015173ffffffffffffffffffffffffffffffffffffffff1673ffffffffffffffffffffffffffffffffffffffff1681526020019081526020016000206000828254611c8291906129b6565b92505081905550508080600101915050611bda565b507fc0b7edc89a5e21c358803037a88cd4371e21b36a6d71e1712e2ebfe150caaae98d848e600001604051611cce9392919061377e565b60405180910390a1505050611fb4565b600089600501604051611cf090613028565b9081526020016040518091039020805480602002602001604051908101604052809291908181526020018280548015611d7e57602002820191906000526020600020905b8160009054906101000a900473ffffffffffffffffffffffffffffffffffffffff1673ffffffffffffffffffffffffffffffffffffffff1681526020019060010190808311611d34575b50505050509050600080825167ffffffffffffffff811115611da357611da2612459565b5b604051908082528060200260200182016040528015611dd15781602001602082028036833780820191505090505b50905060005b8351811015611eb05760008d6003016000868481518110611dfb57611dfa612af6565b5b602002602001015173ffffffffffffffffffffffffffffffffffffffff1673ffffffffffffffffffffffffffffffffffffffff16815260200190815260200160002060010154905088606482611e51919061303d565b611e5b91906130ae565b838381518110611e6e57611e6d612af6565b5b602002602001018181525050828281518110611e8d57611e8c612af6565b5b602002602001015184611ea091906129b6565b9350508080600101915050611dd7565b5060005b8351811015611f715760006064838381518110611ed457611ed3612af6565b5b60200260200101518b611ee7919061303d565b611ef191906130ae565b90508060026000878581518110611f0b57611f0a612af6565b5b602002602001015173ffffffffffffffffffffffffffffffffffffffff1673ffffffffffffffffffffffffffffffffffffffff1681526020019081526020016000206000828254611f5c91906129b6565b92505081905550508080600101915050611eb4565b507fc0b7edc89a5e21c358803037a88cd4371e21b36a6d71e1712e2ebfe150caaae98d848e600001604051611fa89392919061377e565b60405180910390a15050505b50505b5050505050505050565b808360040183604051611fd49190613421565b90815260200160405180910390206000828254611ff191906129b6565b925050819055508083600601600082825461200c91906129b6565b92505081905550505050565b6040518060e001604052806000815260200160608152602001600073ffffffffffffffffffffffffffffffffffffffff1681526020016000815260200160008152602001606081526020016000151581525090565b6040518060e001604052806000815260200160608152602001600073ffffffffffffffffffffffffffffffffffffffff168152602001600081526020016000815260200160008152602001600081525090565b6000604051905090565b600080fd5b600080fd5b600073ffffffffffffffffffffffffffffffffffffffff82169050919050565b60006120ff826120d4565b9050919050565b61210f816120f4565b811461211a57600080fd5b50565b60008135905061212c81612106565b92915050565b6000819050919050565b61214581612132565b811461215057600080fd5b50565b6000813590506121628161213c565b92915050565b6000806040838503121561217f5761217e6120ca565b5b600061218d8582860161211d565b925050602061219e85828601612153565b9150509250929050565b6121b181612132565b82525050565b60006020820190506121cc60008301846121a8565b92915050565b6000602082840312156121e8576121e76120ca565b5b60006121f684828501612153565b91505092915050565b600081519050919050565b600082825260208201905092915050565b6000819050602082019050919050565b61223481612132565b82525050565b600081519050919050565b600082825260208201905092915050565b60005b83811015612274578082015181840152602081019050612259565b60008484015250505050565b6000601f19601f8301169050919050565b600061229c8261223a565b6122a68185612245565b93506122b6818560208601612256565b6122bf81612280565b840191505092915050565b6122d3816120f4565b82525050565b60008115159050919050565b6122ee816122d9565b82525050565b600060e08301600083015161230c600086018261222b565b50602083015184820360208601526123248282612291565b915050604083015161233960408601826122ca565b50606083015161234c606086018261222b565b50608083015161235f608086018261222b565b5060a083015184820360a08601526123778282612291565b91505060c083015161238c60c08601826122e5565b508091505092915050565b60006123a383836122f4565b905092915050565b6000602082019050919050565b60006123c3826121ff565b6123cd818561220a565b9350836020820285016123df8561221b565b8060005b8581101561241b57848403895281516123fc8582612397565b9450612407836123ab565b925060208a019950506001810190506123e3565b50829750879550505050505092915050565b6000602082019050818103600083015261244781846123b8565b905092915050565b600080fd5b600080fd5b7f4e487b7100000000000000000000000000000000000000000000000000000000600052604160045260246000fd5b61249182612280565b810181811067ffffffffffffffff821117156124b0576124af612459565b5b80604052505050565b60006124c36120c0565b90506124cf8282612488565b919050565b600067ffffffffffffffff8211156124ef576124ee612459565b5b6124f882612280565b9050602081019050919050565b82818337600083830152505050565b6000612527612522846124d4565b6124b9565b90508281526020810184848401111561254357612542612454565b5b61254e848285612505565b509392505050565b600082601f83011261256b5761256a61244f565b5b813561257b848260208601612514565b91505092915050565b6000806040838503121561259b5761259a6120ca565b5b600083013567ffffffffffffffff8111156125b9576125b86120cf565b5b6125c585828601612556565b92505060206125d685828601612153565b9150509250929050565b600081519050919050565b600082825260208201905092915050565b6000819050602082019050919050565b600060e083016000830151612624600086018261222b565b506020830151848203602086015261263c8282612291565b915050604083015161265160408601826122ca565b506060830151612664606086018261222b565b506080830151612677608086018261222b565b5060a083015161268a60a086018261222b565b5060c083015161269d60c086018261222b565b508091505092915050565b60006126b4838361260c565b905092915050565b6000602082019050919050565b60006126d4826125e0565b6126de81856125eb565b9350836020820285016126f0856125fc565b8060005b8581101561272c578484038952815161270d85826126a8565b9450612718836126bc565b925060208a019950506001810190506126f4565b50829750879550505050505092915050565b6000602082019050818103600083015261275881846126c9565b905092915050565b600060208284031215612776576127756120ca565b5b60006127848482850161211d565b91505092915050565b6000806000606084860312156127a6576127a56120ca565b5b60006127b486828701612153565b935050602084013567ffffffffffffffff8111156127d5576127d46120cf565b5b6127e186828701612556565b92505060406127f286828701612153565b9150509250925092565b600082825260208201905092915050565b60006128188261223a565b61282281856127fc565b9350612832818560208601612256565b61283b81612280565b840191505092915050565b61284f816120f4565b82525050565b61285e816122d9565b82525050565b600060e082019050818103600083015261287e818a61280d565b905061288d6020830189612846565b61289a60408301886121a8565b6128a760608301876121a8565b6128b46080830186612855565b6128c160a08301856121a8565b6128ce60c08301846121a8565b98975050505050505050565b60006020820190506128ef6000830184612846565b92915050565b7f4f2076616c6f7220646f206465706f7369746f206465766520736572206d616960008201527f6f7220717565207a65726f000000000000000000000000000000000000000000602082015250565b6000612951602b836127fc565b915061295c826128f5565b604082019050919050565b6000602082019050818103600083015261298081612944565b9050919050565b7f4e487b7100000000000000000000000000000000000000000000000000000000600052601160045260246000fd5b60006129c182612132565b91506129cc83612132565b92508282019050808211156129e4576129e3612987565b5b92915050565b7f53616c646f20696e737566696369656e74650000000000000000000000000000600082015250565b6000612a206012836127fc565b9150612a2b826129ea565b602082019050919050565b60006020820190508181036000830152612a4f81612a13565b9050919050565b6000612a6182612132565b9150612a6c83612132565b9250828203905081811115612a8457612a83612987565b5b92915050565b7f41706f737461206e616f20656e636f6e74726164610000000000000000000000600082015250565b6000612ac06015836127fc565b9150612acb82612a8a565b602082019050919050565b60006020820190508181036000830152612aef81612ab3565b9050919050565b7f4e487b7100000000000000000000000000000000000000000000000000000000600052603260045260246000fd5b7f4576656e746f206a61206665636861646f000000000000000000000000000000600082015250565b6000612b5b6011836127fc565b9150612b6682612b25565b602082019050919050565b60006020820190508181036000830152612b8a81612b4e565b9050919050565b7f536f6d656e7465206f20646f6e6f206f75207175616c7175657220706573736f60008201527f612061706f7320312064696120706f646520656e636572726172000000000000602082015250565b6000612bed603a836127fc565b9150612bf882612b91565b604082019050919050565b60006020820190508181036000830152612c1c81612be0565b9050919050565b7f4576656e746f2061696e6461206e616f20706f64652073657220656e6365727260008201527f61646f0000000000000000000000000000000000000000000000000000000000602082015250565b6000612c7f6023836127fc565b9150612c8a82612c23565b604082019050919050565b60006020820190508181036000830152612cae81612c72565b9050919050565b7f4e487b7100000000000000000000000000000000000000000000000000000000600052602260045260246000fd5b60006002820490506001821680612cfc57607f821691505b602082108103612d0f57612d0e612cb5565b5b50919050565b60008190508160005260206000209050919050565b60006020601f8301049050919050565b600082821b905092915050565b600060088302612d777fffffffffffffffffffffffffffffffffffffffffffffffffffffffffffffffff82612d3a565b612d818683612d3a565b95508019841693508086168417925050509392505050565b6000819050919050565b6000612dbe612db9612db484612132565b612d99565b612132565b9050919050565b6000819050919050565b612dd883612da3565b612dec612de482612dc5565b848454612d47565b825550505050565b600090565b612e01612df4565b612e0c818484612dcf565b505050565b5b81811015612e3057612e25600082612df9565b600181019050612e12565b5050565b601f821115612e7557612e4681612d15565b612e4f84612d2a565b81016020851015612e5e578190505b612e72612e6a85612d2a565b830182612e11565b50505b505050565b600082821c905092915050565b6000612e9860001984600802612e7a565b1980831691505092915050565b6000612eb18383612e87565b9150826002028217905092915050565b612eca8261223a565b67ffffffffffffffff811115612ee357612ee2612459565b5b612eed8254612ce4565b612ef8828285612e34565b600060209050601f831160018114612f2b5760008415612f19578287015190505b612f238582612ea5565b865550612f8b565b601f198416612f3986612d15565b60005b82811015612f6157848901518255600182019150602085019450602081019050612f3c565b86831015612f7e5784890151612f7a601f891682612e87565b8355505b6001600288020188555050505b505050505050565b6000606082019050612fa86000830186612846565b612fb560208301856121a8565b8181036040830152612fc7818461280d565b9050949350505050565b600081905092915050565b7f6361726100000000000000000000000000000000000000000000000000000000600082015250565b6000613012600483612fd1565b915061301d82612fdc565b600482019050919050565b600061303382613005565b9150819050919050565b600061304882612132565b915061305383612132565b925082820261306181612132565b9150828204841483151761307857613077612987565b5b5092915050565b7f4e487b7100000000000000000000000000000000000000000000000000000000600052601260045260246000fd5b60006130b982612132565b91506130c483612132565b9250826130d4576130d361307f565b5b828204905092915050565b7f636f726f61000000000000000000000000000000000000000000000000000000600082015250565b6000613115600583612fd1565b9150613120826130df565b600582019050919050565b600061313682613108565b9150819050919050565b600061314b82612132565b91507fffffffffffffffffffffffffffffffffffffffffffffffffffffffffffffffff820361317d5761317c612987565b5b600182019050919050565b7f5265656e7472616e63696120646574656365746164612070617261206573736560008201527f206576656e746f00000000000000000000000000000000000000000000000000602082015250565b60006131e46027836127fc565b91506131ef82613188565b604082019050919050565b60006020820190508181036000830152613213816131d7565b9050919050565b7f41706f737461206a612066656368616461000000000000000000000000000000600082015250565b60006132506011836127fc565b915061325b8261321a565b602082019050919050565b6000602082019050818103600083015261327f81613243565b9050919050565b7f56616c6f722064612061706f737461206465766520736572206d61696f72207160008201527f7565207a65726f00000000000000000000000000000000000000000000000000602082015250565b60006132e26027836127fc565b91506132ed82613286565b604082019050919050565b60006020820190508181036000830152613311816132d5565b9050919050565b7f4a61207265616c697a6f7520756d612061706f73746100000000000000000000600082015250565b600061334e6016836127fc565b915061335982613318565b602082019050919050565b6000602082019050818103600083015261337d81613341565b9050919050565b7f53616c646f20696e737566696369656e7465206e612063617274656972610000600082015250565b60006133ba601e836127fc565b91506133c582613384565b602082019050919050565b600060208201905081810360008301526133e9816133ad565b9050919050565b60006133fb8261223a565b6134058185612fd1565b9350613415818560208601612256565b80840191505092915050565b600061342d82846133f0565b915081905092915050565b600060808201905061344d6000830187612846565b61345a60208301866121a8565b818103604083015261346c818561280d565b905061347b60608301846121a8565b95945050505050565b7f526573756c7461646f206a61207075626c696361646f00000000000000000000600082015250565b60006134ba6016836127fc565b91506134c582613484565b602082019050919050565b600060208201905081810360008301526134e9816134ad565b9050919050565b6000819050919050565b61350b61350682612132565b6134f0565b82525050565b600061351d82866134fa565b60208201915061352d82856134fa565b60208201915061353d82846134fa565b602082019150819050949350505050565b600061355982612132565b915061356483612132565b9250826135745761357361307f565b5b828206905092915050565b600081519050919050565b600082825260208201905092915050565b6000819050602082019050919050565b60006135b783836122ca565b60208301905092915050565b6000602082019050919050565b60006135db8261357f565b6135e5818561358a565b93506135f08361359b565b8060005b8381101561362157815161360888826135ab565b9750613613836135c3565b9250506001810190506135f4565b5085935050505092915050565b6000815461363b81612ce4565b61364581866127fc565b945060018216600081146136605760018114613676576136a9565b60ff1983168652811515602002860193506136a9565b61367f85612d15565b60005b838110156136a157815481890152600182019150602081019050613682565b808801955050505b50505092915050565b60006080820190506136c760008301876121a8565b81810360208301526136d9818661280d565b905081810360408301526136ed81856135d0565b90508181036060830152613701818461362e565b905095945050505050565b7f53656d2076656e6365646f7265732c206e61206c69737461207265656d626f6c60008201527f7361646f73000000000000000000000000000000000000000000000000000000602082015250565b60006137686025836127fc565b91506137738261370c565b604082019050919050565b600060808201905061379360008301866121a8565b81810360208301526137a48161375b565b905081810360408301526137b881856135d0565b905081810360608301526137cc818461362e565b905094935050505056fea2646970667358221220a2d1eb7602eec8db8211234093064ea5dce46984c33d5cf289519eea2d49a7b264736f6c634300081b0033",
  "linkReferences": {},
  "deployedLinkReferences": {}
}