{
  "_format": "hh-sol-artifact-1",
  "contractName": "evento",
  "sourceName": "contracts/evento.sol",
  "abi": [
    {
      "anonymous": false,
      "inputs": [
        {
          "indexed": false,
          "internalType": "address",
          "name": "criador",
          "type": "address"
        },
        {
          "indexed": false,
          "internalType": "uint256",
          "name": "apostaIndex",
          "type": "uint256"
        },
        {
          "indexed": false,
          "internalType": "string",
          "name": "descricao",
          "type": "string"
        }
      ],
      "name": "NovaApostaCriada",
      "type": "event"
    },
    {
      "anonymous": false,
      "inputs": [
        {
          "indexed": false,
          "internalType": "uint256",
          "name": "apostaIndex",
          "type": "uint256"
        },
        {
          "indexed": false,
          "internalType": "string",
          "name": "resultado",
          "type": "string"
        },
        {
          "indexed": false,
          "internalType": "address[]",
          "name": "vencedores",
          "type": "address[]"
        },
        {
          "indexed": false,
          "internalType": "string",
          "name": "descricao",
          "type": "string"
        }
      ],
      "name": "Resultado",
      "type": "event"
    },
    {
      "anonymous": false,
      "inputs": [
        {
          "indexed": false,
          "internalType": "uint256",
          "name": "apostaIndex",
          "type": "uint256"
        },
        {
          "indexed": false,
          "internalType": "uint256",
          "name": "timestamp",
          "type": "uint256"
        }
      ],
      "name": "ResultadoChamado",
      "type": "event"
    },
    {
      "inputs": [
        {
          "internalType": "uint256",
          "name": "apostaIndex",
          "type": "uint256"
        },
        {
          "internalType": "string",
          "name": "tipoResultado",
          "type": "string"
        },
        {
          "internalType": "uint256",
          "name": "valorAposta",
          "type": "uint256"
        }
      ],
      "name": "apostar",
      "outputs": [],
      "stateMutability": "nonpayable",
      "type": "function"
    },
    {
      "inputs": [
        {
          "internalType": "uint256",
          "name": "apostaIndex",
          "type": "uint256"
        },
        {
          "internalType": "string",
          "name": "tipoResultado",
          "type": "string"
        }
      ],
      "name": "calcularOddsDinamicas",
      "outputs": [
        {
          "internalType": "uint256",
          "name": "",
          "type": "uint256"
        }
      ],
      "stateMutability": "view",
      "type": "function"
    },
    {
      "inputs": [
        {
          "internalType": "address",
          "name": "",
          "type": "address"
        }
      ],
      "name": "carteiras",
      "outputs": [
        {
          "internalType": "uint256",
          "name": "",
          "type": "uint256"
        }
      ],
      "stateMutability": "view",
      "type": "function"
    },
    {
      "inputs": [
        {
          "internalType": "string",
          "name": "descricao",
          "type": "string"
        }
      ],
      "name": "criarNovaAposta",
      "outputs": [],
      "stateMutability": "nonpayable",
      "type": "function"
    },
    {
      "inputs": [],
      "name": "depositar",
      "outputs": [],
      "stateMutability": "payable",
      "type": "function"
    },
    {
      "inputs": [],
      "name": "getApostas",
      "outputs": [
        {
          "internalType": "string[]",
          "name": "",
          "type": "string[]"
        },
        {
          "internalType": "address[]",
          "name": "",
          "type": "address[]"
        },
        {
          "internalType": "uint256[]",
          "name": "",
          "type": "uint256[]"
        },
        {
          "internalType": "uint256[]",
          "name": "",
          "type": "uint256[]"
        }
      ],
      "stateMutability": "view",
      "type": "function"
    },
    {
      "inputs": [
        {
          "internalType": "uint256",
          "name": "",
          "type": "uint256"
        }
      ],
      "name": "listaDeApostas",
      "outputs": [
        {
          "internalType": "string",
          "name": "descricao",
          "type": "string"
        },
        {
          "internalType": "address",
          "name": "dono",
          "type": "address"
        },
        {
          "internalType": "uint256",
          "name": "unlockTime",
          "type": "uint256"
        },
        {
          "internalType": "uint256",
          "name": "totalApostadoGeral",
          "type": "uint256"
        },
        {
          "internalType": "bool",
          "name": "apostaFechada",
          "type": "bool"
        }
      ],
      "stateMutability": "view",
      "type": "function"
    },
    {
      "inputs": [
        {
          "internalType": "uint256",
          "name": "apostaIndex",
          "type": "uint256"
        }
      ],
      "name": "resultado",
      "outputs": [],
      "stateMutability": "nonpayable",
      "type": "function"
    },
    {
      "inputs": [
        {
          "internalType": "uint256",
          "name": "valor",
          "type": "uint256"
        }
      ],
      "name": "sacar",
      "outputs": [],
      "stateMutability": "nonpayable",
      "type": "function"
    }
  ],
  "bytecode": "0x6080604052348015600f57600080fd5b506127888061001f6000396000f3fe6080604052600436106100865760003560e01c80637f4c4019116100595780637f4c401914610124578063b38fd53d1461014d578063c98c92c81461017b578063e48d6cb7146101b8578063fd05dcab146101e157610086565b80633d922f901461008b578063438a9fd9146100955780637299f100146100d25780637371b0d6146100fb575b600080fd5b610093610222565b005b3480156100a157600080fd5b506100bc60048036038101906100b79190611581565b6102bc565b6040516100c991906115ec565b60405180910390f35b3480156100de57600080fd5b506100f960048036038101906100f49190611607565b6103df565b005b34801561010757600080fd5b50610122600480360381019061011d9190611650565b610526565b005b34801561013057600080fd5b5061014b60048036038101906101469190611650565b610646565b005b34801561015957600080fd5b506101626107bf565b604051610172949392919061196c565b60405180910390f35b34801561018757600080fd5b506101a2600480360381019061019d91906119f9565b610ac4565b6040516101af91906115ec565b60405180910390f35b3480156101c457600080fd5b506101df60048036038101906101da9190611a26565b610adc565b005b3480156101ed57600080fd5b5061020860048036038101906102039190611650565b610e9e565b604051610219959493929190611b09565b60405180910390f35b60003411610265576040517f08c379a000000000000000000000000000000000000000000000000000000000815260040161025c90611bd5565b60405180910390fd5b346000803373ffffffffffffffffffffffffffffffffffffffff1673ffffffffffffffffffffffffffffffffffffffff16815260200190815260200160002060008282546102b39190611c24565b92505081905550565b60006001805490508310610305576040517f08c379a00000000000000000000000000000000000000000000000000000000081526004016102fc90611ca4565b60405180910390fd5b60006001848154811061031b5761031a611cc4565b5b906000526020600020906008020190506000816004018460405161033f9190611d2f565b9081526020016040518091039020541161038e576040517f08c379a000000000000000000000000000000000000000000000000000000000815260040161038590611d92565b60405180910390fd5b600081600401846040516103a29190611d2f565b9081526020016040518091039020549050600081606484600601546103c79190611db2565b6103d19190611e23565b905080935050505092915050565b600060b4426103ee9190611c24565b9050804210610432576040517f08c379a000000000000000000000000000000000000000000000000000000000815260040161042990611ec6565b60405180910390fd5b60006001808160018154018082558091505003906000526020600020906008020190508281600001908161046691906120f2565b50338160010160006101000a81548173ffffffffffffffffffffffffffffffffffffffff021916908373ffffffffffffffffffffffffffffffffffffffff16021790555081816002018190555060008160070160006101000a81548160ff0219169083151502179055506000600180805490506104e391906121c4565b90507f721558d898b4db81678d021fc33e971d00c4cbcf012d91dd9c82706a7863774c338286604051610518939291906121f8565b60405180910390a150505050565b806000803373ffffffffffffffffffffffffffffffffffffffff1673ffffffffffffffffffffffffffffffffffffffff1681526020019081526020016000205410156105a7576040517f08c379a000000000000000000000000000000000000000000000000000000000815260040161059e90612282565b60405180910390fd5b806000803373ffffffffffffffffffffffffffffffffffffffff1673ffffffffffffffffffffffffffffffffffffffff16815260200190815260200160002060008282546105f591906121c4565b925050819055503373ffffffffffffffffffffffffffffffffffffffff166108fc829081150290604051600060405180830381858888f19350505050158015610642573d6000803e3d6000fd5b5050565b7f5412dc3a0a83ed93795a2ac86ceb7953940246dec5424b5392a96d93e550c19381426040516106779291906122a2565b60405180910390a160018054905081106106c6576040517f08c379a00000000000000000000000000000000000000000000000000000000081526004016106bd90611ca4565b60405180910390fd5b6000600182815481106106dc576106db611cc4565b5b906000526020600020906008020190508060070160009054906101000a900460ff161561073e576040517f08c379a000000000000000000000000000000000000000000000000000000000815260040161073590612317565b60405180910390fd5b8060020154421015610785576040517f08c379a000000000000000000000000000000000000000000000000000000000815260040161077c90612383565b60405180910390fd5b600061079083610f99565b905061079d8383836110d9565b60018260070160006101000a81548160ff021916908315150217905550505050565b6060806060806000600180549050905060008167ffffffffffffffff8111156107eb576107ea611456565b5b60405190808252806020026020018201604052801561081e57816020015b60608152602001906001900390816108095790505b50905060008267ffffffffffffffff81111561083d5761083c611456565b5b60405190808252806020026020018201604052801561086b5781602001602082028036833780820191505090505b50905060008367ffffffffffffffff81111561088a57610889611456565b5b6040519080825280602002602001820160405280156108b85781602001602082028036833780820191505090505b50905060008467ffffffffffffffff8111156108d7576108d6611456565b5b6040519080825280602002602001820160405280156109055781602001602082028036833780820191505090505b50905060005b85811015610aac5760006001828154811061092957610928611cc4565b5b9060005260206000209060080201905080600001805461094890611f15565b80601f016020809104026020016040519081016040528092919081815260200182805461097490611f15565b80156109c15780601f10610996576101008083540402835291602001916109c1565b820191906000526020600020905b8154815290600101906020018083116109a457829003601f168201915b50505050508683815181106109d9576109d8611cc4565b5b60200260200101819052508060010160009054906101000a900473ffffffffffffffffffffffffffffffffffffffff16858381518110610a1c57610a1b611cc4565b5b602002602001019073ffffffffffffffffffffffffffffffffffffffff16908173ffffffffffffffffffffffffffffffffffffffff16815250508060020154848381518110610a6e57610a6d611cc4565b5b6020026020010181815250508060060154838381518110610a9257610a91611cc4565b5b60200260200101818152505050808060010191505061090b565b50838383839850985098509850505050505090919293565b60006020528060005260406000206000915090505481565b6001805490508310610b23576040517f08c379a0000000000000000000000000000000000000000000000000000000008152600401610b1a90611ca4565b60405180910390fd5b600060018481548110610b3957610b38611cc4565b5b906000526020600020906008020190508060070160009054906101000a900460ff1615610b9b576040517f08c379a0000000000000000000000000000000000000000000000000000000008152600401610b9290612317565b60405180910390fd5b80600201544210610be1576040517f08c379a0000000000000000000000000000000000000000000000000000000008152600401610bd890611ec6565b60405180910390fd5b60008211610c24576040517f08c379a0000000000000000000000000000000000000000000000000000000008152600401610c1b90612415565b60405180910390fd5b60008160030160003373ffffffffffffffffffffffffffffffffffffffff1673ffffffffffffffffffffffffffffffffffffffff1681526020019081526020016000206000018054610c7590611f15565b905014610cb7576040517f08c379a0000000000000000000000000000000000000000000000000000000008152600401610cae90612481565b60405180910390fd5b816000803373ffffffffffffffffffffffffffffffffffffffff1673ffffffffffffffffffffffffffffffffffffffff168152602001908152602001600020541015610d38576040517f08c379a0000000000000000000000000000000000000000000000000000000008152600401610d2f906124ed565b60405180910390fd5b816000803373ffffffffffffffffffffffffffffffffffffffff1673ffffffffffffffffffffffffffffffffffffffff1681526020019081526020016000206000828254610d8691906121c4565b9250508190555060006040518060400160405280858152602001848152509050808260030160003373ffffffffffffffffffffffffffffffffffffffff1673ffffffffffffffffffffffffffffffffffffffff1681526020019081526020016000206000820151816000019081610dfd91906120f2565b50602082015181600101559050508160050184604051610e1d9190611d2f565b9081526020016040518091039020339080600181540180825580915050600190039060005260206000200160009091909190916101000a81548173ffffffffffffffffffffffffffffffffffffffff021916908373ffffffffffffffffffffffffffffffffffffffff160217905550610e9782858561139a565b5050505050565b60018181548110610eae57600080fd5b9060005260206000209060080201600091509050806000018054610ed190611f15565b80601f0160208091040260200160405190810160405280929190818152602001828054610efd90611f15565b8015610f4a5780601f10610f1f57610100808354040283529160200191610f4a565b820191906000526020600020905b815481529060010190602001808311610f2d57829003601f168201915b5050505050908060010160009054906101000a900473ffffffffffffffffffffffffffffffffffffffff16908060020154908060060154908060070160009054906101000a900460ff16905085565b6060600060018381548110610fb157610fb0611cc4565b5b906000526020600020906008020190508060070160009054906101000a900460ff1615611013576040517f08c379a000000000000000000000000000000000000000000000000000000000815260040161100a90612559565b60405180910390fd5b6000600242448660405160200161102c9392919061259a565b6040516020818303038152906040528051906020012060001c61104f91906125d7565b90506000808214611095576040518060400160405280600581526020017f636f726f610000000000000000000000000000000000000000000000000000008152506110cc565b6040518060400160405280600481526020017f63617261000000000000000000000000000000000000000000000000000000008152505b9050809350505050919050565b600082600501826040516110ed9190611d2f565b908152602001604051809103902080548060200260200160405190810160405280929190818152602001828054801561117b57602002820191906000526020600020905b8160009054906101000a900473ffffffffffffffffffffffffffffffffffffffff1673ffffffffffffffffffffffffffffffffffffffff1681526020019060010190808311611131575b505050505090506000805b8251811015611208578460030160008483815181106111a8576111a7611cc4565b5b602002602001015173ffffffffffffffffffffffffffffffffffffffff1673ffffffffffffffffffffffffffffffffffffffff16815260200190815260200160002060010154826111f99190611c24565b91508080600101915050611186565b506000811161124c576040517f08c379a000000000000000000000000000000000000000000000000000000000815260040161124390612654565b60405180910390fd5b60005b825181101561135257600082866006015487600301600087868151811061127957611278611cc4565b5b602002602001015173ffffffffffffffffffffffffffffffffffffffff1673ffffffffffffffffffffffffffffffffffffffff168152602001908152602001600020600101546112c99190611db2565b6112d39190611e23565b9050806000808685815181106112ec576112eb611cc4565b5b602002602001015173ffffffffffffffffffffffffffffffffffffffff1673ffffffffffffffffffffffffffffffffffffffff168152602001908152602001600020600082825461133d9190611c24565b9250508190555050808060010191505061124f565b507fc0b7edc89a5e21c358803037a88cd4371e21b36a6d71e1712e2ebfe150caaae98584848760000160405161138b94939291906126f8565b60405180910390a15050505050565b8083600401836040516113ad9190611d2f565b908152602001604051809103902060008282546113ca9190611c24565b92505081905550808360060160008282546113e59190611c24565b92505081905550505050565b6000604051905090565b600080fd5b600080fd5b6000819050919050565b61141881611405565b811461142357600080fd5b50565b6000813590506114358161140f565b92915050565b600080fd5b600080fd5b6000601f19601f8301169050919050565b7f4e487b7100000000000000000000000000000000000000000000000000000000600052604160045260246000fd5b61148e82611445565b810181811067ffffffffffffffff821117156114ad576114ac611456565b5b80604052505050565b60006114c06113f1565b90506114cc8282611485565b919050565b600067ffffffffffffffff8211156114ec576114eb611456565b5b6114f582611445565b9050602081019050919050565b82818337600083830152505050565b600061152461151f846114d1565b6114b6565b9050828152602081018484840111156115405761153f611440565b5b61154b848285611502565b509392505050565b600082601f8301126115685761156761143b565b5b8135611578848260208601611511565b91505092915050565b60008060408385031215611598576115976113fb565b5b60006115a685828601611426565b925050602083013567ffffffffffffffff8111156115c7576115c6611400565b5b6115d385828601611553565b9150509250929050565b6115e681611405565b82525050565b600060208201905061160160008301846115dd565b92915050565b60006020828403121561161d5761161c6113fb565b5b600082013567ffffffffffffffff81111561163b5761163a611400565b5b61164784828501611553565b91505092915050565b600060208284031215611666576116656113fb565b5b600061167484828501611426565b91505092915050565b600081519050919050565b600082825260208201905092915050565b6000819050602082019050919050565b600081519050919050565b600082825260208201905092915050565b60005b838110156116e35780820151818401526020810190506116c8565b60008484015250505050565b60006116fa826116a9565b61170481856116b4565b93506117148185602086016116c5565b61171d81611445565b840191505092915050565b600061173483836116ef565b905092915050565b6000602082019050919050565b60006117548261167d565b61175e8185611688565b93508360208202850161177085611699565b8060005b858110156117ac578484038952815161178d8582611728565b94506117988361173c565b925060208a01995050600181019050611774565b50829750879550505050505092915050565b600081519050919050565b600082825260208201905092915050565b6000819050602082019050919050565b600073ffffffffffffffffffffffffffffffffffffffff82169050919050565b6000611815826117ea565b9050919050565b6118258161180a565b82525050565b6000611837838361181c565b60208301905092915050565b6000602082019050919050565b600061185b826117be565b61186581856117c9565b9350611870836117da565b8060005b838110156118a1578151611888888261182b565b975061189383611843565b925050600181019050611874565b5085935050505092915050565b600081519050919050565b600082825260208201905092915050565b6000819050602082019050919050565b6118e381611405565b82525050565b60006118f583836118da565b60208301905092915050565b6000602082019050919050565b6000611919826118ae565b61192381856118b9565b935061192e836118ca565b8060005b8381101561195f57815161194688826118e9565b975061195183611901565b925050600181019050611932565b5085935050505092915050565b600060808201905081810360008301526119868187611749565b9050818103602083015261199a8186611850565b905081810360408301526119ae818561190e565b905081810360608301526119c2818461190e565b905095945050505050565b6119d68161180a565b81146119e157600080fd5b50565b6000813590506119f3816119cd565b92915050565b600060208284031215611a0f57611a0e6113fb565b5b6000611a1d848285016119e4565b91505092915050565b600080600060608486031215611a3f57611a3e6113fb565b5b6000611a4d86828701611426565b935050602084013567ffffffffffffffff811115611a6e57611a6d611400565b5b611a7a86828701611553565b9250506040611a8b86828701611426565b9150509250925092565b600082825260208201905092915050565b6000611ab1826116a9565b611abb8185611a95565b9350611acb8185602086016116c5565b611ad481611445565b840191505092915050565b611ae88161180a565b82525050565b60008115159050919050565b611b0381611aee565b82525050565b600060a0820190508181036000830152611b238188611aa6565b9050611b326020830187611adf565b611b3f60408301866115dd565b611b4c60608301856115dd565b611b596080830184611afa565b9695505050505050565b7f4f2076616c6f7220646f206465706f7369746f206465766520736572206d616960008201527f6f7220717565207a65726f000000000000000000000000000000000000000000602082015250565b6000611bbf602b83611a95565b9150611bca82611b63565b604082019050919050565b60006020820190508181036000830152611bee81611bb2565b9050919050565b7f4e487b7100000000000000000000000000000000000000000000000000000000600052601160045260246000fd5b6000611c2f82611405565b9150611c3a83611405565b9250828201905080821115611c5257611c51611bf5565b5b92915050565b7f41706f737461206e616f20656e636f6e74726164610000000000000000000000600082015250565b6000611c8e601583611a95565b9150611c9982611c58565b602082019050919050565b60006020820190508181036000830152611cbd81611c81565b9050919050565b7f4e487b7100000000000000000000000000000000000000000000000000000000600052603260045260246000fd5b600081905092915050565b6000611d09826116a9565b611d138185611cf3565b9350611d238185602086016116c5565b80840191505092915050565b6000611d3b8284611cfe565b915081905092915050565b7f4e656e68756d612061706f737461206e6573746520726573756c7461646f0000600082015250565b6000611d7c601e83611a95565b9150611d8782611d46565b602082019050919050565b60006020820190508181036000830152611dab81611d6f565b9050919050565b6000611dbd82611405565b9150611dc883611405565b9250828202611dd681611405565b91508282048414831517611ded57611dec611bf5565b5b5092915050565b7f4e487b7100000000000000000000000000000000000000000000000000000000600052601260045260246000fd5b6000611e2e82611405565b9150611e3983611405565b925082611e4957611e48611df4565b5b828204905092915050565b7f556e6c6f636b2074696d652073686f756c6420626520696e207468652066757460008201527f7572650000000000000000000000000000000000000000000000000000000000602082015250565b6000611eb0602383611a95565b9150611ebb82611e54565b604082019050919050565b60006020820190508181036000830152611edf81611ea3565b9050919050565b7f4e487b7100000000000000000000000000000000000000000000000000000000600052602260045260246000fd5b60006002820490506001821680611f2d57607f821691505b602082108103611f4057611f3f611ee6565b5b50919050565b60008190508160005260206000209050919050565b60006020601f8301049050919050565b600082821b905092915050565b600060088302611fa87fffffffffffffffffffffffffffffffffffffffffffffffffffffffffffffffff82611f6b565b611fb28683611f6b565b95508019841693508086168417925050509392505050565b6000819050919050565b6000611fef611fea611fe584611405565b611fca565b611405565b9050919050565b6000819050919050565b61200983611fd4565b61201d61201582611ff6565b848454611f78565b825550505050565b600090565b612032612025565b61203d818484612000565b505050565b5b818110156120615761205660008261202a565b600181019050612043565b5050565b601f8211156120a65761207781611f46565b61208084611f5b565b8101602085101561208f578190505b6120a361209b85611f5b565b830182612042565b50505b505050565b600082821c905092915050565b60006120c9600019846008026120ab565b1980831691505092915050565b60006120e283836120b8565b9150826002028217905092915050565b6120fb826116a9565b67ffffffffffffffff81111561211457612113611456565b5b61211e8254611f15565b612129828285612065565b600060209050601f83116001811461215c576000841561214a578287015190505b61215485826120d6565b8655506121bc565b601f19841661216a86611f46565b60005b828110156121925784890151825560018201915060208501945060208101905061216d565b868310156121af57848901516121ab601f8916826120b8565b8355505b6001600288020188555050505b505050505050565b60006121cf82611405565b91506121da83611405565b92508282039050818111156121f2576121f1611bf5565b5b92915050565b600060608201905061220d6000830186611adf565b61221a60208301856115dd565b818103604083015261222c8184611aa6565b9050949350505050565b7f53616c646f20696e737566696369656e74650000000000000000000000000000600082015250565b600061226c601283611a95565b915061227782612236565b602082019050919050565b6000602082019050818103600083015261229b8161225f565b9050919050565b60006040820190506122b760008301856115dd565b6122c460208301846115dd565b9392505050565b7f41706f737461206a612066656368616461000000000000000000000000000000600082015250565b6000612301601183611a95565b915061230c826122cb565b602082019050919050565b60006020820190508181036000830152612330816122f4565b9050919050565b7f41706f7374612061696e6461206e616f207465726d696e6f7500000000000000600082015250565b600061236d601983611a95565b915061237882612337565b602082019050919050565b6000602082019050818103600083015261239c81612360565b9050919050565b7f56616c6f722064612061706f737461206465766520736572206d61696f72207160008201527f7565207a65726f00000000000000000000000000000000000000000000000000602082015250565b60006123ff602783611a95565b915061240a826123a3565b604082019050919050565b6000602082019050818103600083015261242e816123f2565b9050919050565b7f4a61207265616c697a6f7520756d612061706f73746100000000000000000000600082015250565b600061246b601683611a95565b915061247682612435565b602082019050919050565b6000602082019050818103600083015261249a8161245e565b9050919050565b7f53616c646f20696e737566696369656e7465206e612063617274656972610000600082015250565b60006124d7601e83611a95565b91506124e2826124a1565b602082019050919050565b60006020820190508181036000830152612506816124ca565b9050919050565b7f526573756c7461646f206a61207075626c696361646f00000000000000000000600082015250565b6000612543601683611a95565b915061254e8261250d565b602082019050919050565b6000602082019050818103600083015261257281612536565b9050919050565b6000819050919050565b61259461258f82611405565b612579565b82525050565b60006125a68286612583565b6020820191506125b68285612583565b6020820191506125c68284612583565b602082019150819050949350505050565b60006125e282611405565b91506125ed83611405565b9250826125fd576125fc611df4565b5b828206905092915050565b7f4e616f2068612076656e6365646f72657320636f6d2061706f73746173000000600082015250565b600061263e601d83611a95565b915061264982612608565b602082019050919050565b6000602082019050818103600083015261266d81612631565b9050919050565b6000815461268181611f15565b61268b8186611a95565b945060018216600081146126a657600181146126bc576126ef565b60ff1983168652811515602002860193506126ef565b6126c585611f46565b60005b838110156126e7578154818901526001820191506020810190506126c8565b808801955050505b50505092915050565b600060808201905061270d60008301876115dd565b818103602083015261271f8186611aa6565b905081810360408301526127338185611850565b905081810360608301526127478184612674565b90509594505050505056fea264697066735822122068989aad0abb299a0437289a9f51bdc68cab2a01cf5e3c2a1777a1f4fecb64b264736f6c634300081b0033",
  "linkReferences": {},
  "deployedLinkReferences": {}
}