{
  "_format": "hh-sol-artifact-1",
  "contractName": "FabricaDeApostas",
  "sourceName": "contracts/FabricaDeApostas.sol",
  "abi": [
    {
      "inputs": [
        {
          "internalType": "uint256",
          "name": "",
          "type": "uint256"
        }
      ],
      "name": "apostas",
      "outputs": [
        {
          "internalType": "contract Aposta",
          "name": "",
          "type": "address"
        }
      ],
      "stateMutability": "view",
      "type": "function"
    },
    {
      "inputs": [
        {
          "internalType": "string",
          "name": "descricao",
          "type": "string"
        }
      ],
      "name": "criarNovaAposta",
      "outputs": [],
      "stateMutability": "nonpayable",
      "type": "function"
    },
    {
      "inputs": [],
      "name": "listarApostas",
      "outputs": [
        {
          "internalType": "contract Aposta[]",
          "name": "",
          "type": "address[]"
        }
      ],
      "stateMutability": "view",
      "type": "function"
    }
  ],
  "bytecode": "0x6080604052348015600f57600080fd5b506124298061001f6000396000f3fe608060405234801561001057600080fd5b50600436106100415760003560e01c80630bfec4c51461004657806330421b8f146100765780637299f10014610094575b600080fd5b610060600480360381019061005b919061028a565b6100b0565b60405161006d9190610336565b60405180910390f35b61007e6100ef565b60405161008b919061040f565b60405180910390f35b6100ae60048036038101906100a99190610577565b61017d565b005b600081815481106100c057600080fd5b906000526020600020016000915054906101000a900473ffffffffffffffffffffffffffffffffffffffff1681565b6060600080548060200260200160405190810160405280929190818152602001828054801561017357602002820191906000526020600020905b8160009054906101000a900473ffffffffffffffffffffffffffffffffffffffff1673ffffffffffffffffffffffffffffffffffffffff1681526020019060010190808311610129575b5050505050905090565b600061012c4261018d91906105ef565b905060003383836040516101a090610233565b6101ac939291906106d2565b604051809103906000f0801580156101c8573d6000803e3d6000fd5b5090506000819080600181540180825580915050600190039060005260206000200160009091909190916101000a81548173ffffffffffffffffffffffffffffffffffffffff021916908373ffffffffffffffffffffffffffffffffffffffff160217905550505050565b611ce38061071183390190565b6000604051905090565b600080fd5b600080fd5b6000819050919050565b61026781610254565b811461027257600080fd5b50565b6000813590506102848161025e565b92915050565b6000602082840312156102a05761029f61024a565b5b60006102ae84828501610275565b91505092915050565b600073ffffffffffffffffffffffffffffffffffffffff82169050919050565b6000819050919050565b60006102fc6102f76102f2846102b7565b6102d7565b6102b7565b9050919050565b600061030e826102e1565b9050919050565b600061032082610303565b9050919050565b61033081610315565b82525050565b600060208201905061034b6000830184610327565b92915050565b600081519050919050565b600082825260208201905092915050565b6000819050602082019050919050565b61038681610315565b82525050565b6000610398838361037d565b60208301905092915050565b6000602082019050919050565b60006103bc82610351565b6103c6818561035c565b93506103d18361036d565b8060005b838110156104025781516103e9888261038c565b97506103f4836103a4565b9250506001810190506103d5565b5085935050505092915050565b6000602082019050818103600083015261042981846103b1565b905092915050565b600080fd5b600080fd5b6000601f19601f8301169050919050565b7f4e487b7100000000000000000000000000000000000000000000000000000000600052604160045260246000fd5b6104848261043b565b810181811067ffffffffffffffff821117156104a3576104a261044c565b5b80604052505050565b60006104b6610240565b90506104c2828261047b565b919050565b600067ffffffffffffffff8211156104e2576104e161044c565b5b6104eb8261043b565b9050602081019050919050565b82818337600083830152505050565b600061051a610515846104c7565b6104ac565b90508281526020810184848401111561053657610535610436565b5b6105418482856104f8565b509392505050565b600082601f83011261055e5761055d610431565b5b813561056e848260208601610507565b91505092915050565b60006020828403121561058d5761058c61024a565b5b600082013567ffffffffffffffff8111156105ab576105aa61024f565b5b6105b784828501610549565b91505092915050565b7f4e487b7100000000000000000000000000000000000000000000000000000000600052601160045260246000fd5b60006105fa82610254565b915061060583610254565b925082820190508082111561061d5761061c6105c0565b5b92915050565b600061062e826102b7565b9050919050565b61063e81610623565b82525050565b600081519050919050565b600082825260208201905092915050565b60005b8381101561067e578082015181840152602081019050610663565b60008484015250505050565b600061069582610644565b61069f818561064f565b93506106af818560208601610660565b6106b88161043b565b840191505092915050565b6106cc81610254565b82525050565b60006060820190506106e76000830186610635565b81810360208301526106f9818561068a565b905061070860408301846106c3565b94935050505056fe608060405234801561001057600080fd5b50604051611ce3380380611ce3833981810160405281019061003291906102dd565b804210610074576040517f08c379a000000000000000000000000000000000000000000000000000000000815260040161006b906103cf565b60405180910390fd5b8060038190555082600160006101000a81548173ffffffffffffffffffffffffffffffffffffffff021916908373ffffffffffffffffffffffffffffffffffffffff16021790555081600090816100cb9190610606565b505050506106d8565b6000604051905090565b600080fd5b600080fd5b600073ffffffffffffffffffffffffffffffffffffffff82169050919050565b6000610113826100e8565b9050919050565b61012381610108565b811461012e57600080fd5b50565b6000815190506101408161011a565b92915050565b600080fd5b600080fd5b6000601f19601f8301169050919050565b7f4e487b7100000000000000000000000000000000000000000000000000000000600052604160045260246000fd5b61019982610150565b810181811067ffffffffffffffff821117156101b8576101b7610161565b5b80604052505050565b60006101cb6100d4565b90506101d78282610190565b919050565b600067ffffffffffffffff8211156101f7576101f6610161565b5b61020082610150565b9050602081019050919050565b60005b8381101561022b578082015181840152602081019050610210565b60008484015250505050565b600061024a610245846101dc565b6101c1565b9050828152602081018484840111156102665761026561014b565b5b61027184828561020d565b509392505050565b600082601f83011261028e5761028d610146565b5b815161029e848260208601610237565b91505092915050565b6000819050919050565b6102ba816102a7565b81146102c557600080fd5b50565b6000815190506102d7816102b1565b92915050565b6000806000606084860312156102f6576102f56100de565b5b600061030486828701610131565b935050602084015167ffffffffffffffff811115610325576103246100e3565b5b61033186828701610279565b9250506040610342868287016102c8565b9150509250925092565b600082825260208201905092915050565b7f556e6c6f636b2074696d652073686f756c6420626520696e207468652066757460008201527f7572650000000000000000000000000000000000000000000000000000000000602082015250565b60006103b960238361034c565b91506103c48261035d565b604082019050919050565b600060208201905081810360008301526103e8816103ac565b9050919050565b600081519050919050565b7f4e487b7100000000000000000000000000000000000000000000000000000000600052602260045260246000fd5b6000600282049050600182168061044157607f821691505b602082108103610454576104536103fa565b5b50919050565b60008190508160005260206000209050919050565b60006020601f8301049050919050565b600082821b905092915050565b6000600883026104bc7fffffffffffffffffffffffffffffffffffffffffffffffffffffffffffffffff8261047f565b6104c6868361047f565b95508019841693508086168417925050509392505050565b6000819050919050565b60006105036104fe6104f9846102a7565b6104de565b6102a7565b9050919050565b6000819050919050565b61051d836104e8565b6105316105298261050a565b84845461048c565b825550505050565b600090565b610546610539565b610551818484610514565b505050565b5b818110156105755761056a60008261053e565b600181019050610557565b5050565b601f8211156105ba5761058b8161045a565b6105948461046f565b810160208510156105a3578190505b6105b76105af8561046f565b830182610556565b50505b505050565b600082821c905092915050565b60006105dd600019846008026105bf565b1980831691505092915050565b60006105f683836105cc565b9150826002028217905092915050565b61060f826103ef565b67ffffffffffffffff81111561062857610627610161565b5b6106328254610429565b61063d828285610579565b600060209050601f831160018114610670576000841561065e578287015190505b61066885826105ea565b8655506106d0565b601f19841661067e8661045a565b60005b828110156106a657848901518255600182019150602085019450602081019050610681565b868310156106c357848901516106bf601f8916826105cc565b8355505b6001600288020188555050505b505050505050565b6115fc806106e76000396000f3fe6080604052600436106100c25760003560e01c80636932738b1161007f578063afaef20211610059578063afaef2021461024b578063b15c9c6114610288578063bf33215e146102c5578063e333dfbd14610303576100c2565b80636932738b146101d957806370514bea146102045780637b39eabb1461022f576100c2565b806302c905f9146100c75780630790fd5a146100f2578063251c1aa31461011b578063342a95f3146101465780634a6908f51461018357806359f78f16146101ae575b600080fd5b3480156100d357600080fd5b506100dc61032e565b6040516100e99190610ba1565b60405180910390f35b3480156100fe57600080fd5b5061011960048036038101906101149190610d0c565b6103bc565b005b34801561012757600080fd5b50610130610447565b60405161013d9190610d6e565b60405180910390f35b34801561015257600080fd5b5061016d60048036038101906101689190610db5565b61044d565b60405161017a9190610e52565b60405180910390f35b34801561018f57600080fd5b506101986104b1565b6040516101a59190610d6e565b60405180910390f35b3480156101ba57600080fd5b506101c36104b7565b6040516101d09190610d6e565b60405180910390f35b3480156101e557600080fd5b506101ee6104bf565b6040516101fb9190610d6e565b60405180910390f35b34801561021057600080fd5b506102196104c5565b6040516102269190610e52565b60405180910390f35b61024960048036038101906102449190610d0c565b6104eb565b005b34801561025757600080fd5b50610272600480360381019061026d9190610d0c565b6106c8565b60405161027f9190610d6e565b60405180910390f35b34801561029457600080fd5b506102af60048036038101906102aa9190610d0c565b6106f6565b6040516102bc9190610d6e565b60405180910390f35b3480156102d157600080fd5b506102ec60048036038101906102e79190610e99565b6107a3565b6040516102fa929190610ec6565b60405180910390f35b34801561030f57600080fd5b5061031861084f565b6040516103259190610e52565b60405180910390f35b6000805461033b90610f25565b80601f016020809104026020016040519081016040528092919081815260200182805461036790610f25565b80156103b45780601f10610389576101008083540402835291602001916103b4565b820191906000526020600020905b81548152906001019060200180831161039757829003601f168201915b505050505081565b600354421015610401576040517f08c379a00000000000000000000000000000000000000000000000000000000081526004016103f890610fa2565b60405180910390fd5b7f78982d23440ecd45acaca783f4a28b5def89e12a017cf78f28156992109cafc34742604051610432929190610fc2565b60405180910390a16104448147610857565b50565b60035481565b600682805160208101820180518482526020830160208501208183528095505050505050818154811061047f57600080fd5b906000526020600020016000915091509054906101000a900473ffffffffffffffffffffffffffffffffffffffff1681565b60075481565b600047905090565b60025481565b600160009054906101000a900473ffffffffffffffffffffffffffffffffffffffff1681565b6000341161052e576040517f08c379a00000000000000000000000000000000000000000000000000000000081526004016105259061105d565b60405180910390fd5b6000600460003373ffffffffffffffffffffffffffffffffffffffff1673ffffffffffffffffffffffffffffffffffffffff168152602001908152602001600020600001805461057d90610f25565b9050146105bf576040517f08c379a00000000000000000000000000000000000000000000000000000000081526004016105b6906110c9565b60405180910390fd5b6000604051806040016040528083815260200134815250905080600460003373ffffffffffffffffffffffffffffffffffffffff1673ffffffffffffffffffffffffffffffffffffffff168152602001908152602001600020600082015181600001908161062d9190611295565b506020820151816001015590505060068260405161064b91906113a3565b9081526020016040518091039020339080600181540180825580915050600190039060005260206000200160009091909190916101000a81548173ffffffffffffffffffffffffffffffffffffffff021916908373ffffffffffffffffffffffffffffffffffffffff1602179055506106c48234610abf565b5050565b6005818051602081018201805184825260208301602085012081835280955050505050506000915090505481565b60008060058360405161070991906113a3565b90815260200160405180910390205411610758576040517f08c379a000000000000000000000000000000000000000000000000000000000815260040161074f90611406565b60405180910390fd5b600060058360405161076a91906113a3565b9081526020016040518091039020549050600081606460075461078d9190611455565b61079791906114c6565b90508092505050919050565b60046020528060005260406000206000915090508060000180546107c690610f25565b80601f01602080910402602001604051908101604052809291908181526020018280546107f290610f25565b801561083f5780601f106108145761010080835404028352916020019161083f565b820191906000526020600020905b81548152906001019060200180831161082257829003601f168201915b5050505050908060010154905082565b600030905090565b600060068360405161086991906113a3565b90815260200160405180910390208054806020026020016040519081016040528092919081815260200182805480156108f757602002820191906000526020600020905b8160009054906101000a900473ffffffffffffffffffffffffffffffffffffffff1673ffffffffffffffffffffffffffffffffffffffff16815260200190600101908083116108ad575b505050505090506000805b82518110156109825760046000848381518110610922576109216114f7565b5b602002602001015173ffffffffffffffffffffffffffffffffffffffff1673ffffffffffffffffffffffffffffffffffffffff16815260200190815260200160002060010154826109739190611526565b91508080600101915050610902565b50600081116109c6576040517f08c379a00000000000000000000000000000000000000000000000000000000081526004016109bd906115a6565b60405180910390fd5b60005b8251811015610ab85760008285600460008786815181106109ed576109ec6114f7565b5b602002602001015173ffffffffffffffffffffffffffffffffffffffff1673ffffffffffffffffffffffffffffffffffffffff16815260200190815260200160002060010154610a3d9190611455565b610a4791906114c6565b9050838281518110610a5c57610a5b6114f7565b5b602002602001015173ffffffffffffffffffffffffffffffffffffffff166108fc829081150290604051600060405180830381858888f19350505050158015610aa9573d6000803e3d6000fd5b505080806001019150506109c9565b5050505050565b80600583604051610ad091906113a3565b90815260200160405180910390206000828254610aed9190611526565b925050819055508060076000828254610b069190611526565b925050819055505050565b600081519050919050565b600082825260208201905092915050565b60005b83811015610b4b578082015181840152602081019050610b30565b60008484015250505050565b6000601f19601f8301169050919050565b6000610b7382610b11565b610b7d8185610b1c565b9350610b8d818560208601610b2d565b610b9681610b57565b840191505092915050565b60006020820190508181036000830152610bbb8184610b68565b905092915050565b6000604051905090565b600080fd5b600080fd5b600080fd5b600080fd5b7f4e487b7100000000000000000000000000000000000000000000000000000000600052604160045260246000fd5b610c1982610b57565b810181811067ffffffffffffffff82111715610c3857610c37610be1565b5b80604052505050565b6000610c4b610bc3565b9050610c578282610c10565b919050565b600067ffffffffffffffff821115610c7757610c76610be1565b5b610c8082610b57565b9050602081019050919050565b82818337600083830152505050565b6000610caf610caa84610c5c565b610c41565b905082815260208101848484011115610ccb57610cca610bdc565b5b610cd6848285610c8d565b509392505050565b600082601f830112610cf357610cf2610bd7565b5b8135610d03848260208601610c9c565b91505092915050565b600060208284031215610d2257610d21610bcd565b5b600082013567ffffffffffffffff811115610d4057610d3f610bd2565b5b610d4c84828501610cde565b91505092915050565b6000819050919050565b610d6881610d55565b82525050565b6000602082019050610d836000830184610d5f565b92915050565b610d9281610d55565b8114610d9d57600080fd5b50565b600081359050610daf81610d89565b92915050565b60008060408385031215610dcc57610dcb610bcd565b5b600083013567ffffffffffffffff811115610dea57610de9610bd2565b5b610df685828601610cde565b9250506020610e0785828601610da0565b9150509250929050565b600073ffffffffffffffffffffffffffffffffffffffff82169050919050565b6000610e3c82610e11565b9050919050565b610e4c81610e31565b82525050565b6000602082019050610e676000830184610e43565b92915050565b610e7681610e31565b8114610e8157600080fd5b50565b600081359050610e9381610e6d565b92915050565b600060208284031215610eaf57610eae610bcd565b5b6000610ebd84828501610e84565b91505092915050565b60006040820190508181036000830152610ee08185610b68565b9050610eef6020830184610d5f565b9392505050565b7f4e487b7100000000000000000000000000000000000000000000000000000000600052602260045260246000fd5b60006002820490506001821680610f3d57607f821691505b602082108103610f5057610f4f610ef6565b5b50919050565b7f41706f7374612061696e6461206e616f207465726d696e6f7500000000000000600082015250565b6000610f8c601983610b1c565b9150610f9782610f56565b602082019050919050565b60006020820190508181036000830152610fbb81610f7f565b9050919050565b6000604082019050610fd76000830185610d5f565b610fe46020830184610d5f565b9392505050565b7f56616c6f722064612061706f737461206465766520736572206d61696f72207160008201527f7565207a65726f00000000000000000000000000000000000000000000000000602082015250565b6000611047602783610b1c565b915061105282610feb565b604082019050919050565b600060208201905081810360008301526110768161103a565b9050919050565b7f4a61207265616c697a6f7520756d612061706f73746100000000000000000000600082015250565b60006110b3601683610b1c565b91506110be8261107d565b602082019050919050565b600060208201905081810360008301526110e2816110a6565b9050919050565b60008190508160005260206000209050919050565b60006020601f8301049050919050565b600082821b905092915050565b60006008830261114b7fffffffffffffffffffffffffffffffffffffffffffffffffffffffffffffffff8261110e565b611155868361110e565b95508019841693508086168417925050509392505050565b6000819050919050565b600061119261118d61118884610d55565b61116d565b610d55565b9050919050565b6000819050919050565b6111ac83611177565b6111c06111b882611199565b84845461111b565b825550505050565b600090565b6111d56111c8565b6111e08184846111a3565b505050565b5b81811015611204576111f96000826111cd565b6001810190506111e6565b5050565b601f8211156112495761121a816110e9565b611223846110fe565b81016020851015611232578190505b61124661123e856110fe565b8301826111e5565b50505b505050565b600082821c905092915050565b600061126c6000198460080261124e565b1980831691505092915050565b6000611285838361125b565b9150826002028217905092915050565b61129e82610b11565b67ffffffffffffffff8111156112b7576112b6610be1565b5b6112c18254610f25565b6112cc828285611208565b600060209050601f8311600181146112ff57600084156112ed578287015190505b6112f78582611279565b86555061135f565b601f19841661130d866110e9565b60005b8281101561133557848901518255600182019150602085019450602081019050611310565b86831015611352578489015161134e601f89168261125b565b8355505b6001600288020188555050505b505050505050565b600081905092915050565b600061137d82610b11565b6113878185611367565b9350611397818560208601610b2d565b80840191505092915050565b60006113af8284611372565b915081905092915050565b7f4e656e68756d612061706f737461206e6573746520726573756c7461646f0000600082015250565b60006113f0601e83610b1c565b91506113fb826113ba565b602082019050919050565b6000602082019050818103600083015261141f816113e3565b9050919050565b7f4e487b7100000000000000000000000000000000000000000000000000000000600052601160045260246000fd5b600061146082610d55565b915061146b83610d55565b925082820261147981610d55565b915082820484148315176114905761148f611426565b5b5092915050565b7f4e487b7100000000000000000000000000000000000000000000000000000000600052601260045260246000fd5b60006114d182610d55565b91506114dc83610d55565b9250826114ec576114eb611497565b5b828204905092915050565b7f4e487b7100000000000000000000000000000000000000000000000000000000600052603260045260246000fd5b600061153182610d55565b915061153c83610d55565b925082820190508082111561155457611553611426565b5b92915050565b7f4e616f2068612076656e6365646f72657320636f6d2061706f73746173000000600082015250565b6000611590601d83610b1c565b915061159b8261155a565b602082019050919050565b600060208201905081810360008301526115bf81611583565b905091905056fea264697066735822122021da1eb3f1b92de2b0d1c44e98b1dc59a4343fa2174f4c97ad164afd600d5c5b64736f6c634300081b0033a264697066735822122001453359d62b33a766ba98c0df946387742633efe04f7406c514f26f02769da664736f6c634300081b0033",
  "linkReferences": {},
  "deployedLinkReferences": {}
}