{
  "contracts/evento.sol": {
    "evento": {
      "abi": [
        {
          "inputs": [],
          "name": "ReentrancyGuardReentrantCall",
          "type": "error"
        },
        {
          "anonymous": false,
          "inputs": [
            {
              "indexed": false,
              "internalType": "address",
              "name": "apostador",
              "type": "address"
            },
            {
              "indexed": false,
              "internalType": "uint256",
              "name": "apostaIndex",
              "type": "uint256"
            },
            {
              "indexed": false,
              "internalType": "string",
              "name": "tipoResultado",
              "type": "string"
            },
            {
              "indexed": false,
              "internalType": "uint256",
              "name": "valorAposta",
              "type": "uint256"
            }
          ],
          "name": "ApostaRealizada",
          "type": "event"
        },
        {
          "anonymous": false,
          "inputs": [
            {
              "indexed": false,
              "internalType": "address",
              "name": "criador",
              "type": "address"
            },
            {
              "indexed": false,
              "internalType": "uint256",
              "name": "apostaIndex",
              "type": "uint256"
            },
            {
              "indexed": false,
              "internalType": "string",
              "name": "descricao",
              "type": "string"
            }
          ],
          "name": "NovaApostaCriada",
          "type": "event"
        },
        {
          "anonymous": false,
          "inputs": [
            {
              "indexed": false,
              "internalType": "uint256",
              "name": "apostaIndex",
              "type": "uint256"
            },
            {
              "indexed": false,
              "internalType": "string",
              "name": "resultado",
              "type": "string"
            },
            {
              "indexed": false,
              "internalType": "address[]",
              "name": "vencedores",
              "type": "address[]"
            },
            {
              "indexed": false,
              "internalType": "string",
              "name": "descricao",
              "type": "string"
            }
          ],
          "name": "Resultado",
          "type": "event"
        },
        {
          "inputs": [
            {
              "internalType": "uint256",
              "name": "apostaIndex",
              "type": "uint256"
            },
            {
              "internalType": "string",
              "name": "tipoResultado",
              "type": "string"
            },
            {
              "internalType": "uint256",
              "name": "valorAposta",
              "type": "uint256"
            }
          ],
          "name": "apostar",
          "outputs": [],
          "stateMutability": "nonpayable",
          "type": "function"
        },
        {
          "inputs": [
            {
              "internalType": "address",
              "name": "",
              "type": "address"
            },
            {
              "internalType": "uint256",
              "name": "",
              "type": "uint256"
            }
          ],
          "name": "bets",
          "outputs": [
            {
              "internalType": "uint256",
              "name": "",
              "type": "uint256"
            }
          ],
          "stateMutability": "view",
          "type": "function"
        },
        {
          "inputs": [
            {
              "internalType": "address",
              "name": "",
              "type": "address"
            }
          ],
          "name": "carteiras",
          "outputs": [
            {
              "internalType": "uint256",
              "name": "",
              "type": "uint256"
            }
          ],
          "stateMutability": "view",
          "type": "function"
        },
        {
          "inputs": [
            {
              "internalType": "string",
              "name": "descricao",
              "type": "string"
            },
            {
              "internalType": "uint256",
              "name": "unlockTime",
              "type": "uint256"
            }
          ],
          "name": "criarNovaAposta",
          "outputs": [],
          "stateMutability": "nonpayable",
          "type": "function"
        },
        {
          "inputs": [],
          "name": "depositar",
          "outputs": [],
          "stateMutability": "payable",
          "type": "function"
        },
        {
          "inputs": [],
          "name": "getApostasAbertas",
          "outputs": [
            {
              "components": [
                {
                  "internalType": "uint256",
                  "name": "id",
                  "type": "uint256"
                },
                {
                  "internalType": "string",
                  "name": "descricao",
                  "type": "string"
                },
                {
                  "internalType": "address",
                  "name": "dono",
                  "type": "address"
                },
                {
                  "internalType": "uint256",
                  "name": "unlockTime",
                  "type": "uint256"
                },
                {
                  "internalType": "uint256",
                  "name": "totalApostadoGeral",
                  "type": "uint256"
                },
                {
                  "internalType": "uint256",
                  "name": "oddsCara",
                  "type": "uint256"
                },
                {
                  "internalType": "uint256",
                  "name": "oddsCoroa",
                  "type": "uint256"
                }
              ],
              "internalType": "struct evento.ApostaSimplificada[]",
              "name": "",
              "type": "tuple[]"
            }
          ],
          "stateMutability": "view",
          "type": "function"
        },
        {
          "inputs": [],
          "name": "getMinhasApostas",
          "outputs": [
            {
              "components": [
                {
                  "internalType": "uint256",
                  "name": "id",
                  "type": "uint256"
                },
                {
                  "internalType": "string",
                  "name": "descricao",
                  "type": "string"
                },
                {
                  "internalType": "address",
                  "name": "dono",
                  "type": "address"
                },
                {
                  "internalType": "uint256",
                  "name": "unlockTime",
                  "type": "uint256"
                },
                {
                  "internalType": "uint256",
                  "name": "totalApostadoGeral",
                  "type": "uint256"
                },
                {
                  "internalType": "uint256",
                  "name": "oddsCara",
                  "type": "uint256"
                },
                {
                  "internalType": "uint256",
                  "name": "oddsCoroa",
                  "type": "uint256"
                }
              ],
              "internalType": "struct evento.ApostaSimplificada[]",
              "name": "",
              "type": "tuple[]"
            }
          ],
          "stateMutability": "view",
          "type": "function"
        },
        {
          "inputs": [
            {
              "internalType": "uint256",
              "name": "",
              "type": "uint256"
            }
          ],
          "name": "listaDeApostas",
          "outputs": [
            {
              "internalType": "string",
              "name": "descricao",
              "type": "string"
            },
            {
              "internalType": "address",
              "name": "dono",
              "type": "address"
            },
            {
              "internalType": "uint256",
              "name": "unlockTime",
              "type": "uint256"
            },
            {
              "internalType": "uint256",
              "name": "totalApostadoGeral",
              "type": "uint256"
            },
            {
              "internalType": "bool",
              "name": "apostaFechada",
              "type": "bool"
            },
            {
              "internalType": "uint256",
              "name": "id",
              "type": "uint256"
            }
          ],
          "stateMutability": "view",
          "type": "function"
        },
        {
          "inputs": [
            {
              "internalType": "uint256",
              "name": "apostaIndex",
              "type": "uint256"
            },
            {
              "internalType": "uint256",
              "name": "customTimestamp",
              "type": "uint256"
            }
          ],
          "name": "resultado",
          "outputs": [],
          "stateMutability": "nonpayable",
          "type": "function"
        },
        {
          "inputs": [
            {
              "internalType": "uint256",
              "name": "valor",
              "type": "uint256"
            }
          ],
          "name": "sacar",
          "outputs": [],
          "stateMutability": "nonpayable",
          "type": "function"
        }
      ],
      "evm": {
        "bytecode": {
          "linkReferences": {},
          "object": "6080604052348015600f57600080fd5b506001600081905550612ce4806100276000396000f3fe6080604052600436106100915760003560e01c8063c98c92c811610059578063c98c92c81461015a578063ce81103114610197578063e48d6cb7146101c0578063ec28f08e146101e9578063fd05dcab1461021457610091565b80633d922f90146100965780634a39ec90146100a05780637371b0d6146100dd57806386dbe60114610106578063a98898551461012f575b600080fd5b61009e610256565b005b3480156100ac57600080fd5b506100c760048036038101906100c2919061191b565b6102f1565b6040516100d4919061196a565b60405180910390f35b3480156100e957600080fd5b5061010460048036038101906100ff9190611985565b610322565b005b34801561011257600080fd5b5061012d600480360381019061012891906119b2565b610454565b005b34801561013b57600080fd5b50610144610595565b6040516101519190611bfe565b60405180910390f35b34801561016657600080fd5b50610181600480360381019061017c9190611c20565b6108eb565b60405161018e919061196a565b60405180910390f35b3480156101a357600080fd5b506101be60048036038101906101b99190611d82565b610903565b005b3480156101cc57600080fd5b506101e760048036038101906101e29190611dde565b610a02565b005b3480156101f557600080fd5b506101fe610edd565b60405161020b9190611bfe565b60405180910390f35b34801561022057600080fd5b5061023b60048036038101906102369190611985565b611276565b60405161024d96959493929190611ec1565b60405180910390f35b60003411610299576040517f08c379a000000000000000000000000000000000000000000000000000000000815260040161029090611f9b565b60405180910390fd5b34600260003373ffffffffffffffffffffffffffffffffffffffff1673ffffffffffffffffffffffffffffffffffffffff16815260200190815260200160002060008282546102e89190611fea565b92505081905550565b6004602052816000526040600020818154811061030d57600080fd5b90600052602060002001600091509150505481565b61032a611377565b80600260003373ffffffffffffffffffffffffffffffffffffffff1673ffffffffffffffffffffffffffffffffffffffff1681526020019081526020016000205410156103ac576040517f08c379a00000000000000000000000000000000000000000000000000000000081526004016103a39061206a565b60405180910390fd5b80600260003373ffffffffffffffffffffffffffffffffffffffff1673ffffffffffffffffffffffffffffffffffffffff16815260200190815260200160002060008282546103fb919061208a565b925050819055503373ffffffffffffffffffffffffffffffffffffffff166108fc829081150290604051600060405180830381858888f19350505050158015610448573d6000803e3d6000fd5b506104516113bd565b50565b600380549050821061049b576040517f08c379a00000000000000000000000000000000000000000000000000000000081526004016104929061210a565b60405180910390fd5b6000600383815481106104b1576104b061212a565b5b906000526020600020906009020190508060070160009054906101000a900460ff1615610513576040517f08c379a000000000000000000000000000000000000000000000000000000000815260040161050a906121a5565b60405180910390fd5b806002015442101561055a576040517f08c379a000000000000000000000000000000000000000000000000000000000815260040161055190612237565b60405180910390fd5b6000610565846113c7565b9050610572848383611507565b60018260070160006101000a81548160ff02191690831515021790555050505050565b60606000600460003373ffffffffffffffffffffffffffffffffffffffff1673ffffffffffffffffffffffffffffffffffffffff16815260200190815260200160002080548060200260200160405190810160405280929190818152602001828054801561062257602002820191906000526020600020905b81548152602001906001019080831161060e575b5050505050905060008151905060008167ffffffffffffffff81111561064b5761064a611c57565b5b60405190808252806020026020018201604052801561068457816020015b610671611820565b8152602001906001900390816106695790505b50905060005b828110156108e15760008482815181106106a7576106a661212a565b5b602002602001015190506000600382815481106106c7576106c661212a565b5b90600052602060002090600902019050600080826004016040516106ea906122ae565b90815260200160405180910390205411610705576000610740565b81600401604051610715906122ae565b9081526020016040518091039020546064836006015461073591906122c3565b61073f9190612334565b5b905060008083600401604051610755906123b1565b908152602001604051809103902054116107705760006107ab565b82600401604051610780906123b1565b908152602001604051809103902054606484600601546107a091906122c3565b6107aa9190612334565b5b90506040518060e00160405280846008015481526020018460000180546107d1906123f5565b80601f01602080910402602001604051908101604052809291908181526020018280546107fd906123f5565b801561084a5780601f1061081f5761010080835404028352916020019161084a565b820191906000526020600020905b81548152906001019060200180831161082d57829003601f168201915b505050505081526020018460010160009054906101000a900473ffffffffffffffffffffffffffffffffffffffff1673ffffffffffffffffffffffffffffffffffffffff1681526020018460020154815260200184600601548152602001838152602001828152508686815181106108c5576108c461212a565b5b602002602001018190525050505050808060010191505061068a565b5080935050505090565b60026020528060005260406000206000915090505481565b6000600360018160018154018082558091505003906000526020600020906009020190508281600001908161093891906125d2565b50338160010160006101000a81548173ffffffffffffffffffffffffffffffffffffffff021916908373ffffffffffffffffffffffffffffffffffffffff16021790555081816002018190555060008160070160006101000a81548160ff021916908315150217905550600060016003805490506109b6919061208a565b90508082600801819055507f721558d898b4db81678d021fc33e971d00c4cbcf012d91dd9c82706a7863774c3382866040516109f4939291906126a4565b60405180910390a150505050565b826001600082815260200190815260200160002060009054906101000a900460ff1615610a64576040517f08c379a0000000000000000000000000000000000000000000000000000000008152600401610a5b90612754565b60405180910390fd5b600180600083815260200190815260200160002060006101000a81548160ff0219169083151502179055506003805490508410610ad6576040517f08c379a0000000000000000000000000000000000000000000000000000000008152600401610acd9061210a565b60405180910390fd5b600060038581548110610aec57610aeb61212a565b5b906000526020600020906009020190508060070160009054906101000a900460ff1615610b4e576040517f08c379a0000000000000000000000000000000000000000000000000000000008152600401610b45906121a5565b60405180910390fd5b60008311610b91576040517f08c379a0000000000000000000000000000000000000000000000000000000008152600401610b88906127e6565b60405180910390fd5b60008160030160003373ffffffffffffffffffffffffffffffffffffffff1673ffffffffffffffffffffffffffffffffffffffff1681526020019081526020016000206000018054610be2906123f5565b905014610c24576040517f08c379a0000000000000000000000000000000000000000000000000000000008152600401610c1b90612852565b60405180910390fd5b82600260003373ffffffffffffffffffffffffffffffffffffffff1673ffffffffffffffffffffffffffffffffffffffff168152602001908152602001600020541015610ca6576040517f08c379a0000000000000000000000000000000000000000000000000000000008152600401610c9d906128be565b60405180910390fd5b82600260003373ffffffffffffffffffffffffffffffffffffffff1673ffffffffffffffffffffffffffffffffffffffff1681526020019081526020016000206000828254610cf5919061208a565b92505081905550600460003373ffffffffffffffffffffffffffffffffffffffff1673ffffffffffffffffffffffffffffffffffffffff16815260200190815260200160002085908060018154018082558091505060019003906000526020600020016000909190919091505560006040518060400160405280868152602001858152509050808260030160003373ffffffffffffffffffffffffffffffffffffffff1673ffffffffffffffffffffffffffffffffffffffff1681526020019081526020016000206000820151816000019081610dd291906125d2565b50602082015181600101559050508160050185604051610df2919061290f565b9081526020016040518091039020339080600181540180825580915050600190039060005260206000200160009091909190916101000a81548173ffffffffffffffffffffffffffffffffffffffff021916908373ffffffffffffffffffffffffffffffffffffffff160217905550610e6c8286866117c9565b7f951072d4e7517022566506a84e0a5231f06e86a099c6510ee1a1d5d34e71c46033878787604051610ea19493929190612926565b60405180910390a1505060006001600083815260200190815260200160002060006101000a81548160ff02191690831515021790555050505050565b6060600060038054905067ffffffffffffffff811115610f0057610eff611c57565b5b604051908082528060200260200182016040528015610f3957816020015b610f26611820565b815260200190600190039081610f1e5790505b5090506000805b6003805490508110156111c25760038181548110610f6157610f6061212a565b5b906000526020600020906009020160070160009054906101000a900460ff166111b557600060038281548110610f9a57610f9961212a565b5b9060005260206000209060090201905060008082600401604051610fbd906122ae565b90815260200160405180910390205411610fd8576000611013565b81600401604051610fe8906122ae565b9081526020016040518091039020546064836006015461100891906122c3565b6110129190612334565b5b905060008083600401604051611028906123b1565b9081526020016040518091039020541161104357600061107e565b82600401604051611053906123b1565b9081526020016040518091039020546064846006015461107391906122c3565b61107d9190612334565b5b90506040518060e00160405280846008015481526020018460000180546110a4906123f5565b80601f01602080910402602001604051908101604052809291908181526020018280546110d0906123f5565b801561111d5780601f106110f25761010080835404028352916020019161111d565b820191906000526020600020905b81548152906001019060200180831161110057829003601f168201915b505050505081526020018460010160009054906101000a900473ffffffffffffffffffffffffffffffffffffffff1673ffffffffffffffffffffffffffffffffffffffff1681526020018460020154815260200184600601548152602001838152602001828152508686815181106111985761119761212a565b5b602002602001018190525084806111ae90612972565b9550505050505b8080600101915050610f40565b5060008167ffffffffffffffff8111156111df576111de611c57565b5b60405190808252806020026020018201604052801561121857816020015b611205611820565b8152602001906001900390816111fd5790505b50905060005b8281101561126c578381815181106112395761123861212a565b5b60200260200101518282815181106112545761125361212a565b5b6020026020010181905250808060010191505061121e565b5080935050505090565b6003818154811061128657600080fd5b90600052602060002090600902016000915090508060000180546112a9906123f5565b80601f01602080910402602001604051908101604052809291908181526020018280546112d5906123f5565b80156113225780601f106112f757610100808354040283529160200191611322565b820191906000526020600020905b81548152906001019060200180831161130557829003601f168201915b5050505050908060010160009054906101000a900473ffffffffffffffffffffffffffffffffffffffff16908060020154908060060154908060070160009054906101000a900460ff16908060080154905086565b6002600054036113b3576040517f3ee5aeb500000000000000000000000000000000000000000000000000000000815260040160405180910390fd5b6002600081905550565b6001600081905550565b60606000600383815481106113df576113de61212a565b5b906000526020600020906009020190508060070160009054906101000a900460ff1615611441576040517f08c379a000000000000000000000000000000000000000000000000000000000815260040161143890612a06565b60405180910390fd5b6000600242448660405160200161145a93929190612a47565b6040516020818303038152906040528051906020012060001c61147d9190612a84565b905060008082146114c3576040518060400160405280600581526020017f636f726f610000000000000000000000000000000000000000000000000000008152506114fa565b6040518060400160405280600481526020017f63617261000000000000000000000000000000000000000000000000000000008152505b9050809350505050919050565b6000826005018260405161151b919061290f565b90815260200160405180910390208054806020026020016040519081016040528092919081815260200182805480156115a957602002820191906000526020600020905b8160009054906101000a900473ffffffffffffffffffffffffffffffffffffffff1673ffffffffffffffffffffffffffffffffffffffff168152602001906001019080831161155f575b505050505090506000805b8251811015611636578460030160008483815181106115d6576115d561212a565b5b602002602001015173ffffffffffffffffffffffffffffffffffffffff1673ffffffffffffffffffffffffffffffffffffffff16815260200190815260200160002060010154826116279190611fea565b915080806001019150506115b4565b506000811161167a576040517f08c379a000000000000000000000000000000000000000000000000000000000815260040161167190612b01565b60405180910390fd5b60005b82518110156117815760008286600601548760030160008786815181106116a7576116a661212a565b5b602002602001015173ffffffffffffffffffffffffffffffffffffffff1673ffffffffffffffffffffffffffffffffffffffff168152602001908152602001600020600101546116f791906122c3565b6117019190612334565b9050806002600086858151811061171b5761171a61212a565b5b602002602001015173ffffffffffffffffffffffffffffffffffffffff1673ffffffffffffffffffffffffffffffffffffffff168152602001908152602001600020600082825461176c9190611fea565b9250508190555050808060010191505061167d565b507fc0b7edc89a5e21c358803037a88cd4371e21b36a6d71e1712e2ebfe150caaae9858484876000016040516117ba9493929190612c54565b60405180910390a15050505050565b8083600401836040516117dc919061290f565b908152602001604051809103902060008282546117f99190611fea565b92505081905550808360060160008282546118149190611fea565b92505081905550505050565b6040518060e001604052806000815260200160608152602001600073ffffffffffffffffffffffffffffffffffffffff168152602001600081526020016000815260200160008152602001600081525090565b6000604051905090565b600080fd5b600080fd5b600073ffffffffffffffffffffffffffffffffffffffff82169050919050565b60006118b282611887565b9050919050565b6118c2816118a7565b81146118cd57600080fd5b50565b6000813590506118df816118b9565b92915050565b6000819050919050565b6118f8816118e5565b811461190357600080fd5b50565b600081359050611915816118ef565b92915050565b600080604083850312156119325761193161187d565b5b6000611940858286016118d0565b925050602061195185828601611906565b9150509250929050565b611964816118e5565b82525050565b600060208201905061197f600083018461195b565b92915050565b60006020828403121561199b5761199a61187d565b5b60006119a984828501611906565b91505092915050565b600080604083850312156119c9576119c861187d565b5b60006119d785828601611906565b92505060206119e885828601611906565b9150509250929050565b600081519050919050565b600082825260208201905092915050565b6000819050602082019050919050565b611a27816118e5565b82525050565b600081519050919050565b600082825260208201905092915050565b60005b83811015611a67578082015181840152602081019050611a4c565b60008484015250505050565b6000601f19601f8301169050919050565b6000611a8f82611a2d565b611a998185611a38565b9350611aa9818560208601611a49565b611ab281611a73565b840191505092915050565b611ac6816118a7565b82525050565b600060e083016000830151611ae46000860182611a1e565b5060208301518482036020860152611afc8282611a84565b9150506040830151611b116040860182611abd565b506060830151611b246060860182611a1e565b506080830151611b376080860182611a1e565b5060a0830151611b4a60a0860182611a1e565b5060c0830151611b5d60c0860182611a1e565b508091505092915050565b6000611b748383611acc565b905092915050565b6000602082019050919050565b6000611b94826119f2565b611b9e81856119fd565b935083602082028501611bb085611a0e565b8060005b85811015611bec5784840389528151611bcd8582611b68565b9450611bd883611b7c565b925060208a01995050600181019050611bb4565b50829750879550505050505092915050565b60006020820190508181036000830152611c188184611b89565b905092915050565b600060208284031215611c3657611c3561187d565b5b6000611c44848285016118d0565b91505092915050565b600080fd5b600080fd5b7f4e487b7100000000000000000000000000000000000000000000000000000000600052604160045260246000fd5b611c8f82611a73565b810181811067ffffffffffffffff82111715611cae57611cad611c57565b5b80604052505050565b6000611cc1611873565b9050611ccd8282611c86565b919050565b600067ffffffffffffffff821115611ced57611cec611c57565b5b611cf682611a73565b9050602081019050919050565b82818337600083830152505050565b6000611d25611d2084611cd2565b611cb7565b905082815260208101848484011115611d4157611d40611c52565b5b611d4c848285611d03565b509392505050565b600082601f830112611d6957611d68611c4d565b5b8135611d79848260208601611d12565b91505092915050565b60008060408385031215611d9957611d9861187d565b5b600083013567ffffffffffffffff811115611db757611db6611882565b5b611dc385828601611d54565b9250506020611dd485828601611906565b9150509250929050565b600080600060608486031215611df757611df661187d565b5b6000611e0586828701611906565b935050602084013567ffffffffffffffff811115611e2657611e25611882565b5b611e3286828701611d54565b9250506040611e4386828701611906565b9150509250925092565b600082825260208201905092915050565b6000611e6982611a2d565b611e738185611e4d565b9350611e83818560208601611a49565b611e8c81611a73565b840191505092915050565b611ea0816118a7565b82525050565b60008115159050919050565b611ebb81611ea6565b82525050565b600060c0820190508181036000830152611edb8189611e5e565b9050611eea6020830188611e97565b611ef7604083018761195b565b611f04606083018661195b565b611f116080830185611eb2565b611f1e60a083018461195b565b979650505050505050565b7f4f2076616c6f7220646f206465706f7369746f206465766520736572206d616960008201527f6f7220717565207a65726f000000000000000000000000000000000000000000602082015250565b6000611f85602b83611e4d565b9150611f9082611f29565b604082019050919050565b60006020820190508181036000830152611fb481611f78565b9050919050565b7f4e487b7100000000000000000000000000000000000000000000000000000000600052601160045260246000fd5b6000611ff5826118e5565b9150612000836118e5565b925082820190508082111561201857612017611fbb565b5b92915050565b7f53616c646f20696e737566696369656e74650000000000000000000000000000600082015250565b6000612054601283611e4d565b915061205f8261201e565b602082019050919050565b6000602082019050818103600083015261208381612047565b9050919050565b6000612095826118e5565b91506120a0836118e5565b92508282039050818111156120b8576120b7611fbb565b5b92915050565b7f41706f737461206e616f20656e636f6e74726164610000000000000000000000600082015250565b60006120f4601583611e4d565b91506120ff826120be565b602082019050919050565b60006020820190508181036000830152612123816120e7565b9050919050565b7f4e487b7100000000000000000000000000000000000000000000000000000000600052603260045260246000fd5b7f41706f737461206a612066656368616461000000000000000000000000000000600082015250565b600061218f601183611e4d565b915061219a82612159565b602082019050919050565b600060208201905081810360008301526121be81612182565b9050919050565b7f4576656e746f2061696e6461206e616f20706f64652073657220656e6365727260008201527f61646f0000000000000000000000000000000000000000000000000000000000602082015250565b6000612221602383611e4d565b915061222c826121c5565b604082019050919050565b6000602082019050818103600083015261225081612214565b9050919050565b600081905092915050565b7f6361726100000000000000000000000000000000000000000000000000000000600082015250565b6000612298600483612257565b91506122a382612262565b600482019050919050565b60006122b98261228b565b9150819050919050565b60006122ce826118e5565b91506122d9836118e5565b92508282026122e7816118e5565b915082820484148315176122fe576122fd611fbb565b5b5092915050565b7f4e487b7100000000000000000000000000000000000000000000000000000000600052601260045260246000fd5b600061233f826118e5565b915061234a836118e5565b92508261235a57612359612305565b5b828204905092915050565b7f636f726f61000000000000000000000000000000000000000000000000000000600082015250565b600061239b600583612257565b91506123a682612365565b600582019050919050565b60006123bc8261238e565b9150819050919050565b7f4e487b7100000000000000000000000000000000000000000000000000000000600052602260045260246000fd5b6000600282049050600182168061240d57607f821691505b6020821081036124205761241f6123c6565b5b50919050565b60008190508160005260206000209050919050565b60006020601f8301049050919050565b600082821b905092915050565b6000600883026124887fffffffffffffffffffffffffffffffffffffffffffffffffffffffffffffffff8261244b565b612492868361244b565b95508019841693508086168417925050509392505050565b6000819050919050565b60006124cf6124ca6124c5846118e5565b6124aa565b6118e5565b9050919050565b6000819050919050565b6124e9836124b4565b6124fd6124f5826124d6565b848454612458565b825550505050565b600090565b612512612505565b61251d8184846124e0565b505050565b5b818110156125415761253660008261250a565b600181019050612523565b5050565b601f8211156125865761255781612426565b6125608461243b565b8101602085101561256f578190505b61258361257b8561243b565b830182612522565b50505b505050565b600082821c905092915050565b60006125a96000198460080261258b565b1980831691505092915050565b60006125c28383612598565b9150826002028217905092915050565b6125db82611a2d565b67ffffffffffffffff8111156125f4576125f3611c57565b5b6125fe82546123f5565b612609828285612545565b600060209050601f83116001811461263c576000841561262a578287015190505b61263485826125b6565b86555061269c565b601f19841661264a86612426565b60005b828110156126725784890151825560018201915060208501945060208101905061264d565b8683101561268f578489015161268b601f891682612598565b8355505b6001600288020188555050505b505050505050565b60006060820190506126b96000830186611e97565b6126c6602083018561195b565b81810360408301526126d88184611e5e565b9050949350505050565b7f5265656e7472616e637920646574656374656420666f7220746869732065766560008201527f6e74000000000000000000000000000000000000000000000000000000000000602082015250565b600061273e602283611e4d565b9150612749826126e2565b604082019050919050565b6000602082019050818103600083015261276d81612731565b9050919050565b7f56616c6f722064612061706f737461206465766520736572206d61696f72207160008201527f7565207a65726f00000000000000000000000000000000000000000000000000602082015250565b60006127d0602783611e4d565b91506127db82612774565b604082019050919050565b600060208201905081810360008301526127ff816127c3565b9050919050565b7f4a61207265616c697a6f7520756d612061706f73746100000000000000000000600082015250565b600061283c601683611e4d565b915061284782612806565b602082019050919050565b6000602082019050818103600083015261286b8161282f565b9050919050565b7f53616c646f20696e737566696369656e7465206e612063617274656972610000600082015250565b60006128a8601e83611e4d565b91506128b382612872565b602082019050919050565b600060208201905081810360008301526128d78161289b565b9050919050565b60006128e982611a2d565b6128f38185612257565b9350612903818560208601611a49565b80840191505092915050565b600061291b82846128de565b915081905092915050565b600060808201905061293b6000830187611e97565b612948602083018661195b565b818103604083015261295a8185611e5e565b9050612969606083018461195b565b95945050505050565b600061297d826118e5565b91507fffffffffffffffffffffffffffffffffffffffffffffffffffffffffffffffff82036129af576129ae611fbb565b5b600182019050919050565b7f526573756c7461646f206a61207075626c696361646f00000000000000000000600082015250565b60006129f0601683611e4d565b91506129fb826129ba565b602082019050919050565b60006020820190508181036000830152612a1f816129e3565b9050919050565b6000819050919050565b612a41612a3c826118e5565b612a26565b82525050565b6000612a538286612a30565b602082019150612a638285612a30565b602082019150612a738284612a30565b602082019150819050949350505050565b6000612a8f826118e5565b9150612a9a836118e5565b925082612aaa57612aa9612305565b5b828206905092915050565b7f4e616f2068612076656e6365646f72657320636f6d2061706f73746173000000600082015250565b6000612aeb601d83611e4d565b9150612af682612ab5565b602082019050919050565b60006020820190508181036000830152612b1a81612ade565b9050919050565b600081519050919050565b600082825260208201905092915050565b6000819050602082019050919050565b6000612b598383611abd565b60208301905092915050565b6000602082019050919050565b6000612b7d82612b21565b612b878185612b2c565b9350612b9283612b3d565b8060005b83811015612bc3578151612baa8882612b4d565b9750612bb583612b65565b925050600181019050612b96565b5085935050505092915050565b60008154612bdd816123f5565b612be78186611e4d565b94506001821660008114612c025760018114612c1857612c4b565b60ff198316865281151560200286019350612c4b565b612c2185612426565b60005b83811015612c4357815481890152600182019150602081019050612c24565b808801955050505b50505092915050565b6000608082019050612c69600083018761195b565b8181036020830152612c7b8186611e5e565b90508181036040830152612c8f8185612b72565b90508181036060830152612ca38184612bd0565b90509594505050505056fea2646970667358221220232445428a96d752ee589de316943d205fd78ba03e05367827a8e279f0886c9b64736f6c634300081b0033",
          "opcodes": "PUSH1 0x80 PUSH1 0x40 MSTORE CALLVALUE DUP1 ISZERO PUSH1 0xF JUMPI PUSH1 0x0 DUP1 REVERT JUMPDEST POP PUSH1 0x1 PUSH1 0x0 DUP2 SWAP1 SSTORE POP PUSH2 0x2CE4 DUP1 PUSH2 0x27 PUSH1 0x0 CODECOPY PUSH1 0x0 RETURN INVALID PUSH1 0x80 PUSH1 0x40 MSTORE PUSH1 0x4 CALLDATASIZE LT PUSH2 0x91 JUMPI PUSH1 0x0 CALLDATALOAD PUSH1 0xE0 SHR DUP1 PUSH4 0xC98C92C8 GT PUSH2 0x59 JUMPI DUP1 PUSH4 0xC98C92C8 EQ PUSH2 0x15A JUMPI DUP1 PUSH4 0xCE811031 EQ PUSH2 0x197 JUMPI DUP1 PUSH4 0xE48D6CB7 EQ PUSH2 0x1C0 JUMPI DUP1 PUSH4 0xEC28F08E EQ PUSH2 0x1E9 JUMPI DUP1 PUSH4 0xFD05DCAB EQ PUSH2 0x214 JUMPI PUSH2 0x91 JUMP JUMPDEST DUP1 PUSH4 0x3D922F90 EQ PUSH2 0x96 JUMPI DUP1 PUSH4 0x4A39EC90 EQ PUSH2 0xA0 JUMPI DUP1 PUSH4 0x7371B0D6 EQ PUSH2 0xDD JUMPI DUP1 PUSH4 0x86DBE601 EQ PUSH2 0x106 JUMPI DUP1 PUSH4 0xA9889855 EQ PUSH2 0x12F JUMPI JUMPDEST PUSH1 0x0 DUP1 REVERT JUMPDEST PUSH2 0x9E PUSH2 0x256 JUMP JUMPDEST STOP JUMPDEST CALLVALUE DUP1 ISZERO PUSH2 0xAC JUMPI PUSH1 0x0 DUP1 REVERT JUMPDEST POP PUSH2 0xC7 PUSH1 0x4 DUP1 CALLDATASIZE SUB DUP2 ADD SWAP1 PUSH2 0xC2 SWAP2 SWAP1 PUSH2 0x191B JUMP JUMPDEST PUSH2 0x2F1 JUMP JUMPDEST PUSH1 0x40 MLOAD PUSH2 0xD4 SWAP2 SWAP1 PUSH2 0x196A JUMP JUMPDEST PUSH1 0x40 MLOAD DUP1 SWAP2 SUB SWAP1 RETURN JUMPDEST CALLVALUE DUP1 ISZERO PUSH2 0xE9 JUMPI PUSH1 0x0 DUP1 REVERT JUMPDEST POP PUSH2 0x104 PUSH1 0x4 DUP1 CALLDATASIZE SUB DUP2 ADD SWAP1 PUSH2 0xFF SWAP2 SWAP1 PUSH2 0x1985 JUMP JUMPDEST PUSH2 0x322 JUMP JUMPDEST STOP JUMPDEST CALLVALUE DUP1 ISZERO PUSH2 0x112 JUMPI PUSH1 0x0 DUP1 REVERT JUMPDEST POP PUSH2 0x12D PUSH1 0x4 DUP1 CALLDATASIZE SUB DUP2 ADD SWAP1 PUSH2 0x128 SWAP2 SWAP1 PUSH2 0x19B2 JUMP JUMPDEST PUSH2 0x454 JUMP JUMPDEST STOP JUMPDEST CALLVALUE DUP1 ISZERO PUSH2 0x13B JUMPI PUSH1 0x0 DUP1 REVERT JUMPDEST POP PUSH2 0x144 PUSH2 0x595 JUMP JUMPDEST PUSH1 0x40 MLOAD PUSH2 0x151 SWAP2 SWAP1 PUSH2 0x1BFE JUMP JUMPDEST PUSH1 0x40 MLOAD DUP1 SWAP2 SUB SWAP1 RETURN JUMPDEST CALLVALUE DUP1 ISZERO PUSH2 0x166 JUMPI PUSH1 0x0 DUP1 REVERT JUMPDEST POP PUSH2 0x181 PUSH1 0x4 DUP1 CALLDATASIZE SUB DUP2 ADD SWAP1 PUSH2 0x17C SWAP2 SWAP1 PUSH2 0x1C20 JUMP JUMPDEST PUSH2 0x8EB JUMP JUMPDEST PUSH1 0x40 MLOAD PUSH2 0x18E SWAP2 SWAP1 PUSH2 0x196A JUMP JUMPDEST PUSH1 0x40 MLOAD DUP1 SWAP2 SUB SWAP1 RETURN JUMPDEST CALLVALUE DUP1 ISZERO PUSH2 0x1A3 JUMPI PUSH1 0x0 DUP1 REVERT JUMPDEST POP PUSH2 0x1BE PUSH1 0x4 DUP1 CALLDATASIZE SUB DUP2 ADD SWAP1 PUSH2 0x1B9 SWAP2 SWAP1 PUSH2 0x1D82 JUMP JUMPDEST PUSH2 0x903 JUMP JUMPDEST STOP JUMPDEST CALLVALUE DUP1 ISZERO PUSH2 0x1CC JUMPI PUSH1 0x0 DUP1 REVERT JUMPDEST POP PUSH2 0x1E7 PUSH1 0x4 DUP1 CALLDATASIZE SUB DUP2 ADD SWAP1 PUSH2 0x1E2 SWAP2 SWAP1 PUSH2 0x1DDE JUMP JUMPDEST PUSH2 0xA02 JUMP JUMPDEST STOP JUMPDEST CALLVALUE DUP1 ISZERO PUSH2 0x1F5 JUMPI PUSH1 0x0 DUP1 REVERT JUMPDEST POP PUSH2 0x1FE PUSH2 0xEDD JUMP JUMPDEST PUSH1 0x40 MLOAD PUSH2 0x20B SWAP2 SWAP1 PUSH2 0x1BFE JUMP JUMPDEST PUSH1 0x40 MLOAD DUP1 SWAP2 SUB SWAP1 RETURN JUMPDEST CALLVALUE DUP1 ISZERO PUSH2 0x220 JUMPI PUSH1 0x0 DUP1 REVERT JUMPDEST POP PUSH2 0x23B PUSH1 0x4 DUP1 CALLDATASIZE SUB DUP2 ADD SWAP1 PUSH2 0x236 SWAP2 SWAP1 PUSH2 0x1985 JUMP JUMPDEST PUSH2 0x1276 JUMP JUMPDEST PUSH1 0x40 MLOAD PUSH2 0x24D SWAP7 SWAP6 SWAP5 SWAP4 SWAP3 SWAP2 SWAP1 PUSH2 0x1EC1 JUMP JUMPDEST PUSH1 0x40 MLOAD DUP1 SWAP2 SUB SWAP1 RETURN JUMPDEST PUSH1 0x0 CALLVALUE GT PUSH2 0x299 JUMPI PUSH1 0x40 MLOAD PUSH32 0x8C379A000000000000000000000000000000000000000000000000000000000 DUP2 MSTORE PUSH1 0x4 ADD PUSH2 0x290 SWAP1 PUSH2 0x1F9B JUMP JUMPDEST PUSH1 0x40 MLOAD DUP1 SWAP2 SUB SWAP1 REVERT JUMPDEST CALLVALUE PUSH1 0x2 PUSH1 0x0 CALLER PUSH20 0xFFFFFFFFFFFFFFFFFFFFFFFFFFFFFFFFFFFFFFFF AND PUSH20 0xFFFFFFFFFFFFFFFFFFFFFFFFFFFFFFFFFFFFFFFF AND DUP2 MSTORE PUSH1 0x20 ADD SWAP1 DUP2 MSTORE PUSH1 0x20 ADD PUSH1 0x0 KECCAK256 PUSH1 0x0 DUP3 DUP3 SLOAD PUSH2 0x2E8 SWAP2 SWAP1 PUSH2 0x1FEA JUMP JUMPDEST SWAP3 POP POP DUP2 SWAP1 SSTORE POP JUMP JUMPDEST PUSH1 0x4 PUSH1 0x20 MSTORE DUP2 PUSH1 0x0 MSTORE PUSH1 0x40 PUSH1 0x0 KECCAK256 DUP2 DUP2 SLOAD DUP2 LT PUSH2 0x30D JUMPI PUSH1 0x0 DUP1 REVERT JUMPDEST SWAP1 PUSH1 0x0 MSTORE PUSH1 0x20 PUSH1 0x0 KECCAK256 ADD PUSH1 0x0 SWAP2 POP SWAP2 POP POP SLOAD DUP2 JUMP JUMPDEST PUSH2 0x32A PUSH2 0x1377 JUMP JUMPDEST DUP1 PUSH1 0x2 PUSH1 0x0 CALLER PUSH20 0xFFFFFFFFFFFFFFFFFFFFFFFFFFFFFFFFFFFFFFFF AND PUSH20 0xFFFFFFFFFFFFFFFFFFFFFFFFFFFFFFFFFFFFFFFF AND DUP2 MSTORE PUSH1 0x20 ADD SWAP1 DUP2 MSTORE PUSH1 0x20 ADD PUSH1 0x0 KECCAK256 SLOAD LT ISZERO PUSH2 0x3AC JUMPI PUSH1 0x40 MLOAD PUSH32 0x8C379A000000000000000000000000000000000000000000000000000000000 DUP2 MSTORE PUSH1 0x4 ADD PUSH2 0x3A3 SWAP1 PUSH2 0x206A JUMP JUMPDEST PUSH1 0x40 MLOAD DUP1 SWAP2 SUB SWAP1 REVERT JUMPDEST DUP1 PUSH1 0x2 PUSH1 0x0 CALLER PUSH20 0xFFFFFFFFFFFFFFFFFFFFFFFFFFFFFFFFFFFFFFFF AND PUSH20 0xFFFFFFFFFFFFFFFFFFFFFFFFFFFFFFFFFFFFFFFF AND DUP2 MSTORE PUSH1 0x20 ADD SWAP1 DUP2 MSTORE PUSH1 0x20 ADD PUSH1 0x0 KECCAK256 PUSH1 0x0 DUP3 DUP3 SLOAD PUSH2 0x3FB SWAP2 SWAP1 PUSH2 0x208A JUMP JUMPDEST SWAP3 POP POP DUP2 SWAP1 SSTORE POP CALLER PUSH20 0xFFFFFFFFFFFFFFFFFFFFFFFFFFFFFFFFFFFFFFFF AND PUSH2 0x8FC DUP3 SWAP1 DUP2 ISZERO MUL SWAP1 PUSH1 0x40 MLOAD PUSH1 0x0 PUSH1 0x40 MLOAD DUP1 DUP4 SUB DUP2 DUP6 DUP9 DUP9 CALL SWAP4 POP POP POP POP ISZERO DUP1 ISZERO PUSH2 0x448 JUMPI RETURNDATASIZE PUSH1 0x0 DUP1 RETURNDATACOPY RETURNDATASIZE PUSH1 0x0 REVERT JUMPDEST POP PUSH2 0x451 PUSH2 0x13BD JUMP JUMPDEST POP JUMP JUMPDEST PUSH1 0x3 DUP1 SLOAD SWAP1 POP DUP3 LT PUSH2 0x49B JUMPI PUSH1 0x40 MLOAD PUSH32 0x8C379A000000000000000000000000000000000000000000000000000000000 DUP2 MSTORE PUSH1 0x4 ADD PUSH2 0x492 SWAP1 PUSH2 0x210A JUMP JUMPDEST PUSH1 0x40 MLOAD DUP1 SWAP2 SUB SWAP1 REVERT JUMPDEST PUSH1 0x0 PUSH1 0x3 DUP4 DUP2 SLOAD DUP2 LT PUSH2 0x4B1 JUMPI PUSH2 0x4B0 PUSH2 0x212A JUMP JUMPDEST JUMPDEST SWAP1 PUSH1 0x0 MSTORE PUSH1 0x20 PUSH1 0x0 KECCAK256 SWAP1 PUSH1 0x9 MUL ADD SWAP1 POP DUP1 PUSH1 0x7 ADD PUSH1 0x0 SWAP1 SLOAD SWAP1 PUSH2 0x100 EXP SWAP1 DIV PUSH1 0xFF AND ISZERO PUSH2 0x513 JUMPI PUSH1 0x40 MLOAD PUSH32 0x8C379A000000000000000000000000000000000000000000000000000000000 DUP2 MSTORE PUSH1 0x4 ADD PUSH2 0x50A SWAP1 PUSH2 0x21A5 JUMP JUMPDEST PUSH1 0x40 MLOAD DUP1 SWAP2 SUB SWAP1 REVERT JUMPDEST DUP1 PUSH1 0x2 ADD SLOAD TIMESTAMP LT ISZERO PUSH2 0x55A JUMPI PUSH1 0x40 MLOAD PUSH32 0x8C379A000000000000000000000000000000000000000000000000000000000 DUP2 MSTORE PUSH1 0x4 ADD PUSH2 0x551 SWAP1 PUSH2 0x2237 JUMP JUMPDEST PUSH1 0x40 MLOAD DUP1 SWAP2 SUB SWAP1 REVERT JUMPDEST PUSH1 0x0 PUSH2 0x565 DUP5 PUSH2 0x13C7 JUMP JUMPDEST SWAP1 POP PUSH2 0x572 DUP5 DUP4 DUP4 PUSH2 0x1507 JUMP JUMPDEST PUSH1 0x1 DUP3 PUSH1 0x7 ADD PUSH1 0x0 PUSH2 0x100 EXP DUP2 SLOAD DUP2 PUSH1 0xFF MUL NOT AND SWAP1 DUP4 ISZERO ISZERO MUL OR SWAP1 SSTORE POP POP POP POP POP JUMP JUMPDEST PUSH1 0x60 PUSH1 0x0 PUSH1 0x4 PUSH1 0x0 CALLER PUSH20 0xFFFFFFFFFFFFFFFFFFFFFFFFFFFFFFFFFFFFFFFF AND PUSH20 0xFFFFFFFFFFFFFFFFFFFFFFFFFFFFFFFFFFFFFFFF AND DUP2 MSTORE PUSH1 0x20 ADD SWAP1 DUP2 MSTORE PUSH1 0x20 ADD PUSH1 0x0 KECCAK256 DUP1 SLOAD DUP1 PUSH1 0x20 MUL PUSH1 0x20 ADD PUSH1 0x40 MLOAD SWAP1 DUP2 ADD PUSH1 0x40 MSTORE DUP1 SWAP3 SWAP2 SWAP1 DUP2 DUP2 MSTORE PUSH1 0x20 ADD DUP3 DUP1 SLOAD DUP1 ISZERO PUSH2 0x622 JUMPI PUSH1 0x20 MUL DUP3 ADD SWAP2 SWAP1 PUSH1 0x0 MSTORE PUSH1 0x20 PUSH1 0x0 KECCAK256 SWAP1 JUMPDEST DUP2 SLOAD DUP2 MSTORE PUSH1 0x20 ADD SWAP1 PUSH1 0x1 ADD SWAP1 DUP1 DUP4 GT PUSH2 0x60E JUMPI JUMPDEST POP POP POP POP POP SWAP1 POP PUSH1 0x0 DUP2 MLOAD SWAP1 POP PUSH1 0x0 DUP2 PUSH8 0xFFFFFFFFFFFFFFFF DUP2 GT ISZERO PUSH2 0x64B JUMPI PUSH2 0x64A PUSH2 0x1C57 JUMP JUMPDEST JUMPDEST PUSH1 0x40 MLOAD SWAP1 DUP1 DUP3 MSTORE DUP1 PUSH1 0x20 MUL PUSH1 0x20 ADD DUP3 ADD PUSH1 0x40 MSTORE DUP1 ISZERO PUSH2 0x684 JUMPI DUP2 PUSH1 0x20 ADD JUMPDEST PUSH2 0x671 PUSH2 0x1820 JUMP JUMPDEST DUP2 MSTORE PUSH1 0x20 ADD SWAP1 PUSH1 0x1 SWAP1 SUB SWAP1 DUP2 PUSH2 0x669 JUMPI SWAP1 POP JUMPDEST POP SWAP1 POP PUSH1 0x0 JUMPDEST DUP3 DUP2 LT ISZERO PUSH2 0x8E1 JUMPI PUSH1 0x0 DUP5 DUP3 DUP2 MLOAD DUP2 LT PUSH2 0x6A7 JUMPI PUSH2 0x6A6 PUSH2 0x212A JUMP JUMPDEST JUMPDEST PUSH1 0x20 MUL PUSH1 0x20 ADD ADD MLOAD SWAP1 POP PUSH1 0x0 PUSH1 0x3 DUP3 DUP2 SLOAD DUP2 LT PUSH2 0x6C7 JUMPI PUSH2 0x6C6 PUSH2 0x212A JUMP JUMPDEST JUMPDEST SWAP1 PUSH1 0x0 MSTORE PUSH1 0x20 PUSH1 0x0 KECCAK256 SWAP1 PUSH1 0x9 MUL ADD SWAP1 POP PUSH1 0x0 DUP1 DUP3 PUSH1 0x4 ADD PUSH1 0x40 MLOAD PUSH2 0x6EA SWAP1 PUSH2 0x22AE JUMP JUMPDEST SWAP1 DUP2 MSTORE PUSH1 0x20 ADD PUSH1 0x40 MLOAD DUP1 SWAP2 SUB SWAP1 KECCAK256 SLOAD GT PUSH2 0x705 JUMPI PUSH1 0x0 PUSH2 0x740 JUMP JUMPDEST DUP2 PUSH1 0x4 ADD PUSH1 0x40 MLOAD PUSH2 0x715 SWAP1 PUSH2 0x22AE JUMP JUMPDEST SWAP1 DUP2 MSTORE PUSH1 0x20 ADD PUSH1 0x40 MLOAD DUP1 SWAP2 SUB SWAP1 KECCAK256 SLOAD PUSH1 0x64 DUP4 PUSH1 0x6 ADD SLOAD PUSH2 0x735 SWAP2 SWAP1 PUSH2 0x22C3 JUMP JUMPDEST PUSH2 0x73F SWAP2 SWAP1 PUSH2 0x2334 JUMP JUMPDEST JUMPDEST SWAP1 POP PUSH1 0x0 DUP1 DUP4 PUSH1 0x4 ADD PUSH1 0x40 MLOAD PUSH2 0x755 SWAP1 PUSH2 0x23B1 JUMP JUMPDEST SWAP1 DUP2 MSTORE PUSH1 0x20 ADD PUSH1 0x40 MLOAD DUP1 SWAP2 SUB SWAP1 KECCAK256 SLOAD GT PUSH2 0x770 JUMPI PUSH1 0x0 PUSH2 0x7AB JUMP JUMPDEST DUP3 PUSH1 0x4 ADD PUSH1 0x40 MLOAD PUSH2 0x780 SWAP1 PUSH2 0x23B1 JUMP JUMPDEST SWAP1 DUP2 MSTORE PUSH1 0x20 ADD PUSH1 0x40 MLOAD DUP1 SWAP2 SUB SWAP1 KECCAK256 SLOAD PUSH1 0x64 DUP5 PUSH1 0x6 ADD SLOAD PUSH2 0x7A0 SWAP2 SWAP1 PUSH2 0x22C3 JUMP JUMPDEST PUSH2 0x7AA SWAP2 SWAP1 PUSH2 0x2334 JUMP JUMPDEST JUMPDEST SWAP1 POP PUSH1 0x40 MLOAD DUP1 PUSH1 0xE0 ADD PUSH1 0x40 MSTORE DUP1 DUP5 PUSH1 0x8 ADD SLOAD DUP2 MSTORE PUSH1 0x20 ADD DUP5 PUSH1 0x0 ADD DUP1 SLOAD PUSH2 0x7D1 SWAP1 PUSH2 0x23F5 JUMP JUMPDEST DUP1 PUSH1 0x1F ADD PUSH1 0x20 DUP1 SWAP2 DIV MUL PUSH1 0x20 ADD PUSH1 0x40 MLOAD SWAP1 DUP2 ADD PUSH1 0x40 MSTORE DUP1 SWAP3 SWAP2 SWAP1 DUP2 DUP2 MSTORE PUSH1 0x20 ADD DUP3 DUP1 SLOAD PUSH2 0x7FD SWAP1 PUSH2 0x23F5 JUMP JUMPDEST DUP1 ISZERO PUSH2 0x84A JUMPI DUP1 PUSH1 0x1F LT PUSH2 0x81F JUMPI PUSH2 0x100 DUP1 DUP4 SLOAD DIV MUL DUP4 MSTORE SWAP2 PUSH1 0x20 ADD SWAP2 PUSH2 0x84A JUMP JUMPDEST DUP3 ADD SWAP2 SWAP1 PUSH1 0x0 MSTORE PUSH1 0x20 PUSH1 0x0 KECCAK256 SWAP1 JUMPDEST DUP2 SLOAD DUP2 MSTORE SWAP1 PUSH1 0x1 ADD SWAP1 PUSH1 0x20 ADD DUP1 DUP4 GT PUSH2 0x82D JUMPI DUP3 SWAP1 SUB PUSH1 0x1F AND DUP3 ADD SWAP2 JUMPDEST POP POP POP POP POP DUP2 MSTORE PUSH1 0x20 ADD DUP5 PUSH1 0x1 ADD PUSH1 0x0 SWAP1 SLOAD SWAP1 PUSH2 0x100 EXP SWAP1 DIV PUSH20 0xFFFFFFFFFFFFFFFFFFFFFFFFFFFFFFFFFFFFFFFF AND PUSH20 0xFFFFFFFFFFFFFFFFFFFFFFFFFFFFFFFFFFFFFFFF AND DUP2 MSTORE PUSH1 0x20 ADD DUP5 PUSH1 0x2 ADD SLOAD DUP2 MSTORE PUSH1 0x20 ADD DUP5 PUSH1 0x6 ADD SLOAD DUP2 MSTORE PUSH1 0x20 ADD DUP4 DUP2 MSTORE PUSH1 0x20 ADD DUP3 DUP2 MSTORE POP DUP7 DUP7 DUP2 MLOAD DUP2 LT PUSH2 0x8C5 JUMPI PUSH2 0x8C4 PUSH2 0x212A JUMP JUMPDEST JUMPDEST PUSH1 0x20 MUL PUSH1 0x20 ADD ADD DUP2 SWAP1 MSTORE POP POP POP POP POP DUP1 DUP1 PUSH1 0x1 ADD SWAP2 POP POP PUSH2 0x68A JUMP JUMPDEST POP DUP1 SWAP4 POP POP POP POP SWAP1 JUMP JUMPDEST PUSH1 0x2 PUSH1 0x20 MSTORE DUP1 PUSH1 0x0 MSTORE PUSH1 0x40 PUSH1 0x0 KECCAK256 PUSH1 0x0 SWAP2 POP SWAP1 POP SLOAD DUP2 JUMP JUMPDEST PUSH1 0x0 PUSH1 0x3 PUSH1 0x1 DUP2 PUSH1 0x1 DUP2 SLOAD ADD DUP1 DUP3 SSTORE DUP1 SWAP2 POP POP SUB SWAP1 PUSH1 0x0 MSTORE PUSH1 0x20 PUSH1 0x0 KECCAK256 SWAP1 PUSH1 0x9 MUL ADD SWAP1 POP DUP3 DUP2 PUSH1 0x0 ADD SWAP1 DUP2 PUSH2 0x938 SWAP2 SWAP1 PUSH2 0x25D2 JUMP JUMPDEST POP CALLER DUP2 PUSH1 0x1 ADD PUSH1 0x0 PUSH2 0x100 EXP DUP2 SLOAD DUP2 PUSH20 0xFFFFFFFFFFFFFFFFFFFFFFFFFFFFFFFFFFFFFFFF MUL NOT AND SWAP1 DUP4 PUSH20 0xFFFFFFFFFFFFFFFFFFFFFFFFFFFFFFFFFFFFFFFF AND MUL OR SWAP1 SSTORE POP DUP2 DUP2 PUSH1 0x2 ADD DUP2 SWAP1 SSTORE POP PUSH1 0x0 DUP2 PUSH1 0x7 ADD PUSH1 0x0 PUSH2 0x100 EXP DUP2 SLOAD DUP2 PUSH1 0xFF MUL NOT AND SWAP1 DUP4 ISZERO ISZERO MUL OR SWAP1 SSTORE POP PUSH1 0x0 PUSH1 0x1 PUSH1 0x3 DUP1 SLOAD SWAP1 POP PUSH2 0x9B6 SWAP2 SWAP1 PUSH2 0x208A JUMP JUMPDEST SWAP1 POP DUP1 DUP3 PUSH1 0x8 ADD DUP2 SWAP1 SSTORE POP PUSH32 0x721558D898B4DB81678D021FC33E971D00C4CBCF012D91DD9C82706A7863774C CALLER DUP3 DUP7 PUSH1 0x40 MLOAD PUSH2 0x9F4 SWAP4 SWAP3 SWAP2 SWAP1 PUSH2 0x26A4 JUMP JUMPDEST PUSH1 0x40 MLOAD DUP1 SWAP2 SUB SWAP1 LOG1 POP POP POP POP JUMP JUMPDEST DUP3 PUSH1 0x1 PUSH1 0x0 DUP3 DUP2 MSTORE PUSH1 0x20 ADD SWAP1 DUP2 MSTORE PUSH1 0x20 ADD PUSH1 0x0 KECCAK256 PUSH1 0x0 SWAP1 SLOAD SWAP1 PUSH2 0x100 EXP SWAP1 DIV PUSH1 0xFF AND ISZERO PUSH2 0xA64 JUMPI PUSH1 0x40 MLOAD PUSH32 0x8C379A000000000000000000000000000000000000000000000000000000000 DUP2 MSTORE PUSH1 0x4 ADD PUSH2 0xA5B SWAP1 PUSH2 0x2754 JUMP JUMPDEST PUSH1 0x40 MLOAD DUP1 SWAP2 SUB SWAP1 REVERT JUMPDEST PUSH1 0x1 DUP1 PUSH1 0x0 DUP4 DUP2 MSTORE PUSH1 0x20 ADD SWAP1 DUP2 MSTORE PUSH1 0x20 ADD PUSH1 0x0 KECCAK256 PUSH1 0x0 PUSH2 0x100 EXP DUP2 SLOAD DUP2 PUSH1 0xFF MUL NOT AND SWAP1 DUP4 ISZERO ISZERO MUL OR SWAP1 SSTORE POP PUSH1 0x3 DUP1 SLOAD SWAP1 POP DUP5 LT PUSH2 0xAD6 JUMPI PUSH1 0x40 MLOAD PUSH32 0x8C379A000000000000000000000000000000000000000000000000000000000 DUP2 MSTORE PUSH1 0x4 ADD PUSH2 0xACD SWAP1 PUSH2 0x210A JUMP JUMPDEST PUSH1 0x40 MLOAD DUP1 SWAP2 SUB SWAP1 REVERT JUMPDEST PUSH1 0x0 PUSH1 0x3 DUP6 DUP2 SLOAD DUP2 LT PUSH2 0xAEC JUMPI PUSH2 0xAEB PUSH2 0x212A JUMP JUMPDEST JUMPDEST SWAP1 PUSH1 0x0 MSTORE PUSH1 0x20 PUSH1 0x0 KECCAK256 SWAP1 PUSH1 0x9 MUL ADD SWAP1 POP DUP1 PUSH1 0x7 ADD PUSH1 0x0 SWAP1 SLOAD SWAP1 PUSH2 0x100 EXP SWAP1 DIV PUSH1 0xFF AND ISZERO PUSH2 0xB4E JUMPI PUSH1 0x40 MLOAD PUSH32 0x8C379A000000000000000000000000000000000000000000000000000000000 DUP2 MSTORE PUSH1 0x4 ADD PUSH2 0xB45 SWAP1 PUSH2 0x21A5 JUMP JUMPDEST PUSH1 0x40 MLOAD DUP1 SWAP2 SUB SWAP1 REVERT JUMPDEST PUSH1 0x0 DUP4 GT PUSH2 0xB91 JUMPI PUSH1 0x40 MLOAD PUSH32 0x8C379A000000000000000000000000000000000000000000000000000000000 DUP2 MSTORE PUSH1 0x4 ADD PUSH2 0xB88 SWAP1 PUSH2 0x27E6 JUMP JUMPDEST PUSH1 0x40 MLOAD DUP1 SWAP2 SUB SWAP1 REVERT JUMPDEST PUSH1 0x0 DUP2 PUSH1 0x3 ADD PUSH1 0x0 CALLER PUSH20 0xFFFFFFFFFFFFFFFFFFFFFFFFFFFFFFFFFFFFFFFF AND PUSH20 0xFFFFFFFFFFFFFFFFFFFFFFFFFFFFFFFFFFFFFFFF AND DUP2 MSTORE PUSH1 0x20 ADD SWAP1 DUP2 MSTORE PUSH1 0x20 ADD PUSH1 0x0 KECCAK256 PUSH1 0x0 ADD DUP1 SLOAD PUSH2 0xBE2 SWAP1 PUSH2 0x23F5 JUMP JUMPDEST SWAP1 POP EQ PUSH2 0xC24 JUMPI PUSH1 0x40 MLOAD PUSH32 0x8C379A000000000000000000000000000000000000000000000000000000000 DUP2 MSTORE PUSH1 0x4 ADD PUSH2 0xC1B SWAP1 PUSH2 0x2852 JUMP JUMPDEST PUSH1 0x40 MLOAD DUP1 SWAP2 SUB SWAP1 REVERT JUMPDEST DUP3 PUSH1 0x2 PUSH1 0x0 CALLER PUSH20 0xFFFFFFFFFFFFFFFFFFFFFFFFFFFFFFFFFFFFFFFF AND PUSH20 0xFFFFFFFFFFFFFFFFFFFFFFFFFFFFFFFFFFFFFFFF AND DUP2 MSTORE PUSH1 0x20 ADD SWAP1 DUP2 MSTORE PUSH1 0x20 ADD PUSH1 0x0 KECCAK256 SLOAD LT ISZERO PUSH2 0xCA6 JUMPI PUSH1 0x40 MLOAD PUSH32 0x8C379A000000000000000000000000000000000000000000000000000000000 DUP2 MSTORE PUSH1 0x4 ADD PUSH2 0xC9D SWAP1 PUSH2 0x28BE JUMP JUMPDEST PUSH1 0x40 MLOAD DUP1 SWAP2 SUB SWAP1 REVERT JUMPDEST DUP3 PUSH1 0x2 PUSH1 0x0 CALLER PUSH20 0xFFFFFFFFFFFFFFFFFFFFFFFFFFFFFFFFFFFFFFFF AND PUSH20 0xFFFFFFFFFFFFFFFFFFFFFFFFFFFFFFFFFFFFFFFF AND DUP2 MSTORE PUSH1 0x20 ADD SWAP1 DUP2 MSTORE PUSH1 0x20 ADD PUSH1 0x0 KECCAK256 PUSH1 0x0 DUP3 DUP3 SLOAD PUSH2 0xCF5 SWAP2 SWAP1 PUSH2 0x208A JUMP JUMPDEST SWAP3 POP POP DUP2 SWAP1 SSTORE POP PUSH1 0x4 PUSH1 0x0 CALLER PUSH20 0xFFFFFFFFFFFFFFFFFFFFFFFFFFFFFFFFFFFFFFFF AND PUSH20 0xFFFFFFFFFFFFFFFFFFFFFFFFFFFFFFFFFFFFFFFF AND DUP2 MSTORE PUSH1 0x20 ADD SWAP1 DUP2 MSTORE PUSH1 0x20 ADD PUSH1 0x0 KECCAK256 DUP6 SWAP1 DUP1 PUSH1 0x1 DUP2 SLOAD ADD DUP1 DUP3 SSTORE DUP1 SWAP2 POP POP PUSH1 0x1 SWAP1 SUB SWAP1 PUSH1 0x0 MSTORE PUSH1 0x20 PUSH1 0x0 KECCAK256 ADD PUSH1 0x0 SWAP1 SWAP2 SWAP1 SWAP2 SWAP1 SWAP2 POP SSTORE PUSH1 0x0 PUSH1 0x40 MLOAD DUP1 PUSH1 0x40 ADD PUSH1 0x40 MSTORE DUP1 DUP7 DUP2 MSTORE PUSH1 0x20 ADD DUP6 DUP2 MSTORE POP SWAP1 POP DUP1 DUP3 PUSH1 0x3 ADD PUSH1 0x0 CALLER PUSH20 0xFFFFFFFFFFFFFFFFFFFFFFFFFFFFFFFFFFFFFFFF AND PUSH20 0xFFFFFFFFFFFFFFFFFFFFFFFFFFFFFFFFFFFFFFFF AND DUP2 MSTORE PUSH1 0x20 ADD SWAP1 DUP2 MSTORE PUSH1 0x20 ADD PUSH1 0x0 KECCAK256 PUSH1 0x0 DUP3 ADD MLOAD DUP2 PUSH1 0x0 ADD SWAP1 DUP2 PUSH2 0xDD2 SWAP2 SWAP1 PUSH2 0x25D2 JUMP JUMPDEST POP PUSH1 0x20 DUP3 ADD MLOAD DUP2 PUSH1 0x1 ADD SSTORE SWAP1 POP POP DUP2 PUSH1 0x5 ADD DUP6 PUSH1 0x40 MLOAD PUSH2 0xDF2 SWAP2 SWAP1 PUSH2 0x290F JUMP JUMPDEST SWAP1 DUP2 MSTORE PUSH1 0x20 ADD PUSH1 0x40 MLOAD DUP1 SWAP2 SUB SWAP1 KECCAK256 CALLER SWAP1 DUP1 PUSH1 0x1 DUP2 SLOAD ADD DUP1 DUP3 SSTORE DUP1 SWAP2 POP POP PUSH1 0x1 SWAP1 SUB SWAP1 PUSH1 0x0 MSTORE PUSH1 0x20 PUSH1 0x0 KECCAK256 ADD PUSH1 0x0 SWAP1 SWAP2 SWAP1 SWAP2 SWAP1 SWAP2 PUSH2 0x100 EXP DUP2 SLOAD DUP2 PUSH20 0xFFFFFFFFFFFFFFFFFFFFFFFFFFFFFFFFFFFFFFFF MUL NOT AND SWAP1 DUP4 PUSH20 0xFFFFFFFFFFFFFFFFFFFFFFFFFFFFFFFFFFFFFFFF AND MUL OR SWAP1 SSTORE POP PUSH2 0xE6C DUP3 DUP7 DUP7 PUSH2 0x17C9 JUMP JUMPDEST PUSH32 0x951072D4E7517022566506A84E0A5231F06E86A099C6510EE1A1D5D34E71C460 CALLER DUP8 DUP8 DUP8 PUSH1 0x40 MLOAD PUSH2 0xEA1 SWAP5 SWAP4 SWAP3 SWAP2 SWAP1 PUSH2 0x2926 JUMP JUMPDEST PUSH1 0x40 MLOAD DUP1 SWAP2 SUB SWAP1 LOG1 POP POP PUSH1 0x0 PUSH1 0x1 PUSH1 0x0 DUP4 DUP2 MSTORE PUSH1 0x20 ADD SWAP1 DUP2 MSTORE PUSH1 0x20 ADD PUSH1 0x0 KECCAK256 PUSH1 0x0 PUSH2 0x100 EXP DUP2 SLOAD DUP2 PUSH1 0xFF MUL NOT AND SWAP1 DUP4 ISZERO ISZERO MUL OR SWAP1 SSTORE POP POP POP POP POP JUMP JUMPDEST PUSH1 0x60 PUSH1 0x0 PUSH1 0x3 DUP1 SLOAD SWAP1 POP PUSH8 0xFFFFFFFFFFFFFFFF DUP2 GT ISZERO PUSH2 0xF00 JUMPI PUSH2 0xEFF PUSH2 0x1C57 JUMP JUMPDEST JUMPDEST PUSH1 0x40 MLOAD SWAP1 DUP1 DUP3 MSTORE DUP1 PUSH1 0x20 MUL PUSH1 0x20 ADD DUP3 ADD PUSH1 0x40 MSTORE DUP1 ISZERO PUSH2 0xF39 JUMPI DUP2 PUSH1 0x20 ADD JUMPDEST PUSH2 0xF26 PUSH2 0x1820 JUMP JUMPDEST DUP2 MSTORE PUSH1 0x20 ADD SWAP1 PUSH1 0x1 SWAP1 SUB SWAP1 DUP2 PUSH2 0xF1E JUMPI SWAP1 POP JUMPDEST POP SWAP1 POP PUSH1 0x0 DUP1 JUMPDEST PUSH1 0x3 DUP1 SLOAD SWAP1 POP DUP2 LT ISZERO PUSH2 0x11C2 JUMPI PUSH1 0x3 DUP2 DUP2 SLOAD DUP2 LT PUSH2 0xF61 JUMPI PUSH2 0xF60 PUSH2 0x212A JUMP JUMPDEST JUMPDEST SWAP1 PUSH1 0x0 MSTORE PUSH1 0x20 PUSH1 0x0 KECCAK256 SWAP1 PUSH1 0x9 MUL ADD PUSH1 0x7 ADD PUSH1 0x0 SWAP1 SLOAD SWAP1 PUSH2 0x100 EXP SWAP1 DIV PUSH1 0xFF AND PUSH2 0x11B5 JUMPI PUSH1 0x0 PUSH1 0x3 DUP3 DUP2 SLOAD DUP2 LT PUSH2 0xF9A JUMPI PUSH2 0xF99 PUSH2 0x212A JUMP JUMPDEST JUMPDEST SWAP1 PUSH1 0x0 MSTORE PUSH1 0x20 PUSH1 0x0 KECCAK256 SWAP1 PUSH1 0x9 MUL ADD SWAP1 POP PUSH1 0x0 DUP1 DUP3 PUSH1 0x4 ADD PUSH1 0x40 MLOAD PUSH2 0xFBD SWAP1 PUSH2 0x22AE JUMP JUMPDEST SWAP1 DUP2 MSTORE PUSH1 0x20 ADD PUSH1 0x40 MLOAD DUP1 SWAP2 SUB SWAP1 KECCAK256 SLOAD GT PUSH2 0xFD8 JUMPI PUSH1 0x0 PUSH2 0x1013 JUMP JUMPDEST DUP2 PUSH1 0x4 ADD PUSH1 0x40 MLOAD PUSH2 0xFE8 SWAP1 PUSH2 0x22AE JUMP JUMPDEST SWAP1 DUP2 MSTORE PUSH1 0x20 ADD PUSH1 0x40 MLOAD DUP1 SWAP2 SUB SWAP1 KECCAK256 SLOAD PUSH1 0x64 DUP4 PUSH1 0x6 ADD SLOAD PUSH2 0x1008 SWAP2 SWAP1 PUSH2 0x22C3 JUMP JUMPDEST PUSH2 0x1012 SWAP2 SWAP1 PUSH2 0x2334 JUMP JUMPDEST JUMPDEST SWAP1 POP PUSH1 0x0 DUP1 DUP4 PUSH1 0x4 ADD PUSH1 0x40 MLOAD PUSH2 0x1028 SWAP1 PUSH2 0x23B1 JUMP JUMPDEST SWAP1 DUP2 MSTORE PUSH1 0x20 ADD PUSH1 0x40 MLOAD DUP1 SWAP2 SUB SWAP1 KECCAK256 SLOAD GT PUSH2 0x1043 JUMPI PUSH1 0x0 PUSH2 0x107E JUMP JUMPDEST DUP3 PUSH1 0x4 ADD PUSH1 0x40 MLOAD PUSH2 0x1053 SWAP1 PUSH2 0x23B1 JUMP JUMPDEST SWAP1 DUP2 MSTORE PUSH1 0x20 ADD PUSH1 0x40 MLOAD DUP1 SWAP2 SUB SWAP1 KECCAK256 SLOAD PUSH1 0x64 DUP5 PUSH1 0x6 ADD SLOAD PUSH2 0x1073 SWAP2 SWAP1 PUSH2 0x22C3 JUMP JUMPDEST PUSH2 0x107D SWAP2 SWAP1 PUSH2 0x2334 JUMP JUMPDEST JUMPDEST SWAP1 POP PUSH1 0x40 MLOAD DUP1 PUSH1 0xE0 ADD PUSH1 0x40 MSTORE DUP1 DUP5 PUSH1 0x8 ADD SLOAD DUP2 MSTORE PUSH1 0x20 ADD DUP5 PUSH1 0x0 ADD DUP1 SLOAD PUSH2 0x10A4 SWAP1 PUSH2 0x23F5 JUMP JUMPDEST DUP1 PUSH1 0x1F ADD PUSH1 0x20 DUP1 SWAP2 DIV MUL PUSH1 0x20 ADD PUSH1 0x40 MLOAD SWAP1 DUP2 ADD PUSH1 0x40 MSTORE DUP1 SWAP3 SWAP2 SWAP1 DUP2 DUP2 MSTORE PUSH1 0x20 ADD DUP3 DUP1 SLOAD PUSH2 0x10D0 SWAP1 PUSH2 0x23F5 JUMP JUMPDEST DUP1 ISZERO PUSH2 0x111D JUMPI DUP1 PUSH1 0x1F LT PUSH2 0x10F2 JUMPI PUSH2 0x100 DUP1 DUP4 SLOAD DIV MUL DUP4 MSTORE SWAP2 PUSH1 0x20 ADD SWAP2 PUSH2 0x111D JUMP JUMPDEST DUP3 ADD SWAP2 SWAP1 PUSH1 0x0 MSTORE PUSH1 0x20 PUSH1 0x0 KECCAK256 SWAP1 JUMPDEST DUP2 SLOAD DUP2 MSTORE SWAP1 PUSH1 0x1 ADD SWAP1 PUSH1 0x20 ADD DUP1 DUP4 GT PUSH2 0x1100 JUMPI DUP3 SWAP1 SUB PUSH1 0x1F AND DUP3 ADD SWAP2 JUMPDEST POP POP POP POP POP DUP2 MSTORE PUSH1 0x20 ADD DUP5 PUSH1 0x1 ADD PUSH1 0x0 SWAP1 SLOAD SWAP1 PUSH2 0x100 EXP SWAP1 DIV PUSH20 0xFFFFFFFFFFFFFFFFFFFFFFFFFFFFFFFFFFFFFFFF AND PUSH20 0xFFFFFFFFFFFFFFFFFFFFFFFFFFFFFFFFFFFFFFFF AND DUP2 MSTORE PUSH1 0x20 ADD DUP5 PUSH1 0x2 ADD SLOAD DUP2 MSTORE PUSH1 0x20 ADD DUP5 PUSH1 0x6 ADD SLOAD DUP2 MSTORE PUSH1 0x20 ADD DUP4 DUP2 MSTORE PUSH1 0x20 ADD DUP3 DUP2 MSTORE POP DUP7 DUP7 DUP2 MLOAD DUP2 LT PUSH2 0x1198 JUMPI PUSH2 0x1197 PUSH2 0x212A JUMP JUMPDEST JUMPDEST PUSH1 0x20 MUL PUSH1 0x20 ADD ADD DUP2 SWAP1 MSTORE POP DUP5 DUP1 PUSH2 0x11AE SWAP1 PUSH2 0x2972 JUMP JUMPDEST SWAP6 POP POP POP POP POP JUMPDEST DUP1 DUP1 PUSH1 0x1 ADD SWAP2 POP POP PUSH2 0xF40 JUMP JUMPDEST POP PUSH1 0x0 DUP2 PUSH8 0xFFFFFFFFFFFFFFFF DUP2 GT ISZERO PUSH2 0x11DF JUMPI PUSH2 0x11DE PUSH2 0x1C57 JUMP JUMPDEST JUMPDEST PUSH1 0x40 MLOAD SWAP1 DUP1 DUP3 MSTORE DUP1 PUSH1 0x20 MUL PUSH1 0x20 ADD DUP3 ADD PUSH1 0x40 MSTORE DUP1 ISZERO PUSH2 0x1218 JUMPI DUP2 PUSH1 0x20 ADD JUMPDEST PUSH2 0x1205 PUSH2 0x1820 JUMP JUMPDEST DUP2 MSTORE PUSH1 0x20 ADD SWAP1 PUSH1 0x1 SWAP1 SUB SWAP1 DUP2 PUSH2 0x11FD JUMPI SWAP1 POP JUMPDEST POP SWAP1 POP PUSH1 0x0 JUMPDEST DUP3 DUP2 LT ISZERO PUSH2 0x126C JUMPI DUP4 DUP2 DUP2 MLOAD DUP2 LT PUSH2 0x1239 JUMPI PUSH2 0x1238 PUSH2 0x212A JUMP JUMPDEST JUMPDEST PUSH1 0x20 MUL PUSH1 0x20 ADD ADD MLOAD DUP3 DUP3 DUP2 MLOAD DUP2 LT PUSH2 0x1254 JUMPI PUSH2 0x1253 PUSH2 0x212A JUMP JUMPDEST JUMPDEST PUSH1 0x20 MUL PUSH1 0x20 ADD ADD DUP2 SWAP1 MSTORE POP DUP1 DUP1 PUSH1 0x1 ADD SWAP2 POP POP PUSH2 0x121E JUMP JUMPDEST POP DUP1 SWAP4 POP POP POP POP SWAP1 JUMP JUMPDEST PUSH1 0x3 DUP2 DUP2 SLOAD DUP2 LT PUSH2 0x1286 JUMPI PUSH1 0x0 DUP1 REVERT JUMPDEST SWAP1 PUSH1 0x0 MSTORE PUSH1 0x20 PUSH1 0x0 KECCAK256 SWAP1 PUSH1 0x9 MUL ADD PUSH1 0x0 SWAP2 POP SWAP1 POP DUP1 PUSH1 0x0 ADD DUP1 SLOAD PUSH2 0x12A9 SWAP1 PUSH2 0x23F5 JUMP JUMPDEST DUP1 PUSH1 0x1F ADD PUSH1 0x20 DUP1 SWAP2 DIV MUL PUSH1 0x20 ADD PUSH1 0x40 MLOAD SWAP1 DUP2 ADD PUSH1 0x40 MSTORE DUP1 SWAP3 SWAP2 SWAP1 DUP2 DUP2 MSTORE PUSH1 0x20 ADD DUP3 DUP1 SLOAD PUSH2 0x12D5 SWAP1 PUSH2 0x23F5 JUMP JUMPDEST DUP1 ISZERO PUSH2 0x1322 JUMPI DUP1 PUSH1 0x1F LT PUSH2 0x12F7 JUMPI PUSH2 0x100 DUP1 DUP4 SLOAD DIV MUL DUP4 MSTORE SWAP2 PUSH1 0x20 ADD SWAP2 PUSH2 0x1322 JUMP JUMPDEST DUP3 ADD SWAP2 SWAP1 PUSH1 0x0 MSTORE PUSH1 0x20 PUSH1 0x0 KECCAK256 SWAP1 JUMPDEST DUP2 SLOAD DUP2 MSTORE SWAP1 PUSH1 0x1 ADD SWAP1 PUSH1 0x20 ADD DUP1 DUP4 GT PUSH2 0x1305 JUMPI DUP3 SWAP1 SUB PUSH1 0x1F AND DUP3 ADD SWAP2 JUMPDEST POP POP POP POP POP SWAP1 DUP1 PUSH1 0x1 ADD PUSH1 0x0 SWAP1 SLOAD SWAP1 PUSH2 0x100 EXP SWAP1 DIV PUSH20 0xFFFFFFFFFFFFFFFFFFFFFFFFFFFFFFFFFFFFFFFF AND SWAP1 DUP1 PUSH1 0x2 ADD SLOAD SWAP1 DUP1 PUSH1 0x6 ADD SLOAD SWAP1 DUP1 PUSH1 0x7 ADD PUSH1 0x0 SWAP1 SLOAD SWAP1 PUSH2 0x100 EXP SWAP1 DIV PUSH1 0xFF AND SWAP1 DUP1 PUSH1 0x8 ADD SLOAD SWAP1 POP DUP7 JUMP JUMPDEST PUSH1 0x2 PUSH1 0x0 SLOAD SUB PUSH2 0x13B3 JUMPI PUSH1 0x40 MLOAD PUSH32 0x3EE5AEB500000000000000000000000000000000000000000000000000000000 DUP2 MSTORE PUSH1 0x4 ADD PUSH1 0x40 MLOAD DUP1 SWAP2 SUB SWAP1 REVERT JUMPDEST PUSH1 0x2 PUSH1 0x0 DUP2 SWAP1 SSTORE POP JUMP JUMPDEST PUSH1 0x1 PUSH1 0x0 DUP2 SWAP1 SSTORE POP JUMP JUMPDEST PUSH1 0x60 PUSH1 0x0 PUSH1 0x3 DUP4 DUP2 SLOAD DUP2 LT PUSH2 0x13DF JUMPI PUSH2 0x13DE PUSH2 0x212A JUMP JUMPDEST JUMPDEST SWAP1 PUSH1 0x0 MSTORE PUSH1 0x20 PUSH1 0x0 KECCAK256 SWAP1 PUSH1 0x9 MUL ADD SWAP1 POP DUP1 PUSH1 0x7 ADD PUSH1 0x0 SWAP1 SLOAD SWAP1 PUSH2 0x100 EXP SWAP1 DIV PUSH1 0xFF AND ISZERO PUSH2 0x1441 JUMPI PUSH1 0x40 MLOAD PUSH32 0x8C379A000000000000000000000000000000000000000000000000000000000 DUP2 MSTORE PUSH1 0x4 ADD PUSH2 0x1438 SWAP1 PUSH2 0x2A06 JUMP JUMPDEST PUSH1 0x40 MLOAD DUP1 SWAP2 SUB SWAP1 REVERT JUMPDEST PUSH1 0x0 PUSH1 0x2 TIMESTAMP PREVRANDAO DUP7 PUSH1 0x40 MLOAD PUSH1 0x20 ADD PUSH2 0x145A SWAP4 SWAP3 SWAP2 SWAP1 PUSH2 0x2A47 JUMP JUMPDEST PUSH1 0x40 MLOAD PUSH1 0x20 DUP2 DUP4 SUB SUB DUP2 MSTORE SWAP1 PUSH1 0x40 MSTORE DUP1 MLOAD SWAP1 PUSH1 0x20 ADD KECCAK256 PUSH1 0x0 SHR PUSH2 0x147D SWAP2 SWAP1 PUSH2 0x2A84 JUMP JUMPDEST SWAP1 POP PUSH1 0x0 DUP1 DUP3 EQ PUSH2 0x14C3 JUMPI PUSH1 0x40 MLOAD DUP1 PUSH1 0x40 ADD PUSH1 0x40 MSTORE DUP1 PUSH1 0x5 DUP2 MSTORE PUSH1 0x20 ADD PUSH32 0x636F726F61000000000000000000000000000000000000000000000000000000 DUP2 MSTORE POP PUSH2 0x14FA JUMP JUMPDEST PUSH1 0x40 MLOAD DUP1 PUSH1 0x40 ADD PUSH1 0x40 MSTORE DUP1 PUSH1 0x4 DUP2 MSTORE PUSH1 0x20 ADD PUSH32 0x6361726100000000000000000000000000000000000000000000000000000000 DUP2 MSTORE POP JUMPDEST SWAP1 POP DUP1 SWAP4 POP POP POP POP SWAP2 SWAP1 POP JUMP JUMPDEST PUSH1 0x0 DUP3 PUSH1 0x5 ADD DUP3 PUSH1 0x40 MLOAD PUSH2 0x151B SWAP2 SWAP1 PUSH2 0x290F JUMP JUMPDEST SWAP1 DUP2 MSTORE PUSH1 0x20 ADD PUSH1 0x40 MLOAD DUP1 SWAP2 SUB SWAP1 KECCAK256 DUP1 SLOAD DUP1 PUSH1 0x20 MUL PUSH1 0x20 ADD PUSH1 0x40 MLOAD SWAP1 DUP2 ADD PUSH1 0x40 MSTORE DUP1 SWAP3 SWAP2 SWAP1 DUP2 DUP2 MSTORE PUSH1 0x20 ADD DUP3 DUP1 SLOAD DUP1 ISZERO PUSH2 0x15A9 JUMPI PUSH1 0x20 MUL DUP3 ADD SWAP2 SWAP1 PUSH1 0x0 MSTORE PUSH1 0x20 PUSH1 0x0 KECCAK256 SWAP1 JUMPDEST DUP2 PUSH1 0x0 SWAP1 SLOAD SWAP1 PUSH2 0x100 EXP SWAP1 DIV PUSH20 0xFFFFFFFFFFFFFFFFFFFFFFFFFFFFFFFFFFFFFFFF AND PUSH20 0xFFFFFFFFFFFFFFFFFFFFFFFFFFFFFFFFFFFFFFFF AND DUP2 MSTORE PUSH1 0x20 ADD SWAP1 PUSH1 0x1 ADD SWAP1 DUP1 DUP4 GT PUSH2 0x155F JUMPI JUMPDEST POP POP POP POP POP SWAP1 POP PUSH1 0x0 DUP1 JUMPDEST DUP3 MLOAD DUP2 LT ISZERO PUSH2 0x1636 JUMPI DUP5 PUSH1 0x3 ADD PUSH1 0x0 DUP5 DUP4 DUP2 MLOAD DUP2 LT PUSH2 0x15D6 JUMPI PUSH2 0x15D5 PUSH2 0x212A JUMP JUMPDEST JUMPDEST PUSH1 0x20 MUL PUSH1 0x20 ADD ADD MLOAD PUSH20 0xFFFFFFFFFFFFFFFFFFFFFFFFFFFFFFFFFFFFFFFF AND PUSH20 0xFFFFFFFFFFFFFFFFFFFFFFFFFFFFFFFFFFFFFFFF AND DUP2 MSTORE PUSH1 0x20 ADD SWAP1 DUP2 MSTORE PUSH1 0x20 ADD PUSH1 0x0 KECCAK256 PUSH1 0x1 ADD SLOAD DUP3 PUSH2 0x1627 SWAP2 SWAP1 PUSH2 0x1FEA JUMP JUMPDEST SWAP2 POP DUP1 DUP1 PUSH1 0x1 ADD SWAP2 POP POP PUSH2 0x15B4 JUMP JUMPDEST POP PUSH1 0x0 DUP2 GT PUSH2 0x167A JUMPI PUSH1 0x40 MLOAD PUSH32 0x8C379A000000000000000000000000000000000000000000000000000000000 DUP2 MSTORE PUSH1 0x4 ADD PUSH2 0x1671 SWAP1 PUSH2 0x2B01 JUMP JUMPDEST PUSH1 0x40 MLOAD DUP1 SWAP2 SUB SWAP1 REVERT JUMPDEST PUSH1 0x0 JUMPDEST DUP3 MLOAD DUP2 LT ISZERO PUSH2 0x1781 JUMPI PUSH1 0x0 DUP3 DUP7 PUSH1 0x6 ADD SLOAD DUP8 PUSH1 0x3 ADD PUSH1 0x0 DUP8 DUP7 DUP2 MLOAD DUP2 LT PUSH2 0x16A7 JUMPI PUSH2 0x16A6 PUSH2 0x212A JUMP JUMPDEST JUMPDEST PUSH1 0x20 MUL PUSH1 0x20 ADD ADD MLOAD PUSH20 0xFFFFFFFFFFFFFFFFFFFFFFFFFFFFFFFFFFFFFFFF AND PUSH20 0xFFFFFFFFFFFFFFFFFFFFFFFFFFFFFFFFFFFFFFFF AND DUP2 MSTORE PUSH1 0x20 ADD SWAP1 DUP2 MSTORE PUSH1 0x20 ADD PUSH1 0x0 KECCAK256 PUSH1 0x1 ADD SLOAD PUSH2 0x16F7 SWAP2 SWAP1 PUSH2 0x22C3 JUMP JUMPDEST PUSH2 0x1701 SWAP2 SWAP1 PUSH2 0x2334 JUMP JUMPDEST SWAP1 POP DUP1 PUSH1 0x2 PUSH1 0x0 DUP7 DUP6 DUP2 MLOAD DUP2 LT PUSH2 0x171B JUMPI PUSH2 0x171A PUSH2 0x212A JUMP JUMPDEST JUMPDEST PUSH1 0x20 MUL PUSH1 0x20 ADD ADD MLOAD PUSH20 0xFFFFFFFFFFFFFFFFFFFFFFFFFFFFFFFFFFFFFFFF AND PUSH20 0xFFFFFFFFFFFFFFFFFFFFFFFFFFFFFFFFFFFFFFFF AND DUP2 MSTORE PUSH1 0x20 ADD SWAP1 DUP2 MSTORE PUSH1 0x20 ADD PUSH1 0x0 KECCAK256 PUSH1 0x0 DUP3 DUP3 SLOAD PUSH2 0x176C SWAP2 SWAP1 PUSH2 0x1FEA JUMP JUMPDEST SWAP3 POP POP DUP2 SWAP1 SSTORE POP POP DUP1 DUP1 PUSH1 0x1 ADD SWAP2 POP POP PUSH2 0x167D JUMP JUMPDEST POP PUSH32 0xC0B7EDC89A5E21C358803037A88CD4371E21B36A6D71E1712E2EBFE150CAAAE9 DUP6 DUP5 DUP5 DUP8 PUSH1 0x0 ADD PUSH1 0x40 MLOAD PUSH2 0x17BA SWAP5 SWAP4 SWAP3 SWAP2 SWAP1 PUSH2 0x2C54 JUMP JUMPDEST PUSH1 0x40 MLOAD DUP1 SWAP2 SUB SWAP1 LOG1 POP POP POP POP POP JUMP JUMPDEST DUP1 DUP4 PUSH1 0x4 ADD DUP4 PUSH1 0x40 MLOAD PUSH2 0x17DC SWAP2 SWAP1 PUSH2 0x290F JUMP JUMPDEST SWAP1 DUP2 MSTORE PUSH1 0x20 ADD PUSH1 0x40 MLOAD DUP1 SWAP2 SUB SWAP1 KECCAK256 PUSH1 0x0 DUP3 DUP3 SLOAD PUSH2 0x17F9 SWAP2 SWAP1 PUSH2 0x1FEA JUMP JUMPDEST SWAP3 POP POP DUP2 SWAP1 SSTORE POP DUP1 DUP4 PUSH1 0x6 ADD PUSH1 0x0 DUP3 DUP3 SLOAD PUSH2 0x1814 SWAP2 SWAP1 PUSH2 0x1FEA JUMP JUMPDEST SWAP3 POP POP DUP2 SWAP1 SSTORE POP POP POP POP JUMP JUMPDEST PUSH1 0x40 MLOAD DUP1 PUSH1 0xE0 ADD PUSH1 0x40 MSTORE DUP1 PUSH1 0x0 DUP2 MSTORE PUSH1 0x20 ADD PUSH1 0x60 DUP2 MSTORE PUSH1 0x20 ADD PUSH1 0x0 PUSH20 0xFFFFFFFFFFFFFFFFFFFFFFFFFFFFFFFFFFFFFFFF AND DUP2 MSTORE PUSH1 0x20 ADD PUSH1 0x0 DUP2 MSTORE PUSH1 0x20 ADD PUSH1 0x0 DUP2 MSTORE PUSH1 0x20 ADD PUSH1 0x0 DUP2 MSTORE PUSH1 0x20 ADD PUSH1 0x0 DUP2 MSTORE POP SWAP1 JUMP JUMPDEST PUSH1 0x0 PUSH1 0x40 MLOAD SWAP1 POP SWAP1 JUMP JUMPDEST PUSH1 0x0 DUP1 REVERT JUMPDEST PUSH1 0x0 DUP1 REVERT JUMPDEST PUSH1 0x0 PUSH20 0xFFFFFFFFFFFFFFFFFFFFFFFFFFFFFFFFFFFFFFFF DUP3 AND SWAP1 POP SWAP2 SWAP1 POP JUMP JUMPDEST PUSH1 0x0 PUSH2 0x18B2 DUP3 PUSH2 0x1887 JUMP JUMPDEST SWAP1 POP SWAP2 SWAP1 POP JUMP JUMPDEST PUSH2 0x18C2 DUP2 PUSH2 0x18A7 JUMP JUMPDEST DUP2 EQ PUSH2 0x18CD JUMPI PUSH1 0x0 DUP1 REVERT JUMPDEST POP JUMP JUMPDEST PUSH1 0x0 DUP2 CALLDATALOAD SWAP1 POP PUSH2 0x18DF DUP2 PUSH2 0x18B9 JUMP JUMPDEST SWAP3 SWAP2 POP POP JUMP JUMPDEST PUSH1 0x0 DUP2 SWAP1 POP SWAP2 SWAP1 POP JUMP JUMPDEST PUSH2 0x18F8 DUP2 PUSH2 0x18E5 JUMP JUMPDEST DUP2 EQ PUSH2 0x1903 JUMPI PUSH1 0x0 DUP1 REVERT JUMPDEST POP JUMP JUMPDEST PUSH1 0x0 DUP2 CALLDATALOAD SWAP1 POP PUSH2 0x1915 DUP2 PUSH2 0x18EF JUMP JUMPDEST SWAP3 SWAP2 POP POP JUMP JUMPDEST PUSH1 0x0 DUP1 PUSH1 0x40 DUP4 DUP6 SUB SLT ISZERO PUSH2 0x1932 JUMPI PUSH2 0x1931 PUSH2 0x187D JUMP JUMPDEST JUMPDEST PUSH1 0x0 PUSH2 0x1940 DUP6 DUP3 DUP7 ADD PUSH2 0x18D0 JUMP JUMPDEST SWAP3 POP POP PUSH1 0x20 PUSH2 0x1951 DUP6 DUP3 DUP7 ADD PUSH2 0x1906 JUMP JUMPDEST SWAP2 POP POP SWAP3 POP SWAP3 SWAP1 POP JUMP JUMPDEST PUSH2 0x1964 DUP2 PUSH2 0x18E5 JUMP JUMPDEST DUP3 MSTORE POP POP JUMP JUMPDEST PUSH1 0x0 PUSH1 0x20 DUP3 ADD SWAP1 POP PUSH2 0x197F PUSH1 0x0 DUP4 ADD DUP5 PUSH2 0x195B JUMP JUMPDEST SWAP3 SWAP2 POP POP JUMP JUMPDEST PUSH1 0x0 PUSH1 0x20 DUP3 DUP5 SUB SLT ISZERO PUSH2 0x199B JUMPI PUSH2 0x199A PUSH2 0x187D JUMP JUMPDEST JUMPDEST PUSH1 0x0 PUSH2 0x19A9 DUP5 DUP3 DUP6 ADD PUSH2 0x1906 JUMP JUMPDEST SWAP2 POP POP SWAP3 SWAP2 POP POP JUMP JUMPDEST PUSH1 0x0 DUP1 PUSH1 0x40 DUP4 DUP6 SUB SLT ISZERO PUSH2 0x19C9 JUMPI PUSH2 0x19C8 PUSH2 0x187D JUMP JUMPDEST JUMPDEST PUSH1 0x0 PUSH2 0x19D7 DUP6 DUP3 DUP7 ADD PUSH2 0x1906 JUMP JUMPDEST SWAP3 POP POP PUSH1 0x20 PUSH2 0x19E8 DUP6 DUP3 DUP7 ADD PUSH2 0x1906 JUMP JUMPDEST SWAP2 POP POP SWAP3 POP SWAP3 SWAP1 POP JUMP JUMPDEST PUSH1 0x0 DUP2 MLOAD SWAP1 POP SWAP2 SWAP1 POP JUMP JUMPDEST PUSH1 0x0 DUP3 DUP3 MSTORE PUSH1 0x20 DUP3 ADD SWAP1 POP SWAP3 SWAP2 POP POP JUMP JUMPDEST PUSH1 0x0 DUP2 SWAP1 POP PUSH1 0x20 DUP3 ADD SWAP1 POP SWAP2 SWAP1 POP JUMP JUMPDEST PUSH2 0x1A27 DUP2 PUSH2 0x18E5 JUMP JUMPDEST DUP3 MSTORE POP POP JUMP JUMPDEST PUSH1 0x0 DUP2 MLOAD SWAP1 POP SWAP2 SWAP1 POP JUMP JUMPDEST PUSH1 0x0 DUP3 DUP3 MSTORE PUSH1 0x20 DUP3 ADD SWAP1 POP SWAP3 SWAP2 POP POP JUMP JUMPDEST PUSH1 0x0 JUMPDEST DUP4 DUP2 LT ISZERO PUSH2 0x1A67 JUMPI DUP1 DUP3 ADD MLOAD DUP2 DUP5 ADD MSTORE PUSH1 0x20 DUP2 ADD SWAP1 POP PUSH2 0x1A4C JUMP JUMPDEST PUSH1 0x0 DUP5 DUP5 ADD MSTORE POP POP POP POP JUMP JUMPDEST PUSH1 0x0 PUSH1 0x1F NOT PUSH1 0x1F DUP4 ADD AND SWAP1 POP SWAP2 SWAP1 POP JUMP JUMPDEST PUSH1 0x0 PUSH2 0x1A8F DUP3 PUSH2 0x1A2D JUMP JUMPDEST PUSH2 0x1A99 DUP2 DUP6 PUSH2 0x1A38 JUMP JUMPDEST SWAP4 POP PUSH2 0x1AA9 DUP2 DUP6 PUSH1 0x20 DUP7 ADD PUSH2 0x1A49 JUMP JUMPDEST PUSH2 0x1AB2 DUP2 PUSH2 0x1A73 JUMP JUMPDEST DUP5 ADD SWAP2 POP POP SWAP3 SWAP2 POP POP JUMP JUMPDEST PUSH2 0x1AC6 DUP2 PUSH2 0x18A7 JUMP JUMPDEST DUP3 MSTORE POP POP JUMP JUMPDEST PUSH1 0x0 PUSH1 0xE0 DUP4 ADD PUSH1 0x0 DUP4 ADD MLOAD PUSH2 0x1AE4 PUSH1 0x0 DUP7 ADD DUP3 PUSH2 0x1A1E JUMP JUMPDEST POP PUSH1 0x20 DUP4 ADD MLOAD DUP5 DUP3 SUB PUSH1 0x20 DUP7 ADD MSTORE PUSH2 0x1AFC DUP3 DUP3 PUSH2 0x1A84 JUMP JUMPDEST SWAP2 POP POP PUSH1 0x40 DUP4 ADD MLOAD PUSH2 0x1B11 PUSH1 0x40 DUP7 ADD DUP3 PUSH2 0x1ABD JUMP JUMPDEST POP PUSH1 0x60 DUP4 ADD MLOAD PUSH2 0x1B24 PUSH1 0x60 DUP7 ADD DUP3 PUSH2 0x1A1E JUMP JUMPDEST POP PUSH1 0x80 DUP4 ADD MLOAD PUSH2 0x1B37 PUSH1 0x80 DUP7 ADD DUP3 PUSH2 0x1A1E JUMP JUMPDEST POP PUSH1 0xA0 DUP4 ADD MLOAD PUSH2 0x1B4A PUSH1 0xA0 DUP7 ADD DUP3 PUSH2 0x1A1E JUMP JUMPDEST POP PUSH1 0xC0 DUP4 ADD MLOAD PUSH2 0x1B5D PUSH1 0xC0 DUP7 ADD DUP3 PUSH2 0x1A1E JUMP JUMPDEST POP DUP1 SWAP2 POP POP SWAP3 SWAP2 POP POP JUMP JUMPDEST PUSH1 0x0 PUSH2 0x1B74 DUP4 DUP4 PUSH2 0x1ACC JUMP JUMPDEST SWAP1 POP SWAP3 SWAP2 POP POP JUMP JUMPDEST PUSH1 0x0 PUSH1 0x20 DUP3 ADD SWAP1 POP SWAP2 SWAP1 POP JUMP JUMPDEST PUSH1 0x0 PUSH2 0x1B94 DUP3 PUSH2 0x19F2 JUMP JUMPDEST PUSH2 0x1B9E DUP2 DUP6 PUSH2 0x19FD JUMP JUMPDEST SWAP4 POP DUP4 PUSH1 0x20 DUP3 MUL DUP6 ADD PUSH2 0x1BB0 DUP6 PUSH2 0x1A0E JUMP JUMPDEST DUP1 PUSH1 0x0 JUMPDEST DUP6 DUP2 LT ISZERO PUSH2 0x1BEC JUMPI DUP5 DUP5 SUB DUP10 MSTORE DUP2 MLOAD PUSH2 0x1BCD DUP6 DUP3 PUSH2 0x1B68 JUMP JUMPDEST SWAP5 POP PUSH2 0x1BD8 DUP4 PUSH2 0x1B7C JUMP JUMPDEST SWAP3 POP PUSH1 0x20 DUP11 ADD SWAP10 POP POP PUSH1 0x1 DUP2 ADD SWAP1 POP PUSH2 0x1BB4 JUMP JUMPDEST POP DUP3 SWAP8 POP DUP8 SWAP6 POP POP POP POP POP POP SWAP3 SWAP2 POP POP JUMP JUMPDEST PUSH1 0x0 PUSH1 0x20 DUP3 ADD SWAP1 POP DUP2 DUP2 SUB PUSH1 0x0 DUP4 ADD MSTORE PUSH2 0x1C18 DUP2 DUP5 PUSH2 0x1B89 JUMP JUMPDEST SWAP1 POP SWAP3 SWAP2 POP POP JUMP JUMPDEST PUSH1 0x0 PUSH1 0x20 DUP3 DUP5 SUB SLT ISZERO PUSH2 0x1C36 JUMPI PUSH2 0x1C35 PUSH2 0x187D JUMP JUMPDEST JUMPDEST PUSH1 0x0 PUSH2 0x1C44 DUP5 DUP3 DUP6 ADD PUSH2 0x18D0 JUMP JUMPDEST SWAP2 POP POP SWAP3 SWAP2 POP POP JUMP JUMPDEST PUSH1 0x0 DUP1 REVERT JUMPDEST PUSH1 0x0 DUP1 REVERT JUMPDEST PUSH32 0x4E487B7100000000000000000000000000000000000000000000000000000000 PUSH1 0x0 MSTORE PUSH1 0x41 PUSH1 0x4 MSTORE PUSH1 0x24 PUSH1 0x0 REVERT JUMPDEST PUSH2 0x1C8F DUP3 PUSH2 0x1A73 JUMP JUMPDEST DUP2 ADD DUP2 DUP2 LT PUSH8 0xFFFFFFFFFFFFFFFF DUP3 GT OR ISZERO PUSH2 0x1CAE JUMPI PUSH2 0x1CAD PUSH2 0x1C57 JUMP JUMPDEST JUMPDEST DUP1 PUSH1 0x40 MSTORE POP POP POP JUMP JUMPDEST PUSH1 0x0 PUSH2 0x1CC1 PUSH2 0x1873 JUMP JUMPDEST SWAP1 POP PUSH2 0x1CCD DUP3 DUP3 PUSH2 0x1C86 JUMP JUMPDEST SWAP2 SWAP1 POP JUMP JUMPDEST PUSH1 0x0 PUSH8 0xFFFFFFFFFFFFFFFF DUP3 GT ISZERO PUSH2 0x1CED JUMPI PUSH2 0x1CEC PUSH2 0x1C57 JUMP JUMPDEST JUMPDEST PUSH2 0x1CF6 DUP3 PUSH2 0x1A73 JUMP JUMPDEST SWAP1 POP PUSH1 0x20 DUP2 ADD SWAP1 POP SWAP2 SWAP1 POP JUMP JUMPDEST DUP3 DUP2 DUP4 CALLDATACOPY PUSH1 0x0 DUP4 DUP4 ADD MSTORE POP POP POP JUMP JUMPDEST PUSH1 0x0 PUSH2 0x1D25 PUSH2 0x1D20 DUP5 PUSH2 0x1CD2 JUMP JUMPDEST PUSH2 0x1CB7 JUMP JUMPDEST SWAP1 POP DUP3 DUP2 MSTORE PUSH1 0x20 DUP2 ADD DUP5 DUP5 DUP5 ADD GT ISZERO PUSH2 0x1D41 JUMPI PUSH2 0x1D40 PUSH2 0x1C52 JUMP JUMPDEST JUMPDEST PUSH2 0x1D4C DUP5 DUP3 DUP6 PUSH2 0x1D03 JUMP JUMPDEST POP SWAP4 SWAP3 POP POP POP JUMP JUMPDEST PUSH1 0x0 DUP3 PUSH1 0x1F DUP4 ADD SLT PUSH2 0x1D69 JUMPI PUSH2 0x1D68 PUSH2 0x1C4D JUMP JUMPDEST JUMPDEST DUP2 CALLDATALOAD PUSH2 0x1D79 DUP5 DUP3 PUSH1 0x20 DUP7 ADD PUSH2 0x1D12 JUMP JUMPDEST SWAP2 POP POP SWAP3 SWAP2 POP POP JUMP JUMPDEST PUSH1 0x0 DUP1 PUSH1 0x40 DUP4 DUP6 SUB SLT ISZERO PUSH2 0x1D99 JUMPI PUSH2 0x1D98 PUSH2 0x187D JUMP JUMPDEST JUMPDEST PUSH1 0x0 DUP4 ADD CALLDATALOAD PUSH8 0xFFFFFFFFFFFFFFFF DUP2 GT ISZERO PUSH2 0x1DB7 JUMPI PUSH2 0x1DB6 PUSH2 0x1882 JUMP JUMPDEST JUMPDEST PUSH2 0x1DC3 DUP6 DUP3 DUP7 ADD PUSH2 0x1D54 JUMP JUMPDEST SWAP3 POP POP PUSH1 0x20 PUSH2 0x1DD4 DUP6 DUP3 DUP7 ADD PUSH2 0x1906 JUMP JUMPDEST SWAP2 POP POP SWAP3 POP SWAP3 SWAP1 POP JUMP JUMPDEST PUSH1 0x0 DUP1 PUSH1 0x0 PUSH1 0x60 DUP5 DUP7 SUB SLT ISZERO PUSH2 0x1DF7 JUMPI PUSH2 0x1DF6 PUSH2 0x187D JUMP JUMPDEST JUMPDEST PUSH1 0x0 PUSH2 0x1E05 DUP7 DUP3 DUP8 ADD PUSH2 0x1906 JUMP JUMPDEST SWAP4 POP POP PUSH1 0x20 DUP5 ADD CALLDATALOAD PUSH8 0xFFFFFFFFFFFFFFFF DUP2 GT ISZERO PUSH2 0x1E26 JUMPI PUSH2 0x1E25 PUSH2 0x1882 JUMP JUMPDEST JUMPDEST PUSH2 0x1E32 DUP7 DUP3 DUP8 ADD PUSH2 0x1D54 JUMP JUMPDEST SWAP3 POP POP PUSH1 0x40 PUSH2 0x1E43 DUP7 DUP3 DUP8 ADD PUSH2 0x1906 JUMP JUMPDEST SWAP2 POP POP SWAP3 POP SWAP3 POP SWAP3 JUMP JUMPDEST PUSH1 0x0 DUP3 DUP3 MSTORE PUSH1 0x20 DUP3 ADD SWAP1 POP SWAP3 SWAP2 POP POP JUMP JUMPDEST PUSH1 0x0 PUSH2 0x1E69 DUP3 PUSH2 0x1A2D JUMP JUMPDEST PUSH2 0x1E73 DUP2 DUP6 PUSH2 0x1E4D JUMP JUMPDEST SWAP4 POP PUSH2 0x1E83 DUP2 DUP6 PUSH1 0x20 DUP7 ADD PUSH2 0x1A49 JUMP JUMPDEST PUSH2 0x1E8C DUP2 PUSH2 0x1A73 JUMP JUMPDEST DUP5 ADD SWAP2 POP POP SWAP3 SWAP2 POP POP JUMP JUMPDEST PUSH2 0x1EA0 DUP2 PUSH2 0x18A7 JUMP JUMPDEST DUP3 MSTORE POP POP JUMP JUMPDEST PUSH1 0x0 DUP2 ISZERO ISZERO SWAP1 POP SWAP2 SWAP1 POP JUMP JUMPDEST PUSH2 0x1EBB DUP2 PUSH2 0x1EA6 JUMP JUMPDEST DUP3 MSTORE POP POP JUMP JUMPDEST PUSH1 0x0 PUSH1 0xC0 DUP3 ADD SWAP1 POP DUP2 DUP2 SUB PUSH1 0x0 DUP4 ADD MSTORE PUSH2 0x1EDB DUP2 DUP10 PUSH2 0x1E5E JUMP JUMPDEST SWAP1 POP PUSH2 0x1EEA PUSH1 0x20 DUP4 ADD DUP9 PUSH2 0x1E97 JUMP JUMPDEST PUSH2 0x1EF7 PUSH1 0x40 DUP4 ADD DUP8 PUSH2 0x195B JUMP JUMPDEST PUSH2 0x1F04 PUSH1 0x60 DUP4 ADD DUP7 PUSH2 0x195B JUMP JUMPDEST PUSH2 0x1F11 PUSH1 0x80 DUP4 ADD DUP6 PUSH2 0x1EB2 JUMP JUMPDEST PUSH2 0x1F1E PUSH1 0xA0 DUP4 ADD DUP5 PUSH2 0x195B JUMP JUMPDEST SWAP8 SWAP7 POP POP POP POP POP POP POP JUMP JUMPDEST PUSH32 0x4F2076616C6F7220646F206465706F7369746F206465766520736572206D6169 PUSH1 0x0 DUP3 ADD MSTORE PUSH32 0x6F7220717565207A65726F000000000000000000000000000000000000000000 PUSH1 0x20 DUP3 ADD MSTORE POP JUMP JUMPDEST PUSH1 0x0 PUSH2 0x1F85 PUSH1 0x2B DUP4 PUSH2 0x1E4D JUMP JUMPDEST SWAP2 POP PUSH2 0x1F90 DUP3 PUSH2 0x1F29 JUMP JUMPDEST PUSH1 0x40 DUP3 ADD SWAP1 POP SWAP2 SWAP1 POP JUMP JUMPDEST PUSH1 0x0 PUSH1 0x20 DUP3 ADD SWAP1 POP DUP2 DUP2 SUB PUSH1 0x0 DUP4 ADD MSTORE PUSH2 0x1FB4 DUP2 PUSH2 0x1F78 JUMP JUMPDEST SWAP1 POP SWAP2 SWAP1 POP JUMP JUMPDEST PUSH32 0x4E487B7100000000000000000000000000000000000000000000000000000000 PUSH1 0x0 MSTORE PUSH1 0x11 PUSH1 0x4 MSTORE PUSH1 0x24 PUSH1 0x0 REVERT JUMPDEST PUSH1 0x0 PUSH2 0x1FF5 DUP3 PUSH2 0x18E5 JUMP JUMPDEST SWAP2 POP PUSH2 0x2000 DUP4 PUSH2 0x18E5 JUMP JUMPDEST SWAP3 POP DUP3 DUP3 ADD SWAP1 POP DUP1 DUP3 GT ISZERO PUSH2 0x2018 JUMPI PUSH2 0x2017 PUSH2 0x1FBB JUMP JUMPDEST JUMPDEST SWAP3 SWAP2 POP POP JUMP JUMPDEST PUSH32 0x53616C646F20696E737566696369656E74650000000000000000000000000000 PUSH1 0x0 DUP3 ADD MSTORE POP JUMP JUMPDEST PUSH1 0x0 PUSH2 0x2054 PUSH1 0x12 DUP4 PUSH2 0x1E4D JUMP JUMPDEST SWAP2 POP PUSH2 0x205F DUP3 PUSH2 0x201E JUMP JUMPDEST PUSH1 0x20 DUP3 ADD SWAP1 POP SWAP2 SWAP1 POP JUMP JUMPDEST PUSH1 0x0 PUSH1 0x20 DUP3 ADD SWAP1 POP DUP2 DUP2 SUB PUSH1 0x0 DUP4 ADD MSTORE PUSH2 0x2083 DUP2 PUSH2 0x2047 JUMP JUMPDEST SWAP1 POP SWAP2 SWAP1 POP JUMP JUMPDEST PUSH1 0x0 PUSH2 0x2095 DUP3 PUSH2 0x18E5 JUMP JUMPDEST SWAP2 POP PUSH2 0x20A0 DUP4 PUSH2 0x18E5 JUMP JUMPDEST SWAP3 POP DUP3 DUP3 SUB SWAP1 POP DUP2 DUP2 GT ISZERO PUSH2 0x20B8 JUMPI PUSH2 0x20B7 PUSH2 0x1FBB JUMP JUMPDEST JUMPDEST SWAP3 SWAP2 POP POP JUMP JUMPDEST PUSH32 0x41706F737461206E616F20656E636F6E74726164610000000000000000000000 PUSH1 0x0 DUP3 ADD MSTORE POP JUMP JUMPDEST PUSH1 0x0 PUSH2 0x20F4 PUSH1 0x15 DUP4 PUSH2 0x1E4D JUMP JUMPDEST SWAP2 POP PUSH2 0x20FF DUP3 PUSH2 0x20BE JUMP JUMPDEST PUSH1 0x20 DUP3 ADD SWAP1 POP SWAP2 SWAP1 POP JUMP JUMPDEST PUSH1 0x0 PUSH1 0x20 DUP3 ADD SWAP1 POP DUP2 DUP2 SUB PUSH1 0x0 DUP4 ADD MSTORE PUSH2 0x2123 DUP2 PUSH2 0x20E7 JUMP JUMPDEST SWAP1 POP SWAP2 SWAP1 POP JUMP JUMPDEST PUSH32 0x4E487B7100000000000000000000000000000000000000000000000000000000 PUSH1 0x0 MSTORE PUSH1 0x32 PUSH1 0x4 MSTORE PUSH1 0x24 PUSH1 0x0 REVERT JUMPDEST PUSH32 0x41706F737461206A612066656368616461000000000000000000000000000000 PUSH1 0x0 DUP3 ADD MSTORE POP JUMP JUMPDEST PUSH1 0x0 PUSH2 0x218F PUSH1 0x11 DUP4 PUSH2 0x1E4D JUMP JUMPDEST SWAP2 POP PUSH2 0x219A DUP3 PUSH2 0x2159 JUMP JUMPDEST PUSH1 0x20 DUP3 ADD SWAP1 POP SWAP2 SWAP1 POP JUMP JUMPDEST PUSH1 0x0 PUSH1 0x20 DUP3 ADD SWAP1 POP DUP2 DUP2 SUB PUSH1 0x0 DUP4 ADD MSTORE PUSH2 0x21BE DUP2 PUSH2 0x2182 JUMP JUMPDEST SWAP1 POP SWAP2 SWAP1 POP JUMP JUMPDEST PUSH32 0x4576656E746F2061696E6461206E616F20706F64652073657220656E63657272 PUSH1 0x0 DUP3 ADD MSTORE PUSH32 0x61646F0000000000000000000000000000000000000000000000000000000000 PUSH1 0x20 DUP3 ADD MSTORE POP JUMP JUMPDEST PUSH1 0x0 PUSH2 0x2221 PUSH1 0x23 DUP4 PUSH2 0x1E4D JUMP JUMPDEST SWAP2 POP PUSH2 0x222C DUP3 PUSH2 0x21C5 JUMP JUMPDEST PUSH1 0x40 DUP3 ADD SWAP1 POP SWAP2 SWAP1 POP JUMP JUMPDEST PUSH1 0x0 PUSH1 0x20 DUP3 ADD SWAP1 POP DUP2 DUP2 SUB PUSH1 0x0 DUP4 ADD MSTORE PUSH2 0x2250 DUP2 PUSH2 0x2214 JUMP JUMPDEST SWAP1 POP SWAP2 SWAP1 POP JUMP JUMPDEST PUSH1 0x0 DUP2 SWAP1 POP SWAP3 SWAP2 POP POP JUMP JUMPDEST PUSH32 0x6361726100000000000000000000000000000000000000000000000000000000 PUSH1 0x0 DUP3 ADD MSTORE POP JUMP JUMPDEST PUSH1 0x0 PUSH2 0x2298 PUSH1 0x4 DUP4 PUSH2 0x2257 JUMP JUMPDEST SWAP2 POP PUSH2 0x22A3 DUP3 PUSH2 0x2262 JUMP JUMPDEST PUSH1 0x4 DUP3 ADD SWAP1 POP SWAP2 SWAP1 POP JUMP JUMPDEST PUSH1 0x0 PUSH2 0x22B9 DUP3 PUSH2 0x228B JUMP JUMPDEST SWAP2 POP DUP2 SWAP1 POP SWAP2 SWAP1 POP JUMP JUMPDEST PUSH1 0x0 PUSH2 0x22CE DUP3 PUSH2 0x18E5 JUMP JUMPDEST SWAP2 POP PUSH2 0x22D9 DUP4 PUSH2 0x18E5 JUMP JUMPDEST SWAP3 POP DUP3 DUP3 MUL PUSH2 0x22E7 DUP2 PUSH2 0x18E5 JUMP JUMPDEST SWAP2 POP DUP3 DUP3 DIV DUP5 EQ DUP4 ISZERO OR PUSH2 0x22FE JUMPI PUSH2 0x22FD PUSH2 0x1FBB JUMP JUMPDEST JUMPDEST POP SWAP3 SWAP2 POP POP JUMP JUMPDEST PUSH32 0x4E487B7100000000000000000000000000000000000000000000000000000000 PUSH1 0x0 MSTORE PUSH1 0x12 PUSH1 0x4 MSTORE PUSH1 0x24 PUSH1 0x0 REVERT JUMPDEST PUSH1 0x0 PUSH2 0x233F DUP3 PUSH2 0x18E5 JUMP JUMPDEST SWAP2 POP PUSH2 0x234A DUP4 PUSH2 0x18E5 JUMP JUMPDEST SWAP3 POP DUP3 PUSH2 0x235A JUMPI PUSH2 0x2359 PUSH2 0x2305 JUMP JUMPDEST JUMPDEST DUP3 DUP3 DIV SWAP1 POP SWAP3 SWAP2 POP POP JUMP JUMPDEST PUSH32 0x636F726F61000000000000000000000000000000000000000000000000000000 PUSH1 0x0 DUP3 ADD MSTORE POP JUMP JUMPDEST PUSH1 0x0 PUSH2 0x239B PUSH1 0x5 DUP4 PUSH2 0x2257 JUMP JUMPDEST SWAP2 POP PUSH2 0x23A6 DUP3 PUSH2 0x2365 JUMP JUMPDEST PUSH1 0x5 DUP3 ADD SWAP1 POP SWAP2 SWAP1 POP JUMP JUMPDEST PUSH1 0x0 PUSH2 0x23BC DUP3 PUSH2 0x238E JUMP JUMPDEST SWAP2 POP DUP2 SWAP1 POP SWAP2 SWAP1 POP JUMP JUMPDEST PUSH32 0x4E487B7100000000000000000000000000000000000000000000000000000000 PUSH1 0x0 MSTORE PUSH1 0x22 PUSH1 0x4 MSTORE PUSH1 0x24 PUSH1 0x0 REVERT JUMPDEST PUSH1 0x0 PUSH1 0x2 DUP3 DIV SWAP1 POP PUSH1 0x1 DUP3 AND DUP1 PUSH2 0x240D JUMPI PUSH1 0x7F DUP3 AND SWAP2 POP JUMPDEST PUSH1 0x20 DUP3 LT DUP2 SUB PUSH2 0x2420 JUMPI PUSH2 0x241F PUSH2 0x23C6 JUMP JUMPDEST JUMPDEST POP SWAP2 SWAP1 POP JUMP JUMPDEST PUSH1 0x0 DUP2 SWAP1 POP DUP2 PUSH1 0x0 MSTORE PUSH1 0x20 PUSH1 0x0 KECCAK256 SWAP1 POP SWAP2 SWAP1 POP JUMP JUMPDEST PUSH1 0x0 PUSH1 0x20 PUSH1 0x1F DUP4 ADD DIV SWAP1 POP SWAP2 SWAP1 POP JUMP JUMPDEST PUSH1 0x0 DUP3 DUP3 SHL SWAP1 POP SWAP3 SWAP2 POP POP JUMP JUMPDEST PUSH1 0x0 PUSH1 0x8 DUP4 MUL PUSH2 0x2488 PUSH32 0xFFFFFFFFFFFFFFFFFFFFFFFFFFFFFFFFFFFFFFFFFFFFFFFFFFFFFFFFFFFFFFFF DUP3 PUSH2 0x244B JUMP JUMPDEST PUSH2 0x2492 DUP7 DUP4 PUSH2 0x244B JUMP JUMPDEST SWAP6 POP DUP1 NOT DUP5 AND SWAP4 POP DUP1 DUP7 AND DUP5 OR SWAP3 POP POP POP SWAP4 SWAP3 POP POP POP JUMP JUMPDEST PUSH1 0x0 DUP2 SWAP1 POP SWAP2 SWAP1 POP JUMP JUMPDEST PUSH1 0x0 PUSH2 0x24CF PUSH2 0x24CA PUSH2 0x24C5 DUP5 PUSH2 0x18E5 JUMP JUMPDEST PUSH2 0x24AA JUMP JUMPDEST PUSH2 0x18E5 JUMP JUMPDEST SWAP1 POP SWAP2 SWAP1 POP JUMP JUMPDEST PUSH1 0x0 DUP2 SWAP1 POP SWAP2 SWAP1 POP JUMP JUMPDEST PUSH2 0x24E9 DUP4 PUSH2 0x24B4 JUMP JUMPDEST PUSH2 0x24FD PUSH2 0x24F5 DUP3 PUSH2 0x24D6 JUMP JUMPDEST DUP5 DUP5 SLOAD PUSH2 0x2458 JUMP JUMPDEST DUP3 SSTORE POP POP POP POP JUMP JUMPDEST PUSH1 0x0 SWAP1 JUMP JUMPDEST PUSH2 0x2512 PUSH2 0x2505 JUMP JUMPDEST PUSH2 0x251D DUP2 DUP5 DUP5 PUSH2 0x24E0 JUMP JUMPDEST POP POP POP JUMP JUMPDEST JUMPDEST DUP2 DUP2 LT ISZERO PUSH2 0x2541 JUMPI PUSH2 0x2536 PUSH1 0x0 DUP3 PUSH2 0x250A JUMP JUMPDEST PUSH1 0x1 DUP2 ADD SWAP1 POP PUSH2 0x2523 JUMP JUMPDEST POP POP JUMP JUMPDEST PUSH1 0x1F DUP3 GT ISZERO PUSH2 0x2586 JUMPI PUSH2 0x2557 DUP2 PUSH2 0x2426 JUMP JUMPDEST PUSH2 0x2560 DUP5 PUSH2 0x243B JUMP JUMPDEST DUP2 ADD PUSH1 0x20 DUP6 LT ISZERO PUSH2 0x256F JUMPI DUP2 SWAP1 POP JUMPDEST PUSH2 0x2583 PUSH2 0x257B DUP6 PUSH2 0x243B JUMP JUMPDEST DUP4 ADD DUP3 PUSH2 0x2522 JUMP JUMPDEST POP POP JUMPDEST POP POP POP JUMP JUMPDEST PUSH1 0x0 DUP3 DUP3 SHR SWAP1 POP SWAP3 SWAP2 POP POP JUMP JUMPDEST PUSH1 0x0 PUSH2 0x25A9 PUSH1 0x0 NOT DUP5 PUSH1 0x8 MUL PUSH2 0x258B JUMP JUMPDEST NOT DUP1 DUP4 AND SWAP2 POP POP SWAP3 SWAP2 POP POP JUMP JUMPDEST PUSH1 0x0 PUSH2 0x25C2 DUP4 DUP4 PUSH2 0x2598 JUMP JUMPDEST SWAP2 POP DUP3 PUSH1 0x2 MUL DUP3 OR SWAP1 POP SWAP3 SWAP2 POP POP JUMP JUMPDEST PUSH2 0x25DB DUP3 PUSH2 0x1A2D JUMP JUMPDEST PUSH8 0xFFFFFFFFFFFFFFFF DUP2 GT ISZERO PUSH2 0x25F4 JUMPI PUSH2 0x25F3 PUSH2 0x1C57 JUMP JUMPDEST JUMPDEST PUSH2 0x25FE DUP3 SLOAD PUSH2 0x23F5 JUMP JUMPDEST PUSH2 0x2609 DUP3 DUP3 DUP6 PUSH2 0x2545 JUMP JUMPDEST PUSH1 0x0 PUSH1 0x20 SWAP1 POP PUSH1 0x1F DUP4 GT PUSH1 0x1 DUP2 EQ PUSH2 0x263C JUMPI PUSH1 0x0 DUP5 ISZERO PUSH2 0x262A JUMPI DUP3 DUP8 ADD MLOAD SWAP1 POP JUMPDEST PUSH2 0x2634 DUP6 DUP3 PUSH2 0x25B6 JUMP JUMPDEST DUP7 SSTORE POP PUSH2 0x269C JUMP JUMPDEST PUSH1 0x1F NOT DUP5 AND PUSH2 0x264A DUP7 PUSH2 0x2426 JUMP JUMPDEST PUSH1 0x0 JUMPDEST DUP3 DUP2 LT ISZERO PUSH2 0x2672 JUMPI DUP5 DUP10 ADD MLOAD DUP3 SSTORE PUSH1 0x1 DUP3 ADD SWAP2 POP PUSH1 0x20 DUP6 ADD SWAP5 POP PUSH1 0x20 DUP2 ADD SWAP1 POP PUSH2 0x264D JUMP JUMPDEST DUP7 DUP4 LT ISZERO PUSH2 0x268F JUMPI DUP5 DUP10 ADD MLOAD PUSH2 0x268B PUSH1 0x1F DUP10 AND DUP3 PUSH2 0x2598 JUMP JUMPDEST DUP4 SSTORE POP JUMPDEST PUSH1 0x1 PUSH1 0x2 DUP9 MUL ADD DUP9 SSTORE POP POP POP JUMPDEST POP POP POP POP POP POP JUMP JUMPDEST PUSH1 0x0 PUSH1 0x60 DUP3 ADD SWAP1 POP PUSH2 0x26B9 PUSH1 0x0 DUP4 ADD DUP7 PUSH2 0x1E97 JUMP JUMPDEST PUSH2 0x26C6 PUSH1 0x20 DUP4 ADD DUP6 PUSH2 0x195B JUMP JUMPDEST DUP2 DUP2 SUB PUSH1 0x40 DUP4 ADD MSTORE PUSH2 0x26D8 DUP2 DUP5 PUSH2 0x1E5E JUMP JUMPDEST SWAP1 POP SWAP5 SWAP4 POP POP POP POP JUMP JUMPDEST PUSH32 0x5265656E7472616E637920646574656374656420666F72207468697320657665 PUSH1 0x0 DUP3 ADD MSTORE PUSH32 0x6E74000000000000000000000000000000000000000000000000000000000000 PUSH1 0x20 DUP3 ADD MSTORE POP JUMP JUMPDEST PUSH1 0x0 PUSH2 0x273E PUSH1 0x22 DUP4 PUSH2 0x1E4D JUMP JUMPDEST SWAP2 POP PUSH2 0x2749 DUP3 PUSH2 0x26E2 JUMP JUMPDEST PUSH1 0x40 DUP3 ADD SWAP1 POP SWAP2 SWAP1 POP JUMP JUMPDEST PUSH1 0x0 PUSH1 0x20 DUP3 ADD SWAP1 POP DUP2 DUP2 SUB PUSH1 0x0 DUP4 ADD MSTORE PUSH2 0x276D DUP2 PUSH2 0x2731 JUMP JUMPDEST SWAP1 POP SWAP2 SWAP1 POP JUMP JUMPDEST PUSH32 0x56616C6F722064612061706F737461206465766520736572206D61696F722071 PUSH1 0x0 DUP3 ADD MSTORE PUSH32 0x7565207A65726F00000000000000000000000000000000000000000000000000 PUSH1 0x20 DUP3 ADD MSTORE POP JUMP JUMPDEST PUSH1 0x0 PUSH2 0x27D0 PUSH1 0x27 DUP4 PUSH2 0x1E4D JUMP JUMPDEST SWAP2 POP PUSH2 0x27DB DUP3 PUSH2 0x2774 JUMP JUMPDEST PUSH1 0x40 DUP3 ADD SWAP1 POP SWAP2 SWAP1 POP JUMP JUMPDEST PUSH1 0x0 PUSH1 0x20 DUP3 ADD SWAP1 POP DUP2 DUP2 SUB PUSH1 0x0 DUP4 ADD MSTORE PUSH2 0x27FF DUP2 PUSH2 0x27C3 JUMP JUMPDEST SWAP1 POP SWAP2 SWAP1 POP JUMP JUMPDEST PUSH32 0x4A61207265616C697A6F7520756D612061706F73746100000000000000000000 PUSH1 0x0 DUP3 ADD MSTORE POP JUMP JUMPDEST PUSH1 0x0 PUSH2 0x283C PUSH1 0x16 DUP4 PUSH2 0x1E4D JUMP JUMPDEST SWAP2 POP PUSH2 0x2847 DUP3 PUSH2 0x2806 JUMP JUMPDEST PUSH1 0x20 DUP3 ADD SWAP1 POP SWAP2 SWAP1 POP JUMP JUMPDEST PUSH1 0x0 PUSH1 0x20 DUP3 ADD SWAP1 POP DUP2 DUP2 SUB PUSH1 0x0 DUP4 ADD MSTORE PUSH2 0x286B DUP2 PUSH2 0x282F JUMP JUMPDEST SWAP1 POP SWAP2 SWAP1 POP JUMP JUMPDEST PUSH32 0x53616C646F20696E737566696369656E7465206E612063617274656972610000 PUSH1 0x0 DUP3 ADD MSTORE POP JUMP JUMPDEST PUSH1 0x0 PUSH2 0x28A8 PUSH1 0x1E DUP4 PUSH2 0x1E4D JUMP JUMPDEST SWAP2 POP PUSH2 0x28B3 DUP3 PUSH2 0x2872 JUMP JUMPDEST PUSH1 0x20 DUP3 ADD SWAP1 POP SWAP2 SWAP1 POP JUMP JUMPDEST PUSH1 0x0 PUSH1 0x20 DUP3 ADD SWAP1 POP DUP2 DUP2 SUB PUSH1 0x0 DUP4 ADD MSTORE PUSH2 0x28D7 DUP2 PUSH2 0x289B JUMP JUMPDEST SWAP1 POP SWAP2 SWAP1 POP JUMP JUMPDEST PUSH1 0x0 PUSH2 0x28E9 DUP3 PUSH2 0x1A2D JUMP JUMPDEST PUSH2 0x28F3 DUP2 DUP6 PUSH2 0x2257 JUMP JUMPDEST SWAP4 POP PUSH2 0x2903 DUP2 DUP6 PUSH1 0x20 DUP7 ADD PUSH2 0x1A49 JUMP JUMPDEST DUP1 DUP5 ADD SWAP2 POP POP SWAP3 SWAP2 POP POP JUMP JUMPDEST PUSH1 0x0 PUSH2 0x291B DUP3 DUP5 PUSH2 0x28DE JUMP JUMPDEST SWAP2 POP DUP2 SWAP1 POP SWAP3 SWAP2 POP POP JUMP JUMPDEST PUSH1 0x0 PUSH1 0x80 DUP3 ADD SWAP1 POP PUSH2 0x293B PUSH1 0x0 DUP4 ADD DUP8 PUSH2 0x1E97 JUMP JUMPDEST PUSH2 0x2948 PUSH1 0x20 DUP4 ADD DUP7 PUSH2 0x195B JUMP JUMPDEST DUP2 DUP2 SUB PUSH1 0x40 DUP4 ADD MSTORE PUSH2 0x295A DUP2 DUP6 PUSH2 0x1E5E JUMP JUMPDEST SWAP1 POP PUSH2 0x2969 PUSH1 0x60 DUP4 ADD DUP5 PUSH2 0x195B JUMP JUMPDEST SWAP6 SWAP5 POP POP POP POP POP JUMP JUMPDEST PUSH1 0x0 PUSH2 0x297D DUP3 PUSH2 0x18E5 JUMP JUMPDEST SWAP2 POP PUSH32 0xFFFFFFFFFFFFFFFFFFFFFFFFFFFFFFFFFFFFFFFFFFFFFFFFFFFFFFFFFFFFFFFF DUP3 SUB PUSH2 0x29AF JUMPI PUSH2 0x29AE PUSH2 0x1FBB JUMP JUMPDEST JUMPDEST PUSH1 0x1 DUP3 ADD SWAP1 POP SWAP2 SWAP1 POP JUMP JUMPDEST PUSH32 0x526573756C7461646F206A61207075626C696361646F00000000000000000000 PUSH1 0x0 DUP3 ADD MSTORE POP JUMP JUMPDEST PUSH1 0x0 PUSH2 0x29F0 PUSH1 0x16 DUP4 PUSH2 0x1E4D JUMP JUMPDEST SWAP2 POP PUSH2 0x29FB DUP3 PUSH2 0x29BA JUMP JUMPDEST PUSH1 0x20 DUP3 ADD SWAP1 POP SWAP2 SWAP1 POP JUMP JUMPDEST PUSH1 0x0 PUSH1 0x20 DUP3 ADD SWAP1 POP DUP2 DUP2 SUB PUSH1 0x0 DUP4 ADD MSTORE PUSH2 0x2A1F DUP2 PUSH2 0x29E3 JUMP JUMPDEST SWAP1 POP SWAP2 SWAP1 POP JUMP JUMPDEST PUSH1 0x0 DUP2 SWAP1 POP SWAP2 SWAP1 POP JUMP JUMPDEST PUSH2 0x2A41 PUSH2 0x2A3C DUP3 PUSH2 0x18E5 JUMP JUMPDEST PUSH2 0x2A26 JUMP JUMPDEST DUP3 MSTORE POP POP JUMP JUMPDEST PUSH1 0x0 PUSH2 0x2A53 DUP3 DUP7 PUSH2 0x2A30 JUMP JUMPDEST PUSH1 0x20 DUP3 ADD SWAP2 POP PUSH2 0x2A63 DUP3 DUP6 PUSH2 0x2A30 JUMP JUMPDEST PUSH1 0x20 DUP3 ADD SWAP2 POP PUSH2 0x2A73 DUP3 DUP5 PUSH2 0x2A30 JUMP JUMPDEST PUSH1 0x20 DUP3 ADD SWAP2 POP DUP2 SWAP1 POP SWAP5 SWAP4 POP POP POP POP JUMP JUMPDEST PUSH1 0x0 PUSH2 0x2A8F DUP3 PUSH2 0x18E5 JUMP JUMPDEST SWAP2 POP PUSH2 0x2A9A DUP4 PUSH2 0x18E5 JUMP JUMPDEST SWAP3 POP DUP3 PUSH2 0x2AAA JUMPI PUSH2 0x2AA9 PUSH2 0x2305 JUMP JUMPDEST JUMPDEST DUP3 DUP3 MOD SWAP1 POP SWAP3 SWAP2 POP POP JUMP JUMPDEST PUSH32 0x4E616F2068612076656E6365646F72657320636F6D2061706F73746173000000 PUSH1 0x0 DUP3 ADD MSTORE POP JUMP JUMPDEST PUSH1 0x0 PUSH2 0x2AEB PUSH1 0x1D DUP4 PUSH2 0x1E4D JUMP JUMPDEST SWAP2 POP PUSH2 0x2AF6 DUP3 PUSH2 0x2AB5 JUMP JUMPDEST PUSH1 0x20 DUP3 ADD SWAP1 POP SWAP2 SWAP1 POP JUMP JUMPDEST PUSH1 0x0 PUSH1 0x20 DUP3 ADD SWAP1 POP DUP2 DUP2 SUB PUSH1 0x0 DUP4 ADD MSTORE PUSH2 0x2B1A DUP2 PUSH2 0x2ADE JUMP JUMPDEST SWAP1 POP SWAP2 SWAP1 POP JUMP JUMPDEST PUSH1 0x0 DUP2 MLOAD SWAP1 POP SWAP2 SWAP1 POP JUMP JUMPDEST PUSH1 0x0 DUP3 DUP3 MSTORE PUSH1 0x20 DUP3 ADD SWAP1 POP SWAP3 SWAP2 POP POP JUMP JUMPDEST PUSH1 0x0 DUP2 SWAP1 POP PUSH1 0x20 DUP3 ADD SWAP1 POP SWAP2 SWAP1 POP JUMP JUMPDEST PUSH1 0x0 PUSH2 0x2B59 DUP4 DUP4 PUSH2 0x1ABD JUMP JUMPDEST PUSH1 0x20 DUP4 ADD SWAP1 POP SWAP3 SWAP2 POP POP JUMP JUMPDEST PUSH1 0x0 PUSH1 0x20 DUP3 ADD SWAP1 POP SWAP2 SWAP1 POP JUMP JUMPDEST PUSH1 0x0 PUSH2 0x2B7D DUP3 PUSH2 0x2B21 JUMP JUMPDEST PUSH2 0x2B87 DUP2 DUP6 PUSH2 0x2B2C JUMP JUMPDEST SWAP4 POP PUSH2 0x2B92 DUP4 PUSH2 0x2B3D JUMP JUMPDEST DUP1 PUSH1 0x0 JUMPDEST DUP4 DUP2 LT ISZERO PUSH2 0x2BC3 JUMPI DUP2 MLOAD PUSH2 0x2BAA DUP9 DUP3 PUSH2 0x2B4D JUMP JUMPDEST SWAP8 POP PUSH2 0x2BB5 DUP4 PUSH2 0x2B65 JUMP JUMPDEST SWAP3 POP POP PUSH1 0x1 DUP2 ADD SWAP1 POP PUSH2 0x2B96 JUMP JUMPDEST POP DUP6 SWAP4 POP POP POP POP SWAP3 SWAP2 POP POP JUMP JUMPDEST PUSH1 0x0 DUP2 SLOAD PUSH2 0x2BDD DUP2 PUSH2 0x23F5 JUMP JUMPDEST PUSH2 0x2BE7 DUP2 DUP7 PUSH2 0x1E4D JUMP JUMPDEST SWAP5 POP PUSH1 0x1 DUP3 AND PUSH1 0x0 DUP2 EQ PUSH2 0x2C02 JUMPI PUSH1 0x1 DUP2 EQ PUSH2 0x2C18 JUMPI PUSH2 0x2C4B JUMP JUMPDEST PUSH1 0xFF NOT DUP4 AND DUP7 MSTORE DUP2 ISZERO ISZERO PUSH1 0x20 MUL DUP7 ADD SWAP4 POP PUSH2 0x2C4B JUMP JUMPDEST PUSH2 0x2C21 DUP6 PUSH2 0x2426 JUMP JUMPDEST PUSH1 0x0 JUMPDEST DUP4 DUP2 LT ISZERO PUSH2 0x2C43 JUMPI DUP2 SLOAD DUP2 DUP10 ADD MSTORE PUSH1 0x1 DUP3 ADD SWAP2 POP PUSH1 0x20 DUP2 ADD SWAP1 POP PUSH2 0x2C24 JUMP JUMPDEST DUP1 DUP9 ADD SWAP6 POP POP POP JUMPDEST POP POP POP SWAP3 SWAP2 POP POP JUMP JUMPDEST PUSH1 0x0 PUSH1 0x80 DUP3 ADD SWAP1 POP PUSH2 0x2C69 PUSH1 0x0 DUP4 ADD DUP8 PUSH2 0x195B JUMP JUMPDEST DUP2 DUP2 SUB PUSH1 0x20 DUP4 ADD MSTORE PUSH2 0x2C7B DUP2 DUP7 PUSH2 0x1E5E JUMP JUMPDEST SWAP1 POP DUP2 DUP2 SUB PUSH1 0x40 DUP4 ADD MSTORE PUSH2 0x2C8F DUP2 DUP6 PUSH2 0x2B72 JUMP JUMPDEST SWAP1 POP DUP2 DUP2 SUB PUSH1 0x60 DUP4 ADD MSTORE PUSH2 0x2CA3 DUP2 DUP5 PUSH2 0x2BD0 JUMP JUMPDEST SWAP1 POP SWAP6 SWAP5 POP POP POP POP POP JUMP INVALID LOG2 PUSH5 0x6970667358 0x22 SLT KECCAK256 0x23 0x24 GASLIMIT TIMESTAMP DUP11 SWAP7 0xD7 MSTORE 0xEE PC SWAP14 0xE3 AND SWAP5 RETURNDATASIZE KECCAK256 PUSH0 0xD7 DUP12 LOG0 RETURNDATACOPY SDIV CALLDATASIZE PUSH25 0x27A8E279F0886C9B64736F6C634300081B0033000000000000 "
        },
        "methodIdentifiers": {
          "apostar(uint256,string,uint256)": "e48d6cb7",
          "bets(address,uint256)": "4a39ec90",
          "carteiras(address)": "c98c92c8",
          "criarNovaAposta(string,uint256)": "ce811031",
          "depositar()": "3d922f90",
          "getApostasAbertas()": "ec28f08e",
          "getMinhasApostas()": "a9889855",
          "listaDeApostas(uint256)": "fd05dcab",
          "resultado(uint256,uint256)": "86dbe601",
          "sacar(uint256)": "7371b0d6"
        }
      }
    }
  }
}