{
  "contracts/evento.sol": {
    "evento": {
      "abi": [
        {
          "inputs": [],
          "stateMutability": "nonpayable",
          "type": "constructor"
        },
        {
          "inputs": [],
          "name": "ReentrancyGuardReentrantCall",
          "type": "error"
        },
        {
          "anonymous": false,
          "inputs": [
            {
              "indexed": false,
              "internalType": "address",
              "name": "apostador",
              "type": "address"
            },
            {
              "indexed": false,
              "internalType": "uint256",
              "name": "apostaIndex",
              "type": "uint256"
            },
            {
              "indexed": false,
              "internalType": "string",
              "name": "tipoResultado",
              "type": "string"
            },
            {
              "indexed": false,
              "internalType": "uint256",
              "name": "valorAposta",
              "type": "uint256"
            }
          ],
          "name": "ApostaRealizada",
          "type": "event"
        },
        {
          "anonymous": false,
          "inputs": [
            {
              "indexed": false,
              "internalType": "address",
              "name": "criador",
              "type": "address"
            },
            {
              "indexed": false,
              "internalType": "uint256",
              "name": "apostaIndex",
              "type": "uint256"
            },
            {
              "indexed": false,
              "internalType": "string",
              "name": "descricao",
              "type": "string"
            }
          ],
          "name": "NovaApostaCriada",
          "type": "event"
        },
        {
          "anonymous": false,
          "inputs": [
            {
              "indexed": false,
              "internalType": "uint256",
              "name": "apostaIndex",
              "type": "uint256"
            },
            {
              "indexed": false,
              "internalType": "string",
              "name": "resultado",
              "type": "string"
            },
            {
              "indexed": false,
              "internalType": "address[]",
              "name": "vencedores",
              "type": "address[]"
            },
            {
              "indexed": false,
              "internalType": "string",
              "name": "descricao",
              "type": "string"
            }
          ],
          "name": "Resultado",
          "type": "event"
        },
        {
          "inputs": [
            {
              "internalType": "uint256",
              "name": "apostaIndex",
              "type": "uint256"
            },
            {
              "internalType": "string",
              "name": "tipoResultado",
              "type": "string"
            },
            {
              "internalType": "uint256",
              "name": "valorAposta",
              "type": "uint256"
            }
          ],
          "name": "apostar",
          "outputs": [],
          "stateMutability": "nonpayable",
          "type": "function"
        },
        {
          "inputs": [
            {
              "internalType": "address",
              "name": "",
              "type": "address"
            },
            {
              "internalType": "uint256",
              "name": "",
              "type": "uint256"
            }
          ],
          "name": "bets",
          "outputs": [
            {
              "internalType": "uint256",
              "name": "",
              "type": "uint256"
            }
          ],
          "stateMutability": "view",
          "type": "function"
        },
        {
          "inputs": [
            {
              "internalType": "address",
              "name": "",
              "type": "address"
            }
          ],
          "name": "carteiras",
          "outputs": [
            {
              "internalType": "uint256",
              "name": "",
              "type": "uint256"
            }
          ],
          "stateMutability": "view",
          "type": "function"
        },
        {
          "inputs": [
            {
              "internalType": "string",
              "name": "descricao",
              "type": "string"
            },
            {
              "internalType": "uint256",
              "name": "unlockTime",
              "type": "uint256"
            }
          ],
          "name": "criarNovaAposta",
          "outputs": [],
          "stateMutability": "nonpayable",
          "type": "function"
        },
        {
          "inputs": [],
          "name": "depositar",
          "outputs": [],
          "stateMutability": "payable",
          "type": "function"
        },
        {
          "inputs": [],
          "name": "dono_contrato",
          "outputs": [
            {
              "internalType": "address",
              "name": "",
              "type": "address"
            }
          ],
          "stateMutability": "view",
          "type": "function"
        },
        {
          "inputs": [],
          "name": "getApostasAbertas",
          "outputs": [
            {
              "components": [
                {
                  "internalType": "uint256",
                  "name": "id",
                  "type": "uint256"
                },
                {
                  "internalType": "string",
                  "name": "descricao",
                  "type": "string"
                },
                {
                  "internalType": "address",
                  "name": "dono",
                  "type": "address"
                },
                {
                  "internalType": "uint256",
                  "name": "unlockTime",
                  "type": "uint256"
                },
                {
                  "internalType": "uint256",
                  "name": "totalApostadoGeral",
                  "type": "uint256"
                },
                {
                  "internalType": "uint256",
                  "name": "oddsCara",
                  "type": "uint256"
                },
                {
                  "internalType": "uint256",
                  "name": "oddsCoroa",
                  "type": "uint256"
                }
              ],
              "internalType": "struct evento.ApostaSimplificada[]",
              "name": "",
              "type": "tuple[]"
            }
          ],
          "stateMutability": "view",
          "type": "function"
        },
        {
          "inputs": [],
          "name": "getMinhasApostas",
          "outputs": [
            {
              "components": [
                {
                  "internalType": "uint256",
                  "name": "id",
                  "type": "uint256"
                },
                {
                  "internalType": "string",
                  "name": "descricao",
                  "type": "string"
                },
                {
                  "internalType": "address",
                  "name": "dono",
                  "type": "address"
                },
                {
                  "internalType": "uint256",
                  "name": "unlockTime",
                  "type": "uint256"
                },
                {
                  "internalType": "uint256",
                  "name": "totalApostadoGeral",
                  "type": "uint256"
                },
                {
                  "internalType": "uint256",
                  "name": "oddsCara",
                  "type": "uint256"
                },
                {
                  "internalType": "uint256",
                  "name": "oddsCoroa",
                  "type": "uint256"
                }
              ],
              "internalType": "struct evento.ApostaSimplificada[]",
              "name": "",
              "type": "tuple[]"
            }
          ],
          "stateMutability": "view",
          "type": "function"
        },
        {
          "inputs": [
            {
              "internalType": "uint256",
              "name": "",
              "type": "uint256"
            }
          ],
          "name": "listaDeApostas",
          "outputs": [
            {
              "internalType": "string",
              "name": "descricao",
              "type": "string"
            },
            {
              "internalType": "address",
              "name": "dono",
              "type": "address"
            },
            {
              "internalType": "uint256",
              "name": "unlockTime",
              "type": "uint256"
            },
            {
              "internalType": "uint256",
              "name": "totalApostadoGeral",
              "type": "uint256"
            },
            {
              "internalType": "bool",
              "name": "apostaFechada",
              "type": "bool"
            },
            {
              "internalType": "uint256",
              "name": "id",
              "type": "uint256"
            },
            {
              "internalType": "uint256",
              "name": "qntd_apostadores",
              "type": "uint256"
            }
          ],
          "stateMutability": "view",
          "type": "function"
        },
        {
          "inputs": [
            {
              "internalType": "uint256",
              "name": "apostaIndex",
              "type": "uint256"
            }
          ],
          "name": "resultado",
          "outputs": [],
          "stateMutability": "nonpayable",
          "type": "function"
        },
        {
          "inputs": [
            {
              "internalType": "uint256",
              "name": "valor",
              "type": "uint256"
            }
          ],
          "name": "sacar",
          "outputs": [],
          "stateMutability": "nonpayable",
          "type": "function"
        }
      ],
      "evm": {
        "bytecode": {
          "linkReferences": {},
          "object": "6080604052348015600f57600080fd5b50600160008190555033600460006101000a81548173ffffffffffffffffffffffffffffffffffffffff021916908373ffffffffffffffffffffffffffffffffffffffff160217905550613574806100686000396000f3fe60806040526004361061009c5760003560e01c8063c98c92c811610064578063c98c92c814610165578063ce811031146101a2578063e48d6cb7146101cb578063ec28f08e146101f4578063f60dac9c1461021f578063fd05dcab1461024a5761009c565b80633d922f90146100a15780634a39ec90146100ab5780637371b0d6146100e85780637f4c401914610111578063a98898551461013a575b600080fd5b6100a961028d565b005b3480156100b757600080fd5b506100d260048036038101906100cd91906120d2565b610328565b6040516100df9190612121565b60405180910390f35b3480156100f457600080fd5b5061010f600480360381019061010a919061213c565b610359565b005b34801561011d57600080fd5b506101386004803603810190610133919061213c565b61048b565b005b34801561014657600080fd5b5061014f610686565b60405161015c9190612375565b60405180910390f35b34801561017157600080fd5b5061018c60048036038101906101879190612397565b6109dc565b6040516101999190612121565b60405180910390f35b3480156101ae57600080fd5b506101c960048036038101906101c491906124f9565b6109f4565b005b3480156101d757600080fd5b506101f260048036038101906101ed9190612555565b610af3565b005b34801561020057600080fd5b50610209610fe8565b6040516102169190612375565b60405180910390f35b34801561022b57600080fd5b50610234611381565b60405161024191906125d3565b60405180910390f35b34801561025657600080fd5b50610271600480360381019061026c919061213c565b6113a7565b6040516102849796959493929190612653565b60405180910390f35b600034116102d0576040517f08c379a00000000000000000000000000000000000000000000000000000000081526004016102c79061273b565b60405180910390fd5b34600260003373ffffffffffffffffffffffffffffffffffffffff1673ffffffffffffffffffffffffffffffffffffffff168152602001908152602001600020600082825461031f919061278a565b92505081905550565b6005602052816000526040600020818154811061034457600080fd5b90600052602060002001600091509150505481565b6103616114ae565b80600260003373ffffffffffffffffffffffffffffffffffffffff1673ffffffffffffffffffffffffffffffffffffffff1681526020019081526020016000205410156103e3576040517f08c379a00000000000000000000000000000000000000000000000000000000081526004016103da9061280a565b60405180910390fd5b80600260003373ffffffffffffffffffffffffffffffffffffffff1673ffffffffffffffffffffffffffffffffffffffff1681526020019081526020016000206000828254610432919061282a565b925050819055503373ffffffffffffffffffffffffffffffffffffffff166108fc829081150290604051600060405180830381858888f1935050505015801561047f573d6000803e3d6000fd5b506104886114f4565b50565b60038054905081106104d2576040517f08c379a00000000000000000000000000000000000000000000000000000000081526004016104c9906128aa565b60405180910390fd5b6000600382815481106104e8576104e76128ca565b5b90600052602060002090600a020190508060070160009054906101000a900460ff161561054a576040517f08c379a000000000000000000000000000000000000000000000000000000000815260040161054190612945565b60405180910390fd5b600062015180826002015461055f919061278a565b9050600081421015806105c157508260010160009054906101000a900473ffffffffffffffffffffffffffffffffffffffff1673ffffffffffffffffffffffffffffffffffffffff163373ffffffffffffffffffffffffffffffffffffffff16145b905080610603576040517f08c379a00000000000000000000000000000000000000000000000000000000081526004016105fa906129d7565b60405180910390fd5b826002015442101561064a576040517f08c379a000000000000000000000000000000000000000000000000000000000815260040161064190612a69565b60405180910390fd5b6000610655856114fe565b905061066285858361163e565b60018460070160006101000a81548160ff0219169083151502179055505050505050565b60606000600560003373ffffffffffffffffffffffffffffffffffffffff1673ffffffffffffffffffffffffffffffffffffffff16815260200190815260200160002080548060200260200160405190810160405280929190818152602001828054801561071357602002820191906000526020600020905b8154815260200190600101908083116106ff575b5050505050905060008151905060008167ffffffffffffffff81111561073c5761073b6123ce565b5b60405190808252806020026020018201604052801561077557816020015b610762611fd7565b81526020019060019003908161075a5790505b50905060005b828110156109d2576000848281518110610798576107976128ca565b5b602002602001015190506000600382815481106107b8576107b76128ca565b5b90600052602060002090600a02019050600080826004016040516107db90612ae0565b908152602001604051809103902054116107f6576000610831565b8160040160405161080690612ae0565b908152602001604051809103902054606483600601546108269190612af5565b6108309190612b66565b5b90506000808360040160405161084690612be3565b9081526020016040518091039020541161086157600061089c565b8260040160405161087190612be3565b908152602001604051809103902054606484600601546108919190612af5565b61089b9190612b66565b5b90506040518060e00160405280846008015481526020018460000180546108c290612c27565b80601f01602080910402602001604051908101604052809291908181526020018280546108ee90612c27565b801561093b5780601f106109105761010080835404028352916020019161093b565b820191906000526020600020905b81548152906001019060200180831161091e57829003601f168201915b505050505081526020018460010160009054906101000a900473ffffffffffffffffffffffffffffffffffffffff1673ffffffffffffffffffffffffffffffffffffffff1681526020018460020154815260200184600601548152602001838152602001828152508686815181106109b6576109b56128ca565b5b602002602001018190525050505050808060010191505061077b565b5080935050505090565b60026020528060005260406000206000915090505481565b600060036001816001815401808255809150500390600052602060002090600a0201905082816000019081610a299190612e04565b50338160010160006101000a81548173ffffffffffffffffffffffffffffffffffffffff021916908373ffffffffffffffffffffffffffffffffffffffff16021790555081816002018190555060008160070160006101000a81548160ff02191690831515021790555060006001600380549050610aa7919061282a565b90508082600801819055507f721558d898b4db81678d021fc33e971d00c4cbcf012d91dd9c82706a7863774c338286604051610ae593929190612ed6565b60405180910390a150505050565b826001600082815260200190815260200160002060009054906101000a900460ff1615610b55576040517f08c379a0000000000000000000000000000000000000000000000000000000008152600401610b4c90612f86565b60405180910390fd5b600180600083815260200190815260200160002060006101000a81548160ff0219169083151502179055506003805490508410610bc7576040517f08c379a0000000000000000000000000000000000000000000000000000000008152600401610bbe906128aa565b60405180910390fd5b600060038581548110610bdd57610bdc6128ca565b5b90600052602060002090600a020190508060070160009054906101000a900460ff1615610c3f576040517f08c379a0000000000000000000000000000000000000000000000000000000008152600401610c3690612945565b60405180910390fd5b60008311610c82576040517f08c379a0000000000000000000000000000000000000000000000000000000008152600401610c7990613018565b60405180910390fd5b60008160030160003373ffffffffffffffffffffffffffffffffffffffff1673ffffffffffffffffffffffffffffffffffffffff1681526020019081526020016000206000018054610cd390612c27565b905014610d15576040517f08c379a0000000000000000000000000000000000000000000000000000000008152600401610d0c90613084565b60405180910390fd5b82600260003373ffffffffffffffffffffffffffffffffffffffff1673ffffffffffffffffffffffffffffffffffffffff168152602001908152602001600020541015610d97576040517f08c379a0000000000000000000000000000000000000000000000000000000008152600401610d8e906130f0565b60405180910390fd5b82600260003373ffffffffffffffffffffffffffffffffffffffff1673ffffffffffffffffffffffffffffffffffffffff1681526020019081526020016000206000828254610de6919061282a565b92505081905550600560003373ffffffffffffffffffffffffffffffffffffffff1673ffffffffffffffffffffffffffffffffffffffff16815260200190815260200160002085908060018154018082558091505060019003906000526020600020016000909190919091505560006040518060400160405280868152602001858152509050808260030160003373ffffffffffffffffffffffffffffffffffffffff1673ffffffffffffffffffffffffffffffffffffffff1681526020019081526020016000206000820151816000019081610ec39190612e04565b50602082015181600101559050508160050185604051610ee39190613141565b9081526020016040518091039020339080600181540180825580915050600190039060005260206000200160009091909190916101000a81548173ffffffffffffffffffffffffffffffffffffffff021916908373ffffffffffffffffffffffffffffffffffffffff160217905550816009016000815480929190610f6790613158565b9190505550610f77828686611f80565b7f951072d4e7517022566506a84e0a5231f06e86a099c6510ee1a1d5d34e71c46033878787604051610fac94939291906131a0565b60405180910390a1505060006001600083815260200190815260200160002060006101000a81548160ff02191690831515021790555050505050565b6060600060038054905067ffffffffffffffff81111561100b5761100a6123ce565b5b60405190808252806020026020018201604052801561104457816020015b611031611fd7565b8152602001906001900390816110295790505b5090506000805b6003805490508110156112cd576003818154811061106c5761106b6128ca565b5b90600052602060002090600a020160070160009054906101000a900460ff166112c0576000600382815481106110a5576110a46128ca565b5b90600052602060002090600a02019050600080826004016040516110c890612ae0565b908152602001604051809103902054116110e357600061111e565b816004016040516110f390612ae0565b908152602001604051809103902054606483600601546111139190612af5565b61111d9190612b66565b5b90506000808360040160405161113390612be3565b9081526020016040518091039020541161114e576000611189565b8260040160405161115e90612be3565b9081526020016040518091039020546064846006015461117e9190612af5565b6111889190612b66565b5b90506040518060e00160405280846008015481526020018460000180546111af90612c27565b80601f01602080910402602001604051908101604052809291908181526020018280546111db90612c27565b80156112285780601f106111fd57610100808354040283529160200191611228565b820191906000526020600020905b81548152906001019060200180831161120b57829003601f168201915b505050505081526020018460010160009054906101000a900473ffffffffffffffffffffffffffffffffffffffff1673ffffffffffffffffffffffffffffffffffffffff1681526020018460020154815260200184600601548152602001838152602001828152508686815181106112a3576112a26128ca565b5b602002602001018190525084806112b990613158565b9550505050505b808060010191505061104b565b5060008167ffffffffffffffff8111156112ea576112e96123ce565b5b60405190808252806020026020018201604052801561132357816020015b611310611fd7565b8152602001906001900390816113085790505b50905060005b8281101561137757838181518110611344576113436128ca565b5b602002602001015182828151811061135f5761135e6128ca565b5b60200260200101819052508080600101915050611329565b5080935050505090565b600460009054906101000a900473ffffffffffffffffffffffffffffffffffffffff1681565b600381815481106113b757600080fd5b90600052602060002090600a02016000915090508060000180546113da90612c27565b80601f016020809104026020016040519081016040528092919081815260200182805461140690612c27565b80156114535780601f1061142857610100808354040283529160200191611453565b820191906000526020600020905b81548152906001019060200180831161143657829003601f168201915b5050505050908060010160009054906101000a900473ffffffffffffffffffffffffffffffffffffffff16908060020154908060060154908060070160009054906101000a900460ff16908060080154908060090154905087565b6002600054036114ea576040517f3ee5aeb500000000000000000000000000000000000000000000000000000000815260040160405180910390fd5b6002600081905550565b6001600081905550565b6060600060038381548110611516576115156128ca565b5b90600052602060002090600a020190508060070160009054906101000a900460ff1615611578576040517f08c379a000000000000000000000000000000000000000000000000000000000815260040161156f90613238565b60405180910390fd5b6000600242448660405160200161159193929190613279565b6040516020818303038152906040528051906020012060001c6115b491906132b6565b905060008082146115fa576040518060400160405280600581526020017f636f726f61000000000000000000000000000000000000000000000000000000815250611631565b6040518060400160405280600481526020017f63617261000000000000000000000000000000000000000000000000000000008152505b9050809350505050919050565b600082600501826040516116529190613141565b90815260200160405180910390208054806020026020016040519081016040528092919081815260200182805480156116e057602002820191906000526020600020905b8160009054906101000a900473ffffffffffffffffffffffffffffffffffffffff1673ffffffffffffffffffffffffffffffffffffffff1681526020019060010190808311611696575b5050505050905060008084600601549050600081905060005b845181101561177b5786600301600086838151811061171b5761171a6128ca565b5b602002602001015173ffffffffffffffffffffffffffffffffffffffff1673ffffffffffffffffffffffffffffffffffffffff168152602001908152602001600020600101548461176c919061278a565b935080806001019150506116f9565b506000606460078461178d9190612af5565b6117979190612b66565b9050600460009054906101000a900473ffffffffffffffffffffffffffffffffffffffff1673ffffffffffffffffffffffffffffffffffffffff166108fc829081150290604051600060405180830381858888f19350505050158015611801573d6000803e3d6000fd5b50808361180e919061282a565b925060008411156119625760005b855181101561191c57600085858a60030160008a8681518110611842576118416128ca565b5b602002602001015173ffffffffffffffffffffffffffffffffffffffff1673ffffffffffffffffffffffffffffffffffffffff168152602001908152602001600020600101546118929190612af5565b61189c9190612b66565b905080600260008985815181106118b6576118b56128ca565b5b602002602001015173ffffffffffffffffffffffffffffffffffffffff1673ffffffffffffffffffffffffffffffffffffffff1681526020019081526020016000206000828254611907919061278a565b9250508190555050808060010191505061181c565b507fc0b7edc89a5e21c358803037a88cd4371e21b36a6d71e1712e2ebfe150caaae98887878a600001604051611955949392919061341a565b60405180910390a1611f76565b600060405160200161197390612ae0565b60405160208183030381529060405280519060200120905060008760405160200161199e9190613141565b604051602081830303815290604052805190602001209050808203611c9a576000896005016040516119cf90612be3565b9081526020016040518091039020805480602002602001604051908101604052809291908181526020018280548015611a5d57602002820191906000526020600020905b8160009054906101000a900473ffffffffffffffffffffffffffffffffffffffff1673ffffffffffffffffffffffffffffffffffffffff1681526020019060010190808311611a13575b505050505090506000806000835167ffffffffffffffff811115611a8457611a836123ce565b5b604051908082528060200260200182016040528015611ab25781602001602082028036833780820191505090505b50905060005b8451811015611b915760008e6003016000878481518110611adc57611adb6128ca565b5b602002602001015173ffffffffffffffffffffffffffffffffffffffff1673ffffffffffffffffffffffffffffffffffffffff16815260200190815260200160002060010154905089606482611b329190612af5565b611b3c9190612b66565b838381518110611b4f57611b4e6128ca565b5b602002602001018181525050828281518110611b6e57611b6d6128ca565b5b602002602001015185611b81919061278a565b9450508080600101915050611ab8565b5060005b8451811015611c525760006064838381518110611bb557611bb46128ca565b5b60200260200101518c611bc89190612af5565b611bd29190612b66565b90508060026000888581518110611bec57611beb6128ca565b5b602002602001015173ffffffffffffffffffffffffffffffffffffffff1673ffffffffffffffffffffffffffffffffffffffff1681526020019081526020016000206000828254611c3d919061278a565b92505081905550508080600101915050611b95565b507fc0b7edc89a5e21c358803037a88cd4371e21b36a6d71e1712e2ebfe150caaae98e858f600001604051611c89939291906134e6565b60405180910390a150505050611f73565b600089600501604051611cac90612ae0565b9081526020016040518091039020805480602002602001604051908101604052809291908181526020018280548015611d3a57602002820191906000526020600020905b8160009054906101000a900473ffffffffffffffffffffffffffffffffffffffff1673ffffffffffffffffffffffffffffffffffffffff1681526020019060010190808311611cf0575b505050505090506000806000835167ffffffffffffffff811115611d6157611d606123ce565b5b604051908082528060200260200182016040528015611d8f5781602001602082028036833780820191505090505b50905060005b8451811015611e6e5760008e6003016000878481518110611db957611db86128ca565b5b602002602001015173ffffffffffffffffffffffffffffffffffffffff1673ffffffffffffffffffffffffffffffffffffffff16815260200190815260200160002060010154905089606482611e0f9190612af5565b611e199190612b66565b838381518110611e2c57611e2b6128ca565b5b602002602001018181525050828281518110611e4b57611e4a6128ca565b5b602002602001015185611e5e919061278a565b9450508080600101915050611d95565b5060005b8451811015611f2f5760006064838381518110611e9257611e916128ca565b5b60200260200101518c611ea59190612af5565b611eaf9190612b66565b90508060026000888581518110611ec957611ec86128ca565b5b602002602001015173ffffffffffffffffffffffffffffffffffffffff1673ffffffffffffffffffffffffffffffffffffffff1681526020019081526020016000206000828254611f1a919061278a565b92505081905550508080600101915050611e72565b507fc0b7edc89a5e21c358803037a88cd4371e21b36a6d71e1712e2ebfe150caaae98e858f600001604051611f66939291906134e6565b60405180910390a1505050505b50505b5050505050505050565b808360040183604051611f939190613141565b90815260200160405180910390206000828254611fb0919061278a565b9250508190555080836006016000828254611fcb919061278a565b92505081905550505050565b6040518060e001604052806000815260200160608152602001600073ffffffffffffffffffffffffffffffffffffffff168152602001600081526020016000815260200160008152602001600081525090565b6000604051905090565b600080fd5b600080fd5b600073ffffffffffffffffffffffffffffffffffffffff82169050919050565b60006120698261203e565b9050919050565b6120798161205e565b811461208457600080fd5b50565b60008135905061209681612070565b92915050565b6000819050919050565b6120af8161209c565b81146120ba57600080fd5b50565b6000813590506120cc816120a6565b92915050565b600080604083850312156120e9576120e8612034565b5b60006120f785828601612087565b9250506020612108858286016120bd565b9150509250929050565b61211b8161209c565b82525050565b60006020820190506121366000830184612112565b92915050565b60006020828403121561215257612151612034565b5b6000612160848285016120bd565b91505092915050565b600081519050919050565b600082825260208201905092915050565b6000819050602082019050919050565b61219e8161209c565b82525050565b600081519050919050565b600082825260208201905092915050565b60005b838110156121de5780820151818401526020810190506121c3565b60008484015250505050565b6000601f19601f8301169050919050565b6000612206826121a4565b61221081856121af565b93506122208185602086016121c0565b612229816121ea565b840191505092915050565b61223d8161205e565b82525050565b600060e08301600083015161225b6000860182612195565b506020830151848203602086015261227382826121fb565b91505060408301516122886040860182612234565b50606083015161229b6060860182612195565b5060808301516122ae6080860182612195565b5060a08301516122c160a0860182612195565b5060c08301516122d460c0860182612195565b508091505092915050565b60006122eb8383612243565b905092915050565b6000602082019050919050565b600061230b82612169565b6123158185612174565b93508360208202850161232785612185565b8060005b85811015612363578484038952815161234485826122df565b945061234f836122f3565b925060208a0199505060018101905061232b565b50829750879550505050505092915050565b6000602082019050818103600083015261238f8184612300565b905092915050565b6000602082840312156123ad576123ac612034565b5b60006123bb84828501612087565b91505092915050565b600080fd5b600080fd5b7f4e487b7100000000000000000000000000000000000000000000000000000000600052604160045260246000fd5b612406826121ea565b810181811067ffffffffffffffff82111715612425576124246123ce565b5b80604052505050565b600061243861202a565b905061244482826123fd565b919050565b600067ffffffffffffffff821115612464576124636123ce565b5b61246d826121ea565b9050602081019050919050565b82818337600083830152505050565b600061249c61249784612449565b61242e565b9050828152602081018484840111156124b8576124b76123c9565b5b6124c384828561247a565b509392505050565b600082601f8301126124e0576124df6123c4565b5b81356124f0848260208601612489565b91505092915050565b600080604083850312156125105761250f612034565b5b600083013567ffffffffffffffff81111561252e5761252d612039565b5b61253a858286016124cb565b925050602061254b858286016120bd565b9150509250929050565b60008060006060848603121561256e5761256d612034565b5b600061257c868287016120bd565b935050602084013567ffffffffffffffff81111561259d5761259c612039565b5b6125a9868287016124cb565b92505060406125ba868287016120bd565b9150509250925092565b6125cd8161205e565b82525050565b60006020820190506125e860008301846125c4565b92915050565b600082825260208201905092915050565b600061260a826121a4565b61261481856125ee565b93506126248185602086016121c0565b61262d816121ea565b840191505092915050565b60008115159050919050565b61264d81612638565b82525050565b600060e082019050818103600083015261266d818a6125ff565b905061267c60208301896125c4565b6126896040830188612112565b6126966060830187612112565b6126a36080830186612644565b6126b060a0830185612112565b6126bd60c0830184612112565b98975050505050505050565b7f4f2076616c6f7220646f206465706f7369746f206465766520736572206d616960008201527f6f7220717565207a65726f000000000000000000000000000000000000000000602082015250565b6000612725602b836125ee565b9150612730826126c9565b604082019050919050565b6000602082019050818103600083015261275481612718565b9050919050565b7f4e487b7100000000000000000000000000000000000000000000000000000000600052601160045260246000fd5b60006127958261209c565b91506127a08361209c565b92508282019050808211156127b8576127b761275b565b5b92915050565b7f53616c646f20696e737566696369656e74650000000000000000000000000000600082015250565b60006127f46012836125ee565b91506127ff826127be565b602082019050919050565b60006020820190508181036000830152612823816127e7565b9050919050565b60006128358261209c565b91506128408361209c565b92508282039050818111156128585761285761275b565b5b92915050565b7f41706f737461206e616f20656e636f6e74726164610000000000000000000000600082015250565b60006128946015836125ee565b915061289f8261285e565b602082019050919050565b600060208201905081810360008301526128c381612887565b9050919050565b7f4e487b7100000000000000000000000000000000000000000000000000000000600052603260045260246000fd5b7f41706f737461206a612066656368616461000000000000000000000000000000600082015250565b600061292f6011836125ee565b915061293a826128f9565b602082019050919050565b6000602082019050818103600083015261295e81612922565b9050919050565b7f536f6d656e7465206f20646f6e6f206f75207175616c7175657220706573736f60008201527f612061706f7320312064696120706f646520656e636572726172000000000000602082015250565b60006129c1603a836125ee565b91506129cc82612965565b604082019050919050565b600060208201905081810360008301526129f0816129b4565b9050919050565b7f4576656e746f2061696e6461206e616f20706f64652073657220656e6365727260008201527f61646f0000000000000000000000000000000000000000000000000000000000602082015250565b6000612a536023836125ee565b9150612a5e826129f7565b604082019050919050565b60006020820190508181036000830152612a8281612a46565b9050919050565b600081905092915050565b7f6361726100000000000000000000000000000000000000000000000000000000600082015250565b6000612aca600483612a89565b9150612ad582612a94565b600482019050919050565b6000612aeb82612abd565b9150819050919050565b6000612b008261209c565b9150612b0b8361209c565b9250828202612b198161209c565b91508282048414831517612b3057612b2f61275b565b5b5092915050565b7f4e487b7100000000000000000000000000000000000000000000000000000000600052601260045260246000fd5b6000612b718261209c565b9150612b7c8361209c565b925082612b8c57612b8b612b37565b5b828204905092915050565b7f636f726f61000000000000000000000000000000000000000000000000000000600082015250565b6000612bcd600583612a89565b9150612bd882612b97565b600582019050919050565b6000612bee82612bc0565b9150819050919050565b7f4e487b7100000000000000000000000000000000000000000000000000000000600052602260045260246000fd5b60006002820490506001821680612c3f57607f821691505b602082108103612c5257612c51612bf8565b5b50919050565b60008190508160005260206000209050919050565b60006020601f8301049050919050565b600082821b905092915050565b600060088302612cba7fffffffffffffffffffffffffffffffffffffffffffffffffffffffffffffffff82612c7d565b612cc48683612c7d565b95508019841693508086168417925050509392505050565b6000819050919050565b6000612d01612cfc612cf78461209c565b612cdc565b61209c565b9050919050565b6000819050919050565b612d1b83612ce6565b612d2f612d2782612d08565b848454612c8a565b825550505050565b600090565b612d44612d37565b612d4f818484612d12565b505050565b5b81811015612d7357612d68600082612d3c565b600181019050612d55565b5050565b601f821115612db857612d8981612c58565b612d9284612c6d565b81016020851015612da1578190505b612db5612dad85612c6d565b830182612d54565b50505b505050565b600082821c905092915050565b6000612ddb60001984600802612dbd565b1980831691505092915050565b6000612df48383612dca565b9150826002028217905092915050565b612e0d826121a4565b67ffffffffffffffff811115612e2657612e256123ce565b5b612e308254612c27565b612e3b828285612d77565b600060209050601f831160018114612e6e5760008415612e5c578287015190505b612e668582612de8565b865550612ece565b601f198416612e7c86612c58565b60005b82811015612ea457848901518255600182019150602085019450602081019050612e7f565b86831015612ec15784890151612ebd601f891682612dca565b8355505b6001600288020188555050505b505050505050565b6000606082019050612eeb60008301866125c4565b612ef86020830185612112565b8181036040830152612f0a81846125ff565b9050949350505050565b7f5265656e7472616e637920646574656374656420666f7220746869732065766560008201527f6e74000000000000000000000000000000000000000000000000000000000000602082015250565b6000612f706022836125ee565b9150612f7b82612f14565b604082019050919050565b60006020820190508181036000830152612f9f81612f63565b9050919050565b7f56616c6f722064612061706f737461206465766520736572206d61696f72207160008201527f7565207a65726f00000000000000000000000000000000000000000000000000602082015250565b60006130026027836125ee565b915061300d82612fa6565b604082019050919050565b6000602082019050818103600083015261303181612ff5565b9050919050565b7f4a61207265616c697a6f7520756d612061706f73746100000000000000000000600082015250565b600061306e6016836125ee565b915061307982613038565b602082019050919050565b6000602082019050818103600083015261309d81613061565b9050919050565b7f53616c646f20696e737566696369656e7465206e612063617274656972610000600082015250565b60006130da601e836125ee565b91506130e5826130a4565b602082019050919050565b60006020820190508181036000830152613109816130cd565b9050919050565b600061311b826121a4565b6131258185612a89565b93506131358185602086016121c0565b80840191505092915050565b600061314d8284613110565b915081905092915050565b60006131638261209c565b91507fffffffffffffffffffffffffffffffffffffffffffffffffffffffffffffffff82036131955761319461275b565b5b600182019050919050565b60006080820190506131b560008301876125c4565b6131c26020830186612112565b81810360408301526131d481856125ff565b90506131e36060830184612112565b95945050505050565b7f526573756c7461646f206a61207075626c696361646f00000000000000000000600082015250565b60006132226016836125ee565b915061322d826131ec565b602082019050919050565b6000602082019050818103600083015261325181613215565b9050919050565b6000819050919050565b61327361326e8261209c565b613258565b82525050565b60006132858286613262565b6020820191506132958285613262565b6020820191506132a58284613262565b602082019150819050949350505050565b60006132c18261209c565b91506132cc8361209c565b9250826132dc576132db612b37565b5b828206905092915050565b600081519050919050565b600082825260208201905092915050565b6000819050602082019050919050565b600061331f8383612234565b60208301905092915050565b6000602082019050919050565b6000613343826132e7565b61334d81856132f2565b935061335883613303565b8060005b838110156133895781516133708882613313565b975061337b8361332b565b92505060018101905061335c565b5085935050505092915050565b600081546133a381612c27565b6133ad81866125ee565b945060018216600081146133c857600181146133de57613411565b60ff198316865281151560200286019350613411565b6133e785612c58565b60005b83811015613409578154818901526001820191506020810190506133ea565b808801955050505b50505092915050565b600060808201905061342f6000830187612112565b818103602083015261344181866125ff565b905081810360408301526134558185613338565b905081810360608301526134698184613396565b905095945050505050565b7f53656d2076656e6365646f7265732c206e61206c69737461207265656d626f6c60008201527f7361646f73000000000000000000000000000000000000000000000000000000602082015250565b60006134d06025836125ee565b91506134db82613474565b604082019050919050565b60006080820190506134fb6000830186612112565b818103602083015261350c816134c3565b905081810360408301526135208185613338565b905081810360608301526135348184613396565b905094935050505056fea2646970667358221220d605bf924bed8cff51a9d9c3f1d34e11594f9a63a62fa8c0ce275ba0395be3dc64736f6c634300081b0033",
          "opcodes": "PUSH1 0x80 PUSH1 0x40 MSTORE CALLVALUE DUP1 ISZERO PUSH1 0xF JUMPI PUSH1 0x0 DUP1 REVERT JUMPDEST POP PUSH1 0x1 PUSH1 0x0 DUP2 SWAP1 SSTORE POP CALLER PUSH1 0x4 PUSH1 0x0 PUSH2 0x100 EXP DUP2 SLOAD DUP2 PUSH20 0xFFFFFFFFFFFFFFFFFFFFFFFFFFFFFFFFFFFFFFFF MUL NOT AND SWAP1 DUP4 PUSH20 0xFFFFFFFFFFFFFFFFFFFFFFFFFFFFFFFFFFFFFFFF AND MUL OR SWAP1 SSTORE POP PUSH2 0x3574 DUP1 PUSH2 0x68 PUSH1 0x0 CODECOPY PUSH1 0x0 RETURN INVALID PUSH1 0x80 PUSH1 0x40 MSTORE PUSH1 0x4 CALLDATASIZE LT PUSH2 0x9C JUMPI PUSH1 0x0 CALLDATALOAD PUSH1 0xE0 SHR DUP1 PUSH4 0xC98C92C8 GT PUSH2 0x64 JUMPI DUP1 PUSH4 0xC98C92C8 EQ PUSH2 0x165 JUMPI DUP1 PUSH4 0xCE811031 EQ PUSH2 0x1A2 JUMPI DUP1 PUSH4 0xE48D6CB7 EQ PUSH2 0x1CB JUMPI DUP1 PUSH4 0xEC28F08E EQ PUSH2 0x1F4 JUMPI DUP1 PUSH4 0xF60DAC9C EQ PUSH2 0x21F JUMPI DUP1 PUSH4 0xFD05DCAB EQ PUSH2 0x24A JUMPI PUSH2 0x9C JUMP JUMPDEST DUP1 PUSH4 0x3D922F90 EQ PUSH2 0xA1 JUMPI DUP1 PUSH4 0x4A39EC90 EQ PUSH2 0xAB JUMPI DUP1 PUSH4 0x7371B0D6 EQ PUSH2 0xE8 JUMPI DUP1 PUSH4 0x7F4C4019 EQ PUSH2 0x111 JUMPI DUP1 PUSH4 0xA9889855 EQ PUSH2 0x13A JUMPI JUMPDEST PUSH1 0x0 DUP1 REVERT JUMPDEST PUSH2 0xA9 PUSH2 0x28D JUMP JUMPDEST STOP JUMPDEST CALLVALUE DUP1 ISZERO PUSH2 0xB7 JUMPI PUSH1 0x0 DUP1 REVERT JUMPDEST POP PUSH2 0xD2 PUSH1 0x4 DUP1 CALLDATASIZE SUB DUP2 ADD SWAP1 PUSH2 0xCD SWAP2 SWAP1 PUSH2 0x20D2 JUMP JUMPDEST PUSH2 0x328 JUMP JUMPDEST PUSH1 0x40 MLOAD PUSH2 0xDF SWAP2 SWAP1 PUSH2 0x2121 JUMP JUMPDEST PUSH1 0x40 MLOAD DUP1 SWAP2 SUB SWAP1 RETURN JUMPDEST CALLVALUE DUP1 ISZERO PUSH2 0xF4 JUMPI PUSH1 0x0 DUP1 REVERT JUMPDEST POP PUSH2 0x10F PUSH1 0x4 DUP1 CALLDATASIZE SUB DUP2 ADD SWAP1 PUSH2 0x10A SWAP2 SWAP1 PUSH2 0x213C JUMP JUMPDEST PUSH2 0x359 JUMP JUMPDEST STOP JUMPDEST CALLVALUE DUP1 ISZERO PUSH2 0x11D JUMPI PUSH1 0x0 DUP1 REVERT JUMPDEST POP PUSH2 0x138 PUSH1 0x4 DUP1 CALLDATASIZE SUB DUP2 ADD SWAP1 PUSH2 0x133 SWAP2 SWAP1 PUSH2 0x213C JUMP JUMPDEST PUSH2 0x48B JUMP JUMPDEST STOP JUMPDEST CALLVALUE DUP1 ISZERO PUSH2 0x146 JUMPI PUSH1 0x0 DUP1 REVERT JUMPDEST POP PUSH2 0x14F PUSH2 0x686 JUMP JUMPDEST PUSH1 0x40 MLOAD PUSH2 0x15C SWAP2 SWAP1 PUSH2 0x2375 JUMP JUMPDEST PUSH1 0x40 MLOAD DUP1 SWAP2 SUB SWAP1 RETURN JUMPDEST CALLVALUE DUP1 ISZERO PUSH2 0x171 JUMPI PUSH1 0x0 DUP1 REVERT JUMPDEST POP PUSH2 0x18C PUSH1 0x4 DUP1 CALLDATASIZE SUB DUP2 ADD SWAP1 PUSH2 0x187 SWAP2 SWAP1 PUSH2 0x2397 JUMP JUMPDEST PUSH2 0x9DC JUMP JUMPDEST PUSH1 0x40 MLOAD PUSH2 0x199 SWAP2 SWAP1 PUSH2 0x2121 JUMP JUMPDEST PUSH1 0x40 MLOAD DUP1 SWAP2 SUB SWAP1 RETURN JUMPDEST CALLVALUE DUP1 ISZERO PUSH2 0x1AE JUMPI PUSH1 0x0 DUP1 REVERT JUMPDEST POP PUSH2 0x1C9 PUSH1 0x4 DUP1 CALLDATASIZE SUB DUP2 ADD SWAP1 PUSH2 0x1C4 SWAP2 SWAP1 PUSH2 0x24F9 JUMP JUMPDEST PUSH2 0x9F4 JUMP JUMPDEST STOP JUMPDEST CALLVALUE DUP1 ISZERO PUSH2 0x1D7 JUMPI PUSH1 0x0 DUP1 REVERT JUMPDEST POP PUSH2 0x1F2 PUSH1 0x4 DUP1 CALLDATASIZE SUB DUP2 ADD SWAP1 PUSH2 0x1ED SWAP2 SWAP1 PUSH2 0x2555 JUMP JUMPDEST PUSH2 0xAF3 JUMP JUMPDEST STOP JUMPDEST CALLVALUE DUP1 ISZERO PUSH2 0x200 JUMPI PUSH1 0x0 DUP1 REVERT JUMPDEST POP PUSH2 0x209 PUSH2 0xFE8 JUMP JUMPDEST PUSH1 0x40 MLOAD PUSH2 0x216 SWAP2 SWAP1 PUSH2 0x2375 JUMP JUMPDEST PUSH1 0x40 MLOAD DUP1 SWAP2 SUB SWAP1 RETURN JUMPDEST CALLVALUE DUP1 ISZERO PUSH2 0x22B JUMPI PUSH1 0x0 DUP1 REVERT JUMPDEST POP PUSH2 0x234 PUSH2 0x1381 JUMP JUMPDEST PUSH1 0x40 MLOAD PUSH2 0x241 SWAP2 SWAP1 PUSH2 0x25D3 JUMP JUMPDEST PUSH1 0x40 MLOAD DUP1 SWAP2 SUB SWAP1 RETURN JUMPDEST CALLVALUE DUP1 ISZERO PUSH2 0x256 JUMPI PUSH1 0x0 DUP1 REVERT JUMPDEST POP PUSH2 0x271 PUSH1 0x4 DUP1 CALLDATASIZE SUB DUP2 ADD SWAP1 PUSH2 0x26C SWAP2 SWAP1 PUSH2 0x213C JUMP JUMPDEST PUSH2 0x13A7 JUMP JUMPDEST PUSH1 0x40 MLOAD PUSH2 0x284 SWAP8 SWAP7 SWAP6 SWAP5 SWAP4 SWAP3 SWAP2 SWAP1 PUSH2 0x2653 JUMP JUMPDEST PUSH1 0x40 MLOAD DUP1 SWAP2 SUB SWAP1 RETURN JUMPDEST PUSH1 0x0 CALLVALUE GT PUSH2 0x2D0 JUMPI PUSH1 0x40 MLOAD PUSH32 0x8C379A000000000000000000000000000000000000000000000000000000000 DUP2 MSTORE PUSH1 0x4 ADD PUSH2 0x2C7 SWAP1 PUSH2 0x273B JUMP JUMPDEST PUSH1 0x40 MLOAD DUP1 SWAP2 SUB SWAP1 REVERT JUMPDEST CALLVALUE PUSH1 0x2 PUSH1 0x0 CALLER PUSH20 0xFFFFFFFFFFFFFFFFFFFFFFFFFFFFFFFFFFFFFFFF AND PUSH20 0xFFFFFFFFFFFFFFFFFFFFFFFFFFFFFFFFFFFFFFFF AND DUP2 MSTORE PUSH1 0x20 ADD SWAP1 DUP2 MSTORE PUSH1 0x20 ADD PUSH1 0x0 KECCAK256 PUSH1 0x0 DUP3 DUP3 SLOAD PUSH2 0x31F SWAP2 SWAP1 PUSH2 0x278A JUMP JUMPDEST SWAP3 POP POP DUP2 SWAP1 SSTORE POP JUMP JUMPDEST PUSH1 0x5 PUSH1 0x20 MSTORE DUP2 PUSH1 0x0 MSTORE PUSH1 0x40 PUSH1 0x0 KECCAK256 DUP2 DUP2 SLOAD DUP2 LT PUSH2 0x344 JUMPI PUSH1 0x0 DUP1 REVERT JUMPDEST SWAP1 PUSH1 0x0 MSTORE PUSH1 0x20 PUSH1 0x0 KECCAK256 ADD PUSH1 0x0 SWAP2 POP SWAP2 POP POP SLOAD DUP2 JUMP JUMPDEST PUSH2 0x361 PUSH2 0x14AE JUMP JUMPDEST DUP1 PUSH1 0x2 PUSH1 0x0 CALLER PUSH20 0xFFFFFFFFFFFFFFFFFFFFFFFFFFFFFFFFFFFFFFFF AND PUSH20 0xFFFFFFFFFFFFFFFFFFFFFFFFFFFFFFFFFFFFFFFF AND DUP2 MSTORE PUSH1 0x20 ADD SWAP1 DUP2 MSTORE PUSH1 0x20 ADD PUSH1 0x0 KECCAK256 SLOAD LT ISZERO PUSH2 0x3E3 JUMPI PUSH1 0x40 MLOAD PUSH32 0x8C379A000000000000000000000000000000000000000000000000000000000 DUP2 MSTORE PUSH1 0x4 ADD PUSH2 0x3DA SWAP1 PUSH2 0x280A JUMP JUMPDEST PUSH1 0x40 MLOAD DUP1 SWAP2 SUB SWAP1 REVERT JUMPDEST DUP1 PUSH1 0x2 PUSH1 0x0 CALLER PUSH20 0xFFFFFFFFFFFFFFFFFFFFFFFFFFFFFFFFFFFFFFFF AND PUSH20 0xFFFFFFFFFFFFFFFFFFFFFFFFFFFFFFFFFFFFFFFF AND DUP2 MSTORE PUSH1 0x20 ADD SWAP1 DUP2 MSTORE PUSH1 0x20 ADD PUSH1 0x0 KECCAK256 PUSH1 0x0 DUP3 DUP3 SLOAD PUSH2 0x432 SWAP2 SWAP1 PUSH2 0x282A JUMP JUMPDEST SWAP3 POP POP DUP2 SWAP1 SSTORE POP CALLER PUSH20 0xFFFFFFFFFFFFFFFFFFFFFFFFFFFFFFFFFFFFFFFF AND PUSH2 0x8FC DUP3 SWAP1 DUP2 ISZERO MUL SWAP1 PUSH1 0x40 MLOAD PUSH1 0x0 PUSH1 0x40 MLOAD DUP1 DUP4 SUB DUP2 DUP6 DUP9 DUP9 CALL SWAP4 POP POP POP POP ISZERO DUP1 ISZERO PUSH2 0x47F JUMPI RETURNDATASIZE PUSH1 0x0 DUP1 RETURNDATACOPY RETURNDATASIZE PUSH1 0x0 REVERT JUMPDEST POP PUSH2 0x488 PUSH2 0x14F4 JUMP JUMPDEST POP JUMP JUMPDEST PUSH1 0x3 DUP1 SLOAD SWAP1 POP DUP2 LT PUSH2 0x4D2 JUMPI PUSH1 0x40 MLOAD PUSH32 0x8C379A000000000000000000000000000000000000000000000000000000000 DUP2 MSTORE PUSH1 0x4 ADD PUSH2 0x4C9 SWAP1 PUSH2 0x28AA JUMP JUMPDEST PUSH1 0x40 MLOAD DUP1 SWAP2 SUB SWAP1 REVERT JUMPDEST PUSH1 0x0 PUSH1 0x3 DUP3 DUP2 SLOAD DUP2 LT PUSH2 0x4E8 JUMPI PUSH2 0x4E7 PUSH2 0x28CA JUMP JUMPDEST JUMPDEST SWAP1 PUSH1 0x0 MSTORE PUSH1 0x20 PUSH1 0x0 KECCAK256 SWAP1 PUSH1 0xA MUL ADD SWAP1 POP DUP1 PUSH1 0x7 ADD PUSH1 0x0 SWAP1 SLOAD SWAP1 PUSH2 0x100 EXP SWAP1 DIV PUSH1 0xFF AND ISZERO PUSH2 0x54A JUMPI PUSH1 0x40 MLOAD PUSH32 0x8C379A000000000000000000000000000000000000000000000000000000000 DUP2 MSTORE PUSH1 0x4 ADD PUSH2 0x541 SWAP1 PUSH2 0x2945 JUMP JUMPDEST PUSH1 0x40 MLOAD DUP1 SWAP2 SUB SWAP1 REVERT JUMPDEST PUSH1 0x0 PUSH3 0x15180 DUP3 PUSH1 0x2 ADD SLOAD PUSH2 0x55F SWAP2 SWAP1 PUSH2 0x278A JUMP JUMPDEST SWAP1 POP PUSH1 0x0 DUP2 TIMESTAMP LT ISZERO DUP1 PUSH2 0x5C1 JUMPI POP DUP3 PUSH1 0x1 ADD PUSH1 0x0 SWAP1 SLOAD SWAP1 PUSH2 0x100 EXP SWAP1 DIV PUSH20 0xFFFFFFFFFFFFFFFFFFFFFFFFFFFFFFFFFFFFFFFF AND PUSH20 0xFFFFFFFFFFFFFFFFFFFFFFFFFFFFFFFFFFFFFFFF AND CALLER PUSH20 0xFFFFFFFFFFFFFFFFFFFFFFFFFFFFFFFFFFFFFFFF AND EQ JUMPDEST SWAP1 POP DUP1 PUSH2 0x603 JUMPI PUSH1 0x40 MLOAD PUSH32 0x8C379A000000000000000000000000000000000000000000000000000000000 DUP2 MSTORE PUSH1 0x4 ADD PUSH2 0x5FA SWAP1 PUSH2 0x29D7 JUMP JUMPDEST PUSH1 0x40 MLOAD DUP1 SWAP2 SUB SWAP1 REVERT JUMPDEST DUP3 PUSH1 0x2 ADD SLOAD TIMESTAMP LT ISZERO PUSH2 0x64A JUMPI PUSH1 0x40 MLOAD PUSH32 0x8C379A000000000000000000000000000000000000000000000000000000000 DUP2 MSTORE PUSH1 0x4 ADD PUSH2 0x641 SWAP1 PUSH2 0x2A69 JUMP JUMPDEST PUSH1 0x40 MLOAD DUP1 SWAP2 SUB SWAP1 REVERT JUMPDEST PUSH1 0x0 PUSH2 0x655 DUP6 PUSH2 0x14FE JUMP JUMPDEST SWAP1 POP PUSH2 0x662 DUP6 DUP6 DUP4 PUSH2 0x163E JUMP JUMPDEST PUSH1 0x1 DUP5 PUSH1 0x7 ADD PUSH1 0x0 PUSH2 0x100 EXP DUP2 SLOAD DUP2 PUSH1 0xFF MUL NOT AND SWAP1 DUP4 ISZERO ISZERO MUL OR SWAP1 SSTORE POP POP POP POP POP POP JUMP JUMPDEST PUSH1 0x60 PUSH1 0x0 PUSH1 0x5 PUSH1 0x0 CALLER PUSH20 0xFFFFFFFFFFFFFFFFFFFFFFFFFFFFFFFFFFFFFFFF AND PUSH20 0xFFFFFFFFFFFFFFFFFFFFFFFFFFFFFFFFFFFFFFFF AND DUP2 MSTORE PUSH1 0x20 ADD SWAP1 DUP2 MSTORE PUSH1 0x20 ADD PUSH1 0x0 KECCAK256 DUP1 SLOAD DUP1 PUSH1 0x20 MUL PUSH1 0x20 ADD PUSH1 0x40 MLOAD SWAP1 DUP2 ADD PUSH1 0x40 MSTORE DUP1 SWAP3 SWAP2 SWAP1 DUP2 DUP2 MSTORE PUSH1 0x20 ADD DUP3 DUP1 SLOAD DUP1 ISZERO PUSH2 0x713 JUMPI PUSH1 0x20 MUL DUP3 ADD SWAP2 SWAP1 PUSH1 0x0 MSTORE PUSH1 0x20 PUSH1 0x0 KECCAK256 SWAP1 JUMPDEST DUP2 SLOAD DUP2 MSTORE PUSH1 0x20 ADD SWAP1 PUSH1 0x1 ADD SWAP1 DUP1 DUP4 GT PUSH2 0x6FF JUMPI JUMPDEST POP POP POP POP POP SWAP1 POP PUSH1 0x0 DUP2 MLOAD SWAP1 POP PUSH1 0x0 DUP2 PUSH8 0xFFFFFFFFFFFFFFFF DUP2 GT ISZERO PUSH2 0x73C JUMPI PUSH2 0x73B PUSH2 0x23CE JUMP JUMPDEST JUMPDEST PUSH1 0x40 MLOAD SWAP1 DUP1 DUP3 MSTORE DUP1 PUSH1 0x20 MUL PUSH1 0x20 ADD DUP3 ADD PUSH1 0x40 MSTORE DUP1 ISZERO PUSH2 0x775 JUMPI DUP2 PUSH1 0x20 ADD JUMPDEST PUSH2 0x762 PUSH2 0x1FD7 JUMP JUMPDEST DUP2 MSTORE PUSH1 0x20 ADD SWAP1 PUSH1 0x1 SWAP1 SUB SWAP1 DUP2 PUSH2 0x75A JUMPI SWAP1 POP JUMPDEST POP SWAP1 POP PUSH1 0x0 JUMPDEST DUP3 DUP2 LT ISZERO PUSH2 0x9D2 JUMPI PUSH1 0x0 DUP5 DUP3 DUP2 MLOAD DUP2 LT PUSH2 0x798 JUMPI PUSH2 0x797 PUSH2 0x28CA JUMP JUMPDEST JUMPDEST PUSH1 0x20 MUL PUSH1 0x20 ADD ADD MLOAD SWAP1 POP PUSH1 0x0 PUSH1 0x3 DUP3 DUP2 SLOAD DUP2 LT PUSH2 0x7B8 JUMPI PUSH2 0x7B7 PUSH2 0x28CA JUMP JUMPDEST JUMPDEST SWAP1 PUSH1 0x0 MSTORE PUSH1 0x20 PUSH1 0x0 KECCAK256 SWAP1 PUSH1 0xA MUL ADD SWAP1 POP PUSH1 0x0 DUP1 DUP3 PUSH1 0x4 ADD PUSH1 0x40 MLOAD PUSH2 0x7DB SWAP1 PUSH2 0x2AE0 JUMP JUMPDEST SWAP1 DUP2 MSTORE PUSH1 0x20 ADD PUSH1 0x40 MLOAD DUP1 SWAP2 SUB SWAP1 KECCAK256 SLOAD GT PUSH2 0x7F6 JUMPI PUSH1 0x0 PUSH2 0x831 JUMP JUMPDEST DUP2 PUSH1 0x4 ADD PUSH1 0x40 MLOAD PUSH2 0x806 SWAP1 PUSH2 0x2AE0 JUMP JUMPDEST SWAP1 DUP2 MSTORE PUSH1 0x20 ADD PUSH1 0x40 MLOAD DUP1 SWAP2 SUB SWAP1 KECCAK256 SLOAD PUSH1 0x64 DUP4 PUSH1 0x6 ADD SLOAD PUSH2 0x826 SWAP2 SWAP1 PUSH2 0x2AF5 JUMP JUMPDEST PUSH2 0x830 SWAP2 SWAP1 PUSH2 0x2B66 JUMP JUMPDEST JUMPDEST SWAP1 POP PUSH1 0x0 DUP1 DUP4 PUSH1 0x4 ADD PUSH1 0x40 MLOAD PUSH2 0x846 SWAP1 PUSH2 0x2BE3 JUMP JUMPDEST SWAP1 DUP2 MSTORE PUSH1 0x20 ADD PUSH1 0x40 MLOAD DUP1 SWAP2 SUB SWAP1 KECCAK256 SLOAD GT PUSH2 0x861 JUMPI PUSH1 0x0 PUSH2 0x89C JUMP JUMPDEST DUP3 PUSH1 0x4 ADD PUSH1 0x40 MLOAD PUSH2 0x871 SWAP1 PUSH2 0x2BE3 JUMP JUMPDEST SWAP1 DUP2 MSTORE PUSH1 0x20 ADD PUSH1 0x40 MLOAD DUP1 SWAP2 SUB SWAP1 KECCAK256 SLOAD PUSH1 0x64 DUP5 PUSH1 0x6 ADD SLOAD PUSH2 0x891 SWAP2 SWAP1 PUSH2 0x2AF5 JUMP JUMPDEST PUSH2 0x89B SWAP2 SWAP1 PUSH2 0x2B66 JUMP JUMPDEST JUMPDEST SWAP1 POP PUSH1 0x40 MLOAD DUP1 PUSH1 0xE0 ADD PUSH1 0x40 MSTORE DUP1 DUP5 PUSH1 0x8 ADD SLOAD DUP2 MSTORE PUSH1 0x20 ADD DUP5 PUSH1 0x0 ADD DUP1 SLOAD PUSH2 0x8C2 SWAP1 PUSH2 0x2C27 JUMP JUMPDEST DUP1 PUSH1 0x1F ADD PUSH1 0x20 DUP1 SWAP2 DIV MUL PUSH1 0x20 ADD PUSH1 0x40 MLOAD SWAP1 DUP2 ADD PUSH1 0x40 MSTORE DUP1 SWAP3 SWAP2 SWAP1 DUP2 DUP2 MSTORE PUSH1 0x20 ADD DUP3 DUP1 SLOAD PUSH2 0x8EE SWAP1 PUSH2 0x2C27 JUMP JUMPDEST DUP1 ISZERO PUSH2 0x93B JUMPI DUP1 PUSH1 0x1F LT PUSH2 0x910 JUMPI PUSH2 0x100 DUP1 DUP4 SLOAD DIV MUL DUP4 MSTORE SWAP2 PUSH1 0x20 ADD SWAP2 PUSH2 0x93B JUMP JUMPDEST DUP3 ADD SWAP2 SWAP1 PUSH1 0x0 MSTORE PUSH1 0x20 PUSH1 0x0 KECCAK256 SWAP1 JUMPDEST DUP2 SLOAD DUP2 MSTORE SWAP1 PUSH1 0x1 ADD SWAP1 PUSH1 0x20 ADD DUP1 DUP4 GT PUSH2 0x91E JUMPI DUP3 SWAP1 SUB PUSH1 0x1F AND DUP3 ADD SWAP2 JUMPDEST POP POP POP POP POP DUP2 MSTORE PUSH1 0x20 ADD DUP5 PUSH1 0x1 ADD PUSH1 0x0 SWAP1 SLOAD SWAP1 PUSH2 0x100 EXP SWAP1 DIV PUSH20 0xFFFFFFFFFFFFFFFFFFFFFFFFFFFFFFFFFFFFFFFF AND PUSH20 0xFFFFFFFFFFFFFFFFFFFFFFFFFFFFFFFFFFFFFFFF AND DUP2 MSTORE PUSH1 0x20 ADD DUP5 PUSH1 0x2 ADD SLOAD DUP2 MSTORE PUSH1 0x20 ADD DUP5 PUSH1 0x6 ADD SLOAD DUP2 MSTORE PUSH1 0x20 ADD DUP4 DUP2 MSTORE PUSH1 0x20 ADD DUP3 DUP2 MSTORE POP DUP7 DUP7 DUP2 MLOAD DUP2 LT PUSH2 0x9B6 JUMPI PUSH2 0x9B5 PUSH2 0x28CA JUMP JUMPDEST JUMPDEST PUSH1 0x20 MUL PUSH1 0x20 ADD ADD DUP2 SWAP1 MSTORE POP POP POP POP POP DUP1 DUP1 PUSH1 0x1 ADD SWAP2 POP POP PUSH2 0x77B JUMP JUMPDEST POP DUP1 SWAP4 POP POP POP POP SWAP1 JUMP JUMPDEST PUSH1 0x2 PUSH1 0x20 MSTORE DUP1 PUSH1 0x0 MSTORE PUSH1 0x40 PUSH1 0x0 KECCAK256 PUSH1 0x0 SWAP2 POP SWAP1 POP SLOAD DUP2 JUMP JUMPDEST PUSH1 0x0 PUSH1 0x3 PUSH1 0x1 DUP2 PUSH1 0x1 DUP2 SLOAD ADD DUP1 DUP3 SSTORE DUP1 SWAP2 POP POP SUB SWAP1 PUSH1 0x0 MSTORE PUSH1 0x20 PUSH1 0x0 KECCAK256 SWAP1 PUSH1 0xA MUL ADD SWAP1 POP DUP3 DUP2 PUSH1 0x0 ADD SWAP1 DUP2 PUSH2 0xA29 SWAP2 SWAP1 PUSH2 0x2E04 JUMP JUMPDEST POP CALLER DUP2 PUSH1 0x1 ADD PUSH1 0x0 PUSH2 0x100 EXP DUP2 SLOAD DUP2 PUSH20 0xFFFFFFFFFFFFFFFFFFFFFFFFFFFFFFFFFFFFFFFF MUL NOT AND SWAP1 DUP4 PUSH20 0xFFFFFFFFFFFFFFFFFFFFFFFFFFFFFFFFFFFFFFFF AND MUL OR SWAP1 SSTORE POP DUP2 DUP2 PUSH1 0x2 ADD DUP2 SWAP1 SSTORE POP PUSH1 0x0 DUP2 PUSH1 0x7 ADD PUSH1 0x0 PUSH2 0x100 EXP DUP2 SLOAD DUP2 PUSH1 0xFF MUL NOT AND SWAP1 DUP4 ISZERO ISZERO MUL OR SWAP1 SSTORE POP PUSH1 0x0 PUSH1 0x1 PUSH1 0x3 DUP1 SLOAD SWAP1 POP PUSH2 0xAA7 SWAP2 SWAP1 PUSH2 0x282A JUMP JUMPDEST SWAP1 POP DUP1 DUP3 PUSH1 0x8 ADD DUP2 SWAP1 SSTORE POP PUSH32 0x721558D898B4DB81678D021FC33E971D00C4CBCF012D91DD9C82706A7863774C CALLER DUP3 DUP7 PUSH1 0x40 MLOAD PUSH2 0xAE5 SWAP4 SWAP3 SWAP2 SWAP1 PUSH2 0x2ED6 JUMP JUMPDEST PUSH1 0x40 MLOAD DUP1 SWAP2 SUB SWAP1 LOG1 POP POP POP POP JUMP JUMPDEST DUP3 PUSH1 0x1 PUSH1 0x0 DUP3 DUP2 MSTORE PUSH1 0x20 ADD SWAP1 DUP2 MSTORE PUSH1 0x20 ADD PUSH1 0x0 KECCAK256 PUSH1 0x0 SWAP1 SLOAD SWAP1 PUSH2 0x100 EXP SWAP1 DIV PUSH1 0xFF AND ISZERO PUSH2 0xB55 JUMPI PUSH1 0x40 MLOAD PUSH32 0x8C379A000000000000000000000000000000000000000000000000000000000 DUP2 MSTORE PUSH1 0x4 ADD PUSH2 0xB4C SWAP1 PUSH2 0x2F86 JUMP JUMPDEST PUSH1 0x40 MLOAD DUP1 SWAP2 SUB SWAP1 REVERT JUMPDEST PUSH1 0x1 DUP1 PUSH1 0x0 DUP4 DUP2 MSTORE PUSH1 0x20 ADD SWAP1 DUP2 MSTORE PUSH1 0x20 ADD PUSH1 0x0 KECCAK256 PUSH1 0x0 PUSH2 0x100 EXP DUP2 SLOAD DUP2 PUSH1 0xFF MUL NOT AND SWAP1 DUP4 ISZERO ISZERO MUL OR SWAP1 SSTORE POP PUSH1 0x3 DUP1 SLOAD SWAP1 POP DUP5 LT PUSH2 0xBC7 JUMPI PUSH1 0x40 MLOAD PUSH32 0x8C379A000000000000000000000000000000000000000000000000000000000 DUP2 MSTORE PUSH1 0x4 ADD PUSH2 0xBBE SWAP1 PUSH2 0x28AA JUMP JUMPDEST PUSH1 0x40 MLOAD DUP1 SWAP2 SUB SWAP1 REVERT JUMPDEST PUSH1 0x0 PUSH1 0x3 DUP6 DUP2 SLOAD DUP2 LT PUSH2 0xBDD JUMPI PUSH2 0xBDC PUSH2 0x28CA JUMP JUMPDEST JUMPDEST SWAP1 PUSH1 0x0 MSTORE PUSH1 0x20 PUSH1 0x0 KECCAK256 SWAP1 PUSH1 0xA MUL ADD SWAP1 POP DUP1 PUSH1 0x7 ADD PUSH1 0x0 SWAP1 SLOAD SWAP1 PUSH2 0x100 EXP SWAP1 DIV PUSH1 0xFF AND ISZERO PUSH2 0xC3F JUMPI PUSH1 0x40 MLOAD PUSH32 0x8C379A000000000000000000000000000000000000000000000000000000000 DUP2 MSTORE PUSH1 0x4 ADD PUSH2 0xC36 SWAP1 PUSH2 0x2945 JUMP JUMPDEST PUSH1 0x40 MLOAD DUP1 SWAP2 SUB SWAP1 REVERT JUMPDEST PUSH1 0x0 DUP4 GT PUSH2 0xC82 JUMPI PUSH1 0x40 MLOAD PUSH32 0x8C379A000000000000000000000000000000000000000000000000000000000 DUP2 MSTORE PUSH1 0x4 ADD PUSH2 0xC79 SWAP1 PUSH2 0x3018 JUMP JUMPDEST PUSH1 0x40 MLOAD DUP1 SWAP2 SUB SWAP1 REVERT JUMPDEST PUSH1 0x0 DUP2 PUSH1 0x3 ADD PUSH1 0x0 CALLER PUSH20 0xFFFFFFFFFFFFFFFFFFFFFFFFFFFFFFFFFFFFFFFF AND PUSH20 0xFFFFFFFFFFFFFFFFFFFFFFFFFFFFFFFFFFFFFFFF AND DUP2 MSTORE PUSH1 0x20 ADD SWAP1 DUP2 MSTORE PUSH1 0x20 ADD PUSH1 0x0 KECCAK256 PUSH1 0x0 ADD DUP1 SLOAD PUSH2 0xCD3 SWAP1 PUSH2 0x2C27 JUMP JUMPDEST SWAP1 POP EQ PUSH2 0xD15 JUMPI PUSH1 0x40 MLOAD PUSH32 0x8C379A000000000000000000000000000000000000000000000000000000000 DUP2 MSTORE PUSH1 0x4 ADD PUSH2 0xD0C SWAP1 PUSH2 0x3084 JUMP JUMPDEST PUSH1 0x40 MLOAD DUP1 SWAP2 SUB SWAP1 REVERT JUMPDEST DUP3 PUSH1 0x2 PUSH1 0x0 CALLER PUSH20 0xFFFFFFFFFFFFFFFFFFFFFFFFFFFFFFFFFFFFFFFF AND PUSH20 0xFFFFFFFFFFFFFFFFFFFFFFFFFFFFFFFFFFFFFFFF AND DUP2 MSTORE PUSH1 0x20 ADD SWAP1 DUP2 MSTORE PUSH1 0x20 ADD PUSH1 0x0 KECCAK256 SLOAD LT ISZERO PUSH2 0xD97 JUMPI PUSH1 0x40 MLOAD PUSH32 0x8C379A000000000000000000000000000000000000000000000000000000000 DUP2 MSTORE PUSH1 0x4 ADD PUSH2 0xD8E SWAP1 PUSH2 0x30F0 JUMP JUMPDEST PUSH1 0x40 MLOAD DUP1 SWAP2 SUB SWAP1 REVERT JUMPDEST DUP3 PUSH1 0x2 PUSH1 0x0 CALLER PUSH20 0xFFFFFFFFFFFFFFFFFFFFFFFFFFFFFFFFFFFFFFFF AND PUSH20 0xFFFFFFFFFFFFFFFFFFFFFFFFFFFFFFFFFFFFFFFF AND DUP2 MSTORE PUSH1 0x20 ADD SWAP1 DUP2 MSTORE PUSH1 0x20 ADD PUSH1 0x0 KECCAK256 PUSH1 0x0 DUP3 DUP3 SLOAD PUSH2 0xDE6 SWAP2 SWAP1 PUSH2 0x282A JUMP JUMPDEST SWAP3 POP POP DUP2 SWAP1 SSTORE POP PUSH1 0x5 PUSH1 0x0 CALLER PUSH20 0xFFFFFFFFFFFFFFFFFFFFFFFFFFFFFFFFFFFFFFFF AND PUSH20 0xFFFFFFFFFFFFFFFFFFFFFFFFFFFFFFFFFFFFFFFF AND DUP2 MSTORE PUSH1 0x20 ADD SWAP1 DUP2 MSTORE PUSH1 0x20 ADD PUSH1 0x0 KECCAK256 DUP6 SWAP1 DUP1 PUSH1 0x1 DUP2 SLOAD ADD DUP1 DUP3 SSTORE DUP1 SWAP2 POP POP PUSH1 0x1 SWAP1 SUB SWAP1 PUSH1 0x0 MSTORE PUSH1 0x20 PUSH1 0x0 KECCAK256 ADD PUSH1 0x0 SWAP1 SWAP2 SWAP1 SWAP2 SWAP1 SWAP2 POP SSTORE PUSH1 0x0 PUSH1 0x40 MLOAD DUP1 PUSH1 0x40 ADD PUSH1 0x40 MSTORE DUP1 DUP7 DUP2 MSTORE PUSH1 0x20 ADD DUP6 DUP2 MSTORE POP SWAP1 POP DUP1 DUP3 PUSH1 0x3 ADD PUSH1 0x0 CALLER PUSH20 0xFFFFFFFFFFFFFFFFFFFFFFFFFFFFFFFFFFFFFFFF AND PUSH20 0xFFFFFFFFFFFFFFFFFFFFFFFFFFFFFFFFFFFFFFFF AND DUP2 MSTORE PUSH1 0x20 ADD SWAP1 DUP2 MSTORE PUSH1 0x20 ADD PUSH1 0x0 KECCAK256 PUSH1 0x0 DUP3 ADD MLOAD DUP2 PUSH1 0x0 ADD SWAP1 DUP2 PUSH2 0xEC3 SWAP2 SWAP1 PUSH2 0x2E04 JUMP JUMPDEST POP PUSH1 0x20 DUP3 ADD MLOAD DUP2 PUSH1 0x1 ADD SSTORE SWAP1 POP POP DUP2 PUSH1 0x5 ADD DUP6 PUSH1 0x40 MLOAD PUSH2 0xEE3 SWAP2 SWAP1 PUSH2 0x3141 JUMP JUMPDEST SWAP1 DUP2 MSTORE PUSH1 0x20 ADD PUSH1 0x40 MLOAD DUP1 SWAP2 SUB SWAP1 KECCAK256 CALLER SWAP1 DUP1 PUSH1 0x1 DUP2 SLOAD ADD DUP1 DUP3 SSTORE DUP1 SWAP2 POP POP PUSH1 0x1 SWAP1 SUB SWAP1 PUSH1 0x0 MSTORE PUSH1 0x20 PUSH1 0x0 KECCAK256 ADD PUSH1 0x0 SWAP1 SWAP2 SWAP1 SWAP2 SWAP1 SWAP2 PUSH2 0x100 EXP DUP2 SLOAD DUP2 PUSH20 0xFFFFFFFFFFFFFFFFFFFFFFFFFFFFFFFFFFFFFFFF MUL NOT AND SWAP1 DUP4 PUSH20 0xFFFFFFFFFFFFFFFFFFFFFFFFFFFFFFFFFFFFFFFF AND MUL OR SWAP1 SSTORE POP DUP2 PUSH1 0x9 ADD PUSH1 0x0 DUP2 SLOAD DUP1 SWAP3 SWAP2 SWAP1 PUSH2 0xF67 SWAP1 PUSH2 0x3158 JUMP JUMPDEST SWAP2 SWAP1 POP SSTORE POP PUSH2 0xF77 DUP3 DUP7 DUP7 PUSH2 0x1F80 JUMP JUMPDEST PUSH32 0x951072D4E7517022566506A84E0A5231F06E86A099C6510EE1A1D5D34E71C460 CALLER DUP8 DUP8 DUP8 PUSH1 0x40 MLOAD PUSH2 0xFAC SWAP5 SWAP4 SWAP3 SWAP2 SWAP1 PUSH2 0x31A0 JUMP JUMPDEST PUSH1 0x40 MLOAD DUP1 SWAP2 SUB SWAP1 LOG1 POP POP PUSH1 0x0 PUSH1 0x1 PUSH1 0x0 DUP4 DUP2 MSTORE PUSH1 0x20 ADD SWAP1 DUP2 MSTORE PUSH1 0x20 ADD PUSH1 0x0 KECCAK256 PUSH1 0x0 PUSH2 0x100 EXP DUP2 SLOAD DUP2 PUSH1 0xFF MUL NOT AND SWAP1 DUP4 ISZERO ISZERO MUL OR SWAP1 SSTORE POP POP POP POP POP JUMP JUMPDEST PUSH1 0x60 PUSH1 0x0 PUSH1 0x3 DUP1 SLOAD SWAP1 POP PUSH8 0xFFFFFFFFFFFFFFFF DUP2 GT ISZERO PUSH2 0x100B JUMPI PUSH2 0x100A PUSH2 0x23CE JUMP JUMPDEST JUMPDEST PUSH1 0x40 MLOAD SWAP1 DUP1 DUP3 MSTORE DUP1 PUSH1 0x20 MUL PUSH1 0x20 ADD DUP3 ADD PUSH1 0x40 MSTORE DUP1 ISZERO PUSH2 0x1044 JUMPI DUP2 PUSH1 0x20 ADD JUMPDEST PUSH2 0x1031 PUSH2 0x1FD7 JUMP JUMPDEST DUP2 MSTORE PUSH1 0x20 ADD SWAP1 PUSH1 0x1 SWAP1 SUB SWAP1 DUP2 PUSH2 0x1029 JUMPI SWAP1 POP JUMPDEST POP SWAP1 POP PUSH1 0x0 DUP1 JUMPDEST PUSH1 0x3 DUP1 SLOAD SWAP1 POP DUP2 LT ISZERO PUSH2 0x12CD JUMPI PUSH1 0x3 DUP2 DUP2 SLOAD DUP2 LT PUSH2 0x106C JUMPI PUSH2 0x106B PUSH2 0x28CA JUMP JUMPDEST JUMPDEST SWAP1 PUSH1 0x0 MSTORE PUSH1 0x20 PUSH1 0x0 KECCAK256 SWAP1 PUSH1 0xA MUL ADD PUSH1 0x7 ADD PUSH1 0x0 SWAP1 SLOAD SWAP1 PUSH2 0x100 EXP SWAP1 DIV PUSH1 0xFF AND PUSH2 0x12C0 JUMPI PUSH1 0x0 PUSH1 0x3 DUP3 DUP2 SLOAD DUP2 LT PUSH2 0x10A5 JUMPI PUSH2 0x10A4 PUSH2 0x28CA JUMP JUMPDEST JUMPDEST SWAP1 PUSH1 0x0 MSTORE PUSH1 0x20 PUSH1 0x0 KECCAK256 SWAP1 PUSH1 0xA MUL ADD SWAP1 POP PUSH1 0x0 DUP1 DUP3 PUSH1 0x4 ADD PUSH1 0x40 MLOAD PUSH2 0x10C8 SWAP1 PUSH2 0x2AE0 JUMP JUMPDEST SWAP1 DUP2 MSTORE PUSH1 0x20 ADD PUSH1 0x40 MLOAD DUP1 SWAP2 SUB SWAP1 KECCAK256 SLOAD GT PUSH2 0x10E3 JUMPI PUSH1 0x0 PUSH2 0x111E JUMP JUMPDEST DUP2 PUSH1 0x4 ADD PUSH1 0x40 MLOAD PUSH2 0x10F3 SWAP1 PUSH2 0x2AE0 JUMP JUMPDEST SWAP1 DUP2 MSTORE PUSH1 0x20 ADD PUSH1 0x40 MLOAD DUP1 SWAP2 SUB SWAP1 KECCAK256 SLOAD PUSH1 0x64 DUP4 PUSH1 0x6 ADD SLOAD PUSH2 0x1113 SWAP2 SWAP1 PUSH2 0x2AF5 JUMP JUMPDEST PUSH2 0x111D SWAP2 SWAP1 PUSH2 0x2B66 JUMP JUMPDEST JUMPDEST SWAP1 POP PUSH1 0x0 DUP1 DUP4 PUSH1 0x4 ADD PUSH1 0x40 MLOAD PUSH2 0x1133 SWAP1 PUSH2 0x2BE3 JUMP JUMPDEST SWAP1 DUP2 MSTORE PUSH1 0x20 ADD PUSH1 0x40 MLOAD DUP1 SWAP2 SUB SWAP1 KECCAK256 SLOAD GT PUSH2 0x114E JUMPI PUSH1 0x0 PUSH2 0x1189 JUMP JUMPDEST DUP3 PUSH1 0x4 ADD PUSH1 0x40 MLOAD PUSH2 0x115E SWAP1 PUSH2 0x2BE3 JUMP JUMPDEST SWAP1 DUP2 MSTORE PUSH1 0x20 ADD PUSH1 0x40 MLOAD DUP1 SWAP2 SUB SWAP1 KECCAK256 SLOAD PUSH1 0x64 DUP5 PUSH1 0x6 ADD SLOAD PUSH2 0x117E SWAP2 SWAP1 PUSH2 0x2AF5 JUMP JUMPDEST PUSH2 0x1188 SWAP2 SWAP1 PUSH2 0x2B66 JUMP JUMPDEST JUMPDEST SWAP1 POP PUSH1 0x40 MLOAD DUP1 PUSH1 0xE0 ADD PUSH1 0x40 MSTORE DUP1 DUP5 PUSH1 0x8 ADD SLOAD DUP2 MSTORE PUSH1 0x20 ADD DUP5 PUSH1 0x0 ADD DUP1 SLOAD PUSH2 0x11AF SWAP1 PUSH2 0x2C27 JUMP JUMPDEST DUP1 PUSH1 0x1F ADD PUSH1 0x20 DUP1 SWAP2 DIV MUL PUSH1 0x20 ADD PUSH1 0x40 MLOAD SWAP1 DUP2 ADD PUSH1 0x40 MSTORE DUP1 SWAP3 SWAP2 SWAP1 DUP2 DUP2 MSTORE PUSH1 0x20 ADD DUP3 DUP1 SLOAD PUSH2 0x11DB SWAP1 PUSH2 0x2C27 JUMP JUMPDEST DUP1 ISZERO PUSH2 0x1228 JUMPI DUP1 PUSH1 0x1F LT PUSH2 0x11FD JUMPI PUSH2 0x100 DUP1 DUP4 SLOAD DIV MUL DUP4 MSTORE SWAP2 PUSH1 0x20 ADD SWAP2 PUSH2 0x1228 JUMP JUMPDEST DUP3 ADD SWAP2 SWAP1 PUSH1 0x0 MSTORE PUSH1 0x20 PUSH1 0x0 KECCAK256 SWAP1 JUMPDEST DUP2 SLOAD DUP2 MSTORE SWAP1 PUSH1 0x1 ADD SWAP1 PUSH1 0x20 ADD DUP1 DUP4 GT PUSH2 0x120B JUMPI DUP3 SWAP1 SUB PUSH1 0x1F AND DUP3 ADD SWAP2 JUMPDEST POP POP POP POP POP DUP2 MSTORE PUSH1 0x20 ADD DUP5 PUSH1 0x1 ADD PUSH1 0x0 SWAP1 SLOAD SWAP1 PUSH2 0x100 EXP SWAP1 DIV PUSH20 0xFFFFFFFFFFFFFFFFFFFFFFFFFFFFFFFFFFFFFFFF AND PUSH20 0xFFFFFFFFFFFFFFFFFFFFFFFFFFFFFFFFFFFFFFFF AND DUP2 MSTORE PUSH1 0x20 ADD DUP5 PUSH1 0x2 ADD SLOAD DUP2 MSTORE PUSH1 0x20 ADD DUP5 PUSH1 0x6 ADD SLOAD DUP2 MSTORE PUSH1 0x20 ADD DUP4 DUP2 MSTORE PUSH1 0x20 ADD DUP3 DUP2 MSTORE POP DUP7 DUP7 DUP2 MLOAD DUP2 LT PUSH2 0x12A3 JUMPI PUSH2 0x12A2 PUSH2 0x28CA JUMP JUMPDEST JUMPDEST PUSH1 0x20 MUL PUSH1 0x20 ADD ADD DUP2 SWAP1 MSTORE POP DUP5 DUP1 PUSH2 0x12B9 SWAP1 PUSH2 0x3158 JUMP JUMPDEST SWAP6 POP POP POP POP POP JUMPDEST DUP1 DUP1 PUSH1 0x1 ADD SWAP2 POP POP PUSH2 0x104B JUMP JUMPDEST POP PUSH1 0x0 DUP2 PUSH8 0xFFFFFFFFFFFFFFFF DUP2 GT ISZERO PUSH2 0x12EA JUMPI PUSH2 0x12E9 PUSH2 0x23CE JUMP JUMPDEST JUMPDEST PUSH1 0x40 MLOAD SWAP1 DUP1 DUP3 MSTORE DUP1 PUSH1 0x20 MUL PUSH1 0x20 ADD DUP3 ADD PUSH1 0x40 MSTORE DUP1 ISZERO PUSH2 0x1323 JUMPI DUP2 PUSH1 0x20 ADD JUMPDEST PUSH2 0x1310 PUSH2 0x1FD7 JUMP JUMPDEST DUP2 MSTORE PUSH1 0x20 ADD SWAP1 PUSH1 0x1 SWAP1 SUB SWAP1 DUP2 PUSH2 0x1308 JUMPI SWAP1 POP JUMPDEST POP SWAP1 POP PUSH1 0x0 JUMPDEST DUP3 DUP2 LT ISZERO PUSH2 0x1377 JUMPI DUP4 DUP2 DUP2 MLOAD DUP2 LT PUSH2 0x1344 JUMPI PUSH2 0x1343 PUSH2 0x28CA JUMP JUMPDEST JUMPDEST PUSH1 0x20 MUL PUSH1 0x20 ADD ADD MLOAD DUP3 DUP3 DUP2 MLOAD DUP2 LT PUSH2 0x135F JUMPI PUSH2 0x135E PUSH2 0x28CA JUMP JUMPDEST JUMPDEST PUSH1 0x20 MUL PUSH1 0x20 ADD ADD DUP2 SWAP1 MSTORE POP DUP1 DUP1 PUSH1 0x1 ADD SWAP2 POP POP PUSH2 0x1329 JUMP JUMPDEST POP DUP1 SWAP4 POP POP POP POP SWAP1 JUMP JUMPDEST PUSH1 0x4 PUSH1 0x0 SWAP1 SLOAD SWAP1 PUSH2 0x100 EXP SWAP1 DIV PUSH20 0xFFFFFFFFFFFFFFFFFFFFFFFFFFFFFFFFFFFFFFFF AND DUP2 JUMP JUMPDEST PUSH1 0x3 DUP2 DUP2 SLOAD DUP2 LT PUSH2 0x13B7 JUMPI PUSH1 0x0 DUP1 REVERT JUMPDEST SWAP1 PUSH1 0x0 MSTORE PUSH1 0x20 PUSH1 0x0 KECCAK256 SWAP1 PUSH1 0xA MUL ADD PUSH1 0x0 SWAP2 POP SWAP1 POP DUP1 PUSH1 0x0 ADD DUP1 SLOAD PUSH2 0x13DA SWAP1 PUSH2 0x2C27 JUMP JUMPDEST DUP1 PUSH1 0x1F ADD PUSH1 0x20 DUP1 SWAP2 DIV MUL PUSH1 0x20 ADD PUSH1 0x40 MLOAD SWAP1 DUP2 ADD PUSH1 0x40 MSTORE DUP1 SWAP3 SWAP2 SWAP1 DUP2 DUP2 MSTORE PUSH1 0x20 ADD DUP3 DUP1 SLOAD PUSH2 0x1406 SWAP1 PUSH2 0x2C27 JUMP JUMPDEST DUP1 ISZERO PUSH2 0x1453 JUMPI DUP1 PUSH1 0x1F LT PUSH2 0x1428 JUMPI PUSH2 0x100 DUP1 DUP4 SLOAD DIV MUL DUP4 MSTORE SWAP2 PUSH1 0x20 ADD SWAP2 PUSH2 0x1453 JUMP JUMPDEST DUP3 ADD SWAP2 SWAP1 PUSH1 0x0 MSTORE PUSH1 0x20 PUSH1 0x0 KECCAK256 SWAP1 JUMPDEST DUP2 SLOAD DUP2 MSTORE SWAP1 PUSH1 0x1 ADD SWAP1 PUSH1 0x20 ADD DUP1 DUP4 GT PUSH2 0x1436 JUMPI DUP3 SWAP1 SUB PUSH1 0x1F AND DUP3 ADD SWAP2 JUMPDEST POP POP POP POP POP SWAP1 DUP1 PUSH1 0x1 ADD PUSH1 0x0 SWAP1 SLOAD SWAP1 PUSH2 0x100 EXP SWAP1 DIV PUSH20 0xFFFFFFFFFFFFFFFFFFFFFFFFFFFFFFFFFFFFFFFF AND SWAP1 DUP1 PUSH1 0x2 ADD SLOAD SWAP1 DUP1 PUSH1 0x6 ADD SLOAD SWAP1 DUP1 PUSH1 0x7 ADD PUSH1 0x0 SWAP1 SLOAD SWAP1 PUSH2 0x100 EXP SWAP1 DIV PUSH1 0xFF AND SWAP1 DUP1 PUSH1 0x8 ADD SLOAD SWAP1 DUP1 PUSH1 0x9 ADD SLOAD SWAP1 POP DUP8 JUMP JUMPDEST PUSH1 0x2 PUSH1 0x0 SLOAD SUB PUSH2 0x14EA JUMPI PUSH1 0x40 MLOAD PUSH32 0x3EE5AEB500000000000000000000000000000000000000000000000000000000 DUP2 MSTORE PUSH1 0x4 ADD PUSH1 0x40 MLOAD DUP1 SWAP2 SUB SWAP1 REVERT JUMPDEST PUSH1 0x2 PUSH1 0x0 DUP2 SWAP1 SSTORE POP JUMP JUMPDEST PUSH1 0x1 PUSH1 0x0 DUP2 SWAP1 SSTORE POP JUMP JUMPDEST PUSH1 0x60 PUSH1 0x0 PUSH1 0x3 DUP4 DUP2 SLOAD DUP2 LT PUSH2 0x1516 JUMPI PUSH2 0x1515 PUSH2 0x28CA JUMP JUMPDEST JUMPDEST SWAP1 PUSH1 0x0 MSTORE PUSH1 0x20 PUSH1 0x0 KECCAK256 SWAP1 PUSH1 0xA MUL ADD SWAP1 POP DUP1 PUSH1 0x7 ADD PUSH1 0x0 SWAP1 SLOAD SWAP1 PUSH2 0x100 EXP SWAP1 DIV PUSH1 0xFF AND ISZERO PUSH2 0x1578 JUMPI PUSH1 0x40 MLOAD PUSH32 0x8C379A000000000000000000000000000000000000000000000000000000000 DUP2 MSTORE PUSH1 0x4 ADD PUSH2 0x156F SWAP1 PUSH2 0x3238 JUMP JUMPDEST PUSH1 0x40 MLOAD DUP1 SWAP2 SUB SWAP1 REVERT JUMPDEST PUSH1 0x0 PUSH1 0x2 TIMESTAMP PREVRANDAO DUP7 PUSH1 0x40 MLOAD PUSH1 0x20 ADD PUSH2 0x1591 SWAP4 SWAP3 SWAP2 SWAP1 PUSH2 0x3279 JUMP JUMPDEST PUSH1 0x40 MLOAD PUSH1 0x20 DUP2 DUP4 SUB SUB DUP2 MSTORE SWAP1 PUSH1 0x40 MSTORE DUP1 MLOAD SWAP1 PUSH1 0x20 ADD KECCAK256 PUSH1 0x0 SHR PUSH2 0x15B4 SWAP2 SWAP1 PUSH2 0x32B6 JUMP JUMPDEST SWAP1 POP PUSH1 0x0 DUP1 DUP3 EQ PUSH2 0x15FA JUMPI PUSH1 0x40 MLOAD DUP1 PUSH1 0x40 ADD PUSH1 0x40 MSTORE DUP1 PUSH1 0x5 DUP2 MSTORE PUSH1 0x20 ADD PUSH32 0x636F726F61000000000000000000000000000000000000000000000000000000 DUP2 MSTORE POP PUSH2 0x1631 JUMP JUMPDEST PUSH1 0x40 MLOAD DUP1 PUSH1 0x40 ADD PUSH1 0x40 MSTORE DUP1 PUSH1 0x4 DUP2 MSTORE PUSH1 0x20 ADD PUSH32 0x6361726100000000000000000000000000000000000000000000000000000000 DUP2 MSTORE POP JUMPDEST SWAP1 POP DUP1 SWAP4 POP POP POP POP SWAP2 SWAP1 POP JUMP JUMPDEST PUSH1 0x0 DUP3 PUSH1 0x5 ADD DUP3 PUSH1 0x40 MLOAD PUSH2 0x1652 SWAP2 SWAP1 PUSH2 0x3141 JUMP JUMPDEST SWAP1 DUP2 MSTORE PUSH1 0x20 ADD PUSH1 0x40 MLOAD DUP1 SWAP2 SUB SWAP1 KECCAK256 DUP1 SLOAD DUP1 PUSH1 0x20 MUL PUSH1 0x20 ADD PUSH1 0x40 MLOAD SWAP1 DUP2 ADD PUSH1 0x40 MSTORE DUP1 SWAP3 SWAP2 SWAP1 DUP2 DUP2 MSTORE PUSH1 0x20 ADD DUP3 DUP1 SLOAD DUP1 ISZERO PUSH2 0x16E0 JUMPI PUSH1 0x20 MUL DUP3 ADD SWAP2 SWAP1 PUSH1 0x0 MSTORE PUSH1 0x20 PUSH1 0x0 KECCAK256 SWAP1 JUMPDEST DUP2 PUSH1 0x0 SWAP1 SLOAD SWAP1 PUSH2 0x100 EXP SWAP1 DIV PUSH20 0xFFFFFFFFFFFFFFFFFFFFFFFFFFFFFFFFFFFFFFFF AND PUSH20 0xFFFFFFFFFFFFFFFFFFFFFFFFFFFFFFFFFFFFFFFF AND DUP2 MSTORE PUSH1 0x20 ADD SWAP1 PUSH1 0x1 ADD SWAP1 DUP1 DUP4 GT PUSH2 0x1696 JUMPI JUMPDEST POP POP POP POP POP SWAP1 POP PUSH1 0x0 DUP1 DUP5 PUSH1 0x6 ADD SLOAD SWAP1 POP PUSH1 0x0 DUP2 SWAP1 POP PUSH1 0x0 JUMPDEST DUP5 MLOAD DUP2 LT ISZERO PUSH2 0x177B JUMPI DUP7 PUSH1 0x3 ADD PUSH1 0x0 DUP7 DUP4 DUP2 MLOAD DUP2 LT PUSH2 0x171B JUMPI PUSH2 0x171A PUSH2 0x28CA JUMP JUMPDEST JUMPDEST PUSH1 0x20 MUL PUSH1 0x20 ADD ADD MLOAD PUSH20 0xFFFFFFFFFFFFFFFFFFFFFFFFFFFFFFFFFFFFFFFF AND PUSH20 0xFFFFFFFFFFFFFFFFFFFFFFFFFFFFFFFFFFFFFFFF AND DUP2 MSTORE PUSH1 0x20 ADD SWAP1 DUP2 MSTORE PUSH1 0x20 ADD PUSH1 0x0 KECCAK256 PUSH1 0x1 ADD SLOAD DUP5 PUSH2 0x176C SWAP2 SWAP1 PUSH2 0x278A JUMP JUMPDEST SWAP4 POP DUP1 DUP1 PUSH1 0x1 ADD SWAP2 POP POP PUSH2 0x16F9 JUMP JUMPDEST POP PUSH1 0x0 PUSH1 0x64 PUSH1 0x7 DUP5 PUSH2 0x178D SWAP2 SWAP1 PUSH2 0x2AF5 JUMP JUMPDEST PUSH2 0x1797 SWAP2 SWAP1 PUSH2 0x2B66 JUMP JUMPDEST SWAP1 POP PUSH1 0x4 PUSH1 0x0 SWAP1 SLOAD SWAP1 PUSH2 0x100 EXP SWAP1 DIV PUSH20 0xFFFFFFFFFFFFFFFFFFFFFFFFFFFFFFFFFFFFFFFF AND PUSH20 0xFFFFFFFFFFFFFFFFFFFFFFFFFFFFFFFFFFFFFFFF AND PUSH2 0x8FC DUP3 SWAP1 DUP2 ISZERO MUL SWAP1 PUSH1 0x40 MLOAD PUSH1 0x0 PUSH1 0x40 MLOAD DUP1 DUP4 SUB DUP2 DUP6 DUP9 DUP9 CALL SWAP4 POP POP POP POP ISZERO DUP1 ISZERO PUSH2 0x1801 JUMPI RETURNDATASIZE PUSH1 0x0 DUP1 RETURNDATACOPY RETURNDATASIZE PUSH1 0x0 REVERT JUMPDEST POP DUP1 DUP4 PUSH2 0x180E SWAP2 SWAP1 PUSH2 0x282A JUMP JUMPDEST SWAP3 POP PUSH1 0x0 DUP5 GT ISZERO PUSH2 0x1962 JUMPI PUSH1 0x0 JUMPDEST DUP6 MLOAD DUP2 LT ISZERO PUSH2 0x191C JUMPI PUSH1 0x0 DUP6 DUP6 DUP11 PUSH1 0x3 ADD PUSH1 0x0 DUP11 DUP7 DUP2 MLOAD DUP2 LT PUSH2 0x1842 JUMPI PUSH2 0x1841 PUSH2 0x28CA JUMP JUMPDEST JUMPDEST PUSH1 0x20 MUL PUSH1 0x20 ADD ADD MLOAD PUSH20 0xFFFFFFFFFFFFFFFFFFFFFFFFFFFFFFFFFFFFFFFF AND PUSH20 0xFFFFFFFFFFFFFFFFFFFFFFFFFFFFFFFFFFFFFFFF AND DUP2 MSTORE PUSH1 0x20 ADD SWAP1 DUP2 MSTORE PUSH1 0x20 ADD PUSH1 0x0 KECCAK256 PUSH1 0x1 ADD SLOAD PUSH2 0x1892 SWAP2 SWAP1 PUSH2 0x2AF5 JUMP JUMPDEST PUSH2 0x189C SWAP2 SWAP1 PUSH2 0x2B66 JUMP JUMPDEST SWAP1 POP DUP1 PUSH1 0x2 PUSH1 0x0 DUP10 DUP6 DUP2 MLOAD DUP2 LT PUSH2 0x18B6 JUMPI PUSH2 0x18B5 PUSH2 0x28CA JUMP JUMPDEST JUMPDEST PUSH1 0x20 MUL PUSH1 0x20 ADD ADD MLOAD PUSH20 0xFFFFFFFFFFFFFFFFFFFFFFFFFFFFFFFFFFFFFFFF AND PUSH20 0xFFFFFFFFFFFFFFFFFFFFFFFFFFFFFFFFFFFFFFFF AND DUP2 MSTORE PUSH1 0x20 ADD SWAP1 DUP2 MSTORE PUSH1 0x20 ADD PUSH1 0x0 KECCAK256 PUSH1 0x0 DUP3 DUP3 SLOAD PUSH2 0x1907 SWAP2 SWAP1 PUSH2 0x278A JUMP JUMPDEST SWAP3 POP POP DUP2 SWAP1 SSTORE POP POP DUP1 DUP1 PUSH1 0x1 ADD SWAP2 POP POP PUSH2 0x181C JUMP JUMPDEST POP PUSH32 0xC0B7EDC89A5E21C358803037A88CD4371E21B36A6D71E1712E2EBFE150CAAAE9 DUP9 DUP8 DUP8 DUP11 PUSH1 0x0 ADD PUSH1 0x40 MLOAD PUSH2 0x1955 SWAP5 SWAP4 SWAP3 SWAP2 SWAP1 PUSH2 0x341A JUMP JUMPDEST PUSH1 0x40 MLOAD DUP1 SWAP2 SUB SWAP1 LOG1 PUSH2 0x1F76 JUMP JUMPDEST PUSH1 0x0 PUSH1 0x40 MLOAD PUSH1 0x20 ADD PUSH2 0x1973 SWAP1 PUSH2 0x2AE0 JUMP JUMPDEST PUSH1 0x40 MLOAD PUSH1 0x20 DUP2 DUP4 SUB SUB DUP2 MSTORE SWAP1 PUSH1 0x40 MSTORE DUP1 MLOAD SWAP1 PUSH1 0x20 ADD KECCAK256 SWAP1 POP PUSH1 0x0 DUP8 PUSH1 0x40 MLOAD PUSH1 0x20 ADD PUSH2 0x199E SWAP2 SWAP1 PUSH2 0x3141 JUMP JUMPDEST PUSH1 0x40 MLOAD PUSH1 0x20 DUP2 DUP4 SUB SUB DUP2 MSTORE SWAP1 PUSH1 0x40 MSTORE DUP1 MLOAD SWAP1 PUSH1 0x20 ADD KECCAK256 SWAP1 POP DUP1 DUP3 SUB PUSH2 0x1C9A JUMPI PUSH1 0x0 DUP10 PUSH1 0x5 ADD PUSH1 0x40 MLOAD PUSH2 0x19CF SWAP1 PUSH2 0x2BE3 JUMP JUMPDEST SWAP1 DUP2 MSTORE PUSH1 0x20 ADD PUSH1 0x40 MLOAD DUP1 SWAP2 SUB SWAP1 KECCAK256 DUP1 SLOAD DUP1 PUSH1 0x20 MUL PUSH1 0x20 ADD PUSH1 0x40 MLOAD SWAP1 DUP2 ADD PUSH1 0x40 MSTORE DUP1 SWAP3 SWAP2 SWAP1 DUP2 DUP2 MSTORE PUSH1 0x20 ADD DUP3 DUP1 SLOAD DUP1 ISZERO PUSH2 0x1A5D JUMPI PUSH1 0x20 MUL DUP3 ADD SWAP2 SWAP1 PUSH1 0x0 MSTORE PUSH1 0x20 PUSH1 0x0 KECCAK256 SWAP1 JUMPDEST DUP2 PUSH1 0x0 SWAP1 SLOAD SWAP1 PUSH2 0x100 EXP SWAP1 DIV PUSH20 0xFFFFFFFFFFFFFFFFFFFFFFFFFFFFFFFFFFFFFFFF AND PUSH20 0xFFFFFFFFFFFFFFFFFFFFFFFFFFFFFFFFFFFFFFFF AND DUP2 MSTORE PUSH1 0x20 ADD SWAP1 PUSH1 0x1 ADD SWAP1 DUP1 DUP4 GT PUSH2 0x1A13 JUMPI JUMPDEST POP POP POP POP POP SWAP1 POP PUSH1 0x0 DUP1 PUSH1 0x0 DUP4 MLOAD PUSH8 0xFFFFFFFFFFFFFFFF DUP2 GT ISZERO PUSH2 0x1A84 JUMPI PUSH2 0x1A83 PUSH2 0x23CE JUMP JUMPDEST JUMPDEST PUSH1 0x40 MLOAD SWAP1 DUP1 DUP3 MSTORE DUP1 PUSH1 0x20 MUL PUSH1 0x20 ADD DUP3 ADD PUSH1 0x40 MSTORE DUP1 ISZERO PUSH2 0x1AB2 JUMPI DUP2 PUSH1 0x20 ADD PUSH1 0x20 DUP3 MUL DUP1 CALLDATASIZE DUP4 CALLDATACOPY DUP1 DUP3 ADD SWAP2 POP POP SWAP1 POP JUMPDEST POP SWAP1 POP PUSH1 0x0 JUMPDEST DUP5 MLOAD DUP2 LT ISZERO PUSH2 0x1B91 JUMPI PUSH1 0x0 DUP15 PUSH1 0x3 ADD PUSH1 0x0 DUP8 DUP5 DUP2 MLOAD DUP2 LT PUSH2 0x1ADC JUMPI PUSH2 0x1ADB PUSH2 0x28CA JUMP JUMPDEST JUMPDEST PUSH1 0x20 MUL PUSH1 0x20 ADD ADD MLOAD PUSH20 0xFFFFFFFFFFFFFFFFFFFFFFFFFFFFFFFFFFFFFFFF AND PUSH20 0xFFFFFFFFFFFFFFFFFFFFFFFFFFFFFFFFFFFFFFFF AND DUP2 MSTORE PUSH1 0x20 ADD SWAP1 DUP2 MSTORE PUSH1 0x20 ADD PUSH1 0x0 KECCAK256 PUSH1 0x1 ADD SLOAD SWAP1 POP DUP10 PUSH1 0x64 DUP3 PUSH2 0x1B32 SWAP2 SWAP1 PUSH2 0x2AF5 JUMP JUMPDEST PUSH2 0x1B3C SWAP2 SWAP1 PUSH2 0x2B66 JUMP JUMPDEST DUP4 DUP4 DUP2 MLOAD DUP2 LT PUSH2 0x1B4F JUMPI PUSH2 0x1B4E PUSH2 0x28CA JUMP JUMPDEST JUMPDEST PUSH1 0x20 MUL PUSH1 0x20 ADD ADD DUP2 DUP2 MSTORE POP POP DUP3 DUP3 DUP2 MLOAD DUP2 LT PUSH2 0x1B6E JUMPI PUSH2 0x1B6D PUSH2 0x28CA JUMP JUMPDEST JUMPDEST PUSH1 0x20 MUL PUSH1 0x20 ADD ADD MLOAD DUP6 PUSH2 0x1B81 SWAP2 SWAP1 PUSH2 0x278A JUMP JUMPDEST SWAP5 POP POP DUP1 DUP1 PUSH1 0x1 ADD SWAP2 POP POP PUSH2 0x1AB8 JUMP JUMPDEST POP PUSH1 0x0 JUMPDEST DUP5 MLOAD DUP2 LT ISZERO PUSH2 0x1C52 JUMPI PUSH1 0x0 PUSH1 0x64 DUP4 DUP4 DUP2 MLOAD DUP2 LT PUSH2 0x1BB5 JUMPI PUSH2 0x1BB4 PUSH2 0x28CA JUMP JUMPDEST JUMPDEST PUSH1 0x20 MUL PUSH1 0x20 ADD ADD MLOAD DUP13 PUSH2 0x1BC8 SWAP2 SWAP1 PUSH2 0x2AF5 JUMP JUMPDEST PUSH2 0x1BD2 SWAP2 SWAP1 PUSH2 0x2B66 JUMP JUMPDEST SWAP1 POP DUP1 PUSH1 0x2 PUSH1 0x0 DUP9 DUP6 DUP2 MLOAD DUP2 LT PUSH2 0x1BEC JUMPI PUSH2 0x1BEB PUSH2 0x28CA JUMP JUMPDEST JUMPDEST PUSH1 0x20 MUL PUSH1 0x20 ADD ADD MLOAD PUSH20 0xFFFFFFFFFFFFFFFFFFFFFFFFFFFFFFFFFFFFFFFF AND PUSH20 0xFFFFFFFFFFFFFFFFFFFFFFFFFFFFFFFFFFFFFFFF AND DUP2 MSTORE PUSH1 0x20 ADD SWAP1 DUP2 MSTORE PUSH1 0x20 ADD PUSH1 0x0 KECCAK256 PUSH1 0x0 DUP3 DUP3 SLOAD PUSH2 0x1C3D SWAP2 SWAP1 PUSH2 0x278A JUMP JUMPDEST SWAP3 POP POP DUP2 SWAP1 SSTORE POP POP DUP1 DUP1 PUSH1 0x1 ADD SWAP2 POP POP PUSH2 0x1B95 JUMP JUMPDEST POP PUSH32 0xC0B7EDC89A5E21C358803037A88CD4371E21B36A6D71E1712E2EBFE150CAAAE9 DUP15 DUP6 DUP16 PUSH1 0x0 ADD PUSH1 0x40 MLOAD PUSH2 0x1C89 SWAP4 SWAP3 SWAP2 SWAP1 PUSH2 0x34E6 JUMP JUMPDEST PUSH1 0x40 MLOAD DUP1 SWAP2 SUB SWAP1 LOG1 POP POP POP POP PUSH2 0x1F73 JUMP JUMPDEST PUSH1 0x0 DUP10 PUSH1 0x5 ADD PUSH1 0x40 MLOAD PUSH2 0x1CAC SWAP1 PUSH2 0x2AE0 JUMP JUMPDEST SWAP1 DUP2 MSTORE PUSH1 0x20 ADD PUSH1 0x40 MLOAD DUP1 SWAP2 SUB SWAP1 KECCAK256 DUP1 SLOAD DUP1 PUSH1 0x20 MUL PUSH1 0x20 ADD PUSH1 0x40 MLOAD SWAP1 DUP2 ADD PUSH1 0x40 MSTORE DUP1 SWAP3 SWAP2 SWAP1 DUP2 DUP2 MSTORE PUSH1 0x20 ADD DUP3 DUP1 SLOAD DUP1 ISZERO PUSH2 0x1D3A JUMPI PUSH1 0x20 MUL DUP3 ADD SWAP2 SWAP1 PUSH1 0x0 MSTORE PUSH1 0x20 PUSH1 0x0 KECCAK256 SWAP1 JUMPDEST DUP2 PUSH1 0x0 SWAP1 SLOAD SWAP1 PUSH2 0x100 EXP SWAP1 DIV PUSH20 0xFFFFFFFFFFFFFFFFFFFFFFFFFFFFFFFFFFFFFFFF AND PUSH20 0xFFFFFFFFFFFFFFFFFFFFFFFFFFFFFFFFFFFFFFFF AND DUP2 MSTORE PUSH1 0x20 ADD SWAP1 PUSH1 0x1 ADD SWAP1 DUP1 DUP4 GT PUSH2 0x1CF0 JUMPI JUMPDEST POP POP POP POP POP SWAP1 POP PUSH1 0x0 DUP1 PUSH1 0x0 DUP4 MLOAD PUSH8 0xFFFFFFFFFFFFFFFF DUP2 GT ISZERO PUSH2 0x1D61 JUMPI PUSH2 0x1D60 PUSH2 0x23CE JUMP JUMPDEST JUMPDEST PUSH1 0x40 MLOAD SWAP1 DUP1 DUP3 MSTORE DUP1 PUSH1 0x20 MUL PUSH1 0x20 ADD DUP3 ADD PUSH1 0x40 MSTORE DUP1 ISZERO PUSH2 0x1D8F JUMPI DUP2 PUSH1 0x20 ADD PUSH1 0x20 DUP3 MUL DUP1 CALLDATASIZE DUP4 CALLDATACOPY DUP1 DUP3 ADD SWAP2 POP POP SWAP1 POP JUMPDEST POP SWAP1 POP PUSH1 0x0 JUMPDEST DUP5 MLOAD DUP2 LT ISZERO PUSH2 0x1E6E JUMPI PUSH1 0x0 DUP15 PUSH1 0x3 ADD PUSH1 0x0 DUP8 DUP5 DUP2 MLOAD DUP2 LT PUSH2 0x1DB9 JUMPI PUSH2 0x1DB8 PUSH2 0x28CA JUMP JUMPDEST JUMPDEST PUSH1 0x20 MUL PUSH1 0x20 ADD ADD MLOAD PUSH20 0xFFFFFFFFFFFFFFFFFFFFFFFFFFFFFFFFFFFFFFFF AND PUSH20 0xFFFFFFFFFFFFFFFFFFFFFFFFFFFFFFFFFFFFFFFF AND DUP2 MSTORE PUSH1 0x20 ADD SWAP1 DUP2 MSTORE PUSH1 0x20 ADD PUSH1 0x0 KECCAK256 PUSH1 0x1 ADD SLOAD SWAP1 POP DUP10 PUSH1 0x64 DUP3 PUSH2 0x1E0F SWAP2 SWAP1 PUSH2 0x2AF5 JUMP JUMPDEST PUSH2 0x1E19 SWAP2 SWAP1 PUSH2 0x2B66 JUMP JUMPDEST DUP4 DUP4 DUP2 MLOAD DUP2 LT PUSH2 0x1E2C JUMPI PUSH2 0x1E2B PUSH2 0x28CA JUMP JUMPDEST JUMPDEST PUSH1 0x20 MUL PUSH1 0x20 ADD ADD DUP2 DUP2 MSTORE POP POP DUP3 DUP3 DUP2 MLOAD DUP2 LT PUSH2 0x1E4B JUMPI PUSH2 0x1E4A PUSH2 0x28CA JUMP JUMPDEST JUMPDEST PUSH1 0x20 MUL PUSH1 0x20 ADD ADD MLOAD DUP6 PUSH2 0x1E5E SWAP2 SWAP1 PUSH2 0x278A JUMP JUMPDEST SWAP5 POP POP DUP1 DUP1 PUSH1 0x1 ADD SWAP2 POP POP PUSH2 0x1D95 JUMP JUMPDEST POP PUSH1 0x0 JUMPDEST DUP5 MLOAD DUP2 LT ISZERO PUSH2 0x1F2F JUMPI PUSH1 0x0 PUSH1 0x64 DUP4 DUP4 DUP2 MLOAD DUP2 LT PUSH2 0x1E92 JUMPI PUSH2 0x1E91 PUSH2 0x28CA JUMP JUMPDEST JUMPDEST PUSH1 0x20 MUL PUSH1 0x20 ADD ADD MLOAD DUP13 PUSH2 0x1EA5 SWAP2 SWAP1 PUSH2 0x2AF5 JUMP JUMPDEST PUSH2 0x1EAF SWAP2 SWAP1 PUSH2 0x2B66 JUMP JUMPDEST SWAP1 POP DUP1 PUSH1 0x2 PUSH1 0x0 DUP9 DUP6 DUP2 MLOAD DUP2 LT PUSH2 0x1EC9 JUMPI PUSH2 0x1EC8 PUSH2 0x28CA JUMP JUMPDEST JUMPDEST PUSH1 0x20 MUL PUSH1 0x20 ADD ADD MLOAD PUSH20 0xFFFFFFFFFFFFFFFFFFFFFFFFFFFFFFFFFFFFFFFF AND PUSH20 0xFFFFFFFFFFFFFFFFFFFFFFFFFFFFFFFFFFFFFFFF AND DUP2 MSTORE PUSH1 0x20 ADD SWAP1 DUP2 MSTORE PUSH1 0x20 ADD PUSH1 0x0 KECCAK256 PUSH1 0x0 DUP3 DUP3 SLOAD PUSH2 0x1F1A SWAP2 SWAP1 PUSH2 0x278A JUMP JUMPDEST SWAP3 POP POP DUP2 SWAP1 SSTORE POP POP DUP1 DUP1 PUSH1 0x1 ADD SWAP2 POP POP PUSH2 0x1E72 JUMP JUMPDEST POP PUSH32 0xC0B7EDC89A5E21C358803037A88CD4371E21B36A6D71E1712E2EBFE150CAAAE9 DUP15 DUP6 DUP16 PUSH1 0x0 ADD PUSH1 0x40 MLOAD PUSH2 0x1F66 SWAP4 SWAP3 SWAP2 SWAP1 PUSH2 0x34E6 JUMP JUMPDEST PUSH1 0x40 MLOAD DUP1 SWAP2 SUB SWAP1 LOG1 POP POP POP POP JUMPDEST POP POP JUMPDEST POP POP POP POP POP POP POP POP JUMP JUMPDEST DUP1 DUP4 PUSH1 0x4 ADD DUP4 PUSH1 0x40 MLOAD PUSH2 0x1F93 SWAP2 SWAP1 PUSH2 0x3141 JUMP JUMPDEST SWAP1 DUP2 MSTORE PUSH1 0x20 ADD PUSH1 0x40 MLOAD DUP1 SWAP2 SUB SWAP1 KECCAK256 PUSH1 0x0 DUP3 DUP3 SLOAD PUSH2 0x1FB0 SWAP2 SWAP1 PUSH2 0x278A JUMP JUMPDEST SWAP3 POP POP DUP2 SWAP1 SSTORE POP DUP1 DUP4 PUSH1 0x6 ADD PUSH1 0x0 DUP3 DUP3 SLOAD PUSH2 0x1FCB SWAP2 SWAP1 PUSH2 0x278A JUMP JUMPDEST SWAP3 POP POP DUP2 SWAP1 SSTORE POP POP POP POP JUMP JUMPDEST PUSH1 0x40 MLOAD DUP1 PUSH1 0xE0 ADD PUSH1 0x40 MSTORE DUP1 PUSH1 0x0 DUP2 MSTORE PUSH1 0x20 ADD PUSH1 0x60 DUP2 MSTORE PUSH1 0x20 ADD PUSH1 0x0 PUSH20 0xFFFFFFFFFFFFFFFFFFFFFFFFFFFFFFFFFFFFFFFF AND DUP2 MSTORE PUSH1 0x20 ADD PUSH1 0x0 DUP2 MSTORE PUSH1 0x20 ADD PUSH1 0x0 DUP2 MSTORE PUSH1 0x20 ADD PUSH1 0x0 DUP2 MSTORE PUSH1 0x20 ADD PUSH1 0x0 DUP2 MSTORE POP SWAP1 JUMP JUMPDEST PUSH1 0x0 PUSH1 0x40 MLOAD SWAP1 POP SWAP1 JUMP JUMPDEST PUSH1 0x0 DUP1 REVERT JUMPDEST PUSH1 0x0 DUP1 REVERT JUMPDEST PUSH1 0x0 PUSH20 0xFFFFFFFFFFFFFFFFFFFFFFFFFFFFFFFFFFFFFFFF DUP3 AND SWAP1 POP SWAP2 SWAP1 POP JUMP JUMPDEST PUSH1 0x0 PUSH2 0x2069 DUP3 PUSH2 0x203E JUMP JUMPDEST SWAP1 POP SWAP2 SWAP1 POP JUMP JUMPDEST PUSH2 0x2079 DUP2 PUSH2 0x205E JUMP JUMPDEST DUP2 EQ PUSH2 0x2084 JUMPI PUSH1 0x0 DUP1 REVERT JUMPDEST POP JUMP JUMPDEST PUSH1 0x0 DUP2 CALLDATALOAD SWAP1 POP PUSH2 0x2096 DUP2 PUSH2 0x2070 JUMP JUMPDEST SWAP3 SWAP2 POP POP JUMP JUMPDEST PUSH1 0x0 DUP2 SWAP1 POP SWAP2 SWAP1 POP JUMP JUMPDEST PUSH2 0x20AF DUP2 PUSH2 0x209C JUMP JUMPDEST DUP2 EQ PUSH2 0x20BA JUMPI PUSH1 0x0 DUP1 REVERT JUMPDEST POP JUMP JUMPDEST PUSH1 0x0 DUP2 CALLDATALOAD SWAP1 POP PUSH2 0x20CC DUP2 PUSH2 0x20A6 JUMP JUMPDEST SWAP3 SWAP2 POP POP JUMP JUMPDEST PUSH1 0x0 DUP1 PUSH1 0x40 DUP4 DUP6 SUB SLT ISZERO PUSH2 0x20E9 JUMPI PUSH2 0x20E8 PUSH2 0x2034 JUMP JUMPDEST JUMPDEST PUSH1 0x0 PUSH2 0x20F7 DUP6 DUP3 DUP7 ADD PUSH2 0x2087 JUMP JUMPDEST SWAP3 POP POP PUSH1 0x20 PUSH2 0x2108 DUP6 DUP3 DUP7 ADD PUSH2 0x20BD JUMP JUMPDEST SWAP2 POP POP SWAP3 POP SWAP3 SWAP1 POP JUMP JUMPDEST PUSH2 0x211B DUP2 PUSH2 0x209C JUMP JUMPDEST DUP3 MSTORE POP POP JUMP JUMPDEST PUSH1 0x0 PUSH1 0x20 DUP3 ADD SWAP1 POP PUSH2 0x2136 PUSH1 0x0 DUP4 ADD DUP5 PUSH2 0x2112 JUMP JUMPDEST SWAP3 SWAP2 POP POP JUMP JUMPDEST PUSH1 0x0 PUSH1 0x20 DUP3 DUP5 SUB SLT ISZERO PUSH2 0x2152 JUMPI PUSH2 0x2151 PUSH2 0x2034 JUMP JUMPDEST JUMPDEST PUSH1 0x0 PUSH2 0x2160 DUP5 DUP3 DUP6 ADD PUSH2 0x20BD JUMP JUMPDEST SWAP2 POP POP SWAP3 SWAP2 POP POP JUMP JUMPDEST PUSH1 0x0 DUP2 MLOAD SWAP1 POP SWAP2 SWAP1 POP JUMP JUMPDEST PUSH1 0x0 DUP3 DUP3 MSTORE PUSH1 0x20 DUP3 ADD SWAP1 POP SWAP3 SWAP2 POP POP JUMP JUMPDEST PUSH1 0x0 DUP2 SWAP1 POP PUSH1 0x20 DUP3 ADD SWAP1 POP SWAP2 SWAP1 POP JUMP JUMPDEST PUSH2 0x219E DUP2 PUSH2 0x209C JUMP JUMPDEST DUP3 MSTORE POP POP JUMP JUMPDEST PUSH1 0x0 DUP2 MLOAD SWAP1 POP SWAP2 SWAP1 POP JUMP JUMPDEST PUSH1 0x0 DUP3 DUP3 MSTORE PUSH1 0x20 DUP3 ADD SWAP1 POP SWAP3 SWAP2 POP POP JUMP JUMPDEST PUSH1 0x0 JUMPDEST DUP4 DUP2 LT ISZERO PUSH2 0x21DE JUMPI DUP1 DUP3 ADD MLOAD DUP2 DUP5 ADD MSTORE PUSH1 0x20 DUP2 ADD SWAP1 POP PUSH2 0x21C3 JUMP JUMPDEST PUSH1 0x0 DUP5 DUP5 ADD MSTORE POP POP POP POP JUMP JUMPDEST PUSH1 0x0 PUSH1 0x1F NOT PUSH1 0x1F DUP4 ADD AND SWAP1 POP SWAP2 SWAP1 POP JUMP JUMPDEST PUSH1 0x0 PUSH2 0x2206 DUP3 PUSH2 0x21A4 JUMP JUMPDEST PUSH2 0x2210 DUP2 DUP6 PUSH2 0x21AF JUMP JUMPDEST SWAP4 POP PUSH2 0x2220 DUP2 DUP6 PUSH1 0x20 DUP7 ADD PUSH2 0x21C0 JUMP JUMPDEST PUSH2 0x2229 DUP2 PUSH2 0x21EA JUMP JUMPDEST DUP5 ADD SWAP2 POP POP SWAP3 SWAP2 POP POP JUMP JUMPDEST PUSH2 0x223D DUP2 PUSH2 0x205E JUMP JUMPDEST DUP3 MSTORE POP POP JUMP JUMPDEST PUSH1 0x0 PUSH1 0xE0 DUP4 ADD PUSH1 0x0 DUP4 ADD MLOAD PUSH2 0x225B PUSH1 0x0 DUP7 ADD DUP3 PUSH2 0x2195 JUMP JUMPDEST POP PUSH1 0x20 DUP4 ADD MLOAD DUP5 DUP3 SUB PUSH1 0x20 DUP7 ADD MSTORE PUSH2 0x2273 DUP3 DUP3 PUSH2 0x21FB JUMP JUMPDEST SWAP2 POP POP PUSH1 0x40 DUP4 ADD MLOAD PUSH2 0x2288 PUSH1 0x40 DUP7 ADD DUP3 PUSH2 0x2234 JUMP JUMPDEST POP PUSH1 0x60 DUP4 ADD MLOAD PUSH2 0x229B PUSH1 0x60 DUP7 ADD DUP3 PUSH2 0x2195 JUMP JUMPDEST POP PUSH1 0x80 DUP4 ADD MLOAD PUSH2 0x22AE PUSH1 0x80 DUP7 ADD DUP3 PUSH2 0x2195 JUMP JUMPDEST POP PUSH1 0xA0 DUP4 ADD MLOAD PUSH2 0x22C1 PUSH1 0xA0 DUP7 ADD DUP3 PUSH2 0x2195 JUMP JUMPDEST POP PUSH1 0xC0 DUP4 ADD MLOAD PUSH2 0x22D4 PUSH1 0xC0 DUP7 ADD DUP3 PUSH2 0x2195 JUMP JUMPDEST POP DUP1 SWAP2 POP POP SWAP3 SWAP2 POP POP JUMP JUMPDEST PUSH1 0x0 PUSH2 0x22EB DUP4 DUP4 PUSH2 0x2243 JUMP JUMPDEST SWAP1 POP SWAP3 SWAP2 POP POP JUMP JUMPDEST PUSH1 0x0 PUSH1 0x20 DUP3 ADD SWAP1 POP SWAP2 SWAP1 POP JUMP JUMPDEST PUSH1 0x0 PUSH2 0x230B DUP3 PUSH2 0x2169 JUMP JUMPDEST PUSH2 0x2315 DUP2 DUP6 PUSH2 0x2174 JUMP JUMPDEST SWAP4 POP DUP4 PUSH1 0x20 DUP3 MUL DUP6 ADD PUSH2 0x2327 DUP6 PUSH2 0x2185 JUMP JUMPDEST DUP1 PUSH1 0x0 JUMPDEST DUP6 DUP2 LT ISZERO PUSH2 0x2363 JUMPI DUP5 DUP5 SUB DUP10 MSTORE DUP2 MLOAD PUSH2 0x2344 DUP6 DUP3 PUSH2 0x22DF JUMP JUMPDEST SWAP5 POP PUSH2 0x234F DUP4 PUSH2 0x22F3 JUMP JUMPDEST SWAP3 POP PUSH1 0x20 DUP11 ADD SWAP10 POP POP PUSH1 0x1 DUP2 ADD SWAP1 POP PUSH2 0x232B JUMP JUMPDEST POP DUP3 SWAP8 POP DUP8 SWAP6 POP POP POP POP POP POP SWAP3 SWAP2 POP POP JUMP JUMPDEST PUSH1 0x0 PUSH1 0x20 DUP3 ADD SWAP1 POP DUP2 DUP2 SUB PUSH1 0x0 DUP4 ADD MSTORE PUSH2 0x238F DUP2 DUP5 PUSH2 0x2300 JUMP JUMPDEST SWAP1 POP SWAP3 SWAP2 POP POP JUMP JUMPDEST PUSH1 0x0 PUSH1 0x20 DUP3 DUP5 SUB SLT ISZERO PUSH2 0x23AD JUMPI PUSH2 0x23AC PUSH2 0x2034 JUMP JUMPDEST JUMPDEST PUSH1 0x0 PUSH2 0x23BB DUP5 DUP3 DUP6 ADD PUSH2 0x2087 JUMP JUMPDEST SWAP2 POP POP SWAP3 SWAP2 POP POP JUMP JUMPDEST PUSH1 0x0 DUP1 REVERT JUMPDEST PUSH1 0x0 DUP1 REVERT JUMPDEST PUSH32 0x4E487B7100000000000000000000000000000000000000000000000000000000 PUSH1 0x0 MSTORE PUSH1 0x41 PUSH1 0x4 MSTORE PUSH1 0x24 PUSH1 0x0 REVERT JUMPDEST PUSH2 0x2406 DUP3 PUSH2 0x21EA JUMP JUMPDEST DUP2 ADD DUP2 DUP2 LT PUSH8 0xFFFFFFFFFFFFFFFF DUP3 GT OR ISZERO PUSH2 0x2425 JUMPI PUSH2 0x2424 PUSH2 0x23CE JUMP JUMPDEST JUMPDEST DUP1 PUSH1 0x40 MSTORE POP POP POP JUMP JUMPDEST PUSH1 0x0 PUSH2 0x2438 PUSH2 0x202A JUMP JUMPDEST SWAP1 POP PUSH2 0x2444 DUP3 DUP3 PUSH2 0x23FD JUMP JUMPDEST SWAP2 SWAP1 POP JUMP JUMPDEST PUSH1 0x0 PUSH8 0xFFFFFFFFFFFFFFFF DUP3 GT ISZERO PUSH2 0x2464 JUMPI PUSH2 0x2463 PUSH2 0x23CE JUMP JUMPDEST JUMPDEST PUSH2 0x246D DUP3 PUSH2 0x21EA JUMP JUMPDEST SWAP1 POP PUSH1 0x20 DUP2 ADD SWAP1 POP SWAP2 SWAP1 POP JUMP JUMPDEST DUP3 DUP2 DUP4 CALLDATACOPY PUSH1 0x0 DUP4 DUP4 ADD MSTORE POP POP POP JUMP JUMPDEST PUSH1 0x0 PUSH2 0x249C PUSH2 0x2497 DUP5 PUSH2 0x2449 JUMP JUMPDEST PUSH2 0x242E JUMP JUMPDEST SWAP1 POP DUP3 DUP2 MSTORE PUSH1 0x20 DUP2 ADD DUP5 DUP5 DUP5 ADD GT ISZERO PUSH2 0x24B8 JUMPI PUSH2 0x24B7 PUSH2 0x23C9 JUMP JUMPDEST JUMPDEST PUSH2 0x24C3 DUP5 DUP3 DUP6 PUSH2 0x247A JUMP JUMPDEST POP SWAP4 SWAP3 POP POP POP JUMP JUMPDEST PUSH1 0x0 DUP3 PUSH1 0x1F DUP4 ADD SLT PUSH2 0x24E0 JUMPI PUSH2 0x24DF PUSH2 0x23C4 JUMP JUMPDEST JUMPDEST DUP2 CALLDATALOAD PUSH2 0x24F0 DUP5 DUP3 PUSH1 0x20 DUP7 ADD PUSH2 0x2489 JUMP JUMPDEST SWAP2 POP POP SWAP3 SWAP2 POP POP JUMP JUMPDEST PUSH1 0x0 DUP1 PUSH1 0x40 DUP4 DUP6 SUB SLT ISZERO PUSH2 0x2510 JUMPI PUSH2 0x250F PUSH2 0x2034 JUMP JUMPDEST JUMPDEST PUSH1 0x0 DUP4 ADD CALLDATALOAD PUSH8 0xFFFFFFFFFFFFFFFF DUP2 GT ISZERO PUSH2 0x252E JUMPI PUSH2 0x252D PUSH2 0x2039 JUMP JUMPDEST JUMPDEST PUSH2 0x253A DUP6 DUP3 DUP7 ADD PUSH2 0x24CB JUMP JUMPDEST SWAP3 POP POP PUSH1 0x20 PUSH2 0x254B DUP6 DUP3 DUP7 ADD PUSH2 0x20BD JUMP JUMPDEST SWAP2 POP POP SWAP3 POP SWAP3 SWAP1 POP JUMP JUMPDEST PUSH1 0x0 DUP1 PUSH1 0x0 PUSH1 0x60 DUP5 DUP7 SUB SLT ISZERO PUSH2 0x256E JUMPI PUSH2 0x256D PUSH2 0x2034 JUMP JUMPDEST JUMPDEST PUSH1 0x0 PUSH2 0x257C DUP7 DUP3 DUP8 ADD PUSH2 0x20BD JUMP JUMPDEST SWAP4 POP POP PUSH1 0x20 DUP5 ADD CALLDATALOAD PUSH8 0xFFFFFFFFFFFFFFFF DUP2 GT ISZERO PUSH2 0x259D JUMPI PUSH2 0x259C PUSH2 0x2039 JUMP JUMPDEST JUMPDEST PUSH2 0x25A9 DUP7 DUP3 DUP8 ADD PUSH2 0x24CB JUMP JUMPDEST SWAP3 POP POP PUSH1 0x40 PUSH2 0x25BA DUP7 DUP3 DUP8 ADD PUSH2 0x20BD JUMP JUMPDEST SWAP2 POP POP SWAP3 POP SWAP3 POP SWAP3 JUMP JUMPDEST PUSH2 0x25CD DUP2 PUSH2 0x205E JUMP JUMPDEST DUP3 MSTORE POP POP JUMP JUMPDEST PUSH1 0x0 PUSH1 0x20 DUP3 ADD SWAP1 POP PUSH2 0x25E8 PUSH1 0x0 DUP4 ADD DUP5 PUSH2 0x25C4 JUMP JUMPDEST SWAP3 SWAP2 POP POP JUMP JUMPDEST PUSH1 0x0 DUP3 DUP3 MSTORE PUSH1 0x20 DUP3 ADD SWAP1 POP SWAP3 SWAP2 POP POP JUMP JUMPDEST PUSH1 0x0 PUSH2 0x260A DUP3 PUSH2 0x21A4 JUMP JUMPDEST PUSH2 0x2614 DUP2 DUP6 PUSH2 0x25EE JUMP JUMPDEST SWAP4 POP PUSH2 0x2624 DUP2 DUP6 PUSH1 0x20 DUP7 ADD PUSH2 0x21C0 JUMP JUMPDEST PUSH2 0x262D DUP2 PUSH2 0x21EA JUMP JUMPDEST DUP5 ADD SWAP2 POP POP SWAP3 SWAP2 POP POP JUMP JUMPDEST PUSH1 0x0 DUP2 ISZERO ISZERO SWAP1 POP SWAP2 SWAP1 POP JUMP JUMPDEST PUSH2 0x264D DUP2 PUSH2 0x2638 JUMP JUMPDEST DUP3 MSTORE POP POP JUMP JUMPDEST PUSH1 0x0 PUSH1 0xE0 DUP3 ADD SWAP1 POP DUP2 DUP2 SUB PUSH1 0x0 DUP4 ADD MSTORE PUSH2 0x266D DUP2 DUP11 PUSH2 0x25FF JUMP JUMPDEST SWAP1 POP PUSH2 0x267C PUSH1 0x20 DUP4 ADD DUP10 PUSH2 0x25C4 JUMP JUMPDEST PUSH2 0x2689 PUSH1 0x40 DUP4 ADD DUP9 PUSH2 0x2112 JUMP JUMPDEST PUSH2 0x2696 PUSH1 0x60 DUP4 ADD DUP8 PUSH2 0x2112 JUMP JUMPDEST PUSH2 0x26A3 PUSH1 0x80 DUP4 ADD DUP7 PUSH2 0x2644 JUMP JUMPDEST PUSH2 0x26B0 PUSH1 0xA0 DUP4 ADD DUP6 PUSH2 0x2112 JUMP JUMPDEST PUSH2 0x26BD PUSH1 0xC0 DUP4 ADD DUP5 PUSH2 0x2112 JUMP JUMPDEST SWAP9 SWAP8 POP POP POP POP POP POP POP POP JUMP JUMPDEST PUSH32 0x4F2076616C6F7220646F206465706F7369746F206465766520736572206D6169 PUSH1 0x0 DUP3 ADD MSTORE PUSH32 0x6F7220717565207A65726F000000000000000000000000000000000000000000 PUSH1 0x20 DUP3 ADD MSTORE POP JUMP JUMPDEST PUSH1 0x0 PUSH2 0x2725 PUSH1 0x2B DUP4 PUSH2 0x25EE JUMP JUMPDEST SWAP2 POP PUSH2 0x2730 DUP3 PUSH2 0x26C9 JUMP JUMPDEST PUSH1 0x40 DUP3 ADD SWAP1 POP SWAP2 SWAP1 POP JUMP JUMPDEST PUSH1 0x0 PUSH1 0x20 DUP3 ADD SWAP1 POP DUP2 DUP2 SUB PUSH1 0x0 DUP4 ADD MSTORE PUSH2 0x2754 DUP2 PUSH2 0x2718 JUMP JUMPDEST SWAP1 POP SWAP2 SWAP1 POP JUMP JUMPDEST PUSH32 0x4E487B7100000000000000000000000000000000000000000000000000000000 PUSH1 0x0 MSTORE PUSH1 0x11 PUSH1 0x4 MSTORE PUSH1 0x24 PUSH1 0x0 REVERT JUMPDEST PUSH1 0x0 PUSH2 0x2795 DUP3 PUSH2 0x209C JUMP JUMPDEST SWAP2 POP PUSH2 0x27A0 DUP4 PUSH2 0x209C JUMP JUMPDEST SWAP3 POP DUP3 DUP3 ADD SWAP1 POP DUP1 DUP3 GT ISZERO PUSH2 0x27B8 JUMPI PUSH2 0x27B7 PUSH2 0x275B JUMP JUMPDEST JUMPDEST SWAP3 SWAP2 POP POP JUMP JUMPDEST PUSH32 0x53616C646F20696E737566696369656E74650000000000000000000000000000 PUSH1 0x0 DUP3 ADD MSTORE POP JUMP JUMPDEST PUSH1 0x0 PUSH2 0x27F4 PUSH1 0x12 DUP4 PUSH2 0x25EE JUMP JUMPDEST SWAP2 POP PUSH2 0x27FF DUP3 PUSH2 0x27BE JUMP JUMPDEST PUSH1 0x20 DUP3 ADD SWAP1 POP SWAP2 SWAP1 POP JUMP JUMPDEST PUSH1 0x0 PUSH1 0x20 DUP3 ADD SWAP1 POP DUP2 DUP2 SUB PUSH1 0x0 DUP4 ADD MSTORE PUSH2 0x2823 DUP2 PUSH2 0x27E7 JUMP JUMPDEST SWAP1 POP SWAP2 SWAP1 POP JUMP JUMPDEST PUSH1 0x0 PUSH2 0x2835 DUP3 PUSH2 0x209C JUMP JUMPDEST SWAP2 POP PUSH2 0x2840 DUP4 PUSH2 0x209C JUMP JUMPDEST SWAP3 POP DUP3 DUP3 SUB SWAP1 POP DUP2 DUP2 GT ISZERO PUSH2 0x2858 JUMPI PUSH2 0x2857 PUSH2 0x275B JUMP JUMPDEST JUMPDEST SWAP3 SWAP2 POP POP JUMP JUMPDEST PUSH32 0x41706F737461206E616F20656E636F6E74726164610000000000000000000000 PUSH1 0x0 DUP3 ADD MSTORE POP JUMP JUMPDEST PUSH1 0x0 PUSH2 0x2894 PUSH1 0x15 DUP4 PUSH2 0x25EE JUMP JUMPDEST SWAP2 POP PUSH2 0x289F DUP3 PUSH2 0x285E JUMP JUMPDEST PUSH1 0x20 DUP3 ADD SWAP1 POP SWAP2 SWAP1 POP JUMP JUMPDEST PUSH1 0x0 PUSH1 0x20 DUP3 ADD SWAP1 POP DUP2 DUP2 SUB PUSH1 0x0 DUP4 ADD MSTORE PUSH2 0x28C3 DUP2 PUSH2 0x2887 JUMP JUMPDEST SWAP1 POP SWAP2 SWAP1 POP JUMP JUMPDEST PUSH32 0x4E487B7100000000000000000000000000000000000000000000000000000000 PUSH1 0x0 MSTORE PUSH1 0x32 PUSH1 0x4 MSTORE PUSH1 0x24 PUSH1 0x0 REVERT JUMPDEST PUSH32 0x41706F737461206A612066656368616461000000000000000000000000000000 PUSH1 0x0 DUP3 ADD MSTORE POP JUMP JUMPDEST PUSH1 0x0 PUSH2 0x292F PUSH1 0x11 DUP4 PUSH2 0x25EE JUMP JUMPDEST SWAP2 POP PUSH2 0x293A DUP3 PUSH2 0x28F9 JUMP JUMPDEST PUSH1 0x20 DUP3 ADD SWAP1 POP SWAP2 SWAP1 POP JUMP JUMPDEST PUSH1 0x0 PUSH1 0x20 DUP3 ADD SWAP1 POP DUP2 DUP2 SUB PUSH1 0x0 DUP4 ADD MSTORE PUSH2 0x295E DUP2 PUSH2 0x2922 JUMP JUMPDEST SWAP1 POP SWAP2 SWAP1 POP JUMP JUMPDEST PUSH32 0x536F6D656E7465206F20646F6E6F206F75207175616C7175657220706573736F PUSH1 0x0 DUP3 ADD MSTORE PUSH32 0x612061706F7320312064696120706F646520656E636572726172000000000000 PUSH1 0x20 DUP3 ADD MSTORE POP JUMP JUMPDEST PUSH1 0x0 PUSH2 0x29C1 PUSH1 0x3A DUP4 PUSH2 0x25EE JUMP JUMPDEST SWAP2 POP PUSH2 0x29CC DUP3 PUSH2 0x2965 JUMP JUMPDEST PUSH1 0x40 DUP3 ADD SWAP1 POP SWAP2 SWAP1 POP JUMP JUMPDEST PUSH1 0x0 PUSH1 0x20 DUP3 ADD SWAP1 POP DUP2 DUP2 SUB PUSH1 0x0 DUP4 ADD MSTORE PUSH2 0x29F0 DUP2 PUSH2 0x29B4 JUMP JUMPDEST SWAP1 POP SWAP2 SWAP1 POP JUMP JUMPDEST PUSH32 0x4576656E746F2061696E6461206E616F20706F64652073657220656E63657272 PUSH1 0x0 DUP3 ADD MSTORE PUSH32 0x61646F0000000000000000000000000000000000000000000000000000000000 PUSH1 0x20 DUP3 ADD MSTORE POP JUMP JUMPDEST PUSH1 0x0 PUSH2 0x2A53 PUSH1 0x23 DUP4 PUSH2 0x25EE JUMP JUMPDEST SWAP2 POP PUSH2 0x2A5E DUP3 PUSH2 0x29F7 JUMP JUMPDEST PUSH1 0x40 DUP3 ADD SWAP1 POP SWAP2 SWAP1 POP JUMP JUMPDEST PUSH1 0x0 PUSH1 0x20 DUP3 ADD SWAP1 POP DUP2 DUP2 SUB PUSH1 0x0 DUP4 ADD MSTORE PUSH2 0x2A82 DUP2 PUSH2 0x2A46 JUMP JUMPDEST SWAP1 POP SWAP2 SWAP1 POP JUMP JUMPDEST PUSH1 0x0 DUP2 SWAP1 POP SWAP3 SWAP2 POP POP JUMP JUMPDEST PUSH32 0x6361726100000000000000000000000000000000000000000000000000000000 PUSH1 0x0 DUP3 ADD MSTORE POP JUMP JUMPDEST PUSH1 0x0 PUSH2 0x2ACA PUSH1 0x4 DUP4 PUSH2 0x2A89 JUMP JUMPDEST SWAP2 POP PUSH2 0x2AD5 DUP3 PUSH2 0x2A94 JUMP JUMPDEST PUSH1 0x4 DUP3 ADD SWAP1 POP SWAP2 SWAP1 POP JUMP JUMPDEST PUSH1 0x0 PUSH2 0x2AEB DUP3 PUSH2 0x2ABD JUMP JUMPDEST SWAP2 POP DUP2 SWAP1 POP SWAP2 SWAP1 POP JUMP JUMPDEST PUSH1 0x0 PUSH2 0x2B00 DUP3 PUSH2 0x209C JUMP JUMPDEST SWAP2 POP PUSH2 0x2B0B DUP4 PUSH2 0x209C JUMP JUMPDEST SWAP3 POP DUP3 DUP3 MUL PUSH2 0x2B19 DUP2 PUSH2 0x209C JUMP JUMPDEST SWAP2 POP DUP3 DUP3 DIV DUP5 EQ DUP4 ISZERO OR PUSH2 0x2B30 JUMPI PUSH2 0x2B2F PUSH2 0x275B JUMP JUMPDEST JUMPDEST POP SWAP3 SWAP2 POP POP JUMP JUMPDEST PUSH32 0x4E487B7100000000000000000000000000000000000000000000000000000000 PUSH1 0x0 MSTORE PUSH1 0x12 PUSH1 0x4 MSTORE PUSH1 0x24 PUSH1 0x0 REVERT JUMPDEST PUSH1 0x0 PUSH2 0x2B71 DUP3 PUSH2 0x209C JUMP JUMPDEST SWAP2 POP PUSH2 0x2B7C DUP4 PUSH2 0x209C JUMP JUMPDEST SWAP3 POP DUP3 PUSH2 0x2B8C JUMPI PUSH2 0x2B8B PUSH2 0x2B37 JUMP JUMPDEST JUMPDEST DUP3 DUP3 DIV SWAP1 POP SWAP3 SWAP2 POP POP JUMP JUMPDEST PUSH32 0x636F726F61000000000000000000000000000000000000000000000000000000 PUSH1 0x0 DUP3 ADD MSTORE POP JUMP JUMPDEST PUSH1 0x0 PUSH2 0x2BCD PUSH1 0x5 DUP4 PUSH2 0x2A89 JUMP JUMPDEST SWAP2 POP PUSH2 0x2BD8 DUP3 PUSH2 0x2B97 JUMP JUMPDEST PUSH1 0x5 DUP3 ADD SWAP1 POP SWAP2 SWAP1 POP JUMP JUMPDEST PUSH1 0x0 PUSH2 0x2BEE DUP3 PUSH2 0x2BC0 JUMP JUMPDEST SWAP2 POP DUP2 SWAP1 POP SWAP2 SWAP1 POP JUMP JUMPDEST PUSH32 0x4E487B7100000000000000000000000000000000000000000000000000000000 PUSH1 0x0 MSTORE PUSH1 0x22 PUSH1 0x4 MSTORE PUSH1 0x24 PUSH1 0x0 REVERT JUMPDEST PUSH1 0x0 PUSH1 0x2 DUP3 DIV SWAP1 POP PUSH1 0x1 DUP3 AND DUP1 PUSH2 0x2C3F JUMPI PUSH1 0x7F DUP3 AND SWAP2 POP JUMPDEST PUSH1 0x20 DUP3 LT DUP2 SUB PUSH2 0x2C52 JUMPI PUSH2 0x2C51 PUSH2 0x2BF8 JUMP JUMPDEST JUMPDEST POP SWAP2 SWAP1 POP JUMP JUMPDEST PUSH1 0x0 DUP2 SWAP1 POP DUP2 PUSH1 0x0 MSTORE PUSH1 0x20 PUSH1 0x0 KECCAK256 SWAP1 POP SWAP2 SWAP1 POP JUMP JUMPDEST PUSH1 0x0 PUSH1 0x20 PUSH1 0x1F DUP4 ADD DIV SWAP1 POP SWAP2 SWAP1 POP JUMP JUMPDEST PUSH1 0x0 DUP3 DUP3 SHL SWAP1 POP SWAP3 SWAP2 POP POP JUMP JUMPDEST PUSH1 0x0 PUSH1 0x8 DUP4 MUL PUSH2 0x2CBA PUSH32 0xFFFFFFFFFFFFFFFFFFFFFFFFFFFFFFFFFFFFFFFFFFFFFFFFFFFFFFFFFFFFFFFF DUP3 PUSH2 0x2C7D JUMP JUMPDEST PUSH2 0x2CC4 DUP7 DUP4 PUSH2 0x2C7D JUMP JUMPDEST SWAP6 POP DUP1 NOT DUP5 AND SWAP4 POP DUP1 DUP7 AND DUP5 OR SWAP3 POP POP POP SWAP4 SWAP3 POP POP POP JUMP JUMPDEST PUSH1 0x0 DUP2 SWAP1 POP SWAP2 SWAP1 POP JUMP JUMPDEST PUSH1 0x0 PUSH2 0x2D01 PUSH2 0x2CFC PUSH2 0x2CF7 DUP5 PUSH2 0x209C JUMP JUMPDEST PUSH2 0x2CDC JUMP JUMPDEST PUSH2 0x209C JUMP JUMPDEST SWAP1 POP SWAP2 SWAP1 POP JUMP JUMPDEST PUSH1 0x0 DUP2 SWAP1 POP SWAP2 SWAP1 POP JUMP JUMPDEST PUSH2 0x2D1B DUP4 PUSH2 0x2CE6 JUMP JUMPDEST PUSH2 0x2D2F PUSH2 0x2D27 DUP3 PUSH2 0x2D08 JUMP JUMPDEST DUP5 DUP5 SLOAD PUSH2 0x2C8A JUMP JUMPDEST DUP3 SSTORE POP POP POP POP JUMP JUMPDEST PUSH1 0x0 SWAP1 JUMP JUMPDEST PUSH2 0x2D44 PUSH2 0x2D37 JUMP JUMPDEST PUSH2 0x2D4F DUP2 DUP5 DUP5 PUSH2 0x2D12 JUMP JUMPDEST POP POP POP JUMP JUMPDEST JUMPDEST DUP2 DUP2 LT ISZERO PUSH2 0x2D73 JUMPI PUSH2 0x2D68 PUSH1 0x0 DUP3 PUSH2 0x2D3C JUMP JUMPDEST PUSH1 0x1 DUP2 ADD SWAP1 POP PUSH2 0x2D55 JUMP JUMPDEST POP POP JUMP JUMPDEST PUSH1 0x1F DUP3 GT ISZERO PUSH2 0x2DB8 JUMPI PUSH2 0x2D89 DUP2 PUSH2 0x2C58 JUMP JUMPDEST PUSH2 0x2D92 DUP5 PUSH2 0x2C6D JUMP JUMPDEST DUP2 ADD PUSH1 0x20 DUP6 LT ISZERO PUSH2 0x2DA1 JUMPI DUP2 SWAP1 POP JUMPDEST PUSH2 0x2DB5 PUSH2 0x2DAD DUP6 PUSH2 0x2C6D JUMP JUMPDEST DUP4 ADD DUP3 PUSH2 0x2D54 JUMP JUMPDEST POP POP JUMPDEST POP POP POP JUMP JUMPDEST PUSH1 0x0 DUP3 DUP3 SHR SWAP1 POP SWAP3 SWAP2 POP POP JUMP JUMPDEST PUSH1 0x0 PUSH2 0x2DDB PUSH1 0x0 NOT DUP5 PUSH1 0x8 MUL PUSH2 0x2DBD JUMP JUMPDEST NOT DUP1 DUP4 AND SWAP2 POP POP SWAP3 SWAP2 POP POP JUMP JUMPDEST PUSH1 0x0 PUSH2 0x2DF4 DUP4 DUP4 PUSH2 0x2DCA JUMP JUMPDEST SWAP2 POP DUP3 PUSH1 0x2 MUL DUP3 OR SWAP1 POP SWAP3 SWAP2 POP POP JUMP JUMPDEST PUSH2 0x2E0D DUP3 PUSH2 0x21A4 JUMP JUMPDEST PUSH8 0xFFFFFFFFFFFFFFFF DUP2 GT ISZERO PUSH2 0x2E26 JUMPI PUSH2 0x2E25 PUSH2 0x23CE JUMP JUMPDEST JUMPDEST PUSH2 0x2E30 DUP3 SLOAD PUSH2 0x2C27 JUMP JUMPDEST PUSH2 0x2E3B DUP3 DUP3 DUP6 PUSH2 0x2D77 JUMP JUMPDEST PUSH1 0x0 PUSH1 0x20 SWAP1 POP PUSH1 0x1F DUP4 GT PUSH1 0x1 DUP2 EQ PUSH2 0x2E6E JUMPI PUSH1 0x0 DUP5 ISZERO PUSH2 0x2E5C JUMPI DUP3 DUP8 ADD MLOAD SWAP1 POP JUMPDEST PUSH2 0x2E66 DUP6 DUP3 PUSH2 0x2DE8 JUMP JUMPDEST DUP7 SSTORE POP PUSH2 0x2ECE JUMP JUMPDEST PUSH1 0x1F NOT DUP5 AND PUSH2 0x2E7C DUP7 PUSH2 0x2C58 JUMP JUMPDEST PUSH1 0x0 JUMPDEST DUP3 DUP2 LT ISZERO PUSH2 0x2EA4 JUMPI DUP5 DUP10 ADD MLOAD DUP3 SSTORE PUSH1 0x1 DUP3 ADD SWAP2 POP PUSH1 0x20 DUP6 ADD SWAP5 POP PUSH1 0x20 DUP2 ADD SWAP1 POP PUSH2 0x2E7F JUMP JUMPDEST DUP7 DUP4 LT ISZERO PUSH2 0x2EC1 JUMPI DUP5 DUP10 ADD MLOAD PUSH2 0x2EBD PUSH1 0x1F DUP10 AND DUP3 PUSH2 0x2DCA JUMP JUMPDEST DUP4 SSTORE POP JUMPDEST PUSH1 0x1 PUSH1 0x2 DUP9 MUL ADD DUP9 SSTORE POP POP POP JUMPDEST POP POP POP POP POP POP JUMP JUMPDEST PUSH1 0x0 PUSH1 0x60 DUP3 ADD SWAP1 POP PUSH2 0x2EEB PUSH1 0x0 DUP4 ADD DUP7 PUSH2 0x25C4 JUMP JUMPDEST PUSH2 0x2EF8 PUSH1 0x20 DUP4 ADD DUP6 PUSH2 0x2112 JUMP JUMPDEST DUP2 DUP2 SUB PUSH1 0x40 DUP4 ADD MSTORE PUSH2 0x2F0A DUP2 DUP5 PUSH2 0x25FF JUMP JUMPDEST SWAP1 POP SWAP5 SWAP4 POP POP POP POP JUMP JUMPDEST PUSH32 0x5265656E7472616E637920646574656374656420666F72207468697320657665 PUSH1 0x0 DUP3 ADD MSTORE PUSH32 0x6E74000000000000000000000000000000000000000000000000000000000000 PUSH1 0x20 DUP3 ADD MSTORE POP JUMP JUMPDEST PUSH1 0x0 PUSH2 0x2F70 PUSH1 0x22 DUP4 PUSH2 0x25EE JUMP JUMPDEST SWAP2 POP PUSH2 0x2F7B DUP3 PUSH2 0x2F14 JUMP JUMPDEST PUSH1 0x40 DUP3 ADD SWAP1 POP SWAP2 SWAP1 POP JUMP JUMPDEST PUSH1 0x0 PUSH1 0x20 DUP3 ADD SWAP1 POP DUP2 DUP2 SUB PUSH1 0x0 DUP4 ADD MSTORE PUSH2 0x2F9F DUP2 PUSH2 0x2F63 JUMP JUMPDEST SWAP1 POP SWAP2 SWAP1 POP JUMP JUMPDEST PUSH32 0x56616C6F722064612061706F737461206465766520736572206D61696F722071 PUSH1 0x0 DUP3 ADD MSTORE PUSH32 0x7565207A65726F00000000000000000000000000000000000000000000000000 PUSH1 0x20 DUP3 ADD MSTORE POP JUMP JUMPDEST PUSH1 0x0 PUSH2 0x3002 PUSH1 0x27 DUP4 PUSH2 0x25EE JUMP JUMPDEST SWAP2 POP PUSH2 0x300D DUP3 PUSH2 0x2FA6 JUMP JUMPDEST PUSH1 0x40 DUP3 ADD SWAP1 POP SWAP2 SWAP1 POP JUMP JUMPDEST PUSH1 0x0 PUSH1 0x20 DUP3 ADD SWAP1 POP DUP2 DUP2 SUB PUSH1 0x0 DUP4 ADD MSTORE PUSH2 0x3031 DUP2 PUSH2 0x2FF5 JUMP JUMPDEST SWAP1 POP SWAP2 SWAP1 POP JUMP JUMPDEST PUSH32 0x4A61207265616C697A6F7520756D612061706F73746100000000000000000000 PUSH1 0x0 DUP3 ADD MSTORE POP JUMP JUMPDEST PUSH1 0x0 PUSH2 0x306E PUSH1 0x16 DUP4 PUSH2 0x25EE JUMP JUMPDEST SWAP2 POP PUSH2 0x3079 DUP3 PUSH2 0x3038 JUMP JUMPDEST PUSH1 0x20 DUP3 ADD SWAP1 POP SWAP2 SWAP1 POP JUMP JUMPDEST PUSH1 0x0 PUSH1 0x20 DUP3 ADD SWAP1 POP DUP2 DUP2 SUB PUSH1 0x0 DUP4 ADD MSTORE PUSH2 0x309D DUP2 PUSH2 0x3061 JUMP JUMPDEST SWAP1 POP SWAP2 SWAP1 POP JUMP JUMPDEST PUSH32 0x53616C646F20696E737566696369656E7465206E612063617274656972610000 PUSH1 0x0 DUP3 ADD MSTORE POP JUMP JUMPDEST PUSH1 0x0 PUSH2 0x30DA PUSH1 0x1E DUP4 PUSH2 0x25EE JUMP JUMPDEST SWAP2 POP PUSH2 0x30E5 DUP3 PUSH2 0x30A4 JUMP JUMPDEST PUSH1 0x20 DUP3 ADD SWAP1 POP SWAP2 SWAP1 POP JUMP JUMPDEST PUSH1 0x0 PUSH1 0x20 DUP3 ADD SWAP1 POP DUP2 DUP2 SUB PUSH1 0x0 DUP4 ADD MSTORE PUSH2 0x3109 DUP2 PUSH2 0x30CD JUMP JUMPDEST SWAP1 POP SWAP2 SWAP1 POP JUMP JUMPDEST PUSH1 0x0 PUSH2 0x311B DUP3 PUSH2 0x21A4 JUMP JUMPDEST PUSH2 0x3125 DUP2 DUP6 PUSH2 0x2A89 JUMP JUMPDEST SWAP4 POP PUSH2 0x3135 DUP2 DUP6 PUSH1 0x20 DUP7 ADD PUSH2 0x21C0 JUMP JUMPDEST DUP1 DUP5 ADD SWAP2 POP POP SWAP3 SWAP2 POP POP JUMP JUMPDEST PUSH1 0x0 PUSH2 0x314D DUP3 DUP5 PUSH2 0x3110 JUMP JUMPDEST SWAP2 POP DUP2 SWAP1 POP SWAP3 SWAP2 POP POP JUMP JUMPDEST PUSH1 0x0 PUSH2 0x3163 DUP3 PUSH2 0x209C JUMP JUMPDEST SWAP2 POP PUSH32 0xFFFFFFFFFFFFFFFFFFFFFFFFFFFFFFFFFFFFFFFFFFFFFFFFFFFFFFFFFFFFFFFF DUP3 SUB PUSH2 0x3195 JUMPI PUSH2 0x3194 PUSH2 0x275B JUMP JUMPDEST JUMPDEST PUSH1 0x1 DUP3 ADD SWAP1 POP SWAP2 SWAP1 POP JUMP JUMPDEST PUSH1 0x0 PUSH1 0x80 DUP3 ADD SWAP1 POP PUSH2 0x31B5 PUSH1 0x0 DUP4 ADD DUP8 PUSH2 0x25C4 JUMP JUMPDEST PUSH2 0x31C2 PUSH1 0x20 DUP4 ADD DUP7 PUSH2 0x2112 JUMP JUMPDEST DUP2 DUP2 SUB PUSH1 0x40 DUP4 ADD MSTORE PUSH2 0x31D4 DUP2 DUP6 PUSH2 0x25FF JUMP JUMPDEST SWAP1 POP PUSH2 0x31E3 PUSH1 0x60 DUP4 ADD DUP5 PUSH2 0x2112 JUMP JUMPDEST SWAP6 SWAP5 POP POP POP POP POP JUMP JUMPDEST PUSH32 0x526573756C7461646F206A61207075626C696361646F00000000000000000000 PUSH1 0x0 DUP3 ADD MSTORE POP JUMP JUMPDEST PUSH1 0x0 PUSH2 0x3222 PUSH1 0x16 DUP4 PUSH2 0x25EE JUMP JUMPDEST SWAP2 POP PUSH2 0x322D DUP3 PUSH2 0x31EC JUMP JUMPDEST PUSH1 0x20 DUP3 ADD SWAP1 POP SWAP2 SWAP1 POP JUMP JUMPDEST PUSH1 0x0 PUSH1 0x20 DUP3 ADD SWAP1 POP DUP2 DUP2 SUB PUSH1 0x0 DUP4 ADD MSTORE PUSH2 0x3251 DUP2 PUSH2 0x3215 JUMP JUMPDEST SWAP1 POP SWAP2 SWAP1 POP JUMP JUMPDEST PUSH1 0x0 DUP2 SWAP1 POP SWAP2 SWAP1 POP JUMP JUMPDEST PUSH2 0x3273 PUSH2 0x326E DUP3 PUSH2 0x209C JUMP JUMPDEST PUSH2 0x3258 JUMP JUMPDEST DUP3 MSTORE POP POP JUMP JUMPDEST PUSH1 0x0 PUSH2 0x3285 DUP3 DUP7 PUSH2 0x3262 JUMP JUMPDEST PUSH1 0x20 DUP3 ADD SWAP2 POP PUSH2 0x3295 DUP3 DUP6 PUSH2 0x3262 JUMP JUMPDEST PUSH1 0x20 DUP3 ADD SWAP2 POP PUSH2 0x32A5 DUP3 DUP5 PUSH2 0x3262 JUMP JUMPDEST PUSH1 0x20 DUP3 ADD SWAP2 POP DUP2 SWAP1 POP SWAP5 SWAP4 POP POP POP POP JUMP JUMPDEST PUSH1 0x0 PUSH2 0x32C1 DUP3 PUSH2 0x209C JUMP JUMPDEST SWAP2 POP PUSH2 0x32CC DUP4 PUSH2 0x209C JUMP JUMPDEST SWAP3 POP DUP3 PUSH2 0x32DC JUMPI PUSH2 0x32DB PUSH2 0x2B37 JUMP JUMPDEST JUMPDEST DUP3 DUP3 MOD SWAP1 POP SWAP3 SWAP2 POP POP JUMP JUMPDEST PUSH1 0x0 DUP2 MLOAD SWAP1 POP SWAP2 SWAP1 POP JUMP JUMPDEST PUSH1 0x0 DUP3 DUP3 MSTORE PUSH1 0x20 DUP3 ADD SWAP1 POP SWAP3 SWAP2 POP POP JUMP JUMPDEST PUSH1 0x0 DUP2 SWAP1 POP PUSH1 0x20 DUP3 ADD SWAP1 POP SWAP2 SWAP1 POP JUMP JUMPDEST PUSH1 0x0 PUSH2 0x331F DUP4 DUP4 PUSH2 0x2234 JUMP JUMPDEST PUSH1 0x20 DUP4 ADD SWAP1 POP SWAP3 SWAP2 POP POP JUMP JUMPDEST PUSH1 0x0 PUSH1 0x20 DUP3 ADD SWAP1 POP SWAP2 SWAP1 POP JUMP JUMPDEST PUSH1 0x0 PUSH2 0x3343 DUP3 PUSH2 0x32E7 JUMP JUMPDEST PUSH2 0x334D DUP2 DUP6 PUSH2 0x32F2 JUMP JUMPDEST SWAP4 POP PUSH2 0x3358 DUP4 PUSH2 0x3303 JUMP JUMPDEST DUP1 PUSH1 0x0 JUMPDEST DUP4 DUP2 LT ISZERO PUSH2 0x3389 JUMPI DUP2 MLOAD PUSH2 0x3370 DUP9 DUP3 PUSH2 0x3313 JUMP JUMPDEST SWAP8 POP PUSH2 0x337B DUP4 PUSH2 0x332B JUMP JUMPDEST SWAP3 POP POP PUSH1 0x1 DUP2 ADD SWAP1 POP PUSH2 0x335C JUMP JUMPDEST POP DUP6 SWAP4 POP POP POP POP SWAP3 SWAP2 POP POP JUMP JUMPDEST PUSH1 0x0 DUP2 SLOAD PUSH2 0x33A3 DUP2 PUSH2 0x2C27 JUMP JUMPDEST PUSH2 0x33AD DUP2 DUP7 PUSH2 0x25EE JUMP JUMPDEST SWAP5 POP PUSH1 0x1 DUP3 AND PUSH1 0x0 DUP2 EQ PUSH2 0x33C8 JUMPI PUSH1 0x1 DUP2 EQ PUSH2 0x33DE JUMPI PUSH2 0x3411 JUMP JUMPDEST PUSH1 0xFF NOT DUP4 AND DUP7 MSTORE DUP2 ISZERO ISZERO PUSH1 0x20 MUL DUP7 ADD SWAP4 POP PUSH2 0x3411 JUMP JUMPDEST PUSH2 0x33E7 DUP6 PUSH2 0x2C58 JUMP JUMPDEST PUSH1 0x0 JUMPDEST DUP4 DUP2 LT ISZERO PUSH2 0x3409 JUMPI DUP2 SLOAD DUP2 DUP10 ADD MSTORE PUSH1 0x1 DUP3 ADD SWAP2 POP PUSH1 0x20 DUP2 ADD SWAP1 POP PUSH2 0x33EA JUMP JUMPDEST DUP1 DUP9 ADD SWAP6 POP POP POP JUMPDEST POP POP POP SWAP3 SWAP2 POP POP JUMP JUMPDEST PUSH1 0x0 PUSH1 0x80 DUP3 ADD SWAP1 POP PUSH2 0x342F PUSH1 0x0 DUP4 ADD DUP8 PUSH2 0x2112 JUMP JUMPDEST DUP2 DUP2 SUB PUSH1 0x20 DUP4 ADD MSTORE PUSH2 0x3441 DUP2 DUP7 PUSH2 0x25FF JUMP JUMPDEST SWAP1 POP DUP2 DUP2 SUB PUSH1 0x40 DUP4 ADD MSTORE PUSH2 0x3455 DUP2 DUP6 PUSH2 0x3338 JUMP JUMPDEST SWAP1 POP DUP2 DUP2 SUB PUSH1 0x60 DUP4 ADD MSTORE PUSH2 0x3469 DUP2 DUP5 PUSH2 0x3396 JUMP JUMPDEST SWAP1 POP SWAP6 SWAP5 POP POP POP POP POP JUMP JUMPDEST PUSH32 0x53656D2076656E6365646F7265732C206E61206C69737461207265656D626F6C PUSH1 0x0 DUP3 ADD MSTORE PUSH32 0x7361646F73000000000000000000000000000000000000000000000000000000 PUSH1 0x20 DUP3 ADD MSTORE POP JUMP JUMPDEST PUSH1 0x0 PUSH2 0x34D0 PUSH1 0x25 DUP4 PUSH2 0x25EE JUMP JUMPDEST SWAP2 POP PUSH2 0x34DB DUP3 PUSH2 0x3474 JUMP JUMPDEST PUSH1 0x40 DUP3 ADD SWAP1 POP SWAP2 SWAP1 POP JUMP JUMPDEST PUSH1 0x0 PUSH1 0x80 DUP3 ADD SWAP1 POP PUSH2 0x34FB PUSH1 0x0 DUP4 ADD DUP7 PUSH2 0x2112 JUMP JUMPDEST DUP2 DUP2 SUB PUSH1 0x20 DUP4 ADD MSTORE PUSH2 0x350C DUP2 PUSH2 0x34C3 JUMP JUMPDEST SWAP1 POP DUP2 DUP2 SUB PUSH1 0x40 DUP4 ADD MSTORE PUSH2 0x3520 DUP2 DUP6 PUSH2 0x3338 JUMP JUMPDEST SWAP1 POP DUP2 DUP2 SUB PUSH1 0x60 DUP4 ADD MSTORE PUSH2 0x3534 DUP2 DUP5 PUSH2 0x3396 JUMP JUMPDEST SWAP1 POP SWAP5 SWAP4 POP POP POP POP JUMP INVALID LOG2 PUSH5 0x6970667358 0x22 SLT KECCAK256 0xD6 SDIV 0xBF SWAP3 0x4B 0xED DUP13 SELFDESTRUCT MLOAD 0xA9 0xD9 0xC3 CALL 0xD3 0x4E GT MSIZE 0x4F SWAP11 PUSH4 0xA62FA8C0 0xCE 0x27 JUMPDEST LOG0 CODECOPY JUMPDEST 0xE3 0xDC PUSH5 0x736F6C6343 STOP ADDMOD SHL STOP CALLER "
        },
        "methodIdentifiers": {
          "apostar(uint256,string,uint256)": "e48d6cb7",
          "bets(address,uint256)": "4a39ec90",
          "carteiras(address)": "c98c92c8",
          "criarNovaAposta(string,uint256)": "ce811031",
          "depositar()": "3d922f90",
          "dono_contrato()": "f60dac9c",
          "getApostasAbertas()": "ec28f08e",
          "getMinhasApostas()": "a9889855",
          "listaDeApostas(uint256)": "fd05dcab",
          "resultado(uint256)": "7f4c4019",
          "sacar(uint256)": "7371b0d6"
        }
      }
    }
  }
}